{
  "contractName": "AccessControlEnumerableMock",
  "abi": [
    {
      "inputs": [],
      "stateMutability": "nonpayable",
      "type": "constructor"
    },
    {
      "anonymous": false,
      "inputs": [
        {
          "indexed": true,
          "internalType": "bytes32",
          "name": "role",
          "type": "bytes32"
        },
        {
          "indexed": true,
          "internalType": "bytes32",
          "name": "previousAdminRole",
          "type": "bytes32"
        },
        {
          "indexed": true,
          "internalType": "bytes32",
          "name": "newAdminRole",
          "type": "bytes32"
        }
      ],
      "name": "RoleAdminChanged",
      "type": "event"
    },
    {
      "anonymous": false,
      "inputs": [
        {
          "indexed": true,
          "internalType": "bytes32",
          "name": "role",
          "type": "bytes32"
        },
        {
          "indexed": true,
          "internalType": "address",
          "name": "account",
          "type": "address"
        },
        {
          "indexed": true,
          "internalType": "address",
          "name": "sender",
          "type": "address"
        }
      ],
      "name": "RoleGranted",
      "type": "event"
    },
    {
      "anonymous": false,
      "inputs": [
        {
          "indexed": true,
          "internalType": "bytes32",
          "name": "role",
          "type": "bytes32"
        },
        {
          "indexed": true,
          "internalType": "address",
          "name": "account",
          "type": "address"
        },
        {
          "indexed": true,
          "internalType": "address",
          "name": "sender",
          "type": "address"
        }
      ],
      "name": "RoleRevoked",
      "type": "event"
    },
    {
      "inputs": [],
      "name": "DEFAULT_ADMIN_ROLE",
      "outputs": [
        {
          "internalType": "bytes32",
          "name": "",
          "type": "bytes32"
        }
      ],
      "stateMutability": "view",
      "type": "function"
    },
    {
      "inputs": [
        {
          "internalType": "bytes32",
          "name": "role",
          "type": "bytes32"
        }
      ],
      "name": "getRoleAdmin",
      "outputs": [
        {
          "internalType": "bytes32",
          "name": "",
          "type": "bytes32"
        }
      ],
      "stateMutability": "view",
      "type": "function"
    },
    {
      "inputs": [
        {
          "internalType": "bytes32",
          "name": "role",
          "type": "bytes32"
        },
        {
          "internalType": "uint256",
          "name": "index",
          "type": "uint256"
        }
      ],
      "name": "getRoleMember",
      "outputs": [
        {
          "internalType": "address",
          "name": "",
          "type": "address"
        }
      ],
      "stateMutability": "view",
      "type": "function"
    },
    {
      "inputs": [
        {
          "internalType": "bytes32",
          "name": "role",
          "type": "bytes32"
        }
      ],
      "name": "getRoleMemberCount",
      "outputs": [
        {
          "internalType": "uint256",
          "name": "",
          "type": "uint256"
        }
      ],
      "stateMutability": "view",
      "type": "function"
    },
    {
      "inputs": [
        {
          "internalType": "bytes32",
          "name": "role",
          "type": "bytes32"
        },
        {
          "internalType": "address",
          "name": "account",
          "type": "address"
        }
      ],
      "name": "grantRole",
      "outputs": [],
      "stateMutability": "nonpayable",
      "type": "function"
    },
    {
      "inputs": [
        {
          "internalType": "bytes32",
          "name": "role",
          "type": "bytes32"
        },
        {
          "internalType": "address",
          "name": "account",
          "type": "address"
        }
      ],
      "name": "hasRole",
      "outputs": [
        {
          "internalType": "bool",
          "name": "",
          "type": "bool"
        }
      ],
      "stateMutability": "view",
      "type": "function"
    },
    {
      "inputs": [
        {
          "internalType": "bytes32",
          "name": "role",
          "type": "bytes32"
        },
        {
          "internalType": "address",
          "name": "account",
          "type": "address"
        }
      ],
      "name": "renounceRole",
      "outputs": [],
      "stateMutability": "nonpayable",
      "type": "function"
    },
    {
      "inputs": [
        {
          "internalType": "bytes32",
          "name": "role",
          "type": "bytes32"
        },
        {
          "internalType": "address",
          "name": "account",
          "type": "address"
        }
      ],
      "name": "revokeRole",
      "outputs": [],
      "stateMutability": "nonpayable",
      "type": "function"
    },
    {
      "inputs": [
        {
          "internalType": "bytes4",
          "name": "interfaceId",
          "type": "bytes4"
        }
      ],
      "name": "supportsInterface",
      "outputs": [
        {
          "internalType": "bool",
          "name": "",
          "type": "bool"
        }
      ],
      "stateMutability": "view",
      "type": "function"
    },
    {
      "inputs": [
        {
          "internalType": "bytes32",
          "name": "roleId",
          "type": "bytes32"
        },
        {
          "internalType": "bytes32",
          "name": "adminRoleId",
          "type": "bytes32"
        }
      ],
      "name": "setRoleAdmin",
      "outputs": [],
      "stateMutability": "nonpayable",
      "type": "function"
    },
    {
      "inputs": [
        {
          "internalType": "bytes32",
          "name": "roleId",
          "type": "bytes32"
        }
      ],
      "name": "senderProtected",
      "outputs": [],
      "stateMutability": "nonpayable",
      "type": "function"
    }
  ],
  "bytecode": "0x60806040523480156200001157600080fd5b50620000366000801b6200002a6200003c60201b60201c565b6200004460201b60201c565b620002d2565b600033905090565b6200005b82826200008c60201b620004651760201c565b620000878160016000858152602001908152602001600020620000a260201b620004731790919060201c565b505050565b6200009e8282620000da60201b60201c565b5050565b6000620000d2836000018373ffffffffffffffffffffffffffffffffffffffff1660001b620001cb60201b60201c565b905092915050565b620000ec82826200024560201b60201c565b620001c757600160008084815260200190815260200160002060000160008373ffffffffffffffffffffffffffffffffffffffff1673ffffffffffffffffffffffffffffffffffffffff16815260200190815260200160002060006101000a81548160ff0219169083151502179055506200016c6200003c60201b60201c565b73ffffffffffffffffffffffffffffffffffffffff168173ffffffffffffffffffffffffffffffffffffffff16837f2f8788117e7eff1d82e926ec794901d17c78024a50270940304540a733656f0d60405160405180910390a45b5050565b6000620001df8383620002af60201b60201c565b6200023a5782600001829080600181540180825580915050600190039060005260206000200160009091909190915055826000018054905083600101600084815260200190815260200160002081905550600190506200023f565b600090505b92915050565b600080600084815260200190815260200160002060000160008373ffffffffffffffffffffffffffffffffffffffff1673ffffffffffffffffffffffffffffffffffffffff16815260200190815260200160002060009054906101000a900460ff16905092915050565b600080836001016000848152602001908152602001600020541415905092915050565b61160180620002e26000396000f3fe608060405234801561001057600080fd5b50600436106100a95760003560e01c80634b9304a4116100715780634b9304a4146101625780639010d07c1461017e57806391d14854146101ae578063a217fddf146101de578063ca15c873146101fc578063d547741f1461022c576100a9565b806301ffc9a7146100ae5780631e4e0091146100de578063248a9ca3146100fa5780632f2ff15d1461012a57806336568abe14610146575b600080fd5b6100c860048036038101906100c3919061101c565b610248565b6040516100d591906111cc565b60405180910390f35b6100f860048036038101906100f39190610fa4565b6102c2565b005b610114600480360381019061010f9190610f3f565b6102d0565b60405161012191906111e7565b60405180910390f35b610144600480360381019061013f9190610f68565b6102ef565b005b610160600480360381019061015b9190610f68565b610323565b005b61017c60048036038101906101779190610f3f565b610357565b005b61019860048036038101906101939190610fe0565b61036d565b6040516101a591906111b1565b60405180910390f35b6101c860048036038101906101c39190610f68565b61039c565b6040516101d591906111cc565b60405180910390f35b6101e6610406565b6040516101f391906111e7565b60405180910390f35b61021660048036038101906102119190610f3f565b61040d565b6040516102239190611264565b60405180910390f35b61024660048036038101906102419190610f68565b610431565b005b60007f5a05180f000000000000000000000000000000000000000000000000000000007bffffffffffffffffffffffffffffffffffffffffffffffffffffffff1916827bffffffffffffffffffffffffffffffffffffffffffffffffffffffff191614806102bb57506102ba826104a3565b5b9050919050565b6102cc828261051d565b5050565b6000806000838152602001908152602001600020600101549050919050565b6102f98282610572565b61031e816001600085815260200190815260200160002061047390919063ffffffff16565b505050565b61032d828261059b565b610352816001600085815260200190815260200160002061061e90919063ffffffff16565b505050565b806103698161036461064e565b610656565b5050565b600061039482600160008681526020019081526020016000206106f390919063ffffffff16565b905092915050565b600080600084815260200190815260200160002060000160008373ffffffffffffffffffffffffffffffffffffffff1673ffffffffffffffffffffffffffffffffffffffff16815260200190815260200160002060009054906101000a900460ff16905092915050565b6000801b81565b600061042a6001600084815260200190815260200160002061070d565b9050919050565b61043b8282610722565b610460816001600085815260200190815260200160002061061e90919063ffffffff16565b505050565b61046f828261074b565b5050565b600061049b836000018373ffffffffffffffffffffffffffffffffffffffff1660001b61082b565b905092915050565b60007f7965db0b000000000000000000000000000000000000000000000000000000007bffffffffffffffffffffffffffffffffffffffffffffffffffffffff1916827bffffffffffffffffffffffffffffffffffffffffffffffffffffffff1916148061051657506105158261089b565b5b9050919050565b80610527836102d0565b837fbd79b86ffe0ab8e8776151514217cd7cacd52c909f66475c3af44e129f0b00ff60405160405180910390a480600080848152602001908152602001600020600101819055505050565b61057b826102d0565b61058c8161058761064e565b610656565b610596838361074b565b505050565b6105a361064e565b73ffffffffffffffffffffffffffffffffffffffff168173ffffffffffffffffffffffffffffffffffffffff1614610610576040517f08c379a000000000000000000000000000000000000000000000000000000000815260040161060790611244565b60405180910390fd5b61061a8282610905565b5050565b6000610646836000018373ffffffffffffffffffffffffffffffffffffffff1660001b6109e6565b905092915050565b600033905090565b610660828261039c565b6106ef576106858173ffffffffffffffffffffffffffffffffffffffff166014610b6c565b6106938360001c6020610b6c565b6040516020016106a4929190611177565b6040516020818303038152906040526040517f08c379a00000000000000000000000000000000000000000000000000000000081526004016106e69190611202565b60405180910390fd5b5050565b60006107028360000183610e66565b60001c905092915050565b600061071b82600001610eb7565b9050919050565b61072b826102d0565b61073c8161073761064e565b610656565b6107468383610905565b505050565b610755828261039c565b61082757600160008084815260200190815260200160002060000160008373ffffffffffffffffffffffffffffffffffffffff1673ffffffffffffffffffffffffffffffffffffffff16815260200190815260200160002060006101000a81548160ff0219169083151502179055506107cc61064e565b73ffffffffffffffffffffffffffffffffffffffff168173ffffffffffffffffffffffffffffffffffffffff16837f2f8788117e7eff1d82e926ec794901d17c78024a50270940304540a733656f0d60405160405180910390a45b5050565b60006108378383610ec8565b610890578260000182908060018154018082558091505060019003906000526020600020016000909190919091505582600001805490508360010160008481526020019081526020016000208190555060019050610895565b600090505b92915050565b60007f01ffc9a7000000000000000000000000000000000000000000000000000000007bffffffffffffffffffffffffffffffffffffffffffffffffffffffff1916827bffffffffffffffffffffffffffffffffffffffffffffffffffffffff1916149050919050565b61090f828261039c565b156109e257600080600084815260200190815260200160002060000160008373ffffffffffffffffffffffffffffffffffffffff1673ffffffffffffffffffffffffffffffffffffffff16815260200190815260200160002060006101000a81548160ff02191690831515021790555061098761064e565b73ffffffffffffffffffffffffffffffffffffffff168173ffffffffffffffffffffffffffffffffffffffff16837ff6391f5c32d9c69d2a47ea670b442974b53935d1edc7fd64eb21e047a839171b60405160405180910390a45b5050565b60008083600101600084815260200190815260200160002054905060008114610b60576000600182610a189190611356565b9050600060018660000180549050610a309190611356565b9050818114610aeb576000866000018281548110610a77577f4e487b7100000000000000000000000000000000000000000000000000000000600052603260045260246000fd5b9060005260206000200154905080876000018481548110610ac1577f4e487b7100000000000000000000000000000000000000000000000000000000600052603260045260246000fd5b90600052602060002001819055508387600101600083815260200190815260200160002081905550505b85600001805480610b25577f4e487b7100000000000000000000000000000000000000000000000000000000600052603160045260246000fd5b600190038181906000526020600020016000905590558560010160008681526020019081526020016000206000905560019350505050610b66565b60009150505b92915050565b606060006002836002610b7f91906112fc565b610b8991906112a6565b67ffffffffffffffff811115610bc8577f4e487b7100000000000000000000000000000000000000000000000000000000600052604160045260246000fd5b6040519080825280601f01601f191660200182016040528015610bfa5781602001600182028036833780820191505090505b5090507f300000000000000000000000000000000000000000000000000000000000000081600081518110610c58577f4e487b7100000000000000000000000000000000000000000000000000000000600052603260045260246000fd5b60200101907effffffffffffffffffffffffffffffffffffffffffffffffffffffffffffff1916908160001a9053507f780000000000000000000000000000000000000000000000000000000000000081600181518110610ce2577f4e487b7100000000000000000000000000000000000000000000000000000000600052603260045260246000fd5b60200101907effffffffffffffffffffffffffffffffffffffffffffffffffffffffffffff1916908160001a90535060006001846002610d2291906112fc565b610d2c91906112a6565b90505b6001811115610e18577f3031323334353637383961626364656600000000000000000000000000000000600f861660108110610d94577f4e487b7100000000000000000000000000000000000000000000000000000000600052603260045260246000fd5b1a60f81b828281518110610dd1577f4e487b7100000000000000000000000000000000000000000000000000000000600052603260045260246000fd5b60200101907effffffffffffffffffffffffffffffffffffffffffffffffffffffffffffff1916908160001a905350600485901c945080610e119061143b565b9050610d2f565b5060008414610e5c576040517f08c379a0000000000000000000000000000000000000000000000000000000008152600401610e5390611224565b60405180910390fd5b8091505092915050565b6000826000018281548110610ea4577f4e487b7100000000000000000000000000000000000000000000000000000000600052603260045260246000fd5b9060005260206000200154905092915050565b600081600001805490509050919050565b600080836001016000848152602001908152602001600020541415905092915050565b600081359050610efa8161156f565b92915050565b600081359050610f0f81611586565b92915050565b600081359050610f248161159d565b92915050565b600081359050610f39816115b4565b92915050565b600060208284031215610f5157600080fd5b6000610f5f84828501610f00565b91505092915050565b60008060408385031215610f7b57600080fd5b6000610f8985828601610f00565b9250506020610f9a85828601610eeb565b9150509250929050565b60008060408385031215610fb757600080fd5b6000610fc585828601610f00565b9250506020610fd685828601610f00565b9150509250929050565b60008060408385031215610ff357600080fd5b600061100185828601610f00565b925050602061101285828601610f2a565b9150509250929050565b60006020828403121561102e57600080fd5b600061103c84828501610f15565b91505092915050565b61104e8161138a565b82525050565b61105d8161139c565b82525050565b61106c816113a8565b82525050565b600061107d8261127f565b611087818561128a565b9350611097818560208601611408565b6110a081611494565b840191505092915050565b60006110b68261127f565b6110c0818561129b565b93506110d0818560208601611408565b80840191505092915050565b60006110e960208361128a565b91506110f4826114a5565b602082019050919050565b600061110c60178361129b565b9150611117826114ce565b601782019050919050565b600061112f60118361129b565b915061113a826114f7565b601182019050919050565b6000611152602f8361128a565b915061115d82611520565b604082019050919050565b611171816113fe565b82525050565b6000611182826110ff565b915061118e82856110ab565b915061119982611122565b91506111a582846110ab565b91508190509392505050565b60006020820190506111c66000830184611045565b92915050565b60006020820190506111e16000830184611054565b92915050565b60006020820190506111fc6000830184611063565b92915050565b6000602082019050818103600083015261121c8184611072565b905092915050565b6000602082019050818103600083015261123d816110dc565b9050919050565b6000602082019050818103600083015261125d81611145565b9050919050565b60006020820190506112796000830184611168565b92915050565b600081519050919050565b600082825260208201905092915050565b600081905092915050565b60006112b1826113fe565b91506112bc836113fe565b9250827fffffffffffffffffffffffffffffffffffffffffffffffffffffffffffffffff038211156112f1576112f0611465565b5b828201905092915050565b6000611307826113fe565b9150611312836113fe565b9250817fffffffffffffffffffffffffffffffffffffffffffffffffffffffffffffffff048311821515161561134b5761134a611465565b5b828202905092915050565b6000611361826113fe565b915061136c836113fe565b92508282101561137f5761137e611465565b5b828203905092915050565b6000611395826113de565b9050919050565b60008115159050919050565b6000819050919050565b60007fffffffff0000000000000000000000000000000000000000000000000000000082169050919050565b600073ffffffffffffffffffffffffffffffffffffffff82169050919050565b6000819050919050565b60005b8381101561142657808201518184015260208101905061140b565b83811115611435576000848401525b50505050565b6000611446826113fe565b9150600082141561145a57611459611465565b5b600182039050919050565b7f4e487b7100000000000000000000000000000000000000000000000000000000600052601160045260246000fd5b6000601f19601f8301169050919050565b7f537472696e67733a20686578206c656e67746820696e73756666696369656e74600082015250565b7f416363657373436f6e74726f6c3a206163636f756e7420000000000000000000600082015250565b7f206973206d697373696e6720726f6c6520000000000000000000000000000000600082015250565b7f416363657373436f6e74726f6c3a2063616e206f6e6c792072656e6f756e636560008201527f20726f6c657320666f722073656c660000000000000000000000000000000000602082015250565b6115788161138a565b811461158357600080fd5b50565b61158f816113a8565b811461159a57600080fd5b50565b6115a6816113b2565b81146115b157600080fd5b50565b6115bd816113fe565b81146115c857600080fd5b5056fea26469706673582212204427cbd36e5c38903cad9719e831b20d7e15e14c8cf4b7aefc8cdb0c70b993b264736f6c63430008030033",
  "immutableReferences": {},
  "source": "// SPDX-License-Identifier: MIT\r\n\r\npragma solidity ^0.8.0;\r\n\r\nimport \"../access/AccessControlEnumerable.sol\";\r\n\r\ncontract AccessControlEnumerableMock is AccessControlEnumerable {\r\n    constructor() {\r\n        _setupRole(DEFAULT_ADMIN_ROLE, _msgSender());\r\n    }\r\n\r\n    function setRoleAdmin(bytes32 roleId, bytes32 adminRoleId) public {\r\n        _setRoleAdmin(roleId, adminRoleId);\r\n    }\r\n\r\n    function senderProtected(bytes32 roleId) public onlyRole(roleId) {}\r\n}\r\n",
  "sourcePath": "D:/Code/NFTrees/contracts/OpenZepplin/mocks/AccessControlEnumerableMock.sol",
  "compiler": {
    "name": "solc",
    "version": "0.8.3+commit.8d00100c.Emscripten.clang"
  },
  "schemaVersion": "3.4.1",
  "updatedAt": "2021-05-22T22:20:34.675Z",
  "devdoc": {
    "kind": "dev",
    "methods": {
      "getRoleAdmin(bytes32)": {
        "details": "Returns the admin role that controls `role`. See {grantRole} and {revokeRole}. To change a role's admin, use {_setRoleAdmin}."
      },
      "getRoleMember(bytes32,uint256)": {
        "details": "Returns one of the accounts that have `role`. `index` must be a value between 0 and {getRoleMemberCount}, non-inclusive. Role bearers are not sorted in any particular way, and their ordering may change at any point. WARNING: When using {getRoleMember} and {getRoleMemberCount}, make sure you perform all queries on the same block. See the following https://forum.openzeppelin.com/t/iterating-over-elements-on-enumerableset-in-openzeppelin-contracts/2296[forum post] for more information."
      },
      "getRoleMemberCount(bytes32)": {
        "details": "Returns the number of accounts that have `role`. Can be used together with {getRoleMember} to enumerate all bearers of a role."
      },
      "grantRole(bytes32,address)": {
        "details": "Overload {grantRole} to track enumerable memberships"
      },
      "hasRole(bytes32,address)": {
        "details": "Returns `true` if `account` has been granted `role`."
      },
      "renounceRole(bytes32,address)": {
        "details": "Overload {renounceRole} to track enumerable memberships"
      },
      "revokeRole(bytes32,address)": {
        "details": "Overload {revokeRole} to track enumerable memberships"
      },
      "supportsInterface(bytes4)": {
        "details": "See {IERC165-supportsInterface}."
      }
    },
    "version": 1
  },
  "userdoc": {
    "kind": "user",
    "methods": {},
    "version": 1
  }
}