{
  "contractName": "ArraysImpl",
  "abi": [
    {
      "inputs": [
        {
          "internalType": "uint256[]",
          "name": "array",
          "type": "uint256[]"
        }
      ],
      "stateMutability": "nonpayable",
      "type": "constructor"
    },
    {
      "inputs": [
        {
          "internalType": "uint256",
          "name": "element",
          "type": "uint256"
        }
      ],
      "name": "findUpperBound",
      "outputs": [
        {
          "internalType": "uint256",
          "name": "",
          "type": "uint256"
        }
      ],
      "stateMutability": "view",
      "type": "function"
    }
  ],
  "bytecode": "0x608060405234801561001057600080fd5b506040516106aa3803806106aa83398181016040528101906100329190610164565b806000908051906020019061004892919061004f565b5050610288565b82805482825590600052602060002090810192821561008b579160200282015b8281111561008a57825182559160200191906001019061006f565b5b509050610098919061009c565b5090565b5b808211156100b557600081600090555060010161009d565b5090565b60006100cc6100c7846101ca565b6101a5565b905080838252602082019050828560208602820111156100eb57600080fd5b60005b8581101561011b5781610101888261014f565b8452602084019350602083019250506001810190506100ee565b5050509392505050565b600082601f83011261013657600080fd5b81516101468482602086016100b9565b91505092915050565b60008151905061015e81610271565b92915050565b60006020828403121561017657600080fd5b600082015167ffffffffffffffff81111561019057600080fd5b61019c84828501610125565b91505092915050565b60006101af6101c0565b90506101bb8282610200565b919050565b6000604051905090565b600067ffffffffffffffff8211156101e5576101e4610231565b5b602082029050602081019050919050565b6000819050919050565b61020982610260565b810181811067ffffffffffffffff8211171561022857610227610231565b5b80604052505050565b7f4e487b7100000000000000000000000000000000000000000000000000000000600052604160045260246000fd5b6000601f19601f8301169050919050565b61027a816101f6565b811461028557600080fd5b50565b610413806102976000396000f3fe608060405234801561001057600080fd5b506004361061002b5760003560e01c806333e3a58a14610030575b600080fd5b61004a6004803603810190610045919061021f565b610060565b6040516100579190610257565b60405180910390f35b600061007682600061007d90919063ffffffff16565b9050919050565b60008083805490501415610094576000905061019d565b600080848054905090505b8082101561011e5760006100b383836101a3565b9050848682815481106100ef577f4e487b7100000000000000000000000000000000000000000000000000000000600052603260045260246000fd5b9060005260206000200154111561010857809150610118565b6001816101159190610272565b92505b5061009f565b60008211801561017c5750838560018461013891906102f9565b8154811061016f577f4e487b7100000000000000000000000000000000000000000000000000000000600052603260045260246000fd5b9060005260206000200154145b156101975760018261018e91906102f9565b9250505061019d565b81925050505b92915050565b6000600280836101b39190610337565b6002856101c09190610337565b6101ca9190610272565b6101d491906102c8565b6002836101e191906102c8565b6002856101ee91906102c8565b6101f89190610272565b6102029190610272565b905092915050565b600081359050610219816103c6565b92915050565b60006020828403121561023157600080fd5b600061023f8482850161020a565b91505092915050565b6102518161032d565b82525050565b600060208201905061026c6000830184610248565b92915050565b600061027d8261032d565b91506102888361032d565b9250827fffffffffffffffffffffffffffffffffffffffffffffffffffffffffffffffff038211156102bd576102bc610368565b5b828201905092915050565b60006102d38261032d565b91506102de8361032d565b9250826102ee576102ed610397565b5b828204905092915050565b60006103048261032d565b915061030f8361032d565b92508282101561032257610321610368565b5b828203905092915050565b6000819050919050565b60006103428261032d565b915061034d8361032d565b92508261035d5761035c610397565b5b828206905092915050565b7f4e487b7100000000000000000000000000000000000000000000000000000000600052601160045260246000fd5b7f4e487b7100000000000000000000000000000000000000000000000000000000600052601260045260246000fd5b6103cf8161032d565b81146103da57600080fd5b5056fea2646970667358221220922e2eed9d1e73c83163b07e896d082e746a96fa81cb7eaed112052e0b8c20a864736f6c63430008030033",
  "immutableReferences": {},
  "source": "// SPDX-License-Identifier: MIT\n\npragma solidity ^0.8.0;\n\nimport \"../utils/Arrays.sol\";\n\ncontract ArraysImpl {\n    using Arrays for uint256[];\n\n    uint256[] private _array;\n\n    constructor (uint256[] memory array) {\n        _array = array;\n    }\n\n    function findUpperBound(uint256 element) external view returns (uint256) {\n        return _array.findUpperBound(element);\n    }\n}\n",
  "sourcePath": "/Users/brendanmorrison/Code/Nftrees/contracts/OpenZepplin/mocks/ArraysImpl.sol",
  "compiler": {
    "name": "solc",
    "version": "0.8.3+commit.8d00100c.Emscripten.clang"
  },
  "schemaVersion": "3.3.4",
  "updatedAt": "2021-05-19T17:43:05.120Z",
  "devdoc": {
    "kind": "dev",
    "methods": {},
    "version": 1
  },
  "userdoc": {
    "kind": "user",
    "methods": {},
    "version": 1
  }
}