{
  "contractName": "CallReceiverMock",
  "abi": [
    {
      "anonymous": false,
      "inputs": [],
      "name": "MockFunctionCalled",
      "type": "event"
    },
    {
      "inputs": [],
      "name": "sharedAnswer",
      "outputs": [
        {
          "internalType": "string",
          "name": "",
          "type": "string"
        }
      ],
      "stateMutability": "view",
      "type": "function"
    },
    {
      "inputs": [],
      "name": "mockFunction",
      "outputs": [
        {
          "internalType": "string",
          "name": "",
          "type": "string"
        }
      ],
      "stateMutability": "payable",
      "type": "function"
    },
    {
      "inputs": [],
      "name": "mockFunctionNonPayable",
      "outputs": [
        {
          "internalType": "string",
          "name": "",
          "type": "string"
        }
      ],
      "stateMutability": "nonpayable",
      "type": "function"
    },
    {
      "inputs": [],
      "name": "mockStaticFunction",
      "outputs": [
        {
          "internalType": "string",
          "name": "",
          "type": "string"
        }
      ],
      "stateMutability": "pure",
      "type": "function"
    },
    {
      "inputs": [],
      "name": "mockFunctionRevertsNoReason",
      "outputs": [],
      "stateMutability": "payable",
      "type": "function"
    },
    {
      "inputs": [],
      "name": "mockFunctionRevertsReason",
      "outputs": [],
      "stateMutability": "payable",
      "type": "function"
    },
    {
      "inputs": [],
      "name": "mockFunctionThrows",
      "outputs": [],
      "stateMutability": "payable",
      "type": "function"
    },
    {
      "inputs": [],
      "name": "mockFunctionOutOfGas",
      "outputs": [],
      "stateMutability": "payable",
      "type": "function"
    },
    {
      "inputs": [],
      "name": "mockFunctionWritesStorage",
      "outputs": [
        {
          "internalType": "string",
          "name": "",
          "type": "string"
        }
      ],
      "stateMutability": "nonpayable",
      "type": "function"
    }
  ],
  "bytecode": "0x608060405234801561001057600080fd5b5061073a806100206000396000f3fe6080604052600436106100865760003560e01c80633e6fec04116100595780633e6fec04146100d4578063a793ab47146100f2578063aa04f77e146100fc578063c8fc769614610127578063fc40cf731461015257610086565b80630c0349681461008b5780630f63e42c146100955780632c81d638146100c05780633bcfaa14146100ca575b600080fd5b61009361017d565b005b3480156100a157600080fd5b506100aa6101b8565b6040516100b79190610556565b60405180910390f35b6100c8610221565b005b6100d2610226565b005b6100dc61025d565b6040516100e99190610556565b60405180910390f35b6100fa6102c6565b005b34801561010857600080fd5b50610111610303565b60405161011e9190610556565b60405180910390f35b34801561013357600080fd5b5061013c61038c565b6040516101499190610556565b60405180910390f35b34801561015e57600080fd5b506101676103c9565b6040516101749190610556565b60405180910390f35b6040517f08c379a00000000000000000000000000000000000000000000000000000000081526004016101af90610578565b60405180910390fd5b60607f52c66ed6ec9ca819cba26fe2b2650059270d8981b295af300187a964f54a8c2360405160405180910390a16040518060400160405280600681526020017f3078313233340000000000000000000000000000000000000000000000000000815250905090565b600080fd5b600061025b577f4e487b7100000000000000000000000000000000000000000000000000000000600052600160045260246000fd5b565b60607f52c66ed6ec9ca819cba26fe2b2650059270d8981b295af300187a964f54a8c2360405160405180910390a16040518060400160405280600681526020017f3078313233340000000000000000000000000000000000000000000000000000815250905090565b60005b6001819080600181540180825580915050600190039060005260206000200160009091909190915055806102fc90610623565b90506102c9565b60606040518060400160405280600281526020017f343200000000000000000000000000000000000000000000000000000000000081525060009080519060200190610350929190610457565b506040518060400160405280600681526020017f3078313233340000000000000000000000000000000000000000000000000000815250905090565b60606040518060400160405280600681526020017f3078313233340000000000000000000000000000000000000000000000000000815250905090565b600080546103d6906105f1565b80601f0160208091040260200160405190810160405280929190818152602001828054610402906105f1565b801561044f5780601f106104245761010080835404028352916020019161044f565b820191906000526020600020905b81548152906001019060200180831161043257829003601f168201915b505050505081565b828054610463906105f1565b90600052602060002090601f01602090048101928261048557600085556104cc565b82601f1061049e57805160ff19168380011785556104cc565b828001600101855582156104cc579182015b828111156104cb5782518255916020019190600101906104b0565b5b5090506104d991906104dd565b5090565b5b808211156104f65760008160009055506001016104de565b5090565b600061050582610598565b61050f81856105a3565b935061051f8185602086016105be565b610528816106ca565b840191505092915050565b6000610540601b836105a3565b915061054b826106db565b602082019050919050565b6000602082019050818103600083015261057081846104fa565b905092915050565b6000602082019050818103600083015261059181610533565b9050919050565b600081519050919050565b600082825260208201905092915050565b6000819050919050565b60005b838110156105dc5780820151818401526020810190506105c1565b838111156105eb576000848401525b50505050565b6000600282049050600182168061060957607f821691505b6020821081141561061d5761061c61069b565b5b50919050565b600061062e826105b4565b91507fffffffffffffffffffffffffffffffffffffffffffffffffffffffffffffffff8214156106615761066061066c565b5b600182019050919050565b7f4e487b7100000000000000000000000000000000000000000000000000000000600052601160045260246000fd5b7f4e487b7100000000000000000000000000000000000000000000000000000000600052602260045260246000fd5b6000601f19601f8301169050919050565b7f43616c6c52656365697665724d6f636b3a20726576657274696e67000000000060008201525056fea26469706673582212208f814ec6dae1b2f92dda2f1fe698e8e3ac183fae8d875fa338cbf1b5ccfc1f4764736f6c63430008030033",
  "immutableReferences": {},
  "source": "// SPDX-License-Identifier: MIT\r\n\r\npragma solidity ^0.8.0;\r\n\r\ncontract CallReceiverMock {\r\n    string public sharedAnswer;\r\n\r\n    event MockFunctionCalled();\r\n\r\n    uint256[] private _array;\r\n\r\n    function mockFunction() public payable returns (string memory) {\r\n        emit MockFunctionCalled();\r\n\r\n        return \"0x1234\";\r\n    }\r\n\r\n    function mockFunctionNonPayable() public returns (string memory) {\r\n        emit MockFunctionCalled();\r\n\r\n        return \"0x1234\";\r\n    }\r\n\r\n    function mockStaticFunction() public pure returns (string memory) {\r\n        return \"0x1234\";\r\n    }\r\n\r\n    function mockFunctionRevertsNoReason() public payable {\r\n        revert();\r\n    }\r\n\r\n    function mockFunctionRevertsReason() public payable {\r\n        revert(\"CallReceiverMock: reverting\");\r\n    }\r\n\r\n    function mockFunctionThrows() public payable {\r\n        assert(false);\r\n    }\r\n\r\n    function mockFunctionOutOfGas() public payable {\r\n        for (uint256 i = 0; ; ++i) {\r\n            _array.push(i);\r\n        }\r\n    }\r\n\r\n    function mockFunctionWritesStorage() public returns (string memory) {\r\n        sharedAnswer = \"42\";\r\n        return \"0x1234\";\r\n    }\r\n}\r\n",
  "sourcePath": "D:/Code/NFTrees/contracts/OpenZepplin/mocks/CallReceiverMock.sol",
  "compiler": {
    "name": "solc",
    "version": "0.8.3+commit.8d00100c.Emscripten.clang"
  },
  "schemaVersion": "3.4.1",
  "updatedAt": "2021-05-22T22:20:34.718Z",
  "devdoc": {
    "kind": "dev",
    "methods": {},
    "version": 1
  },
  "userdoc": {
    "kind": "user",
    "methods": {},
    "version": 1
  }
}