{
  "contractName": "ClashingImplementation",
  "abi": [
    {
      "inputs": [],
      "name": "admin",
      "outputs": [
        {
          "internalType": "address",
          "name": "",
          "type": "address"
        }
      ],
      "stateMutability": "pure",
      "type": "function"
    },
    {
      "inputs": [],
      "name": "delegatedFunction",
      "outputs": [
        {
          "internalType": "bool",
          "name": "",
          "type": "bool"
        }
      ],
      "stateMutability": "pure",
      "type": "function"
    }
  ],
  "bytecode": "0x608060405234801561001057600080fd5b50610154806100206000396000f3fe608060405234801561001057600080fd5b50600436106100365760003560e01c8063abf8e0e71461003b578063f851a44014610059575b600080fd5b610043610077565b60405161005091906100c5565b60405180910390f35b610061610080565b60405161006e91906100aa565b60405180910390f35b60006001905090565b60006311111142905090565b610095816100e0565b82525050565b6100a4816100f2565b82525050565b60006020820190506100bf600083018461008c565b92915050565b60006020820190506100da600083018461009b565b92915050565b60006100eb826100fe565b9050919050565b60008115159050919050565b600073ffffffffffffffffffffffffffffffffffffffff8216905091905056fea26469706673582212201a5f8e413cbada29bb6f05dd8af55348cf549e56b278cc3f241f49d1f5e4f53864736f6c63430008030033",
  "immutableReferences": {},
  "source": "// SPDX-License-Identifier: MIT\r\n\r\npragma solidity ^0.8.0;\r\n\r\n\r\n/**\r\n * @dev Implementation contract with an admin() function made to clash with\r\n * @dev TransparentUpgradeableProxy's to test correct functioning of the\r\n * @dev Transparent Proxy feature.\r\n */\r\ncontract ClashingImplementation {\r\n\r\n  function admin() external pure returns (address) {\r\n    return 0x0000000000000000000000000000000011111142;\r\n  }\r\n\r\n  function delegatedFunction() external pure returns (bool) {\r\n    return true;\r\n  }\r\n}\r\n",
  "sourcePath": "D:/Code/NFTrees/contracts/OpenZepplin/mocks/ClashingImplementation.sol",
  "compiler": {
    "name": "solc",
    "version": "0.8.3+commit.8d00100c.Emscripten.clang"
  },
  "schemaVersion": "3.4.1",
  "updatedAt": "2021-05-22T22:20:34.723Z",
  "devdoc": {
    "details": "Implementation contract with an admin() function made to clash withTransparentUpgradeableProxy's to test correct functioning of theTransparent Proxy feature.",
    "kind": "dev",
    "methods": {},
    "version": 1
  },
  "userdoc": {
    "kind": "user",
    "methods": {},
    "version": 1
  }
}