{
  "contractName": "ContextMock",
  "abi": [
    {
      "anonymous": false,
      "inputs": [
        {
          "indexed": false,
          "internalType": "bytes",
          "name": "data",
          "type": "bytes"
        },
        {
          "indexed": false,
          "internalType": "uint256",
          "name": "integerValue",
          "type": "uint256"
        },
        {
          "indexed": false,
          "internalType": "string",
          "name": "stringValue",
          "type": "string"
        }
      ],
      "name": "Data",
      "type": "event"
    },
    {
      "anonymous": false,
      "inputs": [
        {
          "indexed": false,
          "internalType": "address",
          "name": "sender",
          "type": "address"
        }
      ],
      "name": "Sender",
      "type": "event"
    },
    {
      "inputs": [],
      "name": "msgSender",
      "outputs": [],
      "stateMutability": "nonpayable",
      "type": "function"
    },
    {
      "inputs": [
        {
          "internalType": "uint256",
          "name": "integerValue",
          "type": "uint256"
        },
        {
          "internalType": "string",
          "name": "stringValue",
          "type": "string"
        }
      ],
      "name": "msgData",
      "outputs": [],
      "stateMutability": "nonpayable",
      "type": "function"
    }
  ],
  "bytecode": "0x608060405234801561001057600080fd5b50610473806100206000396000f3fe608060405234801561001057600080fd5b50600436106100365760003560e01c8063376bf2621461003b578063d737d0c714610057575b600080fd5b6100556004803603810190610050919061017a565b610061565b005b61005f6100a8565b005b7faf235354a0a47c91ee171961326335cb2d1a8e55b8a89859b0e61eb049e50ea061008a6100e8565b848460405161009c949392919061026d565b60405180910390a15050565b7fd6558c3ed910d959271054471fd1c326679d9fece99c5091b00ed89627cf2bfc6100d16100f5565b6040516100de9190610252565b60405180910390a1565b3660008036915091509091565b600033905090565b600061011061010b846102d9565b6102b4565b90508281526020810184848401111561012857600080fd5b610133848285610373565b509392505050565b600082601f83011261014c57600080fd5b813561015c8482602086016100fd565b91505092915050565b60008135905061017481610426565b92915050565b6000806040838503121561018d57600080fd5b600061019b85828601610165565b925050602083013567ffffffffffffffff8111156101b857600080fd5b6101c48582860161013b565b9150509250929050565b6101d781610337565b82525050565b60006101e98385610315565b93506101f6838584610373565b6101ff83610415565b840190509392505050565b60006102158261030a565b61021f8185610326565b935061022f818560208601610382565b61023881610415565b840191505092915050565b61024c81610369565b82525050565b600060208201905061026760008301846101ce565b92915050565b600060608201905081810360008301526102888186886101dd565b90506102976020830185610243565b81810360408301526102a9818461020a565b905095945050505050565b60006102be6102cf565b90506102ca82826103b5565b919050565b6000604051905090565b600067ffffffffffffffff8211156102f4576102f36103e6565b5b6102fd82610415565b9050602081019050919050565b600081519050919050565b600082825260208201905092915050565b600082825260208201905092915050565b600061034282610349565b9050919050565b600073ffffffffffffffffffffffffffffffffffffffff82169050919050565b6000819050919050565b82818337600083830152505050565b60005b838110156103a0578082015181840152602081019050610385565b838111156103af576000848401525b50505050565b6103be82610415565b810181811067ffffffffffffffff821117156103dd576103dc6103e6565b5b80604052505050565b7f4e487b7100000000000000000000000000000000000000000000000000000000600052604160045260246000fd5b6000601f19601f8301169050919050565b61042f81610369565b811461043a57600080fd5b5056fea264697066735822122049b33481b52aa62b8eb90823939e003451130ec2d265d121447acfbb1806013d64736f6c63430008030033",
  "immutableReferences": {},
  "source": "// SPDX-License-Identifier: MIT\r\n\r\npragma solidity ^0.8.0;\r\n\r\nimport \"../utils/Context.sol\";\r\n\r\ncontract ContextMock is Context {\r\n    event Sender(address sender);\r\n\r\n    function msgSender() public {\r\n        emit Sender(_msgSender());\r\n    }\r\n\r\n    event Data(bytes data, uint256 integerValue, string stringValue);\r\n\r\n    function msgData(uint256 integerValue, string memory stringValue) public {\r\n        emit Data(_msgData(), integerValue, stringValue);\r\n    }\r\n}\r\n\r\ncontract ContextMockCaller {\r\n    function callSender(ContextMock context) public {\r\n        context.msgSender();\r\n    }\r\n\r\n    function callData(ContextMock context, uint256 integerValue, string memory stringValue) public {\r\n        context.msgData(integerValue, stringValue);\r\n    }\r\n}\r\n",
  "sourcePath": "D:\\Code\\NFTrees\\contracts\\OpenZepplin\\mocks\\ContextMock.sol",
  "compiler": {
    "name": "solc",
    "version": "0.8.3+commit.8d00100c.Emscripten.clang"
  },
  "schemaVersion": "3.4.1",
  "updatedAt": "2021-05-22T22:20:34.747Z",
  "devdoc": {
    "kind": "dev",
    "methods": {},
    "version": 1
  },
  "userdoc": {
    "kind": "user",
    "methods": {},
    "version": 1
  }
}