{
  "contractName": "Cryptonaut",
  "abi": [
    {
      "inputs": [],
      "stateMutability": "nonpayable",
      "type": "constructor"
    },
    {
      "anonymous": false,
      "inputs": [
        {
          "indexed": true,
          "internalType": "address",
          "name": "owner",
          "type": "address"
        },
        {
          "indexed": true,
          "internalType": "address",
          "name": "approved",
          "type": "address"
        },
        {
          "indexed": true,
          "internalType": "uint256",
          "name": "tokenId",
          "type": "uint256"
        }
      ],
      "name": "Approval",
      "type": "event"
    },
    {
      "anonymous": false,
      "inputs": [
        {
          "indexed": true,
          "internalType": "address",
          "name": "owner",
          "type": "address"
        },
        {
          "indexed": true,
          "internalType": "address",
          "name": "operator",
          "type": "address"
        },
        {
          "indexed": false,
          "internalType": "bool",
          "name": "approved",
          "type": "bool"
        }
      ],
      "name": "ApprovalForAll",
      "type": "event"
    },
    {
      "anonymous": false,
      "inputs": [
        {
          "indexed": true,
          "internalType": "address",
          "name": "previousOwner",
          "type": "address"
        },
        {
          "indexed": true,
          "internalType": "address",
          "name": "newOwner",
          "type": "address"
        }
      ],
      "name": "OwnershipTransferred",
      "type": "event"
    },
    {
      "anonymous": false,
      "inputs": [
        {
          "indexed": true,
          "internalType": "address",
          "name": "from",
          "type": "address"
        },
        {
          "indexed": true,
          "internalType": "address",
          "name": "to",
          "type": "address"
        },
        {
          "indexed": true,
          "internalType": "uint256",
          "name": "tokenId",
          "type": "uint256"
        }
      ],
      "name": "Transfer",
      "type": "event"
    },
    {
      "inputs": [
        {
          "internalType": "address",
          "name": "to",
          "type": "address"
        },
        {
          "internalType": "uint256",
          "name": "tokenId",
          "type": "uint256"
        }
      ],
      "name": "approve",
      "outputs": [],
      "stateMutability": "nonpayable",
      "type": "function"
    },
    {
      "inputs": [
        {
          "internalType": "address",
          "name": "owner",
          "type": "address"
        }
      ],
      "name": "balanceOf",
      "outputs": [
        {
          "internalType": "uint256",
          "name": "",
          "type": "uint256"
        }
      ],
      "stateMutability": "view",
      "type": "function"
    },
    {
      "inputs": [],
      "name": "currentPrice",
      "outputs": [
        {
          "internalType": "uint256",
          "name": "",
          "type": "uint256"
        }
      ],
      "stateMutability": "view",
      "type": "function"
    },
    {
      "inputs": [
        {
          "internalType": "uint256",
          "name": "tokenId",
          "type": "uint256"
        }
      ],
      "name": "getApproved",
      "outputs": [
        {
          "internalType": "address",
          "name": "",
          "type": "address"
        }
      ],
      "stateMutability": "view",
      "type": "function"
    },
    {
      "inputs": [],
      "name": "hardCap",
      "outputs": [
        {
          "internalType": "uint256",
          "name": "",
          "type": "uint256"
        }
      ],
      "stateMutability": "view",
      "type": "function"
    },
    {
      "inputs": [
        {
          "internalType": "address",
          "name": "owner",
          "type": "address"
        },
        {
          "internalType": "address",
          "name": "operator",
          "type": "address"
        }
      ],
      "name": "isApprovedForAll",
      "outputs": [
        {
          "internalType": "bool",
          "name": "",
          "type": "bool"
        }
      ],
      "stateMutability": "view",
      "type": "function"
    },
    {
      "inputs": [],
      "name": "locked",
      "outputs": [
        {
          "internalType": "bool",
          "name": "",
          "type": "bool"
        }
      ],
      "stateMutability": "view",
      "type": "function"
    },
    {
      "inputs": [],
      "name": "name",
      "outputs": [
        {
          "internalType": "string",
          "name": "",
          "type": "string"
        }
      ],
      "stateMutability": "view",
      "type": "function"
    },
    {
      "inputs": [],
      "name": "owner",
      "outputs": [
        {
          "internalType": "address",
          "name": "",
          "type": "address"
        }
      ],
      "stateMutability": "view",
      "type": "function"
    },
    {
      "inputs": [
        {
          "internalType": "uint256",
          "name": "tokenId",
          "type": "uint256"
        }
      ],
      "name": "ownerOf",
      "outputs": [
        {
          "internalType": "address",
          "name": "",
          "type": "address"
        }
      ],
      "stateMutability": "view",
      "type": "function"
    },
    {
      "inputs": [],
      "name": "renounceOwnership",
      "outputs": [],
      "stateMutability": "nonpayable",
      "type": "function"
    },
    {
      "inputs": [
        {
          "internalType": "address",
          "name": "from",
          "type": "address"
        },
        {
          "internalType": "address",
          "name": "to",
          "type": "address"
        },
        {
          "internalType": "uint256",
          "name": "tokenId",
          "type": "uint256"
        }
      ],
      "name": "safeTransferFrom",
      "outputs": [],
      "stateMutability": "nonpayable",
      "type": "function"
    },
    {
      "inputs": [
        {
          "internalType": "address",
          "name": "from",
          "type": "address"
        },
        {
          "internalType": "address",
          "name": "to",
          "type": "address"
        },
        {
          "internalType": "uint256",
          "name": "tokenId",
          "type": "uint256"
        },
        {
          "internalType": "bytes",
          "name": "_data",
          "type": "bytes"
        }
      ],
      "name": "safeTransferFrom",
      "outputs": [],
      "stateMutability": "nonpayable",
      "type": "function"
    },
    {
      "inputs": [
        {
          "internalType": "address",
          "name": "operator",
          "type": "address"
        },
        {
          "internalType": "bool",
          "name": "approved",
          "type": "bool"
        }
      ],
      "name": "setApprovalForAll",
      "outputs": [],
      "stateMutability": "nonpayable",
      "type": "function"
    },
    {
      "inputs": [
        {
          "internalType": "bytes4",
          "name": "interfaceId",
          "type": "bytes4"
        }
      ],
      "name": "supportsInterface",
      "outputs": [
        {
          "internalType": "bool",
          "name": "",
          "type": "bool"
        }
      ],
      "stateMutability": "view",
      "type": "function"
    },
    {
      "inputs": [],
      "name": "symbol",
      "outputs": [
        {
          "internalType": "string",
          "name": "",
          "type": "string"
        }
      ],
      "stateMutability": "view",
      "type": "function"
    },
    {
      "inputs": [
        {
          "internalType": "uint256",
          "name": "tokenId",
          "type": "uint256"
        }
      ],
      "name": "tokenURI",
      "outputs": [
        {
          "internalType": "string",
          "name": "",
          "type": "string"
        }
      ],
      "stateMutability": "view",
      "type": "function"
    },
    {
      "inputs": [
        {
          "internalType": "address",
          "name": "from",
          "type": "address"
        },
        {
          "internalType": "address",
          "name": "to",
          "type": "address"
        },
        {
          "internalType": "uint256",
          "name": "tokenId",
          "type": "uint256"
        }
      ],
      "name": "transferFrom",
      "outputs": [],
      "stateMutability": "nonpayable",
      "type": "function"
    },
    {
      "inputs": [
        {
          "internalType": "address",
          "name": "newOwner",
          "type": "address"
        }
      ],
      "name": "transferOwnership",
      "outputs": [],
      "stateMutability": "nonpayable",
      "type": "function"
    },
    {
      "inputs": [
        {
          "internalType": "string",
          "name": "tokenHash",
          "type": "string"
        }
      ],
      "name": "buyCryptonaut",
      "outputs": [],
      "stateMutability": "payable",
      "type": "function"
    },
    {
      "inputs": [
        {
          "internalType": "address",
          "name": "_owner",
          "type": "address"
        }
      ],
      "name": "tokensOfOwner",
      "outputs": [
        {
          "internalType": "uint256[]",
          "name": "",
          "type": "uint256[]"
        }
      ],
      "stateMutability": "view",
      "type": "function"
    },
    {
      "inputs": [
        {
          "internalType": "address payable",
          "name": "_payee",
          "type": "address"
        }
      ],
      "name": "sendTo",
      "outputs": [],
      "stateMutability": "nonpayable",
      "type": "function"
    },
    {
      "inputs": [],
      "name": "getContractBalance",
      "outputs": [
        {
          "internalType": "uint256",
          "name": "",
          "type": "uint256"
        }
      ],
      "stateMutability": "view",
      "type": "function"
    },
    {
      "inputs": [
        {
          "internalType": "uint256",
          "name": "_currentPrice",
          "type": "uint256"
        }
      ],
      "name": "setCurrentPrice",
      "outputs": [],
      "stateMutability": "nonpayable",
      "type": "function"
    },
    {
      "inputs": [],
      "name": "getCurrentPrice",
      "outputs": [
        {
          "internalType": "uint256",
          "name": "",
          "type": "uint256"
        }
      ],
      "stateMutability": "view",
      "type": "function"
    },
    {
      "inputs": [],
      "name": "getNextTokenId",
      "outputs": [
        {
          "internalType": "uint256",
          "name": "",
          "type": "uint256"
        }
      ],
      "stateMutability": "view",
      "type": "function"
    },
    {
      "inputs": [],
      "name": "unlock",
      "outputs": [],
      "stateMutability": "nonpayable",
      "type": "function"
    },
    {
      "inputs": [],
      "name": "lock",
      "outputs": [],
      "stateMutability": "nonpayable",
      "type": "function"
    }
  ],
  "bytecode": "0x60806040523480156200001157600080fd5b506040518060400160405280600a81526020017f43727970746f6e617574000000000000000000000000000000000000000000008152506040518060400160405280600481526020017f4352544e00000000000000000000000000000000000000000000000000000000815250816000908051906020019062000096929190620001ac565b508060019080519060200190620000af929190620001ac565b5050506000620000c4620001a460201b60201c565b905080600760006101000a81548173ffffffffffffffffffffffffffffffffffffffff021916908373ffffffffffffffffffffffffffffffffffffffff1602179055508073ffffffffffffffffffffffffffffffffffffffff16600073ffffffffffffffffffffffffffffffffffffffff167f8be0079c531659141344cd1fd0a4f28419497f9722a3daafe3b4186f6b6457e060405160405180910390a3506103e8600881905550670de0b6b3a76400006009819055506000600a60006101000a81548160ff0219169083151502179055506001600b81905550620002c1565b600033905090565b828054620001ba906200025c565b90600052602060002090601f016020900481019282620001de57600085556200022a565b82601f10620001f957805160ff19168380011785556200022a565b828001600101855582156200022a579182015b82811115620002295782518255916020019190600101906200020c565b5b5090506200023991906200023d565b5090565b5b80821115620002585760008160009055506001016200023e565b5090565b600060028204905060018216806200027557607f821691505b602082108114156200028c576200028b62000292565b5b50919050565b7f4e487b7100000000000000000000000000000000000000000000000000000000600052602260045260246000fd5b613d9d80620002d16000396000f3fe6080604052600436106101b75760003560e01c80639d1b464a116100ec578063dd9f3b9b1161008a578063eb91d37e11610064578063eb91d37e146105fd578063f2fde38b14610628578063f83d08ba14610651578063fb86a40414610668576101b7565b8063dd9f3b9b1461057b578063e6d2524514610597578063e985e9c5146105c0576101b7565b8063b88d4fde116100c6578063b88d4fde146104bf578063c87b56dd146104e8578063caa0f92a14610525578063cf30901214610550576101b7565b80639d1b464a14610454578063a22cb4651461047f578063a69df4b5146104a8576101b7565b80636352211e11610159578063715018a611610133578063715018a6146103aa5780638462151c146103c15780638da5cb5b146103fe57806395d89b4114610429576101b7565b80636352211e146103055780636f9fb98a1461034257806370a082311461036d576101b7565b8063095ea7b311610195578063095ea7b31461026157806318b200711461028a57806323b872dd146102b357806342842e0e146102dc576101b7565b806301ffc9a7146101bc57806306fdde03146101f9578063081812fc14610224575b600080fd5b3480156101c857600080fd5b506101e360048036038101906101de9190612a45565b610693565b6040516101f09190613517565b60405180910390f35b34801561020557600080fd5b5061020e610775565b60405161021b9190613532565b60405180910390f35b34801561023057600080fd5b5061024b60048036038101906102469190612ad8565b610807565b604051610258919061348e565b60405180910390f35b34801561026d57600080fd5b5061028860048036038101906102839190612a09565b61088c565b005b34801561029657600080fd5b506102b160048036038101906102ac9190612ad8565b6109a4565b005b3480156102bf57600080fd5b506102da60048036038101906102d59190612903565b610a3d565b005b3480156102e857600080fd5b5061030360048036038101906102fe9190612903565b610a9d565b005b34801561031157600080fd5b5061032c60048036038101906103279190612ad8565b610abd565b604051610339919061348e565b60405180910390f35b34801561034e57600080fd5b50610357610b6f565b6040516103649190613854565b60405180910390f35b34801561037957600080fd5b50610394600480360381019061038f9190612875565b610b77565b6040516103a19190613854565b60405180910390f35b3480156103b657600080fd5b506103bf610c2f565b005b3480156103cd57600080fd5b506103e860048036038101906103e39190612875565b610d6c565b6040516103f591906134f5565b60405180910390f35b34801561040a57600080fd5b50610413610f43565b604051610420919061348e565b60405180910390f35b34801561043557600080fd5b5061043e610f6d565b60405161044b9190613532565b60405180910390f35b34801561046057600080fd5b50610469610fff565b6040516104769190613854565b60405180910390f35b34801561048b57600080fd5b506104a660048036038101906104a191906129cd565b611005565b005b3480156104b457600080fd5b506104bd611186565b005b3480156104cb57600080fd5b506104e660048036038101906104e19190612952565b61126e565b005b3480156104f457600080fd5b5061050f600480360381019061050a9190612ad8565b6112d0565b60405161051c9190613532565b60405180910390f35b34801561053157600080fd5b5061053a611422565b6040516105479190613854565b60405180910390f35b34801561055c57600080fd5b5061056561142c565b6040516105729190613517565b60405180910390f35b61059560048036038101906105909190612a97565b61143f565b005b3480156105a357600080fd5b506105be60048036038101906105b9919061289e565b611608565b005b3480156105cc57600080fd5b506105e760048036038101906105e291906128c7565b611740565b6040516105f49190613517565b60405180910390f35b34801561060957600080fd5b506106126117d4565b60405161061f9190613854565b60405180910390f35b34801561063457600080fd5b5061064f600480360381019061064a9190612875565b6117de565b005b34801561065d57600080fd5b5061066661198a565b005b34801561067457600080fd5b5061067d611a73565b60405161068a9190613854565b60405180910390f35b60007f80ac58cd000000000000000000000000000000000000000000000000000000007bffffffffffffffffffffffffffffffffffffffffffffffffffffffff1916827bffffffffffffffffffffffffffffffffffffffffffffffffffffffff1916148061075e57507f5b5e139f000000000000000000000000000000000000000000000000000000007bffffffffffffffffffffffffffffffffffffffffffffffffffffffff1916827bffffffffffffffffffffffffffffffffffffffffffffffffffffffff1916145b8061076e575061076d82611a79565b5b9050919050565b60606000805461078490613b59565b80601f01602080910402602001604051908101604052809291908181526020018280546107b090613b59565b80156107fd5780601f106107d2576101008083540402835291602001916107fd565b820191906000526020600020905b8154815290600101906020018083116107e057829003601f168201915b5050505050905090565b600061081282611ae3565b610851576040517f08c379a000000000000000000000000000000000000000000000000000000000815260040161084890613754565b60405180910390fd5b6004600083815260200190815260200160002060009054906101000a900473ffffffffffffffffffffffffffffffffffffffff169050919050565b600061089782610abd565b90508073ffffffffffffffffffffffffffffffffffffffff168373ffffffffffffffffffffffffffffffffffffffff161415610908576040517f08c379a00000000000000000000000000000000000000000000000000000000081526004016108ff906137d4565b60405180910390fd5b8073ffffffffffffffffffffffffffffffffffffffff16610927611b4f565b73ffffffffffffffffffffffffffffffffffffffff161480610956575061095581610950611b4f565b611740565b5b610995576040517f08c379a000000000000000000000000000000000000000000000000000000000815260040161098c90613694565b60405180910390fd5b61099f8383611b57565b505050565b6109ac611b4f565b73ffffffffffffffffffffffffffffffffffffffff166109ca610f43565b73ffffffffffffffffffffffffffffffffffffffff1614610a20576040517f08c379a0000000000000000000000000000000000000000000000000000000008152600401610a1790613774565b60405180910390fd5b670de0b6b3a764000081610a349190613a03565b60098190555050565b610a4e610a48611b4f565b82611c10565b610a8d576040517f08c379a0000000000000000000000000000000000000000000000000000000008152600401610a84906137f4565b60405180910390fd5b610a98838383611cee565b505050565b610ab88383836040518060200160405280600081525061126e565b505050565b6000806002600084815260200190815260200160002060009054906101000a900473ffffffffffffffffffffffffffffffffffffffff169050600073ffffffffffffffffffffffffffffffffffffffff168173ffffffffffffffffffffffffffffffffffffffff161415610b66576040517f08c379a0000000000000000000000000000000000000000000000000000000008152600401610b5d906136d4565b60405180910390fd5b80915050919050565b600047905090565b60008073ffffffffffffffffffffffffffffffffffffffff168273ffffffffffffffffffffffffffffffffffffffff161415610be8576040517f08c379a0000000000000000000000000000000000000000000000000000000008152600401610bdf906136b4565b60405180910390fd5b600360008373ffffffffffffffffffffffffffffffffffffffff1673ffffffffffffffffffffffffffffffffffffffff168152602001908152602001600020549050919050565b610c37611b4f565b73ffffffffffffffffffffffffffffffffffffffff16610c55610f43565b73ffffffffffffffffffffffffffffffffffffffff1614610cab576040517f08c379a0000000000000000000000000000000000000000000000000000000008152600401610ca290613774565b60405180910390fd5b600073ffffffffffffffffffffffffffffffffffffffff16600760009054906101000a900473ffffffffffffffffffffffffffffffffffffffff1673ffffffffffffffffffffffffffffffffffffffff167f8be0079c531659141344cd1fd0a4f28419497f9722a3daafe3b4186f6b6457e060405160405180910390a36000600760006101000a81548173ffffffffffffffffffffffffffffffffffffffff021916908373ffffffffffffffffffffffffffffffffffffffff160217905550565b60606000610d7983610b77565b90506000811415610dfc57600067ffffffffffffffff811115610dc5577f4e487b7100000000000000000000000000000000000000000000000000000000600052604160045260246000fd5b604051908082528060200260200182016040528015610df35781602001602082028036833780820191505090505b50915050610f3e565b60008167ffffffffffffffff811115610e3e577f4e487b7100000000000000000000000000000000000000000000000000000000600052604160045260246000fd5b604051908082528060200260200182016040528015610e6c5781602001602082028036833780820191505090505b50905060006001600b54610e809190613a5d565b9050600080600190505b828111610f35578673ffffffffffffffffffffffffffffffffffffffff16610eb182610abd565b73ffffffffffffffffffffffffffffffffffffffff161415610f225780848381518110610f07577f4e487b7100000000000000000000000000000000000000000000000000000000600052603260045260246000fd5b6020026020010181815250508180610f1e90613b8b565b9250505b8080610f2d90613b8b565b915050610e8a565b83955050505050505b919050565b6000600760009054906101000a900473ffffffffffffffffffffffffffffffffffffffff16905090565b606060018054610f7c90613b59565b80601f0160208091040260200160405190810160405280929190818152602001828054610fa890613b59565b8015610ff55780601f10610fca57610100808354040283529160200191610ff5565b820191906000526020600020905b815481529060010190602001808311610fd857829003601f168201915b5050505050905090565b60095481565b61100d611b4f565b73ffffffffffffffffffffffffffffffffffffffff168273ffffffffffffffffffffffffffffffffffffffff16141561107b576040517f08c379a000000000000000000000000000000000000000000000000000000000815260040161107290613614565b60405180910390fd5b8060056000611088611b4f565b73ffffffffffffffffffffffffffffffffffffffff1673ffffffffffffffffffffffffffffffffffffffff16815260200190815260200160002060008473ffffffffffffffffffffffffffffffffffffffff1673ffffffffffffffffffffffffffffffffffffffff16815260200190815260200160002060006101000a81548160ff0219169083151502179055508173ffffffffffffffffffffffffffffffffffffffff16611135611b4f565b73ffffffffffffffffffffffffffffffffffffffff167f17307eab39ab6107e8899845ad3d59bd9653f200f220920489ca2b5937696c318360405161117a9190613517565b60405180910390a35050565b61118e611b4f565b73ffffffffffffffffffffffffffffffffffffffff166111ac610f43565b73ffffffffffffffffffffffffffffffffffffffff1614611202576040517f08c379a00000000000000000000000000000000000000000000000000000000081526004016111f990613774565b60405180910390fd5b600a60009054906101000a900460ff16611251576040517f08c379a000000000000000000000000000000000000000000000000000000000815260040161124890613834565b60405180910390fd5b6000600a60006101000a81548160ff021916908315150217905550565b61127f611279611b4f565b83611c10565b6112be576040517f08c379a00000000000000000000000000000000000000000000000000000000081526004016112b5906137f4565b60405180910390fd5b6112ca84848484611f4a565b50505050565b60606112db82611ae3565b61131a576040517f08c379a000000000000000000000000000000000000000000000000000000000815260040161131190613734565b60405180910390fd5b600060066000848152602001908152602001600020805461133a90613b59565b80601f016020809104026020016040519081016040528092919081815260200182805461136690613b59565b80156113b35780601f10611388576101008083540402835291602001916113b3565b820191906000526020600020905b81548152906001019060200180831161139657829003601f168201915b5050505050905060006113c4611fa6565b90506000815114156113da57819250505061141d565b60008251111561140f5780826040516020016113f792919061346a565b6040516020818303038152906040529250505061141d565b61141884611fc6565b925050505b919050565b6000600b54905090565b600a60009054906101000a900460ff1681565b600a60009054906101000a900460ff161561148f576040517f08c379a000000000000000000000000000000000000000000000000000000000815260040161148690613634565b60405180910390fd5b600073ffffffffffffffffffffffffffffffffffffffff163373ffffffffffffffffffffffffffffffffffffffff16141580156114f857503073ffffffffffffffffffffffffffffffffffffffff163373ffffffffffffffffffffffffffffffffffffffff1614155b61150157600080fd5b600954341015611546576040517f08c379a000000000000000000000000000000000000000000000000000000000815260040161153d90613674565b60405180910390fd5b611551600b54611ae3565b15611591576040517f08c379a000000000000000000000000000000000000000000000000000000000815260040161158890613554565b60405180910390fd5b600854600b5411156115d8576040517f08c379a00000000000000000000000000000000000000000000000000000000081526004016115cf906135d4565b60405180910390fd5b6115e433600b5461206d565b6115f0600b548261208b565b6001600b546115ff919061397c565b600b8190555050565b611610611b4f565b73ffffffffffffffffffffffffffffffffffffffff1661162e610f43565b73ffffffffffffffffffffffffffffffffffffffff1614611684576040517f08c379a000000000000000000000000000000000000000000000000000000000815260040161167b90613774565b60405180910390fd5b600073ffffffffffffffffffffffffffffffffffffffff168173ffffffffffffffffffffffffffffffffffffffff16141580156116ed57503073ffffffffffffffffffffffffffffffffffffffff168173ffffffffffffffffffffffffffffffffffffffff1614155b6116f657600080fd5b8073ffffffffffffffffffffffffffffffffffffffff166108fc479081150290604051600060405180830381858888f1935050505015801561173c573d6000803e3d6000fd5b5050565b6000600560008473ffffffffffffffffffffffffffffffffffffffff1673ffffffffffffffffffffffffffffffffffffffff16815260200190815260200160002060008373ffffffffffffffffffffffffffffffffffffffff1673ffffffffffffffffffffffffffffffffffffffff16815260200190815260200160002060009054906101000a900460ff16905092915050565b6000600954905090565b6117e6611b4f565b73ffffffffffffffffffffffffffffffffffffffff16611804610f43565b73ffffffffffffffffffffffffffffffffffffffff161461185a576040517f08c379a000000000000000000000000000000000000000000000000000000000815260040161185190613774565b60405180910390fd5b600073ffffffffffffffffffffffffffffffffffffffff168173ffffffffffffffffffffffffffffffffffffffff1614156118ca576040517f08c379a00000000000000000000000000000000000000000000000000000000081526004016118c190613594565b60405180910390fd5b8073ffffffffffffffffffffffffffffffffffffffff16600760009054906101000a900473ffffffffffffffffffffffffffffffffffffffff1673ffffffffffffffffffffffffffffffffffffffff167f8be0079c531659141344cd1fd0a4f28419497f9722a3daafe3b4186f6b6457e060405160405180910390a380600760006101000a81548173ffffffffffffffffffffffffffffffffffffffff021916908373ffffffffffffffffffffffffffffffffffffffff16021790555050565b611992611b4f565b73ffffffffffffffffffffffffffffffffffffffff166119b0610f43565b73ffffffffffffffffffffffffffffffffffffffff1614611a06576040517f08c379a00000000000000000000000000000000000000000000000000000000081526004016119fd90613774565b60405180910390fd5b600a60009054906101000a900460ff1615611a56576040517f08c379a0000000000000000000000000000000000000000000000000000000008152600401611a4d90613814565b60405180910390fd5b6001600a60006101000a81548160ff021916908315150217905550565b60085481565b60007f01ffc9a7000000000000000000000000000000000000000000000000000000007bffffffffffffffffffffffffffffffffffffffffffffffffffffffff1916827bffffffffffffffffffffffffffffffffffffffffffffffffffffffff1916149050919050565b60008073ffffffffffffffffffffffffffffffffffffffff166002600084815260200190815260200160002060009054906101000a900473ffffffffffffffffffffffffffffffffffffffff1673ffffffffffffffffffffffffffffffffffffffff1614159050919050565b600033905090565b816004600083815260200190815260200160002060006101000a81548173ffffffffffffffffffffffffffffffffffffffff021916908373ffffffffffffffffffffffffffffffffffffffff160217905550808273ffffffffffffffffffffffffffffffffffffffff16611bca83610abd565b73ffffffffffffffffffffffffffffffffffffffff167f8c5be1e5ebec7d5bd14f71427d1e84f3dd0314c0f7b2291e5b200ac8c7c3b92560405160405180910390a45050565b6000611c1b82611ae3565b611c5a576040517f08c379a0000000000000000000000000000000000000000000000000000000008152600401611c5190613654565b60405180910390fd5b6000611c6583610abd565b90508073ffffffffffffffffffffffffffffffffffffffff168473ffffffffffffffffffffffffffffffffffffffff161480611cd457508373ffffffffffffffffffffffffffffffffffffffff16611cbc84610807565b73ffffffffffffffffffffffffffffffffffffffff16145b80611ce55750611ce48185611740565b5b91505092915050565b8273ffffffffffffffffffffffffffffffffffffffff16611d0e82610abd565b73ffffffffffffffffffffffffffffffffffffffff1614611d64576040517f08c379a0000000000000000000000000000000000000000000000000000000008152600401611d5b90613794565b60405180910390fd5b600073ffffffffffffffffffffffffffffffffffffffff168273ffffffffffffffffffffffffffffffffffffffff161415611dd4576040517f08c379a0000000000000000000000000000000000000000000000000000000008152600401611dcb906135f4565b60405180910390fd5b611ddf8383836120ff565b611dea600082611b57565b6001600360008573ffffffffffffffffffffffffffffffffffffffff1673ffffffffffffffffffffffffffffffffffffffff1681526020019081526020016000206000828254611e3a9190613a5d565b925050819055506001600360008473ffffffffffffffffffffffffffffffffffffffff1673ffffffffffffffffffffffffffffffffffffffff1681526020019081526020016000206000828254611e91919061397c565b92505081905550816002600083815260200190815260200160002060006101000a81548173ffffffffffffffffffffffffffffffffffffffff021916908373ffffffffffffffffffffffffffffffffffffffff160217905550808273ffffffffffffffffffffffffffffffffffffffff168473ffffffffffffffffffffffffffffffffffffffff167fddf252ad1be2c89b69c2b068fc378daa952ba7f163c4a11628f55a4df523b3ef60405160405180910390a4505050565b611f55848484611cee565b611f6184848484612104565b611fa0576040517f08c379a0000000000000000000000000000000000000000000000000000000008152600401611f9790613574565b60405180910390fd5b50505050565b6060604051806060016040528060228152602001613d4660229139905090565b6060611fd182611ae3565b612010576040517f08c379a0000000000000000000000000000000000000000000000000000000008152600401612007906137b4565b60405180910390fd5b600061201a611fa6565b9050600081511161203a5760405180602001604052806000815250612065565b806120448461229b565b60405160200161205592919061346a565b6040516020818303038152906040525b915050919050565b612087828260405180602001604052806000815250612448565b5050565b61209482611ae3565b6120d3576040517f08c379a00000000000000000000000000000000000000000000000000000000081526004016120ca906136f4565b60405180910390fd5b806006600084815260200190815260200160002090805190602001906120fa929190612684565b505050565b505050565b60006121258473ffffffffffffffffffffffffffffffffffffffff166124a3565b1561228e578373ffffffffffffffffffffffffffffffffffffffff1663150b7a0261214e611b4f565b8786866040518563ffffffff1660e01b815260040161217094939291906134a9565b602060405180830381600087803b15801561218a57600080fd5b505af19250505080156121bb57506040513d601f19601f820116820180604052508101906121b89190612a6e565b60015b61223e573d80600081146121eb576040519150601f19603f3d011682016040523d82523d6000602084013e6121f0565b606091505b50600081511415612236576040517f08c379a000000000000000000000000000000000000000000000000000000000815260040161222d90613574565b60405180910390fd5b805181602001fd5b63150b7a0260e01b7bffffffffffffffffffffffffffffffffffffffffffffffffffffffff1916817bffffffffffffffffffffffffffffffffffffffffffffffffffffffff191614915050612293565b600190505b949350505050565b606060008214156122e3576040518060400160405280600181526020017f30000000000000000000000000000000000000000000000000000000000000008152509050612443565b600082905060005b600082146123155780806122fe90613b8b565b915050600a8261230e91906139d2565b91506122eb565b60008167ffffffffffffffff811115612357577f4e487b7100000000000000000000000000000000000000000000000000000000600052604160045260246000fd5b6040519080825280601f01601f1916602001820160405280156123895781602001600182028036833780820191505090505b5090505b6000851461243c576001826123a29190613a5d565b9150600a856123b19190613bd4565b60306123bd919061397c565b60f81b8183815181106123f9577f4e487b7100000000000000000000000000000000000000000000000000000000600052603260045260246000fd5b60200101907effffffffffffffffffffffffffffffffffffffffffffffffffffffffffffff1916908160001a905350600a8561243591906139d2565b945061238d565b8093505050505b919050565b61245283836124b6565b61245f6000848484612104565b61249e576040517f08c379a000000000000000000000000000000000000000000000000000000000815260040161249590613574565b60405180910390fd5b505050565b600080823b905060008111915050919050565b600073ffffffffffffffffffffffffffffffffffffffff168273ffffffffffffffffffffffffffffffffffffffff161415612526576040517f08c379a000000000000000000000000000000000000000000000000000000000815260040161251d90613714565b60405180910390fd5b61252f81611ae3565b1561256f576040517f08c379a0000000000000000000000000000000000000000000000000000000008152600401612566906135b4565b60405180910390fd5b61257b600083836120ff565b6001600360008473ffffffffffffffffffffffffffffffffffffffff1673ffffffffffffffffffffffffffffffffffffffff16815260200190815260200160002060008282546125cb919061397c565b92505081905550816002600083815260200190815260200160002060006101000a81548173ffffffffffffffffffffffffffffffffffffffff021916908373ffffffffffffffffffffffffffffffffffffffff160217905550808273ffffffffffffffffffffffffffffffffffffffff16600073ffffffffffffffffffffffffffffffffffffffff167fddf252ad1be2c89b69c2b068fc378daa952ba7f163c4a11628f55a4df523b3ef60405160405180910390a45050565b82805461269090613b59565b90600052602060002090601f0160209004810192826126b257600085556126f9565b82601f106126cb57805160ff19168380011785556126f9565b828001600101855582156126f9579182015b828111156126f85782518255916020019190600101906126dd565b5b509050612706919061270a565b5090565b5b8082111561272357600081600090555060010161270b565b5090565b600061273a612735846138a0565b61386f565b90508281526020810184848401111561275257600080fd5b61275d848285613b17565b509392505050565b6000612778612773846138d0565b61386f565b90508281526020810184848401111561279057600080fd5b61279b848285613b17565b509392505050565b6000813590506127b281613cd2565b92915050565b6000813590506127c781613ce9565b92915050565b6000813590506127dc81613d00565b92915050565b6000813590506127f181613d17565b92915050565b60008151905061280681613d17565b92915050565b600082601f83011261281d57600080fd5b813561282d848260208601612727565b91505092915050565b600082601f83011261284757600080fd5b8135612857848260208601612765565b91505092915050565b60008135905061286f81613d2e565b92915050565b60006020828403121561288757600080fd5b6000612895848285016127a3565b91505092915050565b6000602082840312156128b057600080fd5b60006128be848285016127b8565b91505092915050565b600080604083850312156128da57600080fd5b60006128e8858286016127a3565b92505060206128f9858286016127a3565b9150509250929050565b60008060006060848603121561291857600080fd5b6000612926868287016127a3565b9350506020612937868287016127a3565b925050604061294886828701612860565b9150509250925092565b6000806000806080858703121561296857600080fd5b6000612976878288016127a3565b9450506020612987878288016127a3565b935050604061299887828801612860565b925050606085013567ffffffffffffffff8111156129b557600080fd5b6129c18782880161280c565b91505092959194509250565b600080604083850312156129e057600080fd5b60006129ee858286016127a3565b92505060206129ff858286016127cd565b9150509250929050565b60008060408385031215612a1c57600080fd5b6000612a2a858286016127a3565b9250506020612a3b85828601612860565b9150509250929050565b600060208284031215612a5757600080fd5b6000612a65848285016127e2565b91505092915050565b600060208284031215612a8057600080fd5b6000612a8e848285016127f7565b91505092915050565b600060208284031215612aa957600080fd5b600082013567ffffffffffffffff811115612ac357600080fd5b612acf84828501612836565b91505092915050565b600060208284031215612aea57600080fd5b6000612af884828501612860565b91505092915050565b6000612b0d838361344c565b60208301905092915050565b612b2281613a91565b82525050565b6000612b3382613910565b612b3d818561393e565b9350612b4883613900565b8060005b83811015612b79578151612b608882612b01565b9750612b6b83613931565b925050600181019050612b4c565b5085935050505092915050565b612b8f81613ab5565b82525050565b6000612ba08261391b565b612baa818561394f565b9350612bba818560208601613b26565b612bc381613cc1565b840191505092915050565b6000612bd982613926565b612be38185613960565b9350612bf3818560208601613b26565b612bfc81613cc1565b840191505092915050565b6000612c1282613926565b612c1c8185613971565b9350612c2c818560208601613b26565b80840191505092915050565b6000612c45601583613960565b91507f546f6b656e20616c7265616479206d696e7465642e00000000000000000000006000830152602082019050919050565b6000612c85603283613960565b91507f4552433732313a207472616e7366657220746f206e6f6e20455243373231526560008301527f63656976657220696d706c656d656e74657200000000000000000000000000006020830152604082019050919050565b6000612ceb602683613960565b91507f4f776e61626c653a206e6577206f776e657220697320746865207a65726f206160008301527f64647265737300000000000000000000000000000000000000000000000000006020830152604082019050919050565b6000612d51601c83613960565b91507f4552433732313a20746f6b656e20616c7265616479206d696e746564000000006000830152602082019050919050565b6000612d91600f83613960565b91507f53616c652068617320656e6465642e00000000000000000000000000000000006000830152602082019050919050565b6000612dd1602483613960565b91507f4552433732313a207472616e7366657220746f20746865207a65726f2061646460008301527f72657373000000000000000000000000000000000000000000000000000000006020830152604082019050919050565b6000612e37601983613960565b91507f4552433732313a20617070726f766520746f2063616c6c6572000000000000006000830152602082019050919050565b6000612e77601d83613960565b91507f427579696e672043727970746f6e61757473206973206c6f636b65642e0000006000830152602082019050919050565b6000612eb7602c83613960565b91507f4552433732313a206f70657261746f7220717565727920666f72206e6f6e657860008301527f697374656e7420746f6b656e00000000000000000000000000000000000000006020830152604082019050919050565b6000612f1d601183613960565b91507f4e6f7420656e6f7567682065746865722e0000000000000000000000000000006000830152602082019050919050565b6000612f5d603883613960565b91507f4552433732313a20617070726f76652063616c6c6572206973206e6f74206f7760008301527f6e6572206e6f7220617070726f76656420666f7220616c6c00000000000000006020830152604082019050919050565b6000612fc3602a83613960565b91507f4552433732313a2062616c616e636520717565727920666f7220746865207a6560008301527f726f2061646472657373000000000000000000000000000000000000000000006020830152604082019050919050565b6000613029602983613960565b91507f4552433732313a206f776e657220717565727920666f72206e6f6e657869737460008301527f656e7420746f6b656e00000000000000000000000000000000000000000000006020830152604082019050919050565b600061308f602e83613960565b91507f45524337323155524953746f726167653a2055524920736574206f66206e6f6e60008301527f6578697374656e7420746f6b656e0000000000000000000000000000000000006020830152604082019050919050565b60006130f5602083613960565b91507f4552433732313a206d696e7420746f20746865207a65726f20616464726573736000830152602082019050919050565b6000613135603183613960565b91507f45524337323155524953746f726167653a2055524920717565727920666f722060008301527f6e6f6e6578697374656e7420746f6b656e0000000000000000000000000000006020830152604082019050919050565b600061319b602c83613960565b91507f4552433732313a20617070726f76656420717565727920666f72206e6f6e657860008301527f697374656e7420746f6b656e00000000000000000000000000000000000000006020830152604082019050919050565b6000613201602083613960565b91507f4f776e61626c653a2063616c6c6572206973206e6f7420746865206f776e65726000830152602082019050919050565b6000613241602983613960565b91507f4552433732313a207472616e73666572206f6620746f6b656e2074686174206960008301527f73206e6f74206f776e00000000000000000000000000000000000000000000006020830152604082019050919050565b60006132a7602f83613960565b91507f4552433732314d657461646174613a2055524920717565727920666f72206e6f60008301527f6e6578697374656e7420746f6b656e00000000000000000000000000000000006020830152604082019050919050565b600061330d602183613960565b91507f4552433732313a20617070726f76616c20746f2063757272656e74206f776e6560008301527f72000000000000000000000000000000000000000000000000000000000000006020830152604082019050919050565b6000613373603183613960565b91507f4552433732313a207472616e736665722063616c6c6572206973206e6f74206f60008301527f776e6572206e6f7220617070726f7665640000000000000000000000000000006020830152604082019050919050565b60006133d9601383613960565b91507f436f6e7472616374206973206c6f636b65642e000000000000000000000000006000830152602082019050919050565b6000613419601583613960565b91507f436f6e747261637420697320756e6c6f636b65642e00000000000000000000006000830152602082019050919050565b61345581613b0d565b82525050565b61346481613b0d565b82525050565b60006134768285612c07565b91506134828284612c07565b91508190509392505050565b60006020820190506134a36000830184612b19565b92915050565b60006080820190506134be6000830187612b19565b6134cb6020830186612b19565b6134d8604083018561345b565b81810360608301526134ea8184612b95565b905095945050505050565b6000602082019050818103600083015261350f8184612b28565b905092915050565b600060208201905061352c6000830184612b86565b92915050565b6000602082019050818103600083015261354c8184612bce565b905092915050565b6000602082019050818103600083015261356d81612c38565b9050919050565b6000602082019050818103600083015261358d81612c78565b9050919050565b600060208201905081810360008301526135ad81612cde565b9050919050565b600060208201905081810360008301526135cd81612d44565b9050919050565b600060208201905081810360008301526135ed81612d84565b9050919050565b6000602082019050818103600083015261360d81612dc4565b9050919050565b6000602082019050818103600083015261362d81612e2a565b9050919050565b6000602082019050818103600083015261364d81612e6a565b9050919050565b6000602082019050818103600083015261366d81612eaa565b9050919050565b6000602082019050818103600083015261368d81612f10565b9050919050565b600060208201905081810360008301526136ad81612f50565b9050919050565b600060208201905081810360008301526136cd81612fb6565b9050919050565b600060208201905081810360008301526136ed8161301c565b9050919050565b6000602082019050818103600083015261370d81613082565b9050919050565b6000602082019050818103600083015261372d816130e8565b9050919050565b6000602082019050818103600083015261374d81613128565b9050919050565b6000602082019050818103600083015261376d8161318e565b9050919050565b6000602082019050818103600083015261378d816131f4565b9050919050565b600060208201905081810360008301526137ad81613234565b9050919050565b600060208201905081810360008301526137cd8161329a565b9050919050565b600060208201905081810360008301526137ed81613300565b9050919050565b6000602082019050818103600083015261380d81613366565b9050919050565b6000602082019050818103600083015261382d816133cc565b9050919050565b6000602082019050818103600083015261384d8161340c565b9050919050565b6000602082019050613869600083018461345b565b92915050565b6000604051905081810181811067ffffffffffffffff8211171561389657613895613c92565b5b8060405250919050565b600067ffffffffffffffff8211156138bb576138ba613c92565b5b601f19601f8301169050602081019050919050565b600067ffffffffffffffff8211156138eb576138ea613c92565b5b601f19601f8301169050602081019050919050565b6000819050602082019050919050565b600081519050919050565b600081519050919050565b600081519050919050565b6000602082019050919050565b600082825260208201905092915050565b600082825260208201905092915050565b600082825260208201905092915050565b600081905092915050565b600061398782613b0d565b915061399283613b0d565b9250827fffffffffffffffffffffffffffffffffffffffffffffffffffffffffffffffff038211156139c7576139c6613c05565b5b828201905092915050565b60006139dd82613b0d565b91506139e883613b0d565b9250826139f8576139f7613c34565b5b828204905092915050565b6000613a0e82613b0d565b9150613a1983613b0d565b9250817fffffffffffffffffffffffffffffffffffffffffffffffffffffffffffffffff0483118215151615613a5257613a51613c05565b5b828202905092915050565b6000613a6882613b0d565b9150613a7383613b0d565b925082821015613a8657613a85613c05565b5b828203905092915050565b6000613a9c82613aed565b9050919050565b6000613aae82613aed565b9050919050565b60008115159050919050565b60007fffffffff0000000000000000000000000000000000000000000000000000000082169050919050565b600073ffffffffffffffffffffffffffffffffffffffff82169050919050565b6000819050919050565b82818337600083830152505050565b60005b83811015613b44578082015181840152602081019050613b29565b83811115613b53576000848401525b50505050565b60006002820490506001821680613b7157607f821691505b60208210811415613b8557613b84613c63565b5b50919050565b6000613b9682613b0d565b91507fffffffffffffffffffffffffffffffffffffffffffffffffffffffffffffffff821415613bc957613bc8613c05565b5b600182019050919050565b6000613bdf82613b0d565b9150613bea83613b0d565b925082613bfa57613bf9613c34565b5b828206905092915050565b7f4e487b7100000000000000000000000000000000000000000000000000000000600052601160045260246000fd5b7f4e487b7100000000000000000000000000000000000000000000000000000000600052601260045260246000fd5b7f4e487b7100000000000000000000000000000000000000000000000000000000600052602260045260246000fd5b7f4e487b7100000000000000000000000000000000000000000000000000000000600052604160045260246000fd5b6000601f19601f8301169050919050565b613cdb81613a91565b8114613ce657600080fd5b50565b613cf281613aa3565b8114613cfd57600080fd5b50565b613d0981613ab5565b8114613d1457600080fd5b50565b613d2081613ac1565b8114613d2b57600080fd5b50565b613d3781613b0d565b8114613d4257600080fd5b5056fe68747470733a2f2f676174657761792e70696e6174612e636c6f75642f697066732fa2646970667358221220bd26e8478a34f4de6d9a843e3fd6fcb29d0866ae44608d8af4c9a3916d97f24c64736f6c63430008000033",
  "immutableReferences": {},
  "source": "// SPDX-License-Identifier: MIT\n\npragma solidity ^0.8.0;\n\n/*\n * @dev Provides information about the current execution context, including the\n * sender of the transaction and its data. While these are generally available\n * via msg.sender and msg.data, they should not be accessed in such a direct\n * manner, since when dealing with meta-transactions the account sending and\n * paying for execution may not be the actual sender (as far as an application\n * is concerned).\n *\n * This contract is only required for intermediate, library-like contracts.\n */\nabstract contract Context {\n    function _msgSender() internal view virtual returns (address) {\n        return msg.sender;\n    }\n\n    function _msgData() internal view virtual returns (bytes calldata) {\n        this; // silence state mutability warning without generating bytecode - see https://github.com/ethereum/solidity/issues/2691\n        return msg.data;\n    }\n}\n\npragma solidity ^0.8.0;\n\n/**\n * @dev Collection of functions related to the address type\n */\nlibrary Address {\n    /**\n     * @dev Returns true if `account` is a contract.\n     *\n     * [IMPORTANT]\n     * ====\n     * It is unsafe to assume that an address for which this function returns\n     * false is an externally-owned account (EOA) and not a contract.\n     *\n     * Among others, `isContract` will return false for the following\n     * types of addresses:\n     *\n     *  - an externally-owned account\n     *  - a contract in construction\n     *  - an address where a contract will be created\n     *  - an address where a contract lived, but was destroyed\n     * ====\n     */\n    function isContract(address account) internal view returns (bool) {\n        // This method relies on extcodesize, which returns 0 for contracts in\n        // construction, since the code is only stored at the end of the\n        // constructor execution.\n\n        uint256 size;\n        // solhint-disable-next-line no-inline-assembly\n        assembly { size := extcodesize(account) }\n        return size > 0;\n    }\n\n    /**\n     * @dev Replacement for Solidity's `transfer`: sends `amount` wei to\n     * `recipient`, forwarding all available gas and reverting on errors.\n     *\n     * https://eips.ethereum.org/EIPS/eip-1884[EIP1884] increases the gas cost\n     * of certain opcodes, possibly making contracts go over the 2300 gas limit\n     * imposed by `transfer`, making them unable to receive funds via\n     * `transfer`. {sendValue} removes this limitation.\n     *\n     * https://diligence.consensys.net/posts/2019/09/stop-using-soliditys-transfer-now/[Learn more].\n     *\n     * IMPORTANT: because control is transferred to `recipient`, care must be\n     * taken to not create reentrancy vulnerabilities. Consider using\n     * {ReentrancyGuard} or the\n     * https://solidity.readthedocs.io/en/v0.5.11/security-considerations.html#use-the-checks-effects-interactions-pattern[checks-effects-interactions pattern].\n     */\n    function sendValue(address payable recipient, uint256 amount) internal {\n        require(address(this).balance >= amount, \"Address: insufficient balance\");\n\n        // solhint-disable-next-line avoid-low-level-calls, avoid-call-value\n        (bool success, ) = recipient.call{ value: amount }(\"\");\n        require(success, \"Address: unable to send value, recipient may have reverted\");\n    }\n\n    /**\n     * @dev Performs a Solidity function call using a low level `call`. A\n     * plain`call` is an unsafe replacement for a function call: use this\n     * function instead.\n     *\n     * If `target` reverts with a revert reason, it is bubbled up by this\n     * function (like regular Solidity function calls).\n     *\n     * Returns the raw returned data. To convert to the expected return value,\n     * use https://solidity.readthedocs.io/en/latest/units-and-global-variables.html?highlight=abi.decode#abi-encoding-and-decoding-functions[`abi.decode`].\n     *\n     * Requirements:\n     *\n     * - `target` must be a contract.\n     * - calling `target` with `data` must not revert.\n     *\n     * _Available since v3.1._\n     */\n    function functionCall(address target, bytes memory data) internal returns (bytes memory) {\n      return functionCall(target, data, \"Address: low-level call failed\");\n    }\n\n    /**\n     * @dev Same as {xref-Address-functionCall-address-bytes-}[`functionCall`], but with\n     * `errorMessage` as a fallback revert reason when `target` reverts.\n     *\n     * _Available since v3.1._\n     */\n    function functionCall(address target, bytes memory data, string memory errorMessage) internal returns (bytes memory) {\n        return functionCallWithValue(target, data, 0, errorMessage);\n    }\n\n    /**\n     * @dev Same as {xref-Address-functionCall-address-bytes-}[`functionCall`],\n     * but also transferring `value` wei to `target`.\n     *\n     * Requirements:\n     *\n     * - the calling contract must have an ETH balance of at least `value`.\n     * - the called Solidity function must be `payable`.\n     *\n     * _Available since v3.1._\n     */\n    function functionCallWithValue(address target, bytes memory data, uint256 value) internal returns (bytes memory) {\n        return functionCallWithValue(target, data, value, \"Address: low-level call with value failed\");\n    }\n\n    /**\n     * @dev Same as {xref-Address-functionCallWithValue-address-bytes-uint256-}[`functionCallWithValue`], but\n     * with `errorMessage` as a fallback revert reason when `target` reverts.\n     *\n     * _Available since v3.1._\n     */\n    function functionCallWithValue(address target, bytes memory data, uint256 value, string memory errorMessage) internal returns (bytes memory) {\n        require(address(this).balance >= value, \"Address: insufficient balance for call\");\n        require(isContract(target), \"Address: call to non-contract\");\n\n        // solhint-disable-next-line avoid-low-level-calls\n        (bool success, bytes memory returndata) = target.call{ value: value }(data);\n        return _verifyCallResult(success, returndata, errorMessage);\n    }\n\n    /**\n     * @dev Same as {xref-Address-functionCall-address-bytes-}[`functionCall`],\n     * but performing a static call.\n     *\n     * _Available since v3.3._\n     */\n    function functionStaticCall(address target, bytes memory data) internal view returns (bytes memory) {\n        return functionStaticCall(target, data, \"Address: low-level static call failed\");\n    }\n\n    /**\n     * @dev Same as {xref-Address-functionCall-address-bytes-string-}[`functionCall`],\n     * but performing a static call.\n     *\n     * _Available since v3.3._\n     */\n    function functionStaticCall(address target, bytes memory data, string memory errorMessage) internal view returns (bytes memory) {\n        require(isContract(target), \"Address: static call to non-contract\");\n\n        // solhint-disable-next-line avoid-low-level-calls\n        (bool success, bytes memory returndata) = target.staticcall(data);\n        return _verifyCallResult(success, returndata, errorMessage);\n    }\n\n    /**\n     * @dev Same as {xref-Address-functionCall-address-bytes-}[`functionCall`],\n     * but performing a delegate call.\n     *\n     * _Available since v3.4._\n     */\n    function functionDelegateCall(address target, bytes memory data) internal returns (bytes memory) {\n        return functionDelegateCall(target, data, \"Address: low-level delegate call failed\");\n    }\n\n    /**\n     * @dev Same as {xref-Address-functionCall-address-bytes-string-}[`functionCall`],\n     * but performing a delegate call.\n     *\n     * _Available since v3.4._\n     */\n    function functionDelegateCall(address target, bytes memory data, string memory errorMessage) internal returns (bytes memory) {\n        require(isContract(target), \"Address: delegate call to non-contract\");\n\n        // solhint-disable-next-line avoid-low-level-calls\n        (bool success, bytes memory returndata) = target.delegatecall(data);\n        return _verifyCallResult(success, returndata, errorMessage);\n    }\n\n    function _verifyCallResult(bool success, bytes memory returndata, string memory errorMessage) private pure returns(bytes memory) {\n        if (success) {\n            return returndata;\n        } else {\n            // Look for revert reason and bubble it up if present\n            if (returndata.length > 0) {\n                // The easiest way to bubble the revert reason is using memory via assembly\n\n                // solhint-disable-next-line no-inline-assembly\n                assembly {\n                    let returndata_size := mload(returndata)\n                    revert(add(32, returndata), returndata_size)\n                }\n            } else {\n                revert(errorMessage);\n            }\n        }\n    }\n}\n\npragma solidity ^0.8.0;\n\n/**\n * @dev String operations.\n */\nlibrary Strings {\n    bytes16 private constant alphabet = \"0123456789abcdef\";\n\n    /**\n     * @dev Converts a `uint256` to its ASCII `string` decimal representation.\n     */\n    function toString(uint256 value) internal pure returns (string memory) {\n        // Inspired by OraclizeAPI's implementation - MIT licence\n        // https://github.com/oraclize/ethereum-api/blob/b42146b063c7d6ee1358846c198246239e9360e8/oraclizeAPI_0.4.25.sol\n\n        if (value == 0) {\n            return \"0\";\n        }\n        uint256 temp = value;\n        uint256 digits;\n        while (temp != 0) {\n            digits++;\n            temp /= 10;\n        }\n        bytes memory buffer = new bytes(digits);\n        while (value != 0) {\n            digits -= 1;\n            buffer[digits] = bytes1(uint8(48 + uint256(value % 10)));\n            value /= 10;\n        }\n        return string(buffer);\n    }\n\n    /**\n     * @dev Converts a `uint256` to its ASCII `string` hexadecimal representation.\n     */\n    function toHexString(uint256 value) internal pure returns (string memory) {\n        if (value == 0) {\n            return \"0x00\";\n        }\n        uint256 temp = value;\n        uint256 length = 0;\n        while (temp != 0) {\n            length++;\n            temp >>= 8;\n        }\n        return toHexString(value, length);\n    }\n\n    /**\n     * @dev Converts a `uint256` to its ASCII `string` hexadecimal representation with fixed length.\n     */\n    function toHexString(uint256 value, uint256 length) internal pure returns (string memory) {\n        bytes memory buffer = new bytes(2 * length + 2);\n        buffer[0] = \"0\";\n        buffer[1] = \"x\";\n        for (uint256 i = 2 * length + 1; i > 1; --i) {\n            buffer[i] = alphabet[value & 0xf];\n            value >>= 4;\n        }\n        require(value == 0, \"Strings: hex length insufficient\");\n        return string(buffer);\n    }\n\n}\n\npragma solidity ^0.8.0;\n\n/**\n * @title ERC721 token receiver interface\n * @dev Interface for any contract that wants to support safeTransfers\n * from ERC721 asset contracts.\n */\ninterface IERC721Receiver {\n    /**\n     * @dev Whenever an {IERC721} `tokenId` token is transferred to this contract via {IERC721-safeTransferFrom}\n     * by `operator` from `from`, this function is called.\n     *\n     * It must return its Solidity selector to confirm the token transfer.\n     * If any other value is returned or the interface is not implemented by the recipient, the transfer will be reverted.\n     *\n     * The selector can be obtained in Solidity with `IERC721.onERC721Received.selector`.\n     */\n    function onERC721Received(address operator, address from, uint256 tokenId, bytes calldata data) external returns (bytes4);\n}\n\npragma solidity ^0.8.0;\n\n/**\n * @dev Interface of the ERC165 standard, as defined in the\n * https://eips.ethereum.org/EIPS/eip-165[EIP].\n *\n * Implementers can declare support of contract interfaces, which can then be\n * queried by others ({ERC165Checker}).\n *\n * For an implementation, see {ERC165}.\n */\ninterface IERC165 {\n    /**\n     * @dev Returns true if this contract implements the interface defined by\n     * `interfaceId`. See the corresponding\n     * https://eips.ethereum.org/EIPS/eip-165#how-interfaces-are-identified[EIP section]\n     * to learn more about how these ids are created.\n     *\n     * This function call must use less than 30 000 gas.\n     */\n    function supportsInterface(bytes4 interfaceId) external view returns (bool);\n}\n\npragma solidity ^0.8.0;\n\n/**\n * @dev Implementation of the {IERC165} interface.\n *\n * Contracts that want to implement ERC165 should inherit from this contract and override {supportsInterface} to check\n * for the additional interface id that will be supported. For example:\n *\n * ```solidity\n * function supportsInterface(bytes4 interfaceId) public view virtual override returns (bool) {\n *     return interfaceId == type(MyInterface).interfaceId || super.supportsInterface(interfaceId);\n * }\n * ```\n *\n * Alternatively, {ERC165Storage} provides an easier to use but more expensive implementation.\n */\nabstract contract ERC165 is IERC165 {\n    /**\n     * @dev See {IERC165-supportsInterface}.\n     */\n    function supportsInterface(bytes4 interfaceId) public view virtual override returns (bool) {\n        return interfaceId == type(IERC165).interfaceId;\n    }\n}\n\npragma solidity ^0.8.0;\n\n/**\n * @dev Required interface of an ERC721 compliant contract.\n */\ninterface IERC721 is IERC165 {\n    /**\n     * @dev Emitted when `tokenId` token is transferred from `from` to `to`.\n     */\n    event Transfer(address indexed from, address indexed to, uint256 indexed tokenId);\n\n    /**\n     * @dev Emitted when `owner` enables `approved` to manage the `tokenId` token.\n     */\n    event Approval(address indexed owner, address indexed approved, uint256 indexed tokenId);\n\n    /**\n     * @dev Emitted when `owner` enables or disables (`approved`) `operator` to manage all of its assets.\n     */\n    event ApprovalForAll(address indexed owner, address indexed operator, bool approved);\n\n    /**\n     * @dev Returns the number of tokens in ``owner``'s account.\n     */\n    function balanceOf(address owner) external view returns (uint256 balance);\n\n    /**\n     * @dev Returns the owner of the `tokenId` token.\n     *\n     * Requirements:\n     *\n     * - `tokenId` must exist.\n     */\n    function ownerOf(uint256 tokenId) external view returns (address owner);\n\n    /**\n     * @dev Safely transfers `tokenId` token from `from` to `to`, checking first that contract recipients\n     * are aware of the ERC721 protocol to prevent tokens from being forever locked.\n     *\n     * Requirements:\n     *\n     * - `from` cannot be the zero address.\n     * - `to` cannot be the zero address.\n     * - `tokenId` token must exist and be owned by `from`.\n     * - If the caller is not `from`, it must be have been allowed to move this token by either {approve} or {setApprovalForAll}.\n     * - If `to` refers to a smart contract, it must implement {IERC721Receiver-onERC721Received}, which is called upon a safe transfer.\n     *\n     * Emits a {Transfer} event.\n     */\n    function safeTransferFrom(address from, address to, uint256 tokenId) external;\n\n    /**\n     * @dev Transfers `tokenId` token from `from` to `to`.\n     *\n     * WARNING: Usage of this method is discouraged, use {safeTransferFrom} whenever possible.\n     *\n     * Requirements:\n     *\n     * - `from` cannot be the zero address.\n     * - `to` cannot be the zero address.\n     * - `tokenId` token must be owned by `from`.\n     * - If the caller is not `from`, it must be approved to move this token by either {approve} or {setApprovalForAll}.\n     *\n     * Emits a {Transfer} event.\n     */\n    function transferFrom(address from, address to, uint256 tokenId) external;\n\n    /**\n     * @dev Gives permission to `to` to transfer `tokenId` token to another account.\n     * The approval is cleared when the token is transferred.\n     *\n     * Only a single account can be approved at a time, so approving the zero address clears previous approvals.\n     *\n     * Requirements:\n     *\n     * - The caller must own the token or be an approved operator.\n     * - `tokenId` must exist.\n     *\n     * Emits an {Approval} event.\n     */\n    function approve(address to, uint256 tokenId) external;\n\n    /**\n     * @dev Returns the account approved for `tokenId` token.\n     *\n     * Requirements:\n     *\n     * - `tokenId` must exist.\n     */\n    function getApproved(uint256 tokenId) external view returns (address operator);\n\n    /**\n     * @dev Approve or remove `operator` as an operator for the caller.\n     * Operators can call {transferFrom} or {safeTransferFrom} for any token owned by the caller.\n     *\n     * Requirements:\n     *\n     * - The `operator` cannot be the caller.\n     *\n     * Emits an {ApprovalForAll} event.\n     */\n    function setApprovalForAll(address operator, bool _approved) external;\n\n    /**\n     * @dev Returns if the `operator` is allowed to manage all of the assets of `owner`.\n     *\n     * See {setApprovalForAll}\n     */\n    function isApprovedForAll(address owner, address operator) external view returns (bool);\n\n    /**\n      * @dev Safely transfers `tokenId` token from `from` to `to`.\n      *\n      * Requirements:\n      *\n      * - `from` cannot be the zero address.\n      * - `to` cannot be the zero address.\n      * - `tokenId` token must exist and be owned by `from`.\n      * - If the caller is not `from`, it must be approved to move this token by either {approve} or {setApprovalForAll}.\n      * - If `to` refers to a smart contract, it must implement {IERC721Receiver-onERC721Received}, which is called upon a safe transfer.\n      *\n      * Emits a {Transfer} event.\n      */\n    function safeTransferFrom(address from, address to, uint256 tokenId, bytes calldata data) external;\n}\n\npragma solidity ^0.8.0;\n\n/**\n * @title ERC-721 Non-Fungible Token Standard, optional metadata extension\n * @dev See https://eips.ethereum.org/EIPS/eip-721\n */\ninterface IERC721Metadata is IERC721 {\n\n    /**\n     * @dev Returns the token collection name.\n     */\n    function name() external view returns (string memory);\n\n    /**\n     * @dev Returns the token collection symbol.\n     */\n    function symbol() external view returns (string memory);\n\n    /**\n     * @dev Returns the Uniform Resource Identifier (URI) for `tokenId` token.\n     */\n    function tokenURI(uint256 tokenId) external view returns (string memory);\n}\n\n/**\n * @dev Implementation of https://eips.ethereum.org/EIPS/eip-721[ERC721] Non-Fungible Token Standard, including\n * the Metadata extension, but not including the Enumerable extension, which is available separately as\n * {ERC721Enumerable}.\n */\ncontract ERC721 is Context, ERC165, IERC721, IERC721Metadata {\n    using Address for address;\n    using Strings for uint256;\n\n    // Token name\n    string private _name;\n\n    // Token symbol\n    string private _symbol;\n\n    // Mapping from token ID to owner address\n    mapping (uint256 => address) private _owners;\n\n    // Mapping owner address to token count\n    mapping (address => uint256) private _balances;\n\n    // Mapping from token ID to approved address\n    mapping (uint256 => address) private _tokenApprovals;\n\n    // Mapping from owner to operator approvals\n    mapping (address => mapping (address => bool)) private _operatorApprovals;\n\n    /**\n     * @dev Initializes the contract by setting a `name` and a `symbol` to the token collection.\n     */\n    constructor (string memory name_, string memory symbol_) {\n        _name = name_;\n        _symbol = symbol_;\n    }\n\n    /**\n     * @dev See {IERC165-supportsInterface}.\n     */\n    function supportsInterface(bytes4 interfaceId) public view virtual override(ERC165, IERC165) returns (bool) {\n        return interfaceId == type(IERC721).interfaceId\n            || interfaceId == type(IERC721Metadata).interfaceId\n            || super.supportsInterface(interfaceId);\n    }\n\n    /**\n     * @dev See {IERC721-balanceOf}.\n     */\n    function balanceOf(address owner) public view virtual override returns (uint256) {\n        require(owner != address(0), \"ERC721: balance query for the zero address\");\n        return _balances[owner];\n    }\n\n    /**\n     * @dev See {IERC721-ownerOf}.\n     */\n    function ownerOf(uint256 tokenId) public view virtual override returns (address) {\n        address owner = _owners[tokenId];\n        require(owner != address(0), \"ERC721: owner query for nonexistent token\");\n        return owner;\n    }\n\n    /**\n     * @dev See {IERC721Metadata-name}.\n     */\n    function name() public view virtual override returns (string memory) {\n        return _name;\n    }\n\n    /**\n     * @dev See {IERC721Metadata-symbol}.\n     */\n    function symbol() public view virtual override returns (string memory) {\n        return _symbol;\n    }\n\n    /**\n     * @dev See {IERC721Metadata-tokenURI}.\n     */\n    function tokenURI(uint256 tokenId) public view virtual override returns (string memory) {\n        require(_exists(tokenId), \"ERC721Metadata: URI query for nonexistent token\");\n\n        string memory baseURI = _baseURI();\n        return bytes(baseURI).length > 0\n            ? string(abi.encodePacked(baseURI, tokenId.toString()))\n            : '';\n    }\n\n    /**\n     * @dev Base URI for computing {tokenURI}. Empty by default, can be overriden\n     * in child contracts.\n     */\n    function _baseURI() internal view virtual returns (string memory) {\n        return \"https://gateway.pinata.cloud/ipfs/\";\n    }\n\n    /**\n     * @dev See {IERC721-approve}.\n     */\n    function approve(address to, uint256 tokenId) public virtual override {\n        address owner = ERC721.ownerOf(tokenId);\n        require(to != owner, \"ERC721: approval to current owner\");\n\n        require(_msgSender() == owner || ERC721.isApprovedForAll(owner, _msgSender()),\n            \"ERC721: approve caller is not owner nor approved for all\"\n        );\n\n        _approve(to, tokenId);\n    }\n\n    /**\n     * @dev See {IERC721-getApproved}.\n     */\n    function getApproved(uint256 tokenId) public view virtual override returns (address) {\n        require(_exists(tokenId), \"ERC721: approved query for nonexistent token\");\n\n        return _tokenApprovals[tokenId];\n    }\n\n    /**\n     * @dev See {IERC721-setApprovalForAll}.\n     */\n    function setApprovalForAll(address operator, bool approved) public virtual override {\n        require(operator != _msgSender(), \"ERC721: approve to caller\");\n\n        _operatorApprovals[_msgSender()][operator] = approved;\n        emit ApprovalForAll(_msgSender(), operator, approved);\n    }\n\n    /**\n     * @dev See {IERC721-isApprovedForAll}.\n     */\n    function isApprovedForAll(address owner, address operator) public view virtual override returns (bool) {\n        return _operatorApprovals[owner][operator];\n    }\n\n    /**\n     * @dev See {IERC721-transferFrom}.\n     */\n    function transferFrom(address from, address to, uint256 tokenId) public virtual override {\n        //solhint-disable-next-line max-line-length\n        require(_isApprovedOrOwner(_msgSender(), tokenId), \"ERC721: transfer caller is not owner nor approved\");\n\n        _transfer(from, to, tokenId);\n    }\n\n    /**\n     * @dev See {IERC721-safeTransferFrom}.\n     */\n    function safeTransferFrom(address from, address to, uint256 tokenId) public virtual override {\n        safeTransferFrom(from, to, tokenId, \"\");\n    }\n\n    /**\n     * @dev See {IERC721-safeTransferFrom}.\n     */\n    function safeTransferFrom(address from, address to, uint256 tokenId, bytes memory _data) public virtual override {\n        require(_isApprovedOrOwner(_msgSender(), tokenId), \"ERC721: transfer caller is not owner nor approved\");\n        _safeTransfer(from, to, tokenId, _data);\n    }\n\n    /**\n     * @dev Safely transfers `tokenId` token from `from` to `to`, checking first that contract recipients\n     * are aware of the ERC721 protocol to prevent tokens from being forever locked.\n     *\n     * `_data` is additional data, it has no specified format and it is sent in call to `to`.\n     *\n     * This internal function is equivalent to {safeTransferFrom}, and can be used to e.g.\n     * implement alternative mechanisms to perform token transfer, such as signature-based.\n     *\n     * Requirements:\n     *\n     * - `from` cannot be the zero address.\n     * - `to` cannot be the zero address.\n     * - `tokenId` token must exist and be owned by `from`.\n     * - If `to` refers to a smart contract, it must implement {IERC721Receiver-onERC721Received}, which is called upon a safe transfer.\n     *\n     * Emits a {Transfer} event.\n     */\n    function _safeTransfer(address from, address to, uint256 tokenId, bytes memory _data) internal virtual {\n        _transfer(from, to, tokenId);\n        require(_checkOnERC721Received(from, to, tokenId, _data), \"ERC721: transfer to non ERC721Receiver implementer\");\n    }\n\n    /**\n     * @dev Returns whether `tokenId` exists.\n     *\n     * Tokens can be managed by their owner or approved accounts via {approve} or {setApprovalForAll}.\n     *\n     * Tokens start existing when they are minted (`_mint`),\n     * and stop existing when they are burned (`_burn`).\n     */\n    function _exists(uint256 tokenId) internal view virtual returns (bool) {\n        return _owners[tokenId] != address(0);\n    }\n\n    /**\n     * @dev Returns whether `spender` is allowed to manage `tokenId`.\n     *\n     * Requirements:\n     *\n     * - `tokenId` must exist.\n     */\n    function _isApprovedOrOwner(address spender, uint256 tokenId) internal view virtual returns (bool) {\n        require(_exists(tokenId), \"ERC721: operator query for nonexistent token\");\n        address owner = ERC721.ownerOf(tokenId);\n        return (spender == owner || getApproved(tokenId) == spender || ERC721.isApprovedForAll(owner, spender));\n    }\n\n    /**\n     * @dev Safely mints `tokenId` and transfers it to `to`.\n     *\n     * Requirements:\n     *\n     * - `tokenId` must not exist.\n     * - If `to` refers to a smart contract, it must implement {IERC721Receiver-onERC721Received}, which is called upon a safe transfer.\n     *\n     * Emits a {Transfer} event.\n     */\n    function _safeMint(address to, uint256 tokenId) internal virtual {\n        _safeMint(to, tokenId, \"\");\n    }\n\n    /**\n     * @dev Same as {xref-ERC721-_safeMint-address-uint256-}[`_safeMint`], with an additional `data` parameter which is\n     * forwarded in {IERC721Receiver-onERC721Received} to contract recipients.\n     */\n    function _safeMint(address to, uint256 tokenId, bytes memory _data) internal virtual {\n        _mint(to, tokenId);\n        require(_checkOnERC721Received(address(0), to, tokenId, _data), \"ERC721: transfer to non ERC721Receiver implementer\");\n    }\n\n    /**\n     * @dev Mints `tokenId` and transfers it to `to`.\n     *\n     * WARNING: Usage of this method is discouraged, use {_safeMint} whenever possible\n     *\n     * Requirements:\n     *\n     * - `tokenId` must not exist.\n     * - `to` cannot be the zero address.\n     *\n     * Emits a {Transfer} event.\n     */\n    function _mint(address to, uint256 tokenId) internal virtual {\n        require(to != address(0), \"ERC721: mint to the zero address\");\n        require(!_exists(tokenId), \"ERC721: token already minted\");\n\n        _beforeTokenTransfer(address(0), to, tokenId);\n\n        _balances[to] += 1;\n        _owners[tokenId] = to;\n\n        emit Transfer(address(0), to, tokenId);\n    }\n\n    /**\n     * @dev Destroys `tokenId`.\n     * The approval is cleared when the token is burned.\n     *\n     * Requirements:\n     *\n     * - `tokenId` must exist.\n     *\n     * Emits a {Transfer} event.\n     */\n    function _burn(uint256 tokenId) internal virtual {\n        address owner = ERC721.ownerOf(tokenId);\n\n        _beforeTokenTransfer(owner, address(0), tokenId);\n\n        // Clear approvals\n        _approve(address(0), tokenId);\n\n        _balances[owner] -= 1;\n        delete _owners[tokenId];\n\n        emit Transfer(owner, address(0), tokenId);\n    }\n\n    /**\n     * @dev Transfers `tokenId` from `from` to `to`.\n     *  As opposed to {transferFrom}, this imposes no restrictions on msg.sender.\n     *\n     * Requirements:\n     *\n     * - `to` cannot be the zero address.\n     * - `tokenId` token must be owned by `from`.\n     *\n     * Emits a {Transfer} event.\n     */\n    function _transfer(address from, address to, uint256 tokenId) internal virtual {\n        require(ERC721.ownerOf(tokenId) == from, \"ERC721: transfer of token that is not own\");\n        require(to != address(0), \"ERC721: transfer to the zero address\");\n\n        _beforeTokenTransfer(from, to, tokenId);\n\n        // Clear approvals from the previous owner\n        _approve(address(0), tokenId);\n\n        _balances[from] -= 1;\n        _balances[to] += 1;\n        _owners[tokenId] = to;\n\n        emit Transfer(from, to, tokenId);\n    }\n\n    /**\n     * @dev Approve `to` to operate on `tokenId`\n     *\n     * Emits a {Approval} event.\n     */\n    function _approve(address to, uint256 tokenId) internal virtual {\n        _tokenApprovals[tokenId] = to;\n        emit Approval(ERC721.ownerOf(tokenId), to, tokenId);\n    }\n\n    /**\n     * @dev Internal function to invoke {IERC721Receiver-onERC721Received} on a target address.\n     * The call is not executed if the target address is not a contract.\n     *\n     * @param from address representing the previous owner of the given token ID\n     * @param to target address that will receive the tokens\n     * @param tokenId uint256 ID of the token to be transferred\n     * @param _data bytes optional data to send along with the call\n     * @return bool whether the call correctly returned the expected magic value\n     */\n    function _checkOnERC721Received(address from, address to, uint256 tokenId, bytes memory _data)\n        private returns (bool)\n    {\n        if (to.isContract()) {\n            try IERC721Receiver(to).onERC721Received(_msgSender(), from, tokenId, _data) returns (bytes4 retval) {\n                return retval == IERC721Receiver(to).onERC721Received.selector;\n            } catch (bytes memory reason) {\n                if (reason.length == 0) {\n                    revert(\"ERC721: transfer to non ERC721Receiver implementer\");\n                } else {\n                    // solhint-disable-next-line no-inline-assembly\n                    assembly {\n                        revert(add(32, reason), mload(reason))\n                    }\n                }\n            }\n        } else {\n            return true;\n        }\n    }\n\n    /**\n     * @dev Hook that is called before any token transfer. This includes minting\n     * and burning.\n     *\n     * Calling conditions:\n     *\n     * - When `from` and `to` are both non-zero, ``from``'s `tokenId` will be\n     * transferred to `to`.\n     * - When `from` is zero, `tokenId` will be minted for `to`.\n     * - When `to` is zero, ``from``'s `tokenId` will be burned.\n     * - `from` cannot be the zero address.\n     * - `to` cannot be the zero address.\n     *\n     * To learn more about hooks, head to xref:ROOT:extending-contracts.adoc#using-hooks[Using Hooks].\n     */\n    function _beforeTokenTransfer(address from, address to, uint256 tokenId) internal virtual { }\n}\n\npragma solidity ^0.8.0;\n\n/**\n * @dev ERC721 token with storage based token uri management.\n */\nabstract contract ERC721URIStorage is ERC721 {\n    using Strings for uint256;\n\n    // Optional mapping for token URIs\n    mapping (uint256 => string) private _tokenURIs;\n\n    /**\n     * @dev See {IERC721Metadata-tokenURI}.\n     */\n    function tokenURI(uint256 tokenId) public view virtual override returns (string memory) {\n        require(_exists(tokenId), \"ERC721URIStorage: URI query for nonexistent token\");\n\n        string memory _tokenURI = _tokenURIs[tokenId];\n        string memory base = _baseURI();\n\n        // If there is no base URI, return the token URI.\n        if (bytes(base).length == 0) {\n            return _tokenURI;\n        }\n        // If both are set, concatenate the baseURI and tokenURI (via abi.encodePacked).\n        if (bytes(_tokenURI).length > 0) {\n            return string(abi.encodePacked(base, _tokenURI));\n        }\n\n        return super.tokenURI(tokenId);\n    }\n\n    /**\n     * @dev Sets `_tokenURI` as the tokenURI of `tokenId`.\n     *\n     * Requirements:\n     *\n     * - `tokenId` must exist.\n     */\n    function _setTokenURI(uint256 tokenId, string memory _tokenURI) internal virtual {\n        require(_exists(tokenId), \"ERC721URIStorage: URI set of nonexistent token\");\n        _tokenURIs[tokenId] = _tokenURI;\n    }\n\n    /**\n     * @dev Destroys `tokenId`.\n     * The approval is cleared when the token is burned.\n     *\n     * Requirements:\n     *\n     * - `tokenId` must exist.\n     *\n     * Emits a {Transfer} event.\n     */\n    function _burn(uint256 tokenId) internal virtual override {\n        super._burn(tokenId);\n\n        if (bytes(_tokenURIs[tokenId]).length != 0) {\n            delete _tokenURIs[tokenId];\n        }\n    }\n}\n\npragma solidity ^0.8.0;\n\n/**\n * @dev Contract module which provides a basic access control mechanism, where\n * there is an account (an owner) that can be granted exclusive access to\n * specific functions.\n *\n * By default, the owner account will be the one that deploys the contract. This\n * can later be changed with {transferOwnership}.\n *\n * This module is used through inheritance. It will make available the modifier\n * `onlyOwner`, which can be applied to your functions to restrict their use to\n * the owner.\n */\nabstract contract Ownable is ERC721URIStorage {\n    address private _owner;\n\n    event OwnershipTransferred(address indexed previousOwner, address indexed newOwner);\n\n    /**\n     * @dev Initializes the contract setting the deployer as the initial owner.\n     */\n    constructor () {\n        address msgSender = _msgSender();\n        _owner = msgSender;\n        emit OwnershipTransferred(address(0), msgSender);\n    }\n\n    /**\n     * @dev Returns the address of the current owner.\n     */\n    function owner() public view virtual returns (address) {\n        return _owner;\n    }\n\n    /**\n     * @dev Throws if called by any account other than the owner.\n     */\n    modifier onlyOwner() {\n        require(owner() == _msgSender(), \"Ownable: caller is not the owner\");\n        _;\n    }\n\n    /**\n     * @dev Leaves the contract without owner. It will not be possible to call\n     * `onlyOwner` functions anymore. Can only be called by the current owner.\n     *\n     * NOTE: Renouncing ownership will leave the contract without an owner,\n     * thereby removing any functionality that is only available to the owner.\n     */\n    function renounceOwnership() public virtual onlyOwner {\n        emit OwnershipTransferred(_owner, address(0));\n        _owner = address(0);\n    }\n\n    /**\n     * @dev Transfers ownership of the contract to a new account (`newOwner`).\n     * Can only be called by the current owner.\n     */\n    function transferOwnership(address newOwner) public virtual onlyOwner {\n        require(newOwner != address(0), \"Ownable: new owner is the zero address\");\n        emit OwnershipTransferred(_owner, newOwner);\n        _owner = newOwner;\n    }\n}\n\npragma solidity ^0.8.0;\n/* Contract for Cryptonauts */\n\ncontract Cryptonaut is Ownable{\n    uint256 public hardCap;\n    uint256 public currentPrice;\n    bool public locked;\n    uint256 tokenId;\n    \n    constructor() \n\n    ERC721('Cryptonaut', 'CRTN')\n    {\n        hardCap = 1000;\n        currentPrice = 1 * (10 ** 18); // 1 ether\n        locked = false;\n        tokenId = 1;\n    }\n\n    function buyCryptonaut(string memory tokenHash) public payable {\n        require(!locked, 'Buying Cryptonauts is locked.');\n        require(msg.sender != address(0) && msg.sender != address(this));\n        require(msg.value >= currentPrice, 'Not enough ether.');\n        require(!_exists(tokenId), 'Token already minted.');\n        require(tokenId <= hardCap, 'Sale has ended.');\n        _safeMint(msg.sender, tokenId);\n        _setTokenURI(tokenId, tokenHash); \n        tokenId = tokenId + 1; \n    }\n\n    function tokensOfOwner(address _owner) external view returns(uint256[] memory) {\n        uint256 tokenCount = balanceOf(_owner);\n\n        if (tokenCount == 0) {\n            // Return an empty array\n            return new uint256[](0);\n        } else {\n            uint256[] memory result = new uint256[](tokenCount);\n            uint256 totalCryptonauts = tokenId - 1;\n            uint256 resultIndex = 0;\n\n            // We count on the fact that all cats have IDs starting at 1 and increasing\n            // sequentially up to the totalCat count.\n            uint256 cryptonautId;\n\n            for (cryptonautId = 1; cryptonautId <= totalCryptonauts; cryptonautId++) {\n                if (ownerOf(cryptonautId) == _owner) {\n                    result[resultIndex] = cryptonautId;\n                    resultIndex++;\n                }\n            }\n\n            return result;\n        }\n    }\n\n    function sendTo(address payable _payee) public onlyOwner{\n        require(_payee != address(0) && _payee != address(this));\n        //require(_amount > 0 && _amount <= address(this).balance, 'Not enough ether in contract.');\n        _payee.transfer(address(this).balance);\n    }\n    \n    function getContractBalance() public view returns(uint256){\n        return(address(this).balance);\n    }\n\n    function setCurrentPrice(uint256 _currentPrice) public onlyOwner {\n        currentPrice = _currentPrice * (10 ** 18);\n    }\n    \n    function getCurrentPrice() public view returns(uint256){\n        return(currentPrice);\n    }\n\n    function getNextTokenId() public view returns(uint256){\n        return(tokenId);\n    }\n\n    function unlock() public onlyOwner {\n        require(locked, 'Contract is unlocked.');\n        locked = false;\n    }\n\n    function lock() public onlyOwner {\n        require(!locked, 'Contract is locked.');\n        locked = true;\n    }\n}\n\n\n",
  "sourcePath": "/Users/brendanmorrison/Code/Cryptonauts/contracts/Cryptonaut.sol",
  "compiler": {
    "name": "solc",
    "version": "0.8.0+commit.c7dfd78e.Emscripten.clang"
  },
  "schemaVersion": "3.3.4",
  "updatedAt": "2021-05-01T18:38:51.685Z",
  "devdoc": {
    "kind": "dev",
    "methods": {
      "approve(address,uint256)": {
        "details": "See {IERC721-approve}."
      },
      "balanceOf(address)": {
        "details": "See {IERC721-balanceOf}."
      },
      "getApproved(uint256)": {
        "details": "See {IERC721-getApproved}."
      },
      "isApprovedForAll(address,address)": {
        "details": "See {IERC721-isApprovedForAll}."
      },
      "name()": {
        "details": "See {IERC721Metadata-name}."
      },
      "owner()": {
        "details": "Returns the address of the current owner."
      },
      "ownerOf(uint256)": {
        "details": "See {IERC721-ownerOf}."
      },
      "renounceOwnership()": {
        "details": "Leaves the contract without owner. It will not be possible to call `onlyOwner` functions anymore. Can only be called by the current owner. NOTE: Renouncing ownership will leave the contract without an owner, thereby removing any functionality that is only available to the owner."
      },
      "safeTransferFrom(address,address,uint256)": {
        "details": "See {IERC721-safeTransferFrom}."
      },
      "safeTransferFrom(address,address,uint256,bytes)": {
        "details": "See {IERC721-safeTransferFrom}."
      },
      "setApprovalForAll(address,bool)": {
        "details": "See {IERC721-setApprovalForAll}."
      },
      "supportsInterface(bytes4)": {
        "details": "See {IERC165-supportsInterface}."
      },
      "symbol()": {
        "details": "See {IERC721Metadata-symbol}."
      },
      "tokenURI(uint256)": {
        "details": "See {IERC721Metadata-tokenURI}."
      },
      "transferFrom(address,address,uint256)": {
        "details": "See {IERC721-transferFrom}."
      },
      "transferOwnership(address)": {
        "details": "Transfers ownership of the contract to a new account (`newOwner`). Can only be called by the current owner."
      }
    },
    "version": 1
  },
  "userdoc": {
    "kind": "user",
    "methods": {},
    "version": 1
  }
}