{
  "contractName": "DummyImplementationV2",
  "abi": [
    {
      "inputs": [],
      "name": "get",
      "outputs": [
        {
          "internalType": "bool",
          "name": "",
          "type": "bool"
        }
      ],
      "stateMutability": "pure",
      "type": "function"
    },
    {
      "inputs": [
        {
          "internalType": "uint256",
          "name": "_value",
          "type": "uint256"
        },
        {
          "internalType": "string",
          "name": "_text",
          "type": "string"
        },
        {
          "internalType": "uint256[]",
          "name": "_values",
          "type": "uint256[]"
        }
      ],
      "name": "initialize",
      "outputs": [],
      "stateMutability": "nonpayable",
      "type": "function"
    },
    {
      "inputs": [],
      "name": "initializeNonPayable",
      "outputs": [],
      "stateMutability": "nonpayable",
      "type": "function"
    },
    {
      "inputs": [
        {
          "internalType": "uint256",
          "name": "_value",
          "type": "uint256"
        }
      ],
      "name": "initializeNonPayableWithValue",
      "outputs": [],
      "stateMutability": "nonpayable",
      "type": "function"
    },
    {
      "inputs": [],
      "name": "initializePayable",
      "outputs": [],
      "stateMutability": "payable",
      "type": "function"
    },
    {
      "inputs": [
        {
          "internalType": "uint256",
          "name": "_value",
          "type": "uint256"
        }
      ],
      "name": "initializePayableWithValue",
      "outputs": [],
      "stateMutability": "payable",
      "type": "function"
    },
    {
      "inputs": [],
      "name": "reverts",
      "outputs": [],
      "stateMutability": "pure",
      "type": "function"
    },
    {
      "inputs": [],
      "name": "text",
      "outputs": [
        {
          "internalType": "string",
          "name": "",
          "type": "string"
        }
      ],
      "stateMutability": "view",
      "type": "function"
    },
    {
      "inputs": [],
      "name": "value",
      "outputs": [
        {
          "internalType": "uint256",
          "name": "",
          "type": "uint256"
        }
      ],
      "stateMutability": "view",
      "type": "function"
    },
    {
      "inputs": [
        {
          "internalType": "uint256",
          "name": "",
          "type": "uint256"
        }
      ],
      "name": "values",
      "outputs": [
        {
          "internalType": "uint256",
          "name": "",
          "type": "uint256"
        }
      ],
      "stateMutability": "view",
      "type": "function"
    },
    {
      "inputs": [
        {
          "internalType": "uint256",
          "name": "newVal",
          "type": "uint256"
        }
      ],
      "name": "migrate",
      "outputs": [],
      "stateMutability": "payable",
      "type": "function"
    },
    {
      "inputs": [],
      "name": "version",
      "outputs": [
        {
          "internalType": "string",
          "name": "",
          "type": "string"
        }
      ],
      "stateMutability": "pure",
      "type": "function"
    }
  ],
  "bytecode": "0x608060405234801561001057600080fd5b506109df806100206000396000f3fe6080604052600436106100a75760003560e01c80635e383d21116100645780635e383d21146101775780636d4ce63c146101b4578063763e2831146101df5780639fba1f9a14610208578063d31f8b6b14610212578063e79f5bee1461023b576100a7565b80631f1bd692146100ac578063227367d5146100d75780633bccbbc9146100ee5780633fa4f24514610105578063454b06081461013057806354fd4d501461014c575b600080fd5b3480156100b857600080fd5b506100c1610257565b6040516100ce9190610744565b60405180910390f35b3480156100e357600080fd5b506100ec6102e5565b005b3480156100fa57600080fd5b506101036102ef565b005b34801561011157600080fd5b5061011a610332565b6040516101279190610786565b60405180910390f35b61014a60048036038101906101459190610607565b610338565b005b34801561015857600080fd5b50610161610342565b60405161016e9190610744565b60405180910390f35b34801561018357600080fd5b5061019e60048036038101906101999190610607565b61037f565b6040516101ab9190610786565b60405180910390f35b3480156101c057600080fd5b506101c96103a3565b6040516101d69190610729565b60405180910390f35b3480156101eb57600080fd5b5061020660048036038101906102019190610607565b6103ac565b005b6102106103b6565b005b34801561021e57600080fd5b5061023960048036038101906102349190610630565b6103c0565b005b61025560048036038101906102509190610607565b6103fa565b005b6001805461026490610897565b80601f016020809104026020016040519081016040528092919081815260200182805461029090610897565b80156102dd5780601f106102b2576101008083540402835291602001916102dd565b820191906000526020600020905b8154815290600101906020018083116102c057829003601f168201915b505050505081565b600a600081905550565b6000610330576040517f08c379a000000000000000000000000000000000000000000000000000000000815260040161032790610766565b60405180910390fd5b565b60005481565b8060008190555050565b60606040518060400160405280600281526020017f5632000000000000000000000000000000000000000000000000000000000000815250905090565b6002818154811061038f57600080fd5b906000526020600020016000915090505481565b60006001905090565b8060008190555050565b6064600081905550565b8260008190555081600190805190602001906103dd929190610404565b5080600290805190602001906103f492919061048a565b50505050565b8060008190555050565b82805461041090610897565b90600052602060002090601f0160209004810192826104325760008555610479565b82601f1061044b57805160ff1916838001178555610479565b82800160010185558215610479579182015b8281111561047857825182559160200191906001019061045d565b5b50905061048691906104d7565b5090565b8280548282559060005260206000209081019282156104c6579160200282015b828111156104c55782518255916020019190600101906104aa565b5b5090506104d391906104d7565b5090565b5b808211156104f05760008160009055506001016104d8565b5090565b6000610507610502846107c6565b6107a1565b9050808382526020820190508285602086028201111561052657600080fd5b60005b85811015610556578161053c88826105f2565b845260208401935060208301925050600181019050610529565b5050509392505050565b600061057361056e846107f2565b6107a1565b90508281526020810184848401111561058b57600080fd5b610596848285610855565b509392505050565b600082601f8301126105af57600080fd5b81356105bf8482602086016104f4565b91505092915050565b600082601f8301126105d957600080fd5b81356105e9848260208601610560565b91505092915050565b60008135905061060181610992565b92915050565b60006020828403121561061957600080fd5b6000610627848285016105f2565b91505092915050565b60008060006060848603121561064557600080fd5b6000610653868287016105f2565b935050602084013567ffffffffffffffff81111561067057600080fd5b61067c868287016105c8565b925050604084013567ffffffffffffffff81111561069957600080fd5b6106a58682870161059e565b9150509250925092565b6106b88161083f565b82525050565b60006106c982610823565b6106d3818561082e565b93506106e3818560208601610864565b6106ec81610958565b840191505092915050565b6000610704601c8361082e565b915061070f82610969565b602082019050919050565b6107238161084b565b82525050565b600060208201905061073e60008301846106af565b92915050565b6000602082019050818103600083015261075e81846106be565b905092915050565b6000602082019050818103600083015261077f816106f7565b9050919050565b600060208201905061079b600083018461071a565b92915050565b60006107ab6107bc565b90506107b782826108c9565b919050565b6000604051905090565b600067ffffffffffffffff8211156107e1576107e0610929565b5b602082029050602081019050919050565b600067ffffffffffffffff82111561080d5761080c610929565b5b61081682610958565b9050602081019050919050565b600081519050919050565b600082825260208201905092915050565b60008115159050919050565b6000819050919050565b82818337600083830152505050565b60005b83811015610882578082015181840152602081019050610867565b83811115610891576000848401525b50505050565b600060028204905060018216806108af57607f821691505b602082108114156108c3576108c26108fa565b5b50919050565b6108d282610958565b810181811067ffffffffffffffff821117156108f1576108f0610929565b5b80604052505050565b7f4e487b7100000000000000000000000000000000000000000000000000000000600052602260045260246000fd5b7f4e487b7100000000000000000000000000000000000000000000000000000000600052604160045260246000fd5b6000601f19601f8301169050919050565b7f44756d6d79496d706c656d656e746174696f6e20726576657274656400000000600082015250565b61099b8161084b565b81146109a657600080fd5b5056fea2646970667358221220445ffd340cb05064565949e41bec1dbd1d0703256caf468669e4331e56bcbfc964736f6c63430008030033",
  "immutableReferences": {},
  "source": "// SPDX-License-Identifier: MIT\n\npragma solidity ^0.8.0;\n\nabstract contract Impl {\n  function version() public pure virtual returns (string memory); \n}\n\ncontract DummyImplementation {\n  uint256 public value;\n  string public text;\n  uint256[] public values;\n\n  function initializeNonPayable() public {\n    value = 10;\n  }\n\n  function initializePayable() public payable {\n    value = 100;\n  }\n\n  function initializeNonPayableWithValue(uint256 _value) public {\n    value = _value;\n  }\n\n  function initializePayableWithValue(uint256 _value) public payable {\n    value = _value;\n  }\n\n  function initialize(uint256 _value, string memory _text, uint256[] memory _values) public {\n    value = _value;\n    text = _text;\n    values = _values;\n  }\n\n  function get() public pure returns (bool) {\n    return true;\n  }\n\n  function version() public pure virtual returns (string memory) {\n    return \"V1\";\n  }\n\n  function reverts() public pure {\n    require(false, \"DummyImplementation reverted\");\n  }\n}\n\ncontract DummyImplementationV2 is DummyImplementation {\n  function migrate(uint256 newVal) public payable {\n    value = newVal;\n  }\n\n  function version() public pure override returns (string memory) {\n    return \"V2\";\n  }\n}\n",
  "sourcePath": "/Users/brendanmorrison/Code/Nftrees/contracts/OpenZepplin/mocks/DummyImplementation.sol",
  "compiler": {
    "name": "solc",
    "version": "0.8.3+commit.8d00100c.Emscripten.clang"
  },
  "schemaVersion": "3.3.4",
  "updatedAt": "2021-05-19T17:43:05.601Z",
  "devdoc": {
    "kind": "dev",
    "methods": {},
    "version": 1
  },
  "userdoc": {
    "kind": "user",
    "methods": {},
    "version": 1
  }
}