{
  "contractName": "EIP712External",
  "abi": [
    {
      "inputs": [
        {
          "internalType": "string",
          "name": "name",
          "type": "string"
        },
        {
          "internalType": "string",
          "name": "version",
          "type": "string"
        }
      ],
      "stateMutability": "nonpayable",
      "type": "constructor"
    },
    {
      "inputs": [],
      "name": "domainSeparator",
      "outputs": [
        {
          "internalType": "bytes32",
          "name": "",
          "type": "bytes32"
        }
      ],
      "stateMutability": "view",
      "type": "function"
    },
    {
      "inputs": [
        {
          "internalType": "bytes",
          "name": "signature",
          "type": "bytes"
        },
        {
          "internalType": "address",
          "name": "signer",
          "type": "address"
        },
        {
          "internalType": "address",
          "name": "mailTo",
          "type": "address"
        },
        {
          "internalType": "string",
          "name": "mailContents",
          "type": "string"
        }
      ],
      "name": "verify",
      "outputs": [],
      "stateMutability": "view",
      "type": "function"
    },
    {
      "inputs": [],
      "name": "getChainId",
      "outputs": [
        {
          "internalType": "uint256",
          "name": "",
          "type": "uint256"
        }
      ],
      "stateMutability": "view",
      "type": "function"
    }
  ],
  "bytecode": "0x6101206040523480156200001257600080fd5b50604051620010243803806200102483398181016040528101906200003891906200016d565b818160008280519060200120905060008280519060200120905060007f8b73c3c69bb8fe3d512ecc4cf759cc79239f7b179b0ffacaa9a75d522b39400f90508260c081815250508160e081815250504660a08181525050620000a2818484620000bf60201b60201c565b6080818152505080610100818152505050505050505050620003c3565b60008383834630604051602001620000dc95949392919062000213565b6040516020818303038152906040528051906020012090509392505050565b6000620001126200010c8462000299565b62000270565b9050828152602081018484840111156200012b57600080fd5b6200013884828562000317565b509392505050565b600082601f8301126200015257600080fd5b815162000164848260208601620000fb565b91505092915050565b600080604083850312156200018157600080fd5b600083015167ffffffffffffffff8111156200019c57600080fd5b620001aa8582860162000140565b925050602083015167ffffffffffffffff811115620001c857600080fd5b620001d68582860162000140565b9150509250929050565b620001eb81620002cf565b82525050565b620001fc81620002e3565b82525050565b6200020d816200030d565b82525050565b600060a0820190506200022a6000830188620001f1565b620002396020830187620001f1565b620002486040830186620001f1565b62000257606083018562000202565b620002666080830184620001e0565b9695505050505050565b60006200027c6200028f565b90506200028a82826200034d565b919050565b6000604051905090565b600067ffffffffffffffff821115620002b757620002b662000383565b5b620002c282620003b2565b9050602081019050919050565b6000620002dc82620002ed565b9050919050565b6000819050919050565b600073ffffffffffffffffffffffffffffffffffffffff82169050919050565b6000819050919050565b60005b83811015620003375780820151818401526020810190506200031a565b8381111562000347576000848401525b50505050565b6200035882620003b2565b810181811067ffffffffffffffff821117156200037a576200037962000383565b5b80604052505050565b7f4e487b7100000000000000000000000000000000000000000000000000000000600052604160045260246000fd5b6000601f19601f8301169050919050565b60805160a05160c05160e05161010051610c1c62000408600039600061029c015260006102de015260006102bd01526000610249015260006102710152610c1c6000f3fe608060405234801561001057600080fd5b50600436106100415760003560e01c806308c6e079146100465780633408e47014610062578063f698da2514610080575b600080fd5b610060600480360381019061005b91906105e5565b61009e565b005b61006a61014a565b604051610077919061091b565b60405180910390f35b610088610152565b60405161009591906107b1565b60405180910390f35b60006100fa7f847fc9da8ec3c72cae85ca691245eaeb0a4a1e74f77c3a919c43afda231d39ba8484805190602001206040516020016100df939291906107cc565b60405160208183030381529060405280519060200120610161565b90506000610108828761017b565b90508473ffffffffffffffffffffffffffffffffffffffff168173ffffffffffffffffffffffffffffffffffffffff161461014257600080fd5b505050505050565b600046905090565b600061015c610245565b905090565b600061017461016e610245565b83610308565b9050919050565b6000806000806041855114156101a8576020850151925060408501519150606085015160001a905061022e565b6040855114156101f2576040850151602086015193507f7fffffffffffffffffffffffffffffffffffffffffffffffffffffffffffffff81169250601b8160ff1c0191505061022d565b6040517f08c379a0000000000000000000000000000000000000000000000000000000008152600401610224906108bb565b60405180910390fd5b5b61023a8682858561033b565b935050505092915050565b60007f0000000000000000000000000000000000000000000000000000000000000000461415610297577f00000000000000000000000000000000000000000000000000000000000000009050610305565b6103027f00000000000000000000000000000000000000000000000000000000000000007f00000000000000000000000000000000000000000000000000000000000000007f00000000000000000000000000000000000000000000000000000000000000006104c6565b90505b90565b6000828260405160200161031d92919061077a565b60405160208183030381529060405280519060200120905092915050565b60007f7fffffffffffffffffffffffffffffff5d576e7357a4501ddfe92f46681b20a08260001c11156103a3576040517f08c379a000000000000000000000000000000000000000000000000000000000815260040161039a906108db565b60405180910390fd5b601b8460ff1614806103b85750601c8460ff16145b6103f7576040517f08c379a00000000000000000000000000000000000000000000000000000000081526004016103ee906108fb565b60405180910390fd5b60006001868686866040516000815260200160405260405161041c9493929190610856565b6020604051602081039080840390855afa15801561043e573d6000803e3d6000fd5b505050602060405103519050600073ffffffffffffffffffffffffffffffffffffffff168173ffffffffffffffffffffffffffffffffffffffff1614156104ba576040517f08c379a00000000000000000000000000000000000000000000000000000000081526004016104b19061089b565b60405180910390fd5b80915050949350505050565b600083838346306040516020016104e1959493929190610803565b6040516020818303038152906040528051906020012090509392505050565b600061051361050e8461095b565b610936565b90508281526020810184848401111561052b57600080fd5b610536848285610a2c565b509392505050565b600061055161054c8461098c565b610936565b90508281526020810184848401111561056957600080fd5b610574848285610a2c565b509392505050565b60008135905061058b81610bcf565b92915050565b600082601f8301126105a257600080fd5b81356105b2848260208601610500565b91505092915050565b600082601f8301126105cc57600080fd5b81356105dc84826020860161053e565b91505092915050565b600080600080608085870312156105fb57600080fd5b600085013567ffffffffffffffff81111561061557600080fd5b61062187828801610591565b94505060206106328782880161057c565b93505060406106438782880161057c565b925050606085013567ffffffffffffffff81111561066057600080fd5b61066c878288016105bb565b91505092959194509250565b610681816109d9565b82525050565b610690816109eb565b82525050565b6106a76106a2826109eb565b610a6c565b82525050565b60006106ba6018836109bd565b91506106c582610ab6565b602082019050919050565b60006106dd601f836109bd565b91506106e882610adf565b602082019050919050565b60006107006002836109ce565b915061070b82610b08565b600282019050919050565b60006107236022836109bd565b915061072e82610b31565b604082019050919050565b60006107466022836109bd565b915061075182610b80565b604082019050919050565b61076581610a15565b82525050565b61077481610a1f565b82525050565b6000610785826106f3565b91506107918285610696565b6020820191506107a18284610696565b6020820191508190509392505050565b60006020820190506107c66000830184610687565b92915050565b60006060820190506107e16000830186610687565b6107ee6020830185610678565b6107fb6040830184610687565b949350505050565b600060a0820190506108186000830188610687565b6108256020830187610687565b6108326040830186610687565b61083f606083018561075c565b61084c6080830184610678565b9695505050505050565b600060808201905061086b6000830187610687565b610878602083018661076b565b6108856040830185610687565b6108926060830184610687565b95945050505050565b600060208201905081810360008301526108b4816106ad565b9050919050565b600060208201905081810360008301526108d4816106d0565b9050919050565b600060208201905081810360008301526108f481610716565b9050919050565b6000602082019050818103600083015261091481610739565b9050919050565b6000602082019050610930600083018461075c565b92915050565b6000610940610951565b905061094c8282610a3b565b919050565b6000604051905090565b600067ffffffffffffffff82111561097657610975610a76565b5b61097f82610aa5565b9050602081019050919050565b600067ffffffffffffffff8211156109a7576109a6610a76565b5b6109b082610aa5565b9050602081019050919050565b600082825260208201905092915050565b600081905092915050565b60006109e4826109f5565b9050919050565b6000819050919050565b600073ffffffffffffffffffffffffffffffffffffffff82169050919050565b6000819050919050565b600060ff82169050919050565b82818337600083830152505050565b610a4482610aa5565b810181811067ffffffffffffffff82111715610a6357610a62610a76565b5b80604052505050565b6000819050919050565b7f4e487b7100000000000000000000000000000000000000000000000000000000600052604160045260246000fd5b6000601f19601f8301169050919050565b7f45434453413a20696e76616c6964207369676e61747572650000000000000000600082015250565b7f45434453413a20696e76616c6964207369676e6174757265206c656e67746800600082015250565b7f1901000000000000000000000000000000000000000000000000000000000000600082015250565b7f45434453413a20696e76616c6964207369676e6174757265202773272076616c60008201527f7565000000000000000000000000000000000000000000000000000000000000602082015250565b7f45434453413a20696e76616c6964207369676e6174757265202776272076616c60008201527f7565000000000000000000000000000000000000000000000000000000000000602082015250565b610bd8816109d9565b8114610be357600080fd5b5056fea264697066735822122003f2b5b009b3e50293a4eb362b3e12f3302a6cec501809a81a252418905a15ce64736f6c63430008030033",
  "immutableReferences": {
    "19709": [
      {
        "length": 32,
        "start": 625
      }
    ],
    "19711": [
      {
        "length": 32,
        "start": 585
      }
    ],
    "19713": [
      {
        "length": 32,
        "start": 701
      }
    ],
    "19715": [
      {
        "length": 32,
        "start": 734
      }
    ],
    "19717": [
      {
        "length": 32,
        "start": 668
      }
    ]
  },
  "source": "// SPDX-License-Identifier: MIT\r\n\r\npragma solidity ^0.8.0;\r\n\r\nimport \"../utils/cryptography/draft-EIP712.sol\";\r\nimport \"../utils/cryptography/ECDSA.sol\";\r\n\r\ncontract EIP712External is EIP712 {\r\n    constructor(string memory name, string memory version) EIP712(name, version) {}\r\n\r\n    function domainSeparator() external view returns (bytes32) {\r\n        return _domainSeparatorV4();\r\n    }\r\n\r\n    function verify(bytes memory signature, address signer, address mailTo, string memory mailContents) external view {\r\n        bytes32 digest = _hashTypedDataV4(keccak256(abi.encode(\r\n            keccak256(\"Mail(address to,string contents)\"),\r\n            mailTo,\r\n            keccak256(bytes(mailContents))\r\n        )));\r\n        address recoveredSigner = ECDSA.recover(digest, signature);\r\n        require(recoveredSigner == signer);\r\n    }\r\n\r\n    function getChainId() external view returns (uint256) {\r\n        return block.chainid;\r\n    }\r\n}\r\n",
  "sourcePath": "D:/Code/NFTrees/contracts/OpenZepplin/mocks/EIP712External.sol",
  "compiler": {
    "name": "solc",
    "version": "0.8.3+commit.8d00100c.Emscripten.clang"
  },
  "schemaVersion": "3.4.1",
  "updatedAt": "2021-05-22T22:20:34.812Z",
  "devdoc": {
    "kind": "dev",
    "methods": {},
    "version": 1
  },
  "userdoc": {
    "kind": "user",
    "methods": {},
    "version": 1
  }
}