{
  "contractName": "EnumerableAddressSetMock",
  "abi": [
    {
      "anonymous": false,
      "inputs": [
        {
          "indexed": false,
          "internalType": "bool",
          "name": "result",
          "type": "bool"
        }
      ],
      "name": "OperationResult",
      "type": "event"
    },
    {
      "inputs": [
        {
          "internalType": "address",
          "name": "value",
          "type": "address"
        }
      ],
      "name": "contains",
      "outputs": [
        {
          "internalType": "bool",
          "name": "",
          "type": "bool"
        }
      ],
      "stateMutability": "view",
      "type": "function"
    },
    {
      "inputs": [
        {
          "internalType": "address",
          "name": "value",
          "type": "address"
        }
      ],
      "name": "add",
      "outputs": [],
      "stateMutability": "nonpayable",
      "type": "function"
    },
    {
      "inputs": [
        {
          "internalType": "address",
          "name": "value",
          "type": "address"
        }
      ],
      "name": "remove",
      "outputs": [],
      "stateMutability": "nonpayable",
      "type": "function"
    },
    {
      "inputs": [],
      "name": "length",
      "outputs": [
        {
          "internalType": "uint256",
          "name": "",
          "type": "uint256"
        }
      ],
      "stateMutability": "view",
      "type": "function"
    },
    {
      "inputs": [
        {
          "internalType": "uint256",
          "name": "index",
          "type": "uint256"
        }
      ],
      "name": "at",
      "outputs": [
        {
          "internalType": "address",
          "name": "",
          "type": "address"
        }
      ],
      "stateMutability": "view",
      "type": "function"
    }
  ],
  "bytecode": "0x608060405234801561001057600080fd5b50610746806100206000396000f3fe608060405234801561001057600080fd5b50600436106100575760003560e01c80630a3b0a4f1461005c5780631f7b6d321461007857806329092d0e146100965780635dbe47e8146100b2578063e0886f90146100e2575b600080fd5b61007660048036038101906100719190610567565b610112565b005b610080610165565b60405161008d919061061c565b60405180910390f35b6100b060048036038101906100ab9190610567565b610176565b005b6100cc60048036038101906100c79190610567565b6101c9565b6040516100d99190610601565b60405180910390f35b6100fc60048036038101906100f79190610590565b6101e6565b60405161010991906105e6565b60405180910390f35b600061012882600061020390919063ffffffff16565b90507fed9840e0775590557ad736875d96c95cf1458b766335f74339951a32c82a9e33816040516101599190610601565b60405180910390a15050565b60006101716000610233565b905090565b600061018c82600061024890919063ffffffff16565b90507fed9840e0775590557ad736875d96c95cf1458b766335f74339951a32c82a9e33816040516101bd9190610601565b60405180910390a15050565b60006101df82600061027890919063ffffffff16565b9050919050565b60006101fc8260006102a890919063ffffffff16565b9050919050565b600061022b836000018373ffffffffffffffffffffffffffffffffffffffff1660001b6102c2565b905092915050565b600061024182600001610332565b9050919050565b6000610270836000018373ffffffffffffffffffffffffffffffffffffffff1660001b610343565b905092915050565b60006102a0836000018373ffffffffffffffffffffffffffffffffffffffff1660001b6104c9565b905092915050565b60006102b783600001836104ec565b60001c905092915050565b60006102ce83836104c9565b61032757826000018290806001815401808255809150506001900390600052602060002001600090919091909150558260000180549050836001016000848152602001908152602001600020819055506001905061032c565b600090505b92915050565b600081600001805490509050919050565b600080836001016000848152602001908152602001600020549050600081146104bd5760006001826103759190610637565b905060006001866000018054905061038d9190610637565b90508181146104485760008660000182815481106103d4577f4e487b7100000000000000000000000000000000000000000000000000000000600052603260045260246000fd5b906000526020600020015490508087600001848154811061041e577f4e487b7100000000000000000000000000000000000000000000000000000000600052603260045260246000fd5b90600052602060002001819055508387600101600083815260200190815260200160002081905550505b85600001805480610482577f4e487b7100000000000000000000000000000000000000000000000000000000600052603160045260246000fd5b6001900381819060005260206000200160009055905585600101600086815260200190815260200160002060009055600193505050506104c3565b60009150505b92915050565b600080836001016000848152602001908152602001600020541415905092915050565b600082600001828154811061052a577f4e487b7100000000000000000000000000000000000000000000000000000000600052603260045260246000fd5b9060005260206000200154905092915050565b60008135905061054c816106e2565b92915050565b600081359050610561816106f9565b92915050565b60006020828403121561057957600080fd5b60006105878482850161053d565b91505092915050565b6000602082840312156105a257600080fd5b60006105b084828501610552565b91505092915050565b6105c28161066b565b82525050565b6105d18161067d565b82525050565b6105e0816106a9565b82525050565b60006020820190506105fb60008301846105b9565b92915050565b600060208201905061061660008301846105c8565b92915050565b600060208201905061063160008301846105d7565b92915050565b6000610642826106a9565b915061064d836106a9565b9250828210156106605761065f6106b3565b5b828203905092915050565b600061067682610689565b9050919050565b60008115159050919050565b600073ffffffffffffffffffffffffffffffffffffffff82169050919050565b6000819050919050565b7f4e487b7100000000000000000000000000000000000000000000000000000000600052601160045260246000fd5b6106eb8161066b565b81146106f657600080fd5b50565b610702816106a9565b811461070d57600080fd5b5056fea264697066735822122002a7e5715bbe51cf28f4135516869a015068ec8d5de3ba0728418a6a0b0c28bf64736f6c63430008030033",
  "immutableReferences": {},
  "source": "// SPDX-License-Identifier: MIT\n\npragma solidity ^0.8.0;\n\nimport \"../utils/structs/EnumerableSet.sol\";\n\n// Bytes32Set\ncontract EnumerableBytes32SetMock {\n    using EnumerableSet for EnumerableSet.Bytes32Set;\n\n    event OperationResult(bool result);\n\n    EnumerableSet.Bytes32Set private _set;\n\n    function contains(bytes32 value) public view returns (bool) {\n        return _set.contains(value);\n    }\n\n    function add(bytes32 value) public {\n        bool result = _set.add(value);\n        emit OperationResult(result);\n    }\n\n    function remove(bytes32 value) public {\n        bool result = _set.remove(value);\n        emit OperationResult(result);\n    }\n\n    function length() public view returns (uint256) {\n        return _set.length();\n    }\n\n    function at(uint256 index) public view returns (bytes32) {\n        return _set.at(index);\n    }\n}\n\n// AddressSet\ncontract EnumerableAddressSetMock {\n    using EnumerableSet for EnumerableSet.AddressSet;\n\n    event OperationResult(bool result);\n\n    EnumerableSet.AddressSet private _set;\n\n    function contains(address value) public view returns (bool) {\n        return _set.contains(value);\n    }\n\n    function add(address value) public {\n        bool result = _set.add(value);\n        emit OperationResult(result);\n    }\n\n    function remove(address value) public {\n        bool result = _set.remove(value);\n        emit OperationResult(result);\n    }\n\n    function length() public view returns (uint256) {\n        return _set.length();\n    }\n\n    function at(uint256 index) public view returns (address) {\n        return _set.at(index);\n    }\n}\n\n// UintSet\ncontract EnumerableUintSetMock {\n    using EnumerableSet for EnumerableSet.UintSet;\n\n    event OperationResult(bool result);\n\n    EnumerableSet.UintSet private _set;\n\n    function contains(uint256 value) public view returns (bool) {\n        return _set.contains(value);\n    }\n\n    function add(uint256 value) public {\n        bool result = _set.add(value);\n        emit OperationResult(result);\n    }\n\n    function remove(uint256 value) public {\n        bool result = _set.remove(value);\n        emit OperationResult(result);\n    }\n\n    function length() public view returns (uint256) {\n        return _set.length();\n    }\n\n    function at(uint256 index) public view returns (uint256) {\n        return _set.at(index);\n    }\n}\n",
  "sourcePath": "/Users/brendanmorrison/Code/Nftrees/contracts/OpenZepplin/mocks/EnumerableSetMock.sol",
  "compiler": {
    "name": "solc",
    "version": "0.8.3+commit.8d00100c.Emscripten.clang"
  },
  "schemaVersion": "3.3.4",
  "updatedAt": "2021-05-19T17:43:08.329Z",
  "devdoc": {
    "kind": "dev",
    "methods": {},
    "version": 1
  },
  "userdoc": {
    "kind": "user",
    "methods": {},
    "version": 1
  }
}