{
  "contractName": "ERC165InterfacesSupported",
  "abi": [
    {
      "inputs": [
        {
          "internalType": "bytes4[]",
          "name": "interfaceIds",
          "type": "bytes4[]"
        }
      ],
      "stateMutability": "nonpayable",
      "type": "constructor"
    },
    {
      "inputs": [],
      "name": "INTERFACE_ID_ERC165",
      "outputs": [
        {
          "internalType": "bytes4",
          "name": "",
          "type": "bytes4"
        }
      ],
      "stateMutability": "view",
      "type": "function"
    },
    {
      "inputs": [
        {
          "internalType": "bytes4",
          "name": "interfaceId",
          "type": "bytes4"
        }
      ],
      "name": "supportsInterface",
      "outputs": [
        {
          "internalType": "bool",
          "name": "",
          "type": "bool"
        }
      ],
      "stateMutability": "view",
      "type": "function"
    }
  ],
  "bytecode": "0x608060405234801561001057600080fd5b506040516106c93803806106c98339818101604052810190610032919061023d565b6100486301ffc9a760e01b6100bd60201b60201c565b60005b81518110156100b6576100a3828281518110610090577f4e487b7100000000000000000000000000000000000000000000000000000000600052603260045260246000fd5b60200260200101516100bd60201b60201c565b80806100ae9061038a565b91505061004b565b50506104a8565b63ffffffff60e01b817bffffffffffffffffffffffffffffffffffffffffffffffffffffffff19161415610126576040517f08c379a000000000000000000000000000000000000000000000000000000000815260040161011d906102a1565b60405180910390fd5b6001600080837bffffffffffffffffffffffffffffffffffffffffffffffffffffffff19167bffffffffffffffffffffffffffffffffffffffffffffffffffffffff1916815260200190815260200160002060006101000a81548160ff02191690831515021790555050565b60006101a56101a0846102e6565b6102c1565b905080838252602082019050828560208602820111156101c457600080fd5b60005b858110156101f457816101da8882610228565b8452602084019350602083019250506001810190506101c7565b5050509392505050565b600082601f83011261020f57600080fd5b815161021f848260208601610192565b91505092915050565b60008151905061023781610491565b92915050565b60006020828403121561024f57600080fd5b600082015167ffffffffffffffff81111561026957600080fd5b610275848285016101fe565b91505092915050565b600061028b602f83610312565b915061029682610442565b604082019050919050565b600060208201905081810360008301526102ba8161027e565b9050919050565b60006102cb6102dc565b90506102d78282610359565b919050565b6000604051905090565b600067ffffffffffffffff82111561030157610300610402565b5b602082029050602081019050919050565b600082825260208201905092915050565b60007fffffffff0000000000000000000000000000000000000000000000000000000082169050919050565b6000819050919050565b61036282610431565b810181811067ffffffffffffffff8211171561038157610380610402565b5b80604052505050565b60006103958261034f565b91507fffffffffffffffffffffffffffffffffffffffffffffffffffffffffffffffff8214156103c8576103c76103d3565b5b600182019050919050565b7f4e487b7100000000000000000000000000000000000000000000000000000000600052601160045260246000fd5b7f4e487b7100000000000000000000000000000000000000000000000000000000600052604160045260246000fd5b6000601f19601f8301169050919050565b7f455243313635496e7465726661636573537570706f727465643a20696e76616c60008201527f696420696e746572666163652069640000000000000000000000000000000000602082015250565b61049a81610323565b81146104a557600080fd5b50565b610212806104b76000396000f3fe608060405234801561001057600080fd5b50600436106100365760003560e01c806301ffc9a71461003b57806334d7006c1461006b575b600080fd5b61005560048036038101906100509190610110565b610089565b6040516100629190610157565b60405180910390f35b6100736100f0565b6040516100809190610172565b60405180910390f35b6000806000837bffffffffffffffffffffffffffffffffffffffffffffffffffffffff19167bffffffffffffffffffffffffffffffffffffffffffffffffffffffff1916815260200190815260200160002060009054906101000a900460ff169050919050565b6301ffc9a760e01b81565b60008135905061010a816101c5565b92915050565b60006020828403121561012257600080fd5b6000610130848285016100fb565b91505092915050565b6101428161018d565b82525050565b61015181610199565b82525050565b600060208201905061016c6000830184610139565b92915050565b60006020820190506101876000830184610148565b92915050565b60008115159050919050565b60007fffffffff0000000000000000000000000000000000000000000000000000000082169050919050565b6101ce81610199565b81146101d957600080fd5b5056fea26469706673582212203978d432cb5afa1720b4e05b3e4a50c133bac5600c285135c7d313bf3796d2f264736f6c63430008030033",
  "immutableReferences": {},
  "source": "// SPDX-License-Identifier: MIT\r\n\r\npragma solidity ^0.8.0;\r\n\r\nimport \"../../utils/introspection/IERC165.sol\";\r\n\r\n/**\r\n * https://eips.ethereum.org/EIPS/eip-214#specification\r\n * From the specification:\r\n * > Any attempts to make state-changing operations inside an execution instance with STATIC set to true will instead\r\n * throw an exception.\r\n * > These operations include [...], LOG0, LOG1, LOG2, [...]\r\n *\r\n * therefore, because this contract is staticcall'd we need to not emit events (which is how solidity-coverage works)\r\n * solidity-coverage ignores the /mocks folder, so we duplicate its implementation here to avoid instrumenting it\r\n */\r\ncontract SupportsInterfaceWithLookupMock is IERC165 {\r\n    /*\r\n     * bytes4(keccak256('supportsInterface(bytes4)')) == 0x01ffc9a7\r\n     */\r\n    bytes4 public constant INTERFACE_ID_ERC165 = 0x01ffc9a7;\r\n\r\n    /**\r\n     * @dev A mapping of interface id to whether or not it's supported.\r\n     */\r\n    mapping(bytes4 => bool) private _supportedInterfaces;\r\n\r\n    /**\r\n     * @dev A contract implementing SupportsInterfaceWithLookup\r\n     * implement ERC165 itself.\r\n     */\r\n    constructor () {\r\n        _registerInterface(INTERFACE_ID_ERC165);\r\n    }\r\n\r\n    /**\r\n     * @dev Implement supportsInterface(bytes4) using a lookup table.\r\n     */\r\n    function supportsInterface(bytes4 interfaceId) public view override returns (bool) {\r\n        return _supportedInterfaces[interfaceId];\r\n    }\r\n\r\n    /**\r\n     * @dev Private method for registering an interface.\r\n     */\r\n    function _registerInterface(bytes4 interfaceId) internal {\r\n        require(interfaceId != 0xffffffff, \"ERC165InterfacesSupported: invalid interface id\");\r\n        _supportedInterfaces[interfaceId] = true;\r\n    }\r\n}\r\n\r\ncontract ERC165InterfacesSupported is SupportsInterfaceWithLookupMock {\r\n    constructor (bytes4[] memory interfaceIds) {\r\n        for (uint256 i = 0; i < interfaceIds.length; i++) {\r\n            _registerInterface(interfaceIds[i]);\r\n        }\r\n    }\r\n}\r\n",
  "sourcePath": "D:/Code/NFTrees/contracts/OpenZepplin/mocks/ERC165/ERC165InterfacesSupported.sol",
  "compiler": {
    "name": "solc",
    "version": "0.8.3+commit.8d00100c.Emscripten.clang"
  },
  "schemaVersion": "3.4.1",
  "updatedAt": "2021-05-22T22:20:34.943Z",
  "devdoc": {
    "kind": "dev",
    "methods": {
      "supportsInterface(bytes4)": {
        "details": "Implement supportsInterface(bytes4) using a lookup table."
      }
    },
    "version": 1
  },
  "userdoc": {
    "kind": "user",
    "methods": {},
    "version": 1
  }
}