{
  "contractName": "ERC1155Mock",
  "abi": [
    {
      "inputs": [
        {
          "internalType": "string",
          "name": "uri",
          "type": "string"
        }
      ],
      "stateMutability": "nonpayable",
      "type": "constructor"
    },
    {
      "anonymous": false,
      "inputs": [
        {
          "indexed": true,
          "internalType": "address",
          "name": "account",
          "type": "address"
        },
        {
          "indexed": true,
          "internalType": "address",
          "name": "operator",
          "type": "address"
        },
        {
          "indexed": false,
          "internalType": "bool",
          "name": "approved",
          "type": "bool"
        }
      ],
      "name": "ApprovalForAll",
      "type": "event"
    },
    {
      "anonymous": false,
      "inputs": [
        {
          "indexed": true,
          "internalType": "address",
          "name": "operator",
          "type": "address"
        },
        {
          "indexed": true,
          "internalType": "address",
          "name": "from",
          "type": "address"
        },
        {
          "indexed": true,
          "internalType": "address",
          "name": "to",
          "type": "address"
        },
        {
          "indexed": false,
          "internalType": "uint256[]",
          "name": "ids",
          "type": "uint256[]"
        },
        {
          "indexed": false,
          "internalType": "uint256[]",
          "name": "values",
          "type": "uint256[]"
        }
      ],
      "name": "TransferBatch",
      "type": "event"
    },
    {
      "anonymous": false,
      "inputs": [
        {
          "indexed": true,
          "internalType": "address",
          "name": "operator",
          "type": "address"
        },
        {
          "indexed": true,
          "internalType": "address",
          "name": "from",
          "type": "address"
        },
        {
          "indexed": true,
          "internalType": "address",
          "name": "to",
          "type": "address"
        },
        {
          "indexed": false,
          "internalType": "uint256",
          "name": "id",
          "type": "uint256"
        },
        {
          "indexed": false,
          "internalType": "uint256",
          "name": "value",
          "type": "uint256"
        }
      ],
      "name": "TransferSingle",
      "type": "event"
    },
    {
      "anonymous": false,
      "inputs": [
        {
          "indexed": false,
          "internalType": "string",
          "name": "value",
          "type": "string"
        },
        {
          "indexed": true,
          "internalType": "uint256",
          "name": "id",
          "type": "uint256"
        }
      ],
      "name": "URI",
      "type": "event"
    },
    {
      "inputs": [
        {
          "internalType": "address",
          "name": "account",
          "type": "address"
        },
        {
          "internalType": "uint256",
          "name": "id",
          "type": "uint256"
        }
      ],
      "name": "balanceOf",
      "outputs": [
        {
          "internalType": "uint256",
          "name": "",
          "type": "uint256"
        }
      ],
      "stateMutability": "view",
      "type": "function"
    },
    {
      "inputs": [
        {
          "internalType": "address[]",
          "name": "accounts",
          "type": "address[]"
        },
        {
          "internalType": "uint256[]",
          "name": "ids",
          "type": "uint256[]"
        }
      ],
      "name": "balanceOfBatch",
      "outputs": [
        {
          "internalType": "uint256[]",
          "name": "",
          "type": "uint256[]"
        }
      ],
      "stateMutability": "view",
      "type": "function"
    },
    {
      "inputs": [
        {
          "internalType": "address",
          "name": "account",
          "type": "address"
        },
        {
          "internalType": "address",
          "name": "operator",
          "type": "address"
        }
      ],
      "name": "isApprovedForAll",
      "outputs": [
        {
          "internalType": "bool",
          "name": "",
          "type": "bool"
        }
      ],
      "stateMutability": "view",
      "type": "function"
    },
    {
      "inputs": [
        {
          "internalType": "address",
          "name": "from",
          "type": "address"
        },
        {
          "internalType": "address",
          "name": "to",
          "type": "address"
        },
        {
          "internalType": "uint256[]",
          "name": "ids",
          "type": "uint256[]"
        },
        {
          "internalType": "uint256[]",
          "name": "amounts",
          "type": "uint256[]"
        },
        {
          "internalType": "bytes",
          "name": "data",
          "type": "bytes"
        }
      ],
      "name": "safeBatchTransferFrom",
      "outputs": [],
      "stateMutability": "nonpayable",
      "type": "function"
    },
    {
      "inputs": [
        {
          "internalType": "address",
          "name": "from",
          "type": "address"
        },
        {
          "internalType": "address",
          "name": "to",
          "type": "address"
        },
        {
          "internalType": "uint256",
          "name": "id",
          "type": "uint256"
        },
        {
          "internalType": "uint256",
          "name": "amount",
          "type": "uint256"
        },
        {
          "internalType": "bytes",
          "name": "data",
          "type": "bytes"
        }
      ],
      "name": "safeTransferFrom",
      "outputs": [],
      "stateMutability": "nonpayable",
      "type": "function"
    },
    {
      "inputs": [
        {
          "internalType": "address",
          "name": "operator",
          "type": "address"
        },
        {
          "internalType": "bool",
          "name": "approved",
          "type": "bool"
        }
      ],
      "name": "setApprovalForAll",
      "outputs": [],
      "stateMutability": "nonpayable",
      "type": "function"
    },
    {
      "inputs": [
        {
          "internalType": "bytes4",
          "name": "interfaceId",
          "type": "bytes4"
        }
      ],
      "name": "supportsInterface",
      "outputs": [
        {
          "internalType": "bool",
          "name": "",
          "type": "bool"
        }
      ],
      "stateMutability": "view",
      "type": "function"
    },
    {
      "inputs": [
        {
          "internalType": "uint256",
          "name": "",
          "type": "uint256"
        }
      ],
      "name": "uri",
      "outputs": [
        {
          "internalType": "string",
          "name": "",
          "type": "string"
        }
      ],
      "stateMutability": "view",
      "type": "function"
    },
    {
      "inputs": [
        {
          "internalType": "string",
          "name": "newuri",
          "type": "string"
        }
      ],
      "name": "setURI",
      "outputs": [],
      "stateMutability": "nonpayable",
      "type": "function"
    },
    {
      "inputs": [
        {
          "internalType": "address",
          "name": "to",
          "type": "address"
        },
        {
          "internalType": "uint256",
          "name": "id",
          "type": "uint256"
        },
        {
          "internalType": "uint256",
          "name": "value",
          "type": "uint256"
        },
        {
          "internalType": "bytes",
          "name": "data",
          "type": "bytes"
        }
      ],
      "name": "mint",
      "outputs": [],
      "stateMutability": "nonpayable",
      "type": "function"
    },
    {
      "inputs": [
        {
          "internalType": "address",
          "name": "to",
          "type": "address"
        },
        {
          "internalType": "uint256[]",
          "name": "ids",
          "type": "uint256[]"
        },
        {
          "internalType": "uint256[]",
          "name": "values",
          "type": "uint256[]"
        },
        {
          "internalType": "bytes",
          "name": "data",
          "type": "bytes"
        }
      ],
      "name": "mintBatch",
      "outputs": [],
      "stateMutability": "nonpayable",
      "type": "function"
    },
    {
      "inputs": [
        {
          "internalType": "address",
          "name": "owner",
          "type": "address"
        },
        {
          "internalType": "uint256",
          "name": "id",
          "type": "uint256"
        },
        {
          "internalType": "uint256",
          "name": "value",
          "type": "uint256"
        }
      ],
      "name": "burn",
      "outputs": [],
      "stateMutability": "nonpayable",
      "type": "function"
    },
    {
      "inputs": [
        {
          "internalType": "address",
          "name": "owner",
          "type": "address"
        },
        {
          "internalType": "uint256[]",
          "name": "ids",
          "type": "uint256[]"
        },
        {
          "internalType": "uint256[]",
          "name": "values",
          "type": "uint256[]"
        }
      ],
      "name": "burnBatch",
      "outputs": [],
      "stateMutability": "nonpayable",
      "type": "function"
    }
  ],
  "bytecode": "0x60806040523480156200001157600080fd5b506040516200396a3803806200396a83398181016040528101906200003791906200018f565b8062000049816200005160201b60201c565b505062000344565b8060029080519060200190620000699291906200006d565b5050565b8280546200007b9062000269565b90600052602060002090601f0160209004810192826200009f5760008555620000eb565b82601f10620000ba57805160ff1916838001178555620000eb565b82800160010185558215620000eb579182015b82811115620000ea578251825591602001919060010190620000cd565b5b509050620000fa9190620000fe565b5090565b5b8082111562000119576000816000905550600101620000ff565b5090565b6000620001346200012e84620001fd565b620001d4565b9050828152602081018484840111156200014d57600080fd5b6200015a84828562000233565b509392505050565b600082601f8301126200017457600080fd5b8151620001868482602086016200011d565b91505092915050565b600060208284031215620001a257600080fd5b600082015167ffffffffffffffff811115620001bd57600080fd5b620001cb8482850162000162565b91505092915050565b6000620001e0620001f3565b9050620001ee82826200029f565b919050565b6000604051905090565b600067ffffffffffffffff8211156200021b576200021a62000304565b5b620002268262000333565b9050602081019050919050565b60005b838110156200025357808201518184015260208101905062000236565b8381111562000263576000848401525b50505050565b600060028204905060018216806200028257607f821691505b60208210811415620002995762000298620002d5565b5b50919050565b620002aa8262000333565b810181811067ffffffffffffffff82111715620002cc57620002cb62000304565b5b80604052505050565b7f4e487b7100000000000000000000000000000000000000000000000000000000600052602260045260246000fd5b7f4e487b7100000000000000000000000000000000000000000000000000000000600052604160045260246000fd5b6000601f19601f8301169050919050565b61361680620003546000396000f3fe608060405234801561001057600080fd5b50600436106100ce5760003560e01c80634e1273f41161008c578063a22cb46511610066578063a22cb4651461021f578063e985e9c51461023b578063f242432a1461026b578063f5298aca14610287576100ce565b80634e1273f4146101b75780636b20c454146101e7578063731133e914610203576100ce565b8062fdd58e146100d357806301ffc9a71461010357806302fe5305146101335780630e89341c1461014f5780631f7fdffa1461017f5780632eb2c2d61461019b575b600080fd5b6100ed60048036038101906100e8919061248d565b6102a3565b6040516100fa9190612c9e565b60405180910390f35b61011d600480360381019061011891906125ff565b61036c565b60405161012a9190612ac1565b60405180910390f35b61014d60048036038101906101489190612651565b61044e565b005b61016960048036038101906101649190612692565b61045a565b6040516101769190612adc565b60405180910390f35b610199600480360381019061019491906123a6565b6104ee565b005b6101b560048036038101906101b091906121d9565b610500565b005b6101d160048036038101906101cc9190612593565b6105a1565b6040516101de9190612a68565b60405180910390f35b61020160048036038101906101fc9190612327565b610752565b005b61021d60048036038101906102189190612518565b610762565b005b61023960048036038101906102349190612451565b610774565b005b6102556004803603810190610250919061219d565b6108f5565b6040516102629190612ac1565b60405180910390f35b61028560048036038101906102809190612298565b610989565b005b6102a1600480360381019061029c91906124c9565b610a2a565b005b60008073ffffffffffffffffffffffffffffffffffffffff168373ffffffffffffffffffffffffffffffffffffffff161415610314576040517f08c379a000000000000000000000000000000000000000000000000000000000815260040161030b90612b3e565b60405180910390fd5b60008083815260200190815260200160002060008473ffffffffffffffffffffffffffffffffffffffff1673ffffffffffffffffffffffffffffffffffffffff16815260200190815260200160002054905092915050565b60007fd9b67a26000000000000000000000000000000000000000000000000000000007bffffffffffffffffffffffffffffffffffffffffffffffffffffffff1916827bffffffffffffffffffffffffffffffffffffffffffffffffffffffff1916148061043757507f0e89341c000000000000000000000000000000000000000000000000000000007bffffffffffffffffffffffffffffffffffffffffffffffffffffffff1916827bffffffffffffffffffffffffffffffffffffffffffffffffffffffff1916145b80610447575061044682610a3a565b5b9050919050565b61045781610aa4565b50565b60606002805461046990612f72565b80601f016020809104026020016040519081016040528092919081815260200182805461049590612f72565b80156104e25780601f106104b7576101008083540402835291602001916104e2565b820191906000526020600020905b8154815290600101906020018083116104c557829003601f168201915b50505050509050919050565b6104fa84848484610abe565b50505050565b610508610d28565b73ffffffffffffffffffffffffffffffffffffffff168573ffffffffffffffffffffffffffffffffffffffff16148061054e575061054d85610548610d28565b6108f5565b5b61058d576040517f08c379a000000000000000000000000000000000000000000000000000000000815260040161058490612bbe565b60405180910390fd5b61059a8585858585610d30565b5050505050565b606081518351146105e7576040517f08c379a00000000000000000000000000000000000000000000000000000000081526004016105de90612c3e565b60405180910390fd5b6000835167ffffffffffffffff81111561062a577f4e487b7100000000000000000000000000000000000000000000000000000000600052604160045260246000fd5b6040519080825280602002602001820160405280156106585781602001602082028036833780820191505090505b50905060005b8451811015610747576106f18582815181106106a3577f4e487b7100000000000000000000000000000000000000000000000000000000600052603260045260246000fd5b60200260200101518583815181106106e4577f4e487b7100000000000000000000000000000000000000000000000000000000600052603260045260246000fd5b60200260200101516102a3565b82828151811061072a577f4e487b7100000000000000000000000000000000000000000000000000000000600052603260045260246000fd5b6020026020010181815250508061074090612fd5565b905061065e565b508091505092915050565b61075d838383611099565b505050565b61076e8484848461139f565b50505050565b8173ffffffffffffffffffffffffffffffffffffffff16610793610d28565b73ffffffffffffffffffffffffffffffffffffffff1614156107ea576040517f08c379a00000000000000000000000000000000000000000000000000000000081526004016107e190612c1e565b60405180910390fd5b80600160006107f7610d28565b73ffffffffffffffffffffffffffffffffffffffff1673ffffffffffffffffffffffffffffffffffffffff16815260200190815260200160002060008473ffffffffffffffffffffffffffffffffffffffff1673ffffffffffffffffffffffffffffffffffffffff16815260200190815260200160002060006101000a81548160ff0219169083151502179055508173ffffffffffffffffffffffffffffffffffffffff166108a4610d28565b73ffffffffffffffffffffffffffffffffffffffff167f17307eab39ab6107e8899845ad3d59bd9653f200f220920489ca2b5937696c31836040516108e99190612ac1565b60405180910390a35050565b6000600160008473ffffffffffffffffffffffffffffffffffffffff1673ffffffffffffffffffffffffffffffffffffffff16815260200190815260200160002060008373ffffffffffffffffffffffffffffffffffffffff1673ffffffffffffffffffffffffffffffffffffffff16815260200190815260200160002060009054906101000a900460ff16905092915050565b610991610d28565b73ffffffffffffffffffffffffffffffffffffffff168573ffffffffffffffffffffffffffffffffffffffff1614806109d757506109d6856109d1610d28565b6108f5565b5b610a16576040517f08c379a0000000000000000000000000000000000000000000000000000000008152600401610a0d90612b7e565b60405180910390fd5b610a238585858585611535565b5050505050565b610a358383836117c0565b505050565b60007f01ffc9a7000000000000000000000000000000000000000000000000000000007bffffffffffffffffffffffffffffffffffffffffffffffffffffffff1916827bffffffffffffffffffffffffffffffffffffffffffffffffffffffff1916149050919050565b8060029080519060200190610aba929190611e95565b5050565b600073ffffffffffffffffffffffffffffffffffffffff168473ffffffffffffffffffffffffffffffffffffffff161415610b2e576040517f08c379a0000000000000000000000000000000000000000000000000000000008152600401610b2590612c7e565b60405180910390fd5b8151835114610b72576040517f08c379a0000000000000000000000000000000000000000000000000000000008152600401610b6990612c5e565b60405180910390fd5b6000610b7c610d28565b9050610b8d816000878787876119e6565b60005b8451811015610c9257838181518110610bd2577f4e487b7100000000000000000000000000000000000000000000000000000000600052603260045260246000fd5b6020026020010151600080878481518110610c16577f4e487b7100000000000000000000000000000000000000000000000000000000600052603260045260246000fd5b6020026020010151815260200190815260200160002060008873ffffffffffffffffffffffffffffffffffffffff1673ffffffffffffffffffffffffffffffffffffffff1681526020019081526020016000206000828254610c789190612e32565b925050819055508080610c8a90612fd5565b915050610b90565b508473ffffffffffffffffffffffffffffffffffffffff16600073ffffffffffffffffffffffffffffffffffffffff168273ffffffffffffffffffffffffffffffffffffffff167f4a39dc06d4c0dbc64b70af90fd698a233a518aa5d07e595d983b8c0526c8f7fb8787604051610d0a929190612a8a565b60405180910390a4610d21816000878787876119ee565b5050505050565b600033905090565b8151835114610d74576040517f08c379a0000000000000000000000000000000000000000000000000000000008152600401610d6b90612c5e565b60405180910390fd5b600073ffffffffffffffffffffffffffffffffffffffff168473ffffffffffffffffffffffffffffffffffffffff161415610de4576040517f08c379a0000000000000000000000000000000000000000000000000000000008152600401610ddb90612b9e565b60405180910390fd5b6000610dee610d28565b9050610dfe8187878787876119e6565b60005b8451811015611004576000858281518110610e45577f4e487b7100000000000000000000000000000000000000000000000000000000600052603260045260246000fd5b602002602001015190506000858381518110610e8a577f4e487b7100000000000000000000000000000000000000000000000000000000600052603260045260246000fd5b60200260200101519050600080600084815260200190815260200160002060008b73ffffffffffffffffffffffffffffffffffffffff1673ffffffffffffffffffffffffffffffffffffffff16815260200190815260200160002054905081811015610f2b576040517f08c379a0000000000000000000000000000000000000000000000000000000008152600401610f2290612bfe565b60405180910390fd5b8181610f379190612e88565b60008085815260200190815260200160002060008c73ffffffffffffffffffffffffffffffffffffffff1673ffffffffffffffffffffffffffffffffffffffff168152602001908152602001600020819055508160008085815260200190815260200160002060008b73ffffffffffffffffffffffffffffffffffffffff1673ffffffffffffffffffffffffffffffffffffffff1681526020019081526020016000206000828254610fe99190612e32565b9250508190555050505080610ffd90612fd5565b9050610e01565b508473ffffffffffffffffffffffffffffffffffffffff168673ffffffffffffffffffffffffffffffffffffffff168273ffffffffffffffffffffffffffffffffffffffff167f4a39dc06d4c0dbc64b70af90fd698a233a518aa5d07e595d983b8c0526c8f7fb878760405161107b929190612a8a565b60405180910390a46110918187878787876119ee565b505050505050565b600073ffffffffffffffffffffffffffffffffffffffff168373ffffffffffffffffffffffffffffffffffffffff161415611109576040517f08c379a000000000000000000000000000000000000000000000000000000000815260040161110090612bde565b60405180910390fd5b805182511461114d576040517f08c379a000000000000000000000000000000000000000000000000000000000815260040161114490612c5e565b60405180910390fd5b6000611157610d28565b9050611177818560008686604051806020016040528060008152506119e6565b60005b83518110156113195760008482815181106111be577f4e487b7100000000000000000000000000000000000000000000000000000000600052603260045260246000fd5b602002602001015190506000848381518110611203577f4e487b7100000000000000000000000000000000000000000000000000000000600052603260045260246000fd5b60200260200101519050600080600084815260200190815260200160002060008973ffffffffffffffffffffffffffffffffffffffff1673ffffffffffffffffffffffffffffffffffffffff168152602001908152602001600020549050818110156112a4576040517f08c379a000000000000000000000000000000000000000000000000000000000815260040161129b90612b5e565b60405180910390fd5b81816112b09190612e88565b60008085815260200190815260200160002060008a73ffffffffffffffffffffffffffffffffffffffff1673ffffffffffffffffffffffffffffffffffffffff16815260200190815260200160002081905550505050808061131190612fd5565b91505061117a565b50600073ffffffffffffffffffffffffffffffffffffffff168473ffffffffffffffffffffffffffffffffffffffff168273ffffffffffffffffffffffffffffffffffffffff167f4a39dc06d4c0dbc64b70af90fd698a233a518aa5d07e595d983b8c0526c8f7fb8686604051611391929190612a8a565b60405180910390a450505050565b600073ffffffffffffffffffffffffffffffffffffffff168473ffffffffffffffffffffffffffffffffffffffff16141561140f576040517f08c379a000000000000000000000000000000000000000000000000000000000815260040161140690612c7e565b60405180910390fd5b6000611419610d28565b905061143a8160008761142b88611bd5565b61143488611bd5565b876119e6565b8260008086815260200190815260200160002060008773ffffffffffffffffffffffffffffffffffffffff1673ffffffffffffffffffffffffffffffffffffffff16815260200190815260200160002060008282546114999190612e32565b925050819055508473ffffffffffffffffffffffffffffffffffffffff16600073ffffffffffffffffffffffffffffffffffffffff168273ffffffffffffffffffffffffffffffffffffffff167fc3d58168c5ae7397731d063d5bbf3d657854427343f4c083240f7aacaa2d0f628787604051611517929190612cb9565b60405180910390a461152e81600087878787611c9b565b5050505050565b600073ffffffffffffffffffffffffffffffffffffffff168473ffffffffffffffffffffffffffffffffffffffff1614156115a5576040517f08c379a000000000000000000000000000000000000000000000000000000000815260040161159c90612b9e565b60405180910390fd5b60006115af610d28565b90506115cf8187876115c088611bd5565b6115c988611bd5565b876119e6565b600080600086815260200190815260200160002060008873ffffffffffffffffffffffffffffffffffffffff1673ffffffffffffffffffffffffffffffffffffffff16815260200190815260200160002054905083811015611666576040517f08c379a000000000000000000000000000000000000000000000000000000000815260040161165d90612bfe565b60405180910390fd5b83816116729190612e88565b60008087815260200190815260200160002060008973ffffffffffffffffffffffffffffffffffffffff1673ffffffffffffffffffffffffffffffffffffffff168152602001908152602001600020819055508360008087815260200190815260200160002060008873ffffffffffffffffffffffffffffffffffffffff1673ffffffffffffffffffffffffffffffffffffffff16815260200190815260200160002060008282546117249190612e32565b925050819055508573ffffffffffffffffffffffffffffffffffffffff168773ffffffffffffffffffffffffffffffffffffffff168373ffffffffffffffffffffffffffffffffffffffff167fc3d58168c5ae7397731d063d5bbf3d657854427343f4c083240f7aacaa2d0f6288886040516117a1929190612cb9565b60405180910390a46117b7828888888888611c9b565b50505050505050565b600073ffffffffffffffffffffffffffffffffffffffff168373ffffffffffffffffffffffffffffffffffffffff161415611830576040517f08c379a000000000000000000000000000000000000000000000000000000000815260040161182790612bde565b60405180910390fd5b600061183a610d28565b905061186a8185600061184c87611bd5565b61185587611bd5565b604051806020016040528060008152506119e6565b600080600085815260200190815260200160002060008673ffffffffffffffffffffffffffffffffffffffff1673ffffffffffffffffffffffffffffffffffffffff16815260200190815260200160002054905082811015611901576040517f08c379a00000000000000000000000000000000000000000000000000000000081526004016118f890612b5e565b60405180910390fd5b828161190d9190612e88565b60008086815260200190815260200160002060008773ffffffffffffffffffffffffffffffffffffffff1673ffffffffffffffffffffffffffffffffffffffff16815260200190815260200160002081905550600073ffffffffffffffffffffffffffffffffffffffff168573ffffffffffffffffffffffffffffffffffffffff168373ffffffffffffffffffffffffffffffffffffffff167fc3d58168c5ae7397731d063d5bbf3d657854427343f4c083240f7aacaa2d0f6287876040516119d7929190612cb9565b60405180910390a45050505050565b505050505050565b611a0d8473ffffffffffffffffffffffffffffffffffffffff16611e82565b15611bcd578373ffffffffffffffffffffffffffffffffffffffff1663bc197c8187878686866040518663ffffffff1660e01b8152600401611a539594939291906129a6565b602060405180830381600087803b158015611a6d57600080fd5b505af1925050508015611a9e57506040513d601f19601f82011682018060405250810190611a9b9190612628565b60015b611b4457611aaa6130ab565b806308c379a01415611b075750611abf6134ee565b80611aca5750611b09565b806040517f08c379a0000000000000000000000000000000000000000000000000000000008152600401611afe9190612adc565b60405180910390fd5b505b6040517f08c379a0000000000000000000000000000000000000000000000000000000008152600401611b3b90612afe565b60405180910390fd5b63bc197c8160e01b7bffffffffffffffffffffffffffffffffffffffffffffffffffffffff1916817bffffffffffffffffffffffffffffffffffffffffffffffffffffffff191614611bcb576040517f08c379a0000000000000000000000000000000000000000000000000000000008152600401611bc290612b1e565b60405180910390fd5b505b505050505050565b60606000600167ffffffffffffffff811115611c1a577f4e487b7100000000000000000000000000000000000000000000000000000000600052604160045260246000fd5b604051908082528060200260200182016040528015611c485781602001602082028036833780820191505090505b5090508281600081518110611c86577f4e487b7100000000000000000000000000000000000000000000000000000000600052603260045260246000fd5b60200260200101818152505080915050919050565b611cba8473ffffffffffffffffffffffffffffffffffffffff16611e82565b15611e7a578373ffffffffffffffffffffffffffffffffffffffff1663f23a6e6187878686866040518663ffffffff1660e01b8152600401611d00959493929190612a0e565b602060405180830381600087803b158015611d1a57600080fd5b505af1925050508015611d4b57506040513d601f19601f82011682018060405250810190611d489190612628565b60015b611df157611d576130ab565b806308c379a01415611db45750611d6c6134ee565b80611d775750611db6565b806040517f08c379a0000000000000000000000000000000000000000000000000000000008152600401611dab9190612adc565b60405180910390fd5b505b6040517f08c379a0000000000000000000000000000000000000000000000000000000008152600401611de890612afe565b60405180910390fd5b63f23a6e6160e01b7bffffffffffffffffffffffffffffffffffffffffffffffffffffffff1916817bffffffffffffffffffffffffffffffffffffffffffffffffffffffff191614611e78576040517f08c379a0000000000000000000000000000000000000000000000000000000008152600401611e6f90612b1e565b60405180910390fd5b505b505050505050565b600080823b905060008111915050919050565b828054611ea190612f72565b90600052602060002090601f016020900481019282611ec35760008555611f0a565b82601f10611edc57805160ff1916838001178555611f0a565b82800160010185558215611f0a579182015b82811115611f09578251825591602001919060010190611eee565b5b509050611f179190611f1b565b5090565b5b80821115611f34576000816000905550600101611f1c565b5090565b6000611f4b611f4684612d07565b612ce2565b90508083825260208201905082856020860282011115611f6a57600080fd5b60005b85811015611f9a5781611f80888261208c565b845260208401935060208301925050600181019050611f6d565b5050509392505050565b6000611fb7611fb284612d33565b612ce2565b90508083825260208201905082856020860282011115611fd657600080fd5b60005b858110156120065781611fec8882612188565b845260208401935060208301925050600181019050611fd9565b5050509392505050565b600061202361201e84612d5f565b612ce2565b90508281526020810184848401111561203b57600080fd5b612046848285612f30565b509392505050565b600061206161205c84612d90565b612ce2565b90508281526020810184848401111561207957600080fd5b612084848285612f30565b509392505050565b60008135905061209b81613584565b92915050565b600082601f8301126120b257600080fd5b81356120c2848260208601611f38565b91505092915050565b600082601f8301126120dc57600080fd5b81356120ec848260208601611fa4565b91505092915050565b6000813590506121048161359b565b92915050565b600081359050612119816135b2565b92915050565b60008151905061212e816135b2565b92915050565b600082601f83011261214557600080fd5b8135612155848260208601612010565b91505092915050565b600082601f83011261216f57600080fd5b813561217f84826020860161204e565b91505092915050565b600081359050612197816135c9565b92915050565b600080604083850312156121b057600080fd5b60006121be8582860161208c565b92505060206121cf8582860161208c565b9150509250929050565b600080600080600060a086880312156121f157600080fd5b60006121ff8882890161208c565b95505060206122108882890161208c565b945050604086013567ffffffffffffffff81111561222d57600080fd5b612239888289016120cb565b935050606086013567ffffffffffffffff81111561225657600080fd5b612262888289016120cb565b925050608086013567ffffffffffffffff81111561227f57600080fd5b61228b88828901612134565b9150509295509295909350565b600080600080600060a086880312156122b057600080fd5b60006122be8882890161208c565b95505060206122cf8882890161208c565b94505060406122e088828901612188565b93505060606122f188828901612188565b925050608086013567ffffffffffffffff81111561230e57600080fd5b61231a88828901612134565b9150509295509295909350565b60008060006060848603121561233c57600080fd5b600061234a8682870161208c565b935050602084013567ffffffffffffffff81111561236757600080fd5b612373868287016120cb565b925050604084013567ffffffffffffffff81111561239057600080fd5b61239c868287016120cb565b9150509250925092565b600080600080608085870312156123bc57600080fd5b60006123ca8782880161208c565b945050602085013567ffffffffffffffff8111156123e757600080fd5b6123f3878288016120cb565b935050604085013567ffffffffffffffff81111561241057600080fd5b61241c878288016120cb565b925050606085013567ffffffffffffffff81111561243957600080fd5b61244587828801612134565b91505092959194509250565b6000806040838503121561246457600080fd5b60006124728582860161208c565b9250506020612483858286016120f5565b9150509250929050565b600080604083850312156124a057600080fd5b60006124ae8582860161208c565b92505060206124bf85828601612188565b9150509250929050565b6000806000606084860312156124de57600080fd5b60006124ec8682870161208c565b93505060206124fd86828701612188565b925050604061250e86828701612188565b9150509250925092565b6000806000806080858703121561252e57600080fd5b600061253c8782880161208c565b945050602061254d87828801612188565b935050604061255e87828801612188565b925050606085013567ffffffffffffffff81111561257b57600080fd5b61258787828801612134565b91505092959194509250565b600080604083850312156125a657600080fd5b600083013567ffffffffffffffff8111156125c057600080fd5b6125cc858286016120a1565b925050602083013567ffffffffffffffff8111156125e957600080fd5b6125f5858286016120cb565b9150509250929050565b60006020828403121561261157600080fd5b600061261f8482850161210a565b91505092915050565b60006020828403121561263a57600080fd5b60006126488482850161211f565b91505092915050565b60006020828403121561266357600080fd5b600082013567ffffffffffffffff81111561267d57600080fd5b6126898482850161215e565b91505092915050565b6000602082840312156126a457600080fd5b60006126b284828501612188565b91505092915050565b60006126c78383612988565b60208301905092915050565b6126dc81612ebc565b82525050565b60006126ed82612dd1565b6126f78185612dff565b935061270283612dc1565b8060005b8381101561273357815161271a88826126bb565b975061272583612df2565b925050600181019050612706565b5085935050505092915050565b61274981612ece565b82525050565b600061275a82612ddc565b6127648185612e10565b9350612774818560208601612f3f565b61277d816130cd565b840191505092915050565b600061279382612de7565b61279d8185612e21565b93506127ad818560208601612f3f565b6127b6816130cd565b840191505092915050565b60006127ce603483612e21565b91506127d9826130eb565b604082019050919050565b60006127f1602883612e21565b91506127fc8261313a565b604082019050919050565b6000612814602b83612e21565b915061281f82613189565b604082019050919050565b6000612837602483612e21565b9150612842826131d8565b604082019050919050565b600061285a602983612e21565b915061286582613227565b604082019050919050565b600061287d602583612e21565b915061288882613276565b604082019050919050565b60006128a0603283612e21565b91506128ab826132c5565b604082019050919050565b60006128c3602383612e21565b91506128ce82613314565b604082019050919050565b60006128e6602a83612e21565b91506128f182613363565b604082019050919050565b6000612909602983612e21565b9150612914826133b2565b604082019050919050565b600061292c602983612e21565b915061293782613401565b604082019050919050565b600061294f602883612e21565b915061295a82613450565b604082019050919050565b6000612972602183612e21565b915061297d8261349f565b604082019050919050565b61299181612f26565b82525050565b6129a081612f26565b82525050565b600060a0820190506129bb60008301886126d3565b6129c860208301876126d3565b81810360408301526129da81866126e2565b905081810360608301526129ee81856126e2565b90508181036080830152612a02818461274f565b90509695505050505050565b600060a082019050612a2360008301886126d3565b612a3060208301876126d3565b612a3d6040830186612997565b612a4a6060830185612997565b8181036080830152612a5c818461274f565b90509695505050505050565b60006020820190508181036000830152612a8281846126e2565b905092915050565b60006040820190508181036000830152612aa481856126e2565b90508181036020830152612ab881846126e2565b90509392505050565b6000602082019050612ad66000830184612740565b92915050565b60006020820190508181036000830152612af68184612788565b905092915050565b60006020820190508181036000830152612b17816127c1565b9050919050565b60006020820190508181036000830152612b37816127e4565b9050919050565b60006020820190508181036000830152612b5781612807565b9050919050565b60006020820190508181036000830152612b778161282a565b9050919050565b60006020820190508181036000830152612b978161284d565b9050919050565b60006020820190508181036000830152612bb781612870565b9050919050565b60006020820190508181036000830152612bd781612893565b9050919050565b60006020820190508181036000830152612bf7816128b6565b9050919050565b60006020820190508181036000830152612c17816128d9565b9050919050565b60006020820190508181036000830152612c37816128fc565b9050919050565b60006020820190508181036000830152612c578161291f565b9050919050565b60006020820190508181036000830152612c7781612942565b9050919050565b60006020820190508181036000830152612c9781612965565b9050919050565b6000602082019050612cb36000830184612997565b92915050565b6000604082019050612cce6000830185612997565b612cdb6020830184612997565b9392505050565b6000612cec612cfd565b9050612cf88282612fa4565b919050565b6000604051905090565b600067ffffffffffffffff821115612d2257612d2161307c565b5b602082029050602081019050919050565b600067ffffffffffffffff821115612d4e57612d4d61307c565b5b602082029050602081019050919050565b600067ffffffffffffffff821115612d7a57612d7961307c565b5b612d83826130cd565b9050602081019050919050565b600067ffffffffffffffff821115612dab57612daa61307c565b5b612db4826130cd565b9050602081019050919050565b6000819050602082019050919050565b600081519050919050565b600081519050919050565b600081519050919050565b6000602082019050919050565b600082825260208201905092915050565b600082825260208201905092915050565b600082825260208201905092915050565b6000612e3d82612f26565b9150612e4883612f26565b9250827fffffffffffffffffffffffffffffffffffffffffffffffffffffffffffffffff03821115612e7d57612e7c61301e565b5b828201905092915050565b6000612e9382612f26565b9150612e9e83612f26565b925082821015612eb157612eb061301e565b5b828203905092915050565b6000612ec782612f06565b9050919050565b60008115159050919050565b60007fffffffff0000000000000000000000000000000000000000000000000000000082169050919050565b600073ffffffffffffffffffffffffffffffffffffffff82169050919050565b6000819050919050565b82818337600083830152505050565b60005b83811015612f5d578082015181840152602081019050612f42565b83811115612f6c576000848401525b50505050565b60006002820490506001821680612f8a57607f821691505b60208210811415612f9e57612f9d61304d565b5b50919050565b612fad826130cd565b810181811067ffffffffffffffff82111715612fcc57612fcb61307c565b5b80604052505050565b6000612fe082612f26565b91507fffffffffffffffffffffffffffffffffffffffffffffffffffffffffffffffff8214156130135761301261301e565b5b600182019050919050565b7f4e487b7100000000000000000000000000000000000000000000000000000000600052601160045260246000fd5b7f4e487b7100000000000000000000000000000000000000000000000000000000600052602260045260246000fd5b7f4e487b7100000000000000000000000000000000000000000000000000000000600052604160045260246000fd5b600060033d11156130ca5760046000803e6130c76000516130de565b90505b90565b6000601f19601f8301169050919050565b60008160e01c9050919050565b7f455243313135353a207472616e7366657220746f206e6f6e204552433131353560008201527f526563656976657220696d706c656d656e746572000000000000000000000000602082015250565b7f455243313135353a204552433131353552656365697665722072656a6563746560008201527f6420746f6b656e73000000000000000000000000000000000000000000000000602082015250565b7f455243313135353a2062616c616e636520717565727920666f7220746865207a60008201527f65726f2061646472657373000000000000000000000000000000000000000000602082015250565b7f455243313135353a206275726e20616d6f756e7420657863656564732062616c60008201527f616e636500000000000000000000000000000000000000000000000000000000602082015250565b7f455243313135353a2063616c6c6572206973206e6f74206f776e6572206e6f7260008201527f20617070726f7665640000000000000000000000000000000000000000000000602082015250565b7f455243313135353a207472616e7366657220746f20746865207a65726f20616460008201527f6472657373000000000000000000000000000000000000000000000000000000602082015250565b7f455243313135353a207472616e736665722063616c6c6572206973206e6f742060008201527f6f776e6572206e6f7220617070726f7665640000000000000000000000000000602082015250565b7f455243313135353a206275726e2066726f6d20746865207a65726f206164647260008201527f6573730000000000000000000000000000000000000000000000000000000000602082015250565b7f455243313135353a20696e73756666696369656e742062616c616e636520666f60008201527f72207472616e7366657200000000000000000000000000000000000000000000602082015250565b7f455243313135353a2073657474696e6720617070726f76616c2073746174757360008201527f20666f722073656c660000000000000000000000000000000000000000000000602082015250565b7f455243313135353a206163636f756e747320616e6420696473206c656e67746860008201527f206d69736d617463680000000000000000000000000000000000000000000000602082015250565b7f455243313135353a2069647320616e6420616d6f756e7473206c656e6774682060008201527f6d69736d61746368000000000000000000000000000000000000000000000000602082015250565b7f455243313135353a206d696e7420746f20746865207a65726f2061646472657360008201527f7300000000000000000000000000000000000000000000000000000000000000602082015250565b600060443d10156134fe57613581565b613506612cfd565b60043d036004823e80513d602482011167ffffffffffffffff8211171561352e575050613581565b808201805167ffffffffffffffff81111561354c5750505050613581565b80602083010160043d038501811115613569575050505050613581565b61357882602001850186612fa4565b82955050505050505b90565b61358d81612ebc565b811461359857600080fd5b50565b6135a481612ece565b81146135af57600080fd5b50565b6135bb81612eda565b81146135c657600080fd5b50565b6135d281612f26565b81146135dd57600080fd5b5056fea26469706673582212204a22100d81d63eb9e967dacba3b393bbf405f6cfa535099c5f9147eccd39b08f64736f6c63430008030033",
  "immutableReferences": {},
  "source": "// SPDX-License-Identifier: MIT\r\n\r\npragma solidity ^0.8.0;\r\n\r\nimport \"../token/ERC1155/ERC1155.sol\";\r\n\r\n/**\r\n * @title ERC1155Mock\r\n * This mock just publicizes internal functions for testing purposes\r\n */\r\ncontract ERC1155Mock is ERC1155 {\r\n    constructor (string memory uri) ERC1155(uri) {\r\n        // solhint-disable-previous-line no-empty-blocks\r\n    }\r\n\r\n    function setURI(string memory newuri) public {\r\n        _setURI(newuri);\r\n    }\r\n\r\n    function mint(address to, uint256 id, uint256 value, bytes memory data) public {\r\n        _mint(to, id, value, data);\r\n    }\r\n\r\n    function mintBatch(address to, uint256[] memory ids, uint256[] memory values, bytes memory data) public {\r\n        _mintBatch(to, ids, values, data);\r\n    }\r\n\r\n    function burn(address owner, uint256 id, uint256 value) public {\r\n        _burn(owner, id, value);\r\n    }\r\n\r\n    function burnBatch(address owner, uint256[] memory ids, uint256[] memory values) public {\r\n        _burnBatch(owner, ids, values);\r\n    }\r\n}\r\n",
  "sourcePath": "D:/Code/NFTrees/contracts/OpenZepplin/mocks/ERC1155Mock.sol",
  "compiler": {
    "name": "solc",
    "version": "0.8.3+commit.8d00100c.Emscripten.clang"
  },
  "schemaVersion": "3.4.1",
  "updatedAt": "2021-05-25T03:10:55.224Z",
  "devdoc": {
    "kind": "dev",
    "methods": {
      "balanceOf(address,uint256)": {
        "details": "See {IERC1155-balanceOf}. Requirements: - `account` cannot be the zero address."
      },
      "balanceOfBatch(address[],uint256[])": {
        "details": "See {IERC1155-balanceOfBatch}. Requirements: - `accounts` and `ids` must have the same length."
      },
      "isApprovedForAll(address,address)": {
        "details": "See {IERC1155-isApprovedForAll}."
      },
      "safeBatchTransferFrom(address,address,uint256[],uint256[],bytes)": {
        "details": "See {IERC1155-safeBatchTransferFrom}."
      },
      "safeTransferFrom(address,address,uint256,uint256,bytes)": {
        "details": "See {IERC1155-safeTransferFrom}."
      },
      "setApprovalForAll(address,bool)": {
        "details": "See {IERC1155-setApprovalForAll}."
      },
      "supportsInterface(bytes4)": {
        "details": "See {IERC165-supportsInterface}."
      },
      "uri(uint256)": {
        "details": "See {IERC1155MetadataURI-uri}. This implementation returns the same URI for *all* token types. It relies on the token type ID substitution mechanism https://eips.ethereum.org/EIPS/eip-1155#metadata[defined in the EIP]. Clients calling this function must replace the `\\{id\\}` substring with the actual token type ID."
      }
    },
    "title": "ERC1155Mock This mock just publicizes internal functions for testing purposes",
    "version": 1
  },
  "userdoc": {
    "kind": "user",
    "methods": {},
    "version": 1
  }
}