{
  "contractName": "ERC165CheckerMock",
  "abi": [
    {
      "inputs": [
        {
          "internalType": "address",
          "name": "account",
          "type": "address"
        }
      ],
      "name": "supportsERC165",
      "outputs": [
        {
          "internalType": "bool",
          "name": "",
          "type": "bool"
        }
      ],
      "stateMutability": "view",
      "type": "function"
    },
    {
      "inputs": [
        {
          "internalType": "address",
          "name": "account",
          "type": "address"
        },
        {
          "internalType": "bytes4",
          "name": "interfaceId",
          "type": "bytes4"
        }
      ],
      "name": "supportsInterface",
      "outputs": [
        {
          "internalType": "bool",
          "name": "",
          "type": "bool"
        }
      ],
      "stateMutability": "view",
      "type": "function"
    },
    {
      "inputs": [
        {
          "internalType": "address",
          "name": "account",
          "type": "address"
        },
        {
          "internalType": "bytes4[]",
          "name": "interfaceIds",
          "type": "bytes4[]"
        }
      ],
      "name": "supportsAllInterfaces",
      "outputs": [
        {
          "internalType": "bool",
          "name": "",
          "type": "bool"
        }
      ],
      "stateMutability": "view",
      "type": "function"
    },
    {
      "inputs": [
        {
          "internalType": "address",
          "name": "account",
          "type": "address"
        },
        {
          "internalType": "bytes4[]",
          "name": "interfaceIds",
          "type": "bytes4[]"
        }
      ],
      "name": "getSupportedInterfaces",
      "outputs": [
        {
          "internalType": "bool[]",
          "name": "",
          "type": "bool[]"
        }
      ],
      "stateMutability": "view",
      "type": "function"
    }
  ],
  "bytecode": "0x608060405234801561001057600080fd5b50610af3806100206000396000f3fe608060405234801561001057600080fd5b506004361061004c5760003560e01c80634b9dd9041461005157806377e6b4cc14610081578063c398a925146100b1578063d9057007146100e1575b600080fd5b61006b6004803603810190610066919061064c565b610111565b6040516100789190610812565b60405180910390f35b61009b6004803603810190610096919061064c565b610144565b6040516100a891906107f0565b60405180910390f35b6100cb60048036038101906100c69190610623565b610177565b6040516100d89190610812565b60405180910390f35b6100fb60048036038101906100f691906106a0565b61019f565b6040516101089190610812565b60405180910390f35b600061013c828473ffffffffffffffffffffffffffffffffffffffff166101d290919063ffffffff16565b905092915050565b606061016f828473ffffffffffffffffffffffffffffffffffffffff1661026d90919063ffffffff16565b905092915050565b60006101988273ffffffffffffffffffffffffffffffffffffffff166103b1565b9050919050565b60006101ca828473ffffffffffffffffffffffffffffffffffffffff166103fe90919063ffffffff16565b905092915050565b60006101dd836103b1565b6101ea5760009050610267565b60005b82518110156102615761024084848381518110610233577f4e487b7100000000000000000000000000000000000000000000000000000000600052603260045260246000fd5b6020026020010151610423565b61024e576000915050610267565b8080610259906109c0565b9150506101ed565b50600190505b92915050565b60606000825167ffffffffffffffff8111156102b2577f4e487b7100000000000000000000000000000000000000000000000000000000600052604160045260246000fd5b6040519080825280602002602001820160405280156102e05781602001602082028036833780820191505090505b5090506102ec846103b1565b156103a75760005b83518110156103a5576103478585838151811061033a577f4e487b7100000000000000000000000000000000000000000000000000000000600052603260045260246000fd5b6020026020010151610423565b828281518110610380577f4e487b7100000000000000000000000000000000000000000000000000000000600052603260045260246000fd5b602002602001019015159081151581525050808061039d906109c0565b9150506102f4565b505b8091505092915050565b60006103dd827f01ffc9a700000000000000000000000000000000000000000000000000000000610423565b80156103f757506103f58263ffffffff60e01b610423565b155b9050919050565b6000610409836103b1565b801561041b575061041a8383610423565b5b905092915050565b6000806301ffc9a760e01b8360405160240161043f919061082d565b604051602081830303815290604052907bffffffffffffffffffffffffffffffffffffffffffffffffffffffff19166020820180517bffffffffffffffffffffffffffffffffffffffffffffffffffffffff838183161783525050505090506000808573ffffffffffffffffffffffffffffffffffffffff16617530846040516104c991906107d9565b6000604051808303818686fa925050503d8060008114610505576040519150601f19603f3d011682016040523d82523d6000602084013e61050a565b606091505b50915091506020815110156105255760009350505050610548565b81801561054257508080602001905181019061054191906106dc565b5b93505050505b92915050565b600061056161055c8461086d565b610848565b9050808382526020820190508285602086028201111561058057600080fd5b60005b858110156105b05781610596888261060e565b845260208401935060208301925050600181019050610583565b5050509392505050565b6000813590506105c981610a78565b92915050565b600082601f8301126105e057600080fd5b81356105f084826020860161054e565b91505092915050565b60008151905061060881610a8f565b92915050565b60008135905061061d81610aa6565b92915050565b60006020828403121561063557600080fd5b6000610643848285016105ba565b91505092915050565b6000806040838503121561065f57600080fd5b600061066d858286016105ba565b925050602083013567ffffffffffffffff81111561068a57600080fd5b610696858286016105cf565b9150509250929050565b600080604083850312156106b357600080fd5b60006106c1858286016105ba565b92505060206106d28582860161060e565b9150509250929050565b6000602082840312156106ee57600080fd5b60006106fc848285016105f9565b91505092915050565b6000610711838361077b565b60208301905092915050565b6000610728826108a9565b61073281856108cc565b935061073d83610899565b8060005b8381101561076e5781516107558882610705565b9750610760836108bf565b925050600181019050610741565b5085935050505092915050565b610784816108fa565b82525050565b610793816108fa565b82525050565b6107a281610906565b82525050565b60006107b3826108b4565b6107bd81856108dd565b93506107cd81856020860161095c565b80840191505092915050565b60006107e582846107a8565b915081905092915050565b6000602082019050818103600083015261080a818461071d565b905092915050565b6000602082019050610827600083018461078a565b92915050565b60006020820190506108426000830184610799565b92915050565b6000610852610863565b905061085e828261098f565b919050565b6000604051905090565b600067ffffffffffffffff82111561088857610887610a38565b5b602082029050602081019050919050565b6000819050602082019050919050565b600081519050919050565b600081519050919050565b6000602082019050919050565b600082825260208201905092915050565b600081905092915050565b60006108f382610932565b9050919050565b60008115159050919050565b60007fffffffff0000000000000000000000000000000000000000000000000000000082169050919050565b600073ffffffffffffffffffffffffffffffffffffffff82169050919050565b6000819050919050565b60005b8381101561097a57808201518184015260208101905061095f565b83811115610989576000848401525b50505050565b61099882610a67565b810181811067ffffffffffffffff821117156109b7576109b6610a38565b5b80604052505050565b60006109cb82610952565b91507fffffffffffffffffffffffffffffffffffffffffffffffffffffffffffffffff8214156109fe576109fd610a09565b5b600182019050919050565b7f4e487b7100000000000000000000000000000000000000000000000000000000600052601160045260246000fd5b7f4e487b7100000000000000000000000000000000000000000000000000000000600052604160045260246000fd5b6000601f19601f8301169050919050565b610a81816108e8565b8114610a8c57600080fd5b50565b610a98816108fa565b8114610aa357600080fd5b50565b610aaf81610906565b8114610aba57600080fd5b5056fea2646970667358221220e426def01ad3e90619923d9ff8f53ccce21055d422d5da41be7cffbf3f0a8e5e64736f6c63430008030033",
  "immutableReferences": {},
  "source": "// SPDX-License-Identifier: MIT\r\n\r\npragma solidity ^0.8.0;\r\n\r\nimport \"../utils/introspection/ERC165Checker.sol\";\r\n\r\ncontract ERC165CheckerMock {\r\n    using ERC165Checker for address;\r\n\r\n    function supportsERC165(address account) public view returns (bool) {\r\n        return account.supportsERC165();\r\n    }\r\n\r\n    function supportsInterface(address account, bytes4 interfaceId) public view returns (bool) {\r\n        return account.supportsInterface(interfaceId);\r\n    }\r\n\r\n    function supportsAllInterfaces(address account, bytes4[] memory interfaceIds) public view returns (bool) {\r\n        return account.supportsAllInterfaces(interfaceIds);\r\n    }\r\n\r\n    function getSupportedInterfaces(address account, bytes4[] memory interfaceIds) public view returns (bool[] memory) {\r\n        return account.getSupportedInterfaces(interfaceIds);\r\n    }\r\n}\r\n",
  "sourcePath": "D:/Code/NFTrees/contracts/OpenZepplin/mocks/ERC165CheckerMock.sol",
  "compiler": {
    "name": "solc",
    "version": "0.8.3+commit.8d00100c.Emscripten.clang"
  },
  "schemaVersion": "3.4.1",
  "updatedAt": "2021-05-22T22:20:34.966Z",
  "devdoc": {
    "kind": "dev",
    "methods": {},
    "version": 1
  },
  "userdoc": {
    "kind": "user",
    "methods": {},
    "version": 1
  }
}