{
  "contractName": "ERC1155BurnableMock",
  "abi": [
    {
      "inputs": [
        {
          "internalType": "string",
          "name": "uri",
          "type": "string"
        }
      ],
      "stateMutability": "nonpayable",
      "type": "constructor"
    },
    {
      "anonymous": false,
      "inputs": [
        {
          "indexed": true,
          "internalType": "address",
          "name": "account",
          "type": "address"
        },
        {
          "indexed": true,
          "internalType": "address",
          "name": "operator",
          "type": "address"
        },
        {
          "indexed": false,
          "internalType": "bool",
          "name": "approved",
          "type": "bool"
        }
      ],
      "name": "ApprovalForAll",
      "type": "event"
    },
    {
      "anonymous": false,
      "inputs": [
        {
          "indexed": true,
          "internalType": "address",
          "name": "operator",
          "type": "address"
        },
        {
          "indexed": true,
          "internalType": "address",
          "name": "from",
          "type": "address"
        },
        {
          "indexed": true,
          "internalType": "address",
          "name": "to",
          "type": "address"
        },
        {
          "indexed": false,
          "internalType": "uint256[]",
          "name": "ids",
          "type": "uint256[]"
        },
        {
          "indexed": false,
          "internalType": "uint256[]",
          "name": "values",
          "type": "uint256[]"
        }
      ],
      "name": "TransferBatch",
      "type": "event"
    },
    {
      "anonymous": false,
      "inputs": [
        {
          "indexed": true,
          "internalType": "address",
          "name": "operator",
          "type": "address"
        },
        {
          "indexed": true,
          "internalType": "address",
          "name": "from",
          "type": "address"
        },
        {
          "indexed": true,
          "internalType": "address",
          "name": "to",
          "type": "address"
        },
        {
          "indexed": false,
          "internalType": "uint256",
          "name": "id",
          "type": "uint256"
        },
        {
          "indexed": false,
          "internalType": "uint256",
          "name": "value",
          "type": "uint256"
        }
      ],
      "name": "TransferSingle",
      "type": "event"
    },
    {
      "anonymous": false,
      "inputs": [
        {
          "indexed": false,
          "internalType": "string",
          "name": "value",
          "type": "string"
        },
        {
          "indexed": true,
          "internalType": "uint256",
          "name": "id",
          "type": "uint256"
        }
      ],
      "name": "URI",
      "type": "event"
    },
    {
      "inputs": [
        {
          "internalType": "address",
          "name": "account",
          "type": "address"
        },
        {
          "internalType": "uint256",
          "name": "id",
          "type": "uint256"
        }
      ],
      "name": "balanceOf",
      "outputs": [
        {
          "internalType": "uint256",
          "name": "",
          "type": "uint256"
        }
      ],
      "stateMutability": "view",
      "type": "function"
    },
    {
      "inputs": [
        {
          "internalType": "address[]",
          "name": "accounts",
          "type": "address[]"
        },
        {
          "internalType": "uint256[]",
          "name": "ids",
          "type": "uint256[]"
        }
      ],
      "name": "balanceOfBatch",
      "outputs": [
        {
          "internalType": "uint256[]",
          "name": "",
          "type": "uint256[]"
        }
      ],
      "stateMutability": "view",
      "type": "function"
    },
    {
      "inputs": [
        {
          "internalType": "address",
          "name": "account",
          "type": "address"
        },
        {
          "internalType": "uint256",
          "name": "id",
          "type": "uint256"
        },
        {
          "internalType": "uint256",
          "name": "value",
          "type": "uint256"
        }
      ],
      "name": "burn",
      "outputs": [],
      "stateMutability": "nonpayable",
      "type": "function"
    },
    {
      "inputs": [
        {
          "internalType": "address",
          "name": "account",
          "type": "address"
        },
        {
          "internalType": "uint256[]",
          "name": "ids",
          "type": "uint256[]"
        },
        {
          "internalType": "uint256[]",
          "name": "values",
          "type": "uint256[]"
        }
      ],
      "name": "burnBatch",
      "outputs": [],
      "stateMutability": "nonpayable",
      "type": "function"
    },
    {
      "inputs": [
        {
          "internalType": "address",
          "name": "account",
          "type": "address"
        },
        {
          "internalType": "address",
          "name": "operator",
          "type": "address"
        }
      ],
      "name": "isApprovedForAll",
      "outputs": [
        {
          "internalType": "bool",
          "name": "",
          "type": "bool"
        }
      ],
      "stateMutability": "view",
      "type": "function"
    },
    {
      "inputs": [
        {
          "internalType": "address",
          "name": "from",
          "type": "address"
        },
        {
          "internalType": "address",
          "name": "to",
          "type": "address"
        },
        {
          "internalType": "uint256[]",
          "name": "ids",
          "type": "uint256[]"
        },
        {
          "internalType": "uint256[]",
          "name": "amounts",
          "type": "uint256[]"
        },
        {
          "internalType": "bytes",
          "name": "data",
          "type": "bytes"
        }
      ],
      "name": "safeBatchTransferFrom",
      "outputs": [],
      "stateMutability": "nonpayable",
      "type": "function"
    },
    {
      "inputs": [
        {
          "internalType": "address",
          "name": "from",
          "type": "address"
        },
        {
          "internalType": "address",
          "name": "to",
          "type": "address"
        },
        {
          "internalType": "uint256",
          "name": "id",
          "type": "uint256"
        },
        {
          "internalType": "uint256",
          "name": "amount",
          "type": "uint256"
        },
        {
          "internalType": "bytes",
          "name": "data",
          "type": "bytes"
        }
      ],
      "name": "safeTransferFrom",
      "outputs": [],
      "stateMutability": "nonpayable",
      "type": "function"
    },
    {
      "inputs": [
        {
          "internalType": "address",
          "name": "operator",
          "type": "address"
        },
        {
          "internalType": "bool",
          "name": "approved",
          "type": "bool"
        }
      ],
      "name": "setApprovalForAll",
      "outputs": [],
      "stateMutability": "nonpayable",
      "type": "function"
    },
    {
      "inputs": [
        {
          "internalType": "bytes4",
          "name": "interfaceId",
          "type": "bytes4"
        }
      ],
      "name": "supportsInterface",
      "outputs": [
        {
          "internalType": "bool",
          "name": "",
          "type": "bool"
        }
      ],
      "stateMutability": "view",
      "type": "function"
    },
    {
      "inputs": [
        {
          "internalType": "uint256",
          "name": "",
          "type": "uint256"
        }
      ],
      "name": "uri",
      "outputs": [
        {
          "internalType": "string",
          "name": "",
          "type": "string"
        }
      ],
      "stateMutability": "view",
      "type": "function"
    },
    {
      "inputs": [
        {
          "internalType": "address",
          "name": "to",
          "type": "address"
        },
        {
          "internalType": "uint256",
          "name": "id",
          "type": "uint256"
        },
        {
          "internalType": "uint256",
          "name": "value",
          "type": "uint256"
        },
        {
          "internalType": "bytes",
          "name": "data",
          "type": "bytes"
        }
      ],
      "name": "mint",
      "outputs": [],
      "stateMutability": "nonpayable",
      "type": "function"
    }
  ],
  "bytecode": "0x60806040523480156200001157600080fd5b506040516200355c3803806200355c83398181016040528101906200003791906200018f565b8062000049816200005160201b60201c565b505062000344565b8060029080519060200190620000699291906200006d565b5050565b8280546200007b9062000269565b90600052602060002090601f0160209004810192826200009f5760008555620000eb565b82601f10620000ba57805160ff1916838001178555620000eb565b82800160010185558215620000eb579182015b82811115620000ea578251825591602001919060010190620000cd565b5b509050620000fa9190620000fe565b5090565b5b8082111562000119576000816000905550600101620000ff565b5090565b6000620001346200012e84620001fd565b620001d4565b9050828152602081018484840111156200014d57600080fd5b6200015a84828562000233565b509392505050565b600082601f8301126200017457600080fd5b8151620001868482602086016200011d565b91505092915050565b600060208284031215620001a257600080fd5b600082015167ffffffffffffffff811115620001bd57600080fd5b620001cb8482850162000162565b91505092915050565b6000620001e0620001f3565b9050620001ee82826200029f565b919050565b6000604051905090565b600067ffffffffffffffff8211156200021b576200021a62000304565b5b620002268262000333565b9050602081019050919050565b60005b838110156200025357808201518184015260208101905062000236565b8381111562000263576000848401525b50505050565b600060028204905060018216806200028257607f821691505b60208210811415620002995762000298620002d5565b5b50919050565b620002aa8262000333565b810181811067ffffffffffffffff82111715620002cc57620002cb62000304565b5b80604052505050565b7f4e487b7100000000000000000000000000000000000000000000000000000000600052602260045260246000fd5b7f4e487b7100000000000000000000000000000000000000000000000000000000600052604160045260246000fd5b6000601f19601f8301169050919050565b61320880620003546000396000f3fe608060405234801561001057600080fd5b50600436106100a85760003560e01c80636b20c454116100715780636b20c45414610189578063731133e9146101a5578063a22cb465146101c1578063e985e9c5146101dd578063f242432a1461020d578063f5298aca14610229576100a8565b8062fdd58e146100ad57806301ffc9a7146100dd5780630e89341c1461010d5780632eb2c2d61461013d5780634e1273f414610159575b600080fd5b6100c760048036038101906100c291906120f1565b610245565b6040516100d491906128c1565b60405180910390f35b6100f760048036038101906100f29190612263565b61030e565b60405161010491906126e4565b60405180910390f35b610127600480360381019061012291906122b5565b6103f0565b60405161013491906126ff565b60405180910390f35b61015760048036038101906101529190611ee8565b610484565b005b610173600480360381019061016e91906121f7565b610525565b604051610180919061268b565b60405180910390f35b6101a3600480360381019061019e9190612036565b6106d6565b005b6101bf60048036038101906101ba919061217c565b610773565b005b6101db60048036038101906101d691906120b5565b610785565b005b6101f760048036038101906101f29190611eac565b610906565b60405161020491906126e4565b60405180910390f35b61022760048036038101906102229190611fa7565b61099a565b005b610243600480360381019061023e919061212d565b610a3b565b005b60008073ffffffffffffffffffffffffffffffffffffffff168373ffffffffffffffffffffffffffffffffffffffff1614156102b6576040517f08c379a00000000000000000000000000000000000000000000000000000000081526004016102ad90612761565b60405180910390fd5b60008083815260200190815260200160002060008473ffffffffffffffffffffffffffffffffffffffff1673ffffffffffffffffffffffffffffffffffffffff16815260200190815260200160002054905092915050565b60007fd9b67a26000000000000000000000000000000000000000000000000000000007bffffffffffffffffffffffffffffffffffffffffffffffffffffffff1916827bffffffffffffffffffffffffffffffffffffffffffffffffffffffff191614806103d957507f0e89341c000000000000000000000000000000000000000000000000000000007bffffffffffffffffffffffffffffffffffffffffffffffffffffffff1916827bffffffffffffffffffffffffffffffffffffffffffffffffffffffff1916145b806103e957506103e882610ad8565b5b9050919050565b6060600280546103ff90612b64565b80601f016020809104026020016040519081016040528092919081815260200182805461042b90612b64565b80156104785780601f1061044d57610100808354040283529160200191610478565b820191906000526020600020905b81548152906001019060200180831161045b57829003601f168201915b50505050509050919050565b61048c610b42565b73ffffffffffffffffffffffffffffffffffffffff168573ffffffffffffffffffffffffffffffffffffffff1614806104d257506104d1856104cc610b42565b610906565b5b610511576040517f08c379a0000000000000000000000000000000000000000000000000000000008152600401610508906127e1565b60405180910390fd5b61051e8585858585610b4a565b5050505050565b6060815183511461056b576040517f08c379a000000000000000000000000000000000000000000000000000000000815260040161056290612861565b60405180910390fd5b6000835167ffffffffffffffff8111156105ae577f4e487b7100000000000000000000000000000000000000000000000000000000600052604160045260246000fd5b6040519080825280602002602001820160405280156105dc5781602001602082028036833780820191505090505b50905060005b84518110156106cb57610675858281518110610627577f4e487b7100000000000000000000000000000000000000000000000000000000600052603260045260246000fd5b6020026020010151858381518110610668577f4e487b7100000000000000000000000000000000000000000000000000000000600052603260045260246000fd5b6020026020010151610245565b8282815181106106ae577f4e487b7100000000000000000000000000000000000000000000000000000000600052603260045260246000fd5b602002602001018181525050806106c490612bc7565b90506105e2565b508091505092915050565b6106de610b42565b73ffffffffffffffffffffffffffffffffffffffff168373ffffffffffffffffffffffffffffffffffffffff16148061072457506107238361071e610b42565b610906565b5b610763576040517f08c379a000000000000000000000000000000000000000000000000000000000815260040161075a906127a1565b60405180910390fd5b61076e838383610eb3565b505050565b61077f848484846111b9565b50505050565b8173ffffffffffffffffffffffffffffffffffffffff166107a4610b42565b73ffffffffffffffffffffffffffffffffffffffff1614156107fb576040517f08c379a00000000000000000000000000000000000000000000000000000000081526004016107f290612841565b60405180910390fd5b8060016000610808610b42565b73ffffffffffffffffffffffffffffffffffffffff1673ffffffffffffffffffffffffffffffffffffffff16815260200190815260200160002060008473ffffffffffffffffffffffffffffffffffffffff1673ffffffffffffffffffffffffffffffffffffffff16815260200190815260200160002060006101000a81548160ff0219169083151502179055508173ffffffffffffffffffffffffffffffffffffffff166108b5610b42565b73ffffffffffffffffffffffffffffffffffffffff167f17307eab39ab6107e8899845ad3d59bd9653f200f220920489ca2b5937696c31836040516108fa91906126e4565b60405180910390a35050565b6000600160008473ffffffffffffffffffffffffffffffffffffffff1673ffffffffffffffffffffffffffffffffffffffff16815260200190815260200160002060008373ffffffffffffffffffffffffffffffffffffffff1673ffffffffffffffffffffffffffffffffffffffff16815260200190815260200160002060009054906101000a900460ff16905092915050565b6109a2610b42565b73ffffffffffffffffffffffffffffffffffffffff168573ffffffffffffffffffffffffffffffffffffffff1614806109e857506109e7856109e2610b42565b610906565b5b610a27576040517f08c379a0000000000000000000000000000000000000000000000000000000008152600401610a1e906127a1565b60405180910390fd5b610a34858585858561134f565b5050505050565b610a43610b42565b73ffffffffffffffffffffffffffffffffffffffff168373ffffffffffffffffffffffffffffffffffffffff161480610a895750610a8883610a83610b42565b610906565b5b610ac8576040517f08c379a0000000000000000000000000000000000000000000000000000000008152600401610abf906127a1565b60405180910390fd5b610ad38383836115da565b505050565b60007f01ffc9a7000000000000000000000000000000000000000000000000000000007bffffffffffffffffffffffffffffffffffffffffffffffffffffffff1916827bffffffffffffffffffffffffffffffffffffffffffffffffffffffff1916149050919050565b600033905090565b8151835114610b8e576040517f08c379a0000000000000000000000000000000000000000000000000000000008152600401610b8590612881565b60405180910390fd5b600073ffffffffffffffffffffffffffffffffffffffff168473ffffffffffffffffffffffffffffffffffffffff161415610bfe576040517f08c379a0000000000000000000000000000000000000000000000000000000008152600401610bf5906127c1565b60405180910390fd5b6000610c08610b42565b9050610c18818787878787611800565b60005b8451811015610e1e576000858281518110610c5f577f4e487b7100000000000000000000000000000000000000000000000000000000600052603260045260246000fd5b602002602001015190506000858381518110610ca4577f4e487b7100000000000000000000000000000000000000000000000000000000600052603260045260246000fd5b60200260200101519050600080600084815260200190815260200160002060008b73ffffffffffffffffffffffffffffffffffffffff1673ffffffffffffffffffffffffffffffffffffffff16815260200190815260200160002054905081811015610d45576040517f08c379a0000000000000000000000000000000000000000000000000000000008152600401610d3c90612821565b60405180910390fd5b8181610d519190612a7a565b60008085815260200190815260200160002060008c73ffffffffffffffffffffffffffffffffffffffff1673ffffffffffffffffffffffffffffffffffffffff168152602001908152602001600020819055508160008085815260200190815260200160002060008b73ffffffffffffffffffffffffffffffffffffffff1673ffffffffffffffffffffffffffffffffffffffff1681526020019081526020016000206000828254610e039190612a24565b9250508190555050505080610e1790612bc7565b9050610c1b565b508473ffffffffffffffffffffffffffffffffffffffff168673ffffffffffffffffffffffffffffffffffffffff168273ffffffffffffffffffffffffffffffffffffffff167f4a39dc06d4c0dbc64b70af90fd698a233a518aa5d07e595d983b8c0526c8f7fb8787604051610e959291906126ad565b60405180910390a4610eab818787878787611808565b505050505050565b600073ffffffffffffffffffffffffffffffffffffffff168373ffffffffffffffffffffffffffffffffffffffff161415610f23576040517f08c379a0000000000000000000000000000000000000000000000000000000008152600401610f1a90612801565b60405180910390fd5b8051825114610f67576040517f08c379a0000000000000000000000000000000000000000000000000000000008152600401610f5e90612881565b60405180910390fd5b6000610f71610b42565b9050610f9181856000868660405180602001604052806000815250611800565b60005b8351811015611133576000848281518110610fd8577f4e487b7100000000000000000000000000000000000000000000000000000000600052603260045260246000fd5b60200260200101519050600084838151811061101d577f4e487b7100000000000000000000000000000000000000000000000000000000600052603260045260246000fd5b60200260200101519050600080600084815260200190815260200160002060008973ffffffffffffffffffffffffffffffffffffffff1673ffffffffffffffffffffffffffffffffffffffff168152602001908152602001600020549050818110156110be576040517f08c379a00000000000000000000000000000000000000000000000000000000081526004016110b590612781565b60405180910390fd5b81816110ca9190612a7a565b60008085815260200190815260200160002060008a73ffffffffffffffffffffffffffffffffffffffff1673ffffffffffffffffffffffffffffffffffffffff16815260200190815260200160002081905550505050808061112b90612bc7565b915050610f94565b50600073ffffffffffffffffffffffffffffffffffffffff168473ffffffffffffffffffffffffffffffffffffffff168273ffffffffffffffffffffffffffffffffffffffff167f4a39dc06d4c0dbc64b70af90fd698a233a518aa5d07e595d983b8c0526c8f7fb86866040516111ab9291906126ad565b60405180910390a450505050565b600073ffffffffffffffffffffffffffffffffffffffff168473ffffffffffffffffffffffffffffffffffffffff161415611229576040517f08c379a0000000000000000000000000000000000000000000000000000000008152600401611220906128a1565b60405180910390fd5b6000611233610b42565b905061125481600087611245886119ef565b61124e886119ef565b87611800565b8260008086815260200190815260200160002060008773ffffffffffffffffffffffffffffffffffffffff1673ffffffffffffffffffffffffffffffffffffffff16815260200190815260200160002060008282546112b39190612a24565b925050819055508473ffffffffffffffffffffffffffffffffffffffff16600073ffffffffffffffffffffffffffffffffffffffff168273ffffffffffffffffffffffffffffffffffffffff167fc3d58168c5ae7397731d063d5bbf3d657854427343f4c083240f7aacaa2d0f6287876040516113319291906128dc565b60405180910390a461134881600087878787611ab5565b5050505050565b600073ffffffffffffffffffffffffffffffffffffffff168473ffffffffffffffffffffffffffffffffffffffff1614156113bf576040517f08c379a00000000000000000000000000000000000000000000000000000000081526004016113b6906127c1565b60405180910390fd5b60006113c9610b42565b90506113e98187876113da886119ef565b6113e3886119ef565b87611800565b600080600086815260200190815260200160002060008873ffffffffffffffffffffffffffffffffffffffff1673ffffffffffffffffffffffffffffffffffffffff16815260200190815260200160002054905083811015611480576040517f08c379a000000000000000000000000000000000000000000000000000000000815260040161147790612821565b60405180910390fd5b838161148c9190612a7a565b60008087815260200190815260200160002060008973ffffffffffffffffffffffffffffffffffffffff1673ffffffffffffffffffffffffffffffffffffffff168152602001908152602001600020819055508360008087815260200190815260200160002060008873ffffffffffffffffffffffffffffffffffffffff1673ffffffffffffffffffffffffffffffffffffffff168152602001908152602001600020600082825461153e9190612a24565b925050819055508573ffffffffffffffffffffffffffffffffffffffff168773ffffffffffffffffffffffffffffffffffffffff168373ffffffffffffffffffffffffffffffffffffffff167fc3d58168c5ae7397731d063d5bbf3d657854427343f4c083240f7aacaa2d0f6288886040516115bb9291906128dc565b60405180910390a46115d1828888888888611ab5565b50505050505050565b600073ffffffffffffffffffffffffffffffffffffffff168373ffffffffffffffffffffffffffffffffffffffff16141561164a576040517f08c379a000000000000000000000000000000000000000000000000000000000815260040161164190612801565b60405180910390fd5b6000611654610b42565b905061168481856000611666876119ef565b61166f876119ef565b60405180602001604052806000815250611800565b600080600085815260200190815260200160002060008673ffffffffffffffffffffffffffffffffffffffff1673ffffffffffffffffffffffffffffffffffffffff1681526020019081526020016000205490508281101561171b576040517f08c379a000000000000000000000000000000000000000000000000000000000815260040161171290612781565b60405180910390fd5b82816117279190612a7a565b60008086815260200190815260200160002060008773ffffffffffffffffffffffffffffffffffffffff1673ffffffffffffffffffffffffffffffffffffffff16815260200190815260200160002081905550600073ffffffffffffffffffffffffffffffffffffffff168573ffffffffffffffffffffffffffffffffffffffff168373ffffffffffffffffffffffffffffffffffffffff167fc3d58168c5ae7397731d063d5bbf3d657854427343f4c083240f7aacaa2d0f6287876040516117f19291906128dc565b60405180910390a45050505050565b505050505050565b6118278473ffffffffffffffffffffffffffffffffffffffff16611c9c565b156119e7578373ffffffffffffffffffffffffffffffffffffffff1663bc197c8187878686866040518663ffffffff1660e01b815260040161186d9594939291906125c9565b602060405180830381600087803b15801561188757600080fd5b505af19250505080156118b857506040513d601f19601f820116820180604052508101906118b5919061228c565b60015b61195e576118c4612c9d565b806308c379a0141561192157506118d96130e0565b806118e45750611923565b806040517f08c379a000000000000000000000000000000000000000000000000000000000815260040161191891906126ff565b60405180910390fd5b505b6040517f08c379a000000000000000000000000000000000000000000000000000000000815260040161195590612721565b60405180910390fd5b63bc197c8160e01b7bffffffffffffffffffffffffffffffffffffffffffffffffffffffff1916817bffffffffffffffffffffffffffffffffffffffffffffffffffffffff1916146119e5576040517f08c379a00000000000000000000000000000000000000000000000000000000081526004016119dc90612741565b60405180910390fd5b505b505050505050565b60606000600167ffffffffffffffff811115611a34577f4e487b7100000000000000000000000000000000000000000000000000000000600052604160045260246000fd5b604051908082528060200260200182016040528015611a625781602001602082028036833780820191505090505b5090508281600081518110611aa0577f4e487b7100000000000000000000000000000000000000000000000000000000600052603260045260246000fd5b60200260200101818152505080915050919050565b611ad48473ffffffffffffffffffffffffffffffffffffffff16611c9c565b15611c94578373ffffffffffffffffffffffffffffffffffffffff1663f23a6e6187878686866040518663ffffffff1660e01b8152600401611b1a959493929190612631565b602060405180830381600087803b158015611b3457600080fd5b505af1925050508015611b6557506040513d601f19601f82011682018060405250810190611b62919061228c565b60015b611c0b57611b71612c9d565b806308c379a01415611bce5750611b866130e0565b80611b915750611bd0565b806040517f08c379a0000000000000000000000000000000000000000000000000000000008152600401611bc591906126ff565b60405180910390fd5b505b6040517f08c379a0000000000000000000000000000000000000000000000000000000008152600401611c0290612721565b60405180910390fd5b63f23a6e6160e01b7bffffffffffffffffffffffffffffffffffffffffffffffffffffffff1916817bffffffffffffffffffffffffffffffffffffffffffffffffffffffff191614611c92576040517f08c379a0000000000000000000000000000000000000000000000000000000008152600401611c8990612741565b60405180910390fd5b505b505050505050565b600080823b905060008111915050919050565b6000611cc2611cbd8461292a565b612905565b90508083825260208201905082856020860282011115611ce157600080fd5b60005b85811015611d115781611cf78882611dc5565b845260208401935060208301925050600181019050611ce4565b5050509392505050565b6000611d2e611d2984612956565b612905565b90508083825260208201905082856020860282011115611d4d57600080fd5b60005b85811015611d7d5781611d638882611e97565b845260208401935060208301925050600181019050611d50565b5050509392505050565b6000611d9a611d9584612982565b612905565b905082815260208101848484011115611db257600080fd5b611dbd848285612b22565b509392505050565b600081359050611dd481613176565b92915050565b600082601f830112611deb57600080fd5b8135611dfb848260208601611caf565b91505092915050565b600082601f830112611e1557600080fd5b8135611e25848260208601611d1b565b91505092915050565b600081359050611e3d8161318d565b92915050565b600081359050611e52816131a4565b92915050565b600081519050611e67816131a4565b92915050565b600082601f830112611e7e57600080fd5b8135611e8e848260208601611d87565b91505092915050565b600081359050611ea6816131bb565b92915050565b60008060408385031215611ebf57600080fd5b6000611ecd85828601611dc5565b9250506020611ede85828601611dc5565b9150509250929050565b600080600080600060a08688031215611f0057600080fd5b6000611f0e88828901611dc5565b9550506020611f1f88828901611dc5565b945050604086013567ffffffffffffffff811115611f3c57600080fd5b611f4888828901611e04565b935050606086013567ffffffffffffffff811115611f6557600080fd5b611f7188828901611e04565b925050608086013567ffffffffffffffff811115611f8e57600080fd5b611f9a88828901611e6d565b9150509295509295909350565b600080600080600060a08688031215611fbf57600080fd5b6000611fcd88828901611dc5565b9550506020611fde88828901611dc5565b9450506040611fef88828901611e97565b935050606061200088828901611e97565b925050608086013567ffffffffffffffff81111561201d57600080fd5b61202988828901611e6d565b9150509295509295909350565b60008060006060848603121561204b57600080fd5b600061205986828701611dc5565b935050602084013567ffffffffffffffff81111561207657600080fd5b61208286828701611e04565b925050604084013567ffffffffffffffff81111561209f57600080fd5b6120ab86828701611e04565b9150509250925092565b600080604083850312156120c857600080fd5b60006120d685828601611dc5565b92505060206120e785828601611e2e565b9150509250929050565b6000806040838503121561210457600080fd5b600061211285828601611dc5565b925050602061212385828601611e97565b9150509250929050565b60008060006060848603121561214257600080fd5b600061215086828701611dc5565b935050602061216186828701611e97565b925050604061217286828701611e97565b9150509250925092565b6000806000806080858703121561219257600080fd5b60006121a087828801611dc5565b94505060206121b187828801611e97565b93505060406121c287828801611e97565b925050606085013567ffffffffffffffff8111156121df57600080fd5b6121eb87828801611e6d565b91505092959194509250565b6000806040838503121561220a57600080fd5b600083013567ffffffffffffffff81111561222457600080fd5b61223085828601611dda565b925050602083013567ffffffffffffffff81111561224d57600080fd5b61225985828601611e04565b9150509250929050565b60006020828403121561227557600080fd5b600061228384828501611e43565b91505092915050565b60006020828403121561229e57600080fd5b60006122ac84828501611e58565b91505092915050565b6000602082840312156122c757600080fd5b60006122d584828501611e97565b91505092915050565b60006122ea83836125ab565b60208301905092915050565b6122ff81612aae565b82525050565b6000612310826129c3565b61231a81856129f1565b9350612325836129b3565b8060005b8381101561235657815161233d88826122de565b9750612348836129e4565b925050600181019050612329565b5085935050505092915050565b61236c81612ac0565b82525050565b600061237d826129ce565b6123878185612a02565b9350612397818560208601612b31565b6123a081612cbf565b840191505092915050565b60006123b6826129d9565b6123c08185612a13565b93506123d0818560208601612b31565b6123d981612cbf565b840191505092915050565b60006123f1603483612a13565b91506123fc82612cdd565b604082019050919050565b6000612414602883612a13565b915061241f82612d2c565b604082019050919050565b6000612437602b83612a13565b915061244282612d7b565b604082019050919050565b600061245a602483612a13565b915061246582612dca565b604082019050919050565b600061247d602983612a13565b915061248882612e19565b604082019050919050565b60006124a0602583612a13565b91506124ab82612e68565b604082019050919050565b60006124c3603283612a13565b91506124ce82612eb7565b604082019050919050565b60006124e6602383612a13565b91506124f182612f06565b604082019050919050565b6000612509602a83612a13565b915061251482612f55565b604082019050919050565b600061252c602983612a13565b915061253782612fa4565b604082019050919050565b600061254f602983612a13565b915061255a82612ff3565b604082019050919050565b6000612572602883612a13565b915061257d82613042565b604082019050919050565b6000612595602183612a13565b91506125a082613091565b604082019050919050565b6125b481612b18565b82525050565b6125c381612b18565b82525050565b600060a0820190506125de60008301886122f6565b6125eb60208301876122f6565b81810360408301526125fd8186612305565b905081810360608301526126118185612305565b905081810360808301526126258184612372565b90509695505050505050565b600060a08201905061264660008301886122f6565b61265360208301876122f6565b61266060408301866125ba565b61266d60608301856125ba565b818103608083015261267f8184612372565b90509695505050505050565b600060208201905081810360008301526126a58184612305565b905092915050565b600060408201905081810360008301526126c78185612305565b905081810360208301526126db8184612305565b90509392505050565b60006020820190506126f96000830184612363565b92915050565b6000602082019050818103600083015261271981846123ab565b905092915050565b6000602082019050818103600083015261273a816123e4565b9050919050565b6000602082019050818103600083015261275a81612407565b9050919050565b6000602082019050818103600083015261277a8161242a565b9050919050565b6000602082019050818103600083015261279a8161244d565b9050919050565b600060208201905081810360008301526127ba81612470565b9050919050565b600060208201905081810360008301526127da81612493565b9050919050565b600060208201905081810360008301526127fa816124b6565b9050919050565b6000602082019050818103600083015261281a816124d9565b9050919050565b6000602082019050818103600083015261283a816124fc565b9050919050565b6000602082019050818103600083015261285a8161251f565b9050919050565b6000602082019050818103600083015261287a81612542565b9050919050565b6000602082019050818103600083015261289a81612565565b9050919050565b600060208201905081810360008301526128ba81612588565b9050919050565b60006020820190506128d660008301846125ba565b92915050565b60006040820190506128f160008301856125ba565b6128fe60208301846125ba565b9392505050565b600061290f612920565b905061291b8282612b96565b919050565b6000604051905090565b600067ffffffffffffffff82111561294557612944612c6e565b5b602082029050602081019050919050565b600067ffffffffffffffff82111561297157612970612c6e565b5b602082029050602081019050919050565b600067ffffffffffffffff82111561299d5761299c612c6e565b5b6129a682612cbf565b9050602081019050919050565b6000819050602082019050919050565b600081519050919050565b600081519050919050565b600081519050919050565b6000602082019050919050565b600082825260208201905092915050565b600082825260208201905092915050565b600082825260208201905092915050565b6000612a2f82612b18565b9150612a3a83612b18565b9250827fffffffffffffffffffffffffffffffffffffffffffffffffffffffffffffffff03821115612a6f57612a6e612c10565b5b828201905092915050565b6000612a8582612b18565b9150612a9083612b18565b925082821015612aa357612aa2612c10565b5b828203905092915050565b6000612ab982612af8565b9050919050565b60008115159050919050565b60007fffffffff0000000000000000000000000000000000000000000000000000000082169050919050565b600073ffffffffffffffffffffffffffffffffffffffff82169050919050565b6000819050919050565b82818337600083830152505050565b60005b83811015612b4f578082015181840152602081019050612b34565b83811115612b5e576000848401525b50505050565b60006002820490506001821680612b7c57607f821691505b60208210811415612b9057612b8f612c3f565b5b50919050565b612b9f82612cbf565b810181811067ffffffffffffffff82111715612bbe57612bbd612c6e565b5b80604052505050565b6000612bd282612b18565b91507fffffffffffffffffffffffffffffffffffffffffffffffffffffffffffffffff821415612c0557612c04612c10565b5b600182019050919050565b7f4e487b7100000000000000000000000000000000000000000000000000000000600052601160045260246000fd5b7f4e487b7100000000000000000000000000000000000000000000000000000000600052602260045260246000fd5b7f4e487b7100000000000000000000000000000000000000000000000000000000600052604160045260246000fd5b600060033d1115612cbc5760046000803e612cb9600051612cd0565b90505b90565b6000601f19601f8301169050919050565b60008160e01c9050919050565b7f455243313135353a207472616e7366657220746f206e6f6e204552433131353560008201527f526563656976657220696d706c656d656e746572000000000000000000000000602082015250565b7f455243313135353a204552433131353552656365697665722072656a6563746560008201527f6420746f6b656e73000000000000000000000000000000000000000000000000602082015250565b7f455243313135353a2062616c616e636520717565727920666f7220746865207a60008201527f65726f2061646472657373000000000000000000000000000000000000000000602082015250565b7f455243313135353a206275726e20616d6f756e7420657863656564732062616c60008201527f616e636500000000000000000000000000000000000000000000000000000000602082015250565b7f455243313135353a2063616c6c6572206973206e6f74206f776e6572206e6f7260008201527f20617070726f7665640000000000000000000000000000000000000000000000602082015250565b7f455243313135353a207472616e7366657220746f20746865207a65726f20616460008201527f6472657373000000000000000000000000000000000000000000000000000000602082015250565b7f455243313135353a207472616e736665722063616c6c6572206973206e6f742060008201527f6f776e6572206e6f7220617070726f7665640000000000000000000000000000602082015250565b7f455243313135353a206275726e2066726f6d20746865207a65726f206164647260008201527f6573730000000000000000000000000000000000000000000000000000000000602082015250565b7f455243313135353a20696e73756666696369656e742062616c616e636520666f60008201527f72207472616e7366657200000000000000000000000000000000000000000000602082015250565b7f455243313135353a2073657474696e6720617070726f76616c2073746174757360008201527f20666f722073656c660000000000000000000000000000000000000000000000602082015250565b7f455243313135353a206163636f756e747320616e6420696473206c656e67746860008201527f206d69736d617463680000000000000000000000000000000000000000000000602082015250565b7f455243313135353a2069647320616e6420616d6f756e7473206c656e6774682060008201527f6d69736d61746368000000000000000000000000000000000000000000000000602082015250565b7f455243313135353a206d696e7420746f20746865207a65726f2061646472657360008201527f7300000000000000000000000000000000000000000000000000000000000000602082015250565b600060443d10156130f057613173565b6130f8612920565b60043d036004823e80513d602482011167ffffffffffffffff82111715613120575050613173565b808201805167ffffffffffffffff81111561313e5750505050613173565b80602083010160043d03850181111561315b575050505050613173565b61316a82602001850186612b96565b82955050505050505b90565b61317f81612aae565b811461318a57600080fd5b50565b61319681612ac0565b81146131a157600080fd5b50565b6131ad81612acc565b81146131b857600080fd5b50565b6131c481612b18565b81146131cf57600080fd5b5056fea2646970667358221220233e2453426a5f8852cae608bff1b37139074d5427cfa1c3325db9d06314e1f464736f6c63430008030033",
  "immutableReferences": {},
  "source": "// SPDX-License-Identifier: MIT\n\npragma solidity ^0.8.0;\n\nimport \"../token/ERC1155/extensions/ERC1155Burnable.sol\";\n\ncontract ERC1155BurnableMock is ERC1155Burnable {\n    constructor(string memory uri) ERC1155(uri) { }\n\n    function mint(address to, uint256 id, uint256 value, bytes memory data) public {\n        _mint(to, id, value, data);\n    }\n}\n",
  "sourcePath": "/Users/brendanmorrison/Code/Nftrees/contracts/OpenZepplin/mocks/ERC1155BurnableMock.sol",
  "compiler": {
    "name": "solc",
    "version": "0.8.3+commit.8d00100c.Emscripten.clang"
  },
  "schemaVersion": "3.3.4",
  "updatedAt": "2021-05-20T18:36:21.816Z",
  "devdoc": {
    "kind": "dev",
    "methods": {
      "balanceOf(address,uint256)": {
        "details": "See {IERC1155-balanceOf}. Requirements: - `account` cannot be the zero address."
      },
      "balanceOfBatch(address[],uint256[])": {
        "details": "See {IERC1155-balanceOfBatch}. Requirements: - `accounts` and `ids` must have the same length."
      },
      "isApprovedForAll(address,address)": {
        "details": "See {IERC1155-isApprovedForAll}."
      },
      "safeBatchTransferFrom(address,address,uint256[],uint256[],bytes)": {
        "details": "See {IERC1155-safeBatchTransferFrom}."
      },
      "safeTransferFrom(address,address,uint256,uint256,bytes)": {
        "details": "See {IERC1155-safeTransferFrom}."
      },
      "setApprovalForAll(address,bool)": {
        "details": "See {IERC1155-setApprovalForAll}."
      },
      "supportsInterface(bytes4)": {
        "details": "See {IERC165-supportsInterface}."
      },
      "uri(uint256)": {
        "details": "See {IERC1155MetadataURI-uri}. This implementation returns the same URI for *all* token types. It relies on the token type ID substitution mechanism https://eips.ethereum.org/EIPS/eip-1155#metadata[defined in the EIP]. Clients calling this function must replace the `\\{id\\}` substring with the actual token type ID."
      }
    },
    "version": 1
  },
  "userdoc": {
    "kind": "user",
    "methods": {},
    "version": 1
  }
}