{
  "contractName": "ERC1155PausableMock",
  "abi": [
    {
      "inputs": [
        {
          "internalType": "string",
          "name": "uri",
          "type": "string"
        }
      ],
      "stateMutability": "nonpayable",
      "type": "constructor"
    },
    {
      "anonymous": false,
      "inputs": [
        {
          "indexed": true,
          "internalType": "address",
          "name": "account",
          "type": "address"
        },
        {
          "indexed": true,
          "internalType": "address",
          "name": "operator",
          "type": "address"
        },
        {
          "indexed": false,
          "internalType": "bool",
          "name": "approved",
          "type": "bool"
        }
      ],
      "name": "ApprovalForAll",
      "type": "event"
    },
    {
      "anonymous": false,
      "inputs": [
        {
          "indexed": false,
          "internalType": "address",
          "name": "account",
          "type": "address"
        }
      ],
      "name": "Paused",
      "type": "event"
    },
    {
      "anonymous": false,
      "inputs": [
        {
          "indexed": true,
          "internalType": "address",
          "name": "operator",
          "type": "address"
        },
        {
          "indexed": true,
          "internalType": "address",
          "name": "from",
          "type": "address"
        },
        {
          "indexed": true,
          "internalType": "address",
          "name": "to",
          "type": "address"
        },
        {
          "indexed": false,
          "internalType": "uint256[]",
          "name": "ids",
          "type": "uint256[]"
        },
        {
          "indexed": false,
          "internalType": "uint256[]",
          "name": "values",
          "type": "uint256[]"
        }
      ],
      "name": "TransferBatch",
      "type": "event"
    },
    {
      "anonymous": false,
      "inputs": [
        {
          "indexed": true,
          "internalType": "address",
          "name": "operator",
          "type": "address"
        },
        {
          "indexed": true,
          "internalType": "address",
          "name": "from",
          "type": "address"
        },
        {
          "indexed": true,
          "internalType": "address",
          "name": "to",
          "type": "address"
        },
        {
          "indexed": false,
          "internalType": "uint256",
          "name": "id",
          "type": "uint256"
        },
        {
          "indexed": false,
          "internalType": "uint256",
          "name": "value",
          "type": "uint256"
        }
      ],
      "name": "TransferSingle",
      "type": "event"
    },
    {
      "anonymous": false,
      "inputs": [
        {
          "indexed": false,
          "internalType": "string",
          "name": "value",
          "type": "string"
        },
        {
          "indexed": true,
          "internalType": "uint256",
          "name": "id",
          "type": "uint256"
        }
      ],
      "name": "URI",
      "type": "event"
    },
    {
      "anonymous": false,
      "inputs": [
        {
          "indexed": false,
          "internalType": "address",
          "name": "account",
          "type": "address"
        }
      ],
      "name": "Unpaused",
      "type": "event"
    },
    {
      "inputs": [
        {
          "internalType": "address",
          "name": "account",
          "type": "address"
        },
        {
          "internalType": "uint256",
          "name": "id",
          "type": "uint256"
        }
      ],
      "name": "balanceOf",
      "outputs": [
        {
          "internalType": "uint256",
          "name": "",
          "type": "uint256"
        }
      ],
      "stateMutability": "view",
      "type": "function"
    },
    {
      "inputs": [
        {
          "internalType": "address[]",
          "name": "accounts",
          "type": "address[]"
        },
        {
          "internalType": "uint256[]",
          "name": "ids",
          "type": "uint256[]"
        }
      ],
      "name": "balanceOfBatch",
      "outputs": [
        {
          "internalType": "uint256[]",
          "name": "",
          "type": "uint256[]"
        }
      ],
      "stateMutability": "view",
      "type": "function"
    },
    {
      "inputs": [
        {
          "internalType": "address",
          "name": "owner",
          "type": "address"
        },
        {
          "internalType": "uint256",
          "name": "id",
          "type": "uint256"
        },
        {
          "internalType": "uint256",
          "name": "value",
          "type": "uint256"
        }
      ],
      "name": "burn",
      "outputs": [],
      "stateMutability": "nonpayable",
      "type": "function"
    },
    {
      "inputs": [
        {
          "internalType": "address",
          "name": "owner",
          "type": "address"
        },
        {
          "internalType": "uint256[]",
          "name": "ids",
          "type": "uint256[]"
        },
        {
          "internalType": "uint256[]",
          "name": "values",
          "type": "uint256[]"
        }
      ],
      "name": "burnBatch",
      "outputs": [],
      "stateMutability": "nonpayable",
      "type": "function"
    },
    {
      "inputs": [
        {
          "internalType": "address",
          "name": "account",
          "type": "address"
        },
        {
          "internalType": "address",
          "name": "operator",
          "type": "address"
        }
      ],
      "name": "isApprovedForAll",
      "outputs": [
        {
          "internalType": "bool",
          "name": "",
          "type": "bool"
        }
      ],
      "stateMutability": "view",
      "type": "function"
    },
    {
      "inputs": [
        {
          "internalType": "address",
          "name": "to",
          "type": "address"
        },
        {
          "internalType": "uint256",
          "name": "id",
          "type": "uint256"
        },
        {
          "internalType": "uint256",
          "name": "value",
          "type": "uint256"
        },
        {
          "internalType": "bytes",
          "name": "data",
          "type": "bytes"
        }
      ],
      "name": "mint",
      "outputs": [],
      "stateMutability": "nonpayable",
      "type": "function"
    },
    {
      "inputs": [
        {
          "internalType": "address",
          "name": "to",
          "type": "address"
        },
        {
          "internalType": "uint256[]",
          "name": "ids",
          "type": "uint256[]"
        },
        {
          "internalType": "uint256[]",
          "name": "values",
          "type": "uint256[]"
        },
        {
          "internalType": "bytes",
          "name": "data",
          "type": "bytes"
        }
      ],
      "name": "mintBatch",
      "outputs": [],
      "stateMutability": "nonpayable",
      "type": "function"
    },
    {
      "inputs": [],
      "name": "paused",
      "outputs": [
        {
          "internalType": "bool",
          "name": "",
          "type": "bool"
        }
      ],
      "stateMutability": "view",
      "type": "function"
    },
    {
      "inputs": [
        {
          "internalType": "address",
          "name": "from",
          "type": "address"
        },
        {
          "internalType": "address",
          "name": "to",
          "type": "address"
        },
        {
          "internalType": "uint256[]",
          "name": "ids",
          "type": "uint256[]"
        },
        {
          "internalType": "uint256[]",
          "name": "amounts",
          "type": "uint256[]"
        },
        {
          "internalType": "bytes",
          "name": "data",
          "type": "bytes"
        }
      ],
      "name": "safeBatchTransferFrom",
      "outputs": [],
      "stateMutability": "nonpayable",
      "type": "function"
    },
    {
      "inputs": [
        {
          "internalType": "address",
          "name": "from",
          "type": "address"
        },
        {
          "internalType": "address",
          "name": "to",
          "type": "address"
        },
        {
          "internalType": "uint256",
          "name": "id",
          "type": "uint256"
        },
        {
          "internalType": "uint256",
          "name": "amount",
          "type": "uint256"
        },
        {
          "internalType": "bytes",
          "name": "data",
          "type": "bytes"
        }
      ],
      "name": "safeTransferFrom",
      "outputs": [],
      "stateMutability": "nonpayable",
      "type": "function"
    },
    {
      "inputs": [
        {
          "internalType": "address",
          "name": "operator",
          "type": "address"
        },
        {
          "internalType": "bool",
          "name": "approved",
          "type": "bool"
        }
      ],
      "name": "setApprovalForAll",
      "outputs": [],
      "stateMutability": "nonpayable",
      "type": "function"
    },
    {
      "inputs": [
        {
          "internalType": "string",
          "name": "newuri",
          "type": "string"
        }
      ],
      "name": "setURI",
      "outputs": [],
      "stateMutability": "nonpayable",
      "type": "function"
    },
    {
      "inputs": [
        {
          "internalType": "bytes4",
          "name": "interfaceId",
          "type": "bytes4"
        }
      ],
      "name": "supportsInterface",
      "outputs": [
        {
          "internalType": "bool",
          "name": "",
          "type": "bool"
        }
      ],
      "stateMutability": "view",
      "type": "function"
    },
    {
      "inputs": [
        {
          "internalType": "uint256",
          "name": "",
          "type": "uint256"
        }
      ],
      "name": "uri",
      "outputs": [
        {
          "internalType": "string",
          "name": "",
          "type": "string"
        }
      ],
      "stateMutability": "view",
      "type": "function"
    },
    {
      "inputs": [],
      "name": "pause",
      "outputs": [],
      "stateMutability": "nonpayable",
      "type": "function"
    },
    {
      "inputs": [],
      "name": "unpause",
      "outputs": [],
      "stateMutability": "nonpayable",
      "type": "function"
    }
  ],
  "bytecode": "0x60806040523480156200001157600080fd5b5060405162003d5338038062003d538339818101604052810190620000379190620001ac565b80806200004a816200006e60201b60201c565b50506000600360006101000a81548160ff0219169083151502179055505062000361565b8060029080519060200190620000869291906200008a565b5050565b828054620000989062000286565b90600052602060002090601f016020900481019282620000bc576000855562000108565b82601f10620000d757805160ff191683800117855562000108565b8280016001018555821562000108579182015b8281111562000107578251825591602001919060010190620000ea565b5b5090506200011791906200011b565b5090565b5b80821115620001365760008160009055506001016200011c565b5090565b6000620001516200014b846200021a565b620001f1565b9050828152602081018484840111156200016a57600080fd5b6200017784828562000250565b509392505050565b600082601f8301126200019157600080fd5b8151620001a38482602086016200013a565b91505092915050565b600060208284031215620001bf57600080fd5b600082015167ffffffffffffffff811115620001da57600080fd5b620001e8848285016200017f565b91505092915050565b6000620001fd62000210565b90506200020b8282620002bc565b919050565b6000604051905090565b600067ffffffffffffffff82111562000238576200023762000321565b5b620002438262000350565b9050602081019050919050565b60005b838110156200027057808201518184015260208101905062000253565b8381111562000280576000848401525b50505050565b600060028204905060018216806200029f57607f821691505b60208210811415620002b657620002b5620002f2565b5b50919050565b620002c78262000350565b810181811067ffffffffffffffff82111715620002e957620002e862000321565b5b80604052505050565b7f4e487b7100000000000000000000000000000000000000000000000000000000600052602260045260246000fd5b7f4e487b7100000000000000000000000000000000000000000000000000000000600052604160045260246000fd5b6000601f19601f8301169050919050565b6139e280620003716000396000f3fe608060405234801561001057600080fd5b50600436106100ff5760003560e01c80635c975abb11610097578063a22cb46511610066578063a22cb46514610282578063e985e9c51461029e578063f242432a146102ce578063f5298aca146102ea576100ff565b80635c975abb146102225780636b20c45414610240578063731133e91461025c5780638456cb5914610278576100ff565b80631f7fdffa116100d35780631f7fdffa146101b05780632eb2c2d6146101cc5780633f4ba83a146101e85780634e1273f4146101f2576100ff565b8062fdd58e1461010457806301ffc9a71461013457806302fe5305146101645780630e89341c14610180575b600080fd5b61011e600480360381019061011991906126d4565b610306565b60405161012b9190612fc9565b60405180910390f35b61014e60048036038101906101499190612846565b6103cf565b60405161015b9190612d8c565b60405180910390f35b61017e60048036038101906101799190612898565b6104b1565b005b61019a600480360381019061019591906128d9565b6104bd565b6040516101a79190612da7565b60405180910390f35b6101ca60048036038101906101c591906125ed565b610551565b005b6101e660048036038101906101e19190612420565b610563565b005b6101f0610604565b005b61020c600480360381019061020791906127da565b61060e565b6040516102199190612d33565b60405180910390f35b61022a6107bf565b6040516102379190612d8c565b60405180910390f35b61025a6004803603810190610255919061256e565b6107d6565b005b6102766004803603810190610271919061275f565b6107e6565b005b6102806107f8565b005b61029c60048036038101906102979190612698565b610802565b005b6102b860048036038101906102b391906123e4565b610983565b6040516102c59190612d8c565b60405180910390f35b6102e860048036038101906102e391906124df565b610a17565b005b61030460048036038101906102ff9190612710565b610ab8565b005b60008073ffffffffffffffffffffffffffffffffffffffff168373ffffffffffffffffffffffffffffffffffffffff161415610377576040517f08c379a000000000000000000000000000000000000000000000000000000000815260040161036e90612e29565b60405180910390fd5b60008083815260200190815260200160002060008473ffffffffffffffffffffffffffffffffffffffff1673ffffffffffffffffffffffffffffffffffffffff16815260200190815260200160002054905092915050565b60007fd9b67a26000000000000000000000000000000000000000000000000000000007bffffffffffffffffffffffffffffffffffffffffffffffffffffffff1916827bffffffffffffffffffffffffffffffffffffffffffffffffffffffff1916148061049a57507f0e89341c000000000000000000000000000000000000000000000000000000007bffffffffffffffffffffffffffffffffffffffffffffffffffffffff1916827bffffffffffffffffffffffffffffffffffffffffffffffffffffffff1916145b806104aa57506104a982610ac8565b5b9050919050565b6104ba81610b32565b50565b6060600280546104cc9061329d565b80601f01602080910402602001604051908101604052809291908181526020018280546104f89061329d565b80156105455780601f1061051a57610100808354040283529160200191610545565b820191906000526020600020905b81548152906001019060200180831161052857829003601f168201915b50505050509050919050565b61055d84848484610b4c565b50505050565b61056b610db6565b73ffffffffffffffffffffffffffffffffffffffff168573ffffffffffffffffffffffffffffffffffffffff1614806105b157506105b0856105ab610db6565b610983565b5b6105f0576040517f08c379a00000000000000000000000000000000000000000000000000000000081526004016105e790612ee9565b60405180910390fd5b6105fd8585858585610dbe565b5050505050565b61060c611127565b565b60608151835114610654576040517f08c379a000000000000000000000000000000000000000000000000000000000815260040161064b90612f69565b60405180910390fd5b6000835167ffffffffffffffff811115610697577f4e487b7100000000000000000000000000000000000000000000000000000000600052604160045260246000fd5b6040519080825280602002602001820160405280156106c55781602001602082028036833780820191505090505b50905060005b84518110156107b45761075e858281518110610710577f4e487b7100000000000000000000000000000000000000000000000000000000600052603260045260246000fd5b6020026020010151858381518110610751577f4e487b7100000000000000000000000000000000000000000000000000000000600052603260045260246000fd5b6020026020010151610306565b828281518110610797577f4e487b7100000000000000000000000000000000000000000000000000000000600052603260045260246000fd5b602002602001018181525050806107ad90613300565b90506106cb565b508091505092915050565b6000600360009054906101000a900460ff16905090565b6107e18383836111c9565b505050565b6107f2848484846114cf565b50505050565b610800611665565b565b8173ffffffffffffffffffffffffffffffffffffffff16610821610db6565b73ffffffffffffffffffffffffffffffffffffffff161415610878576040517f08c379a000000000000000000000000000000000000000000000000000000000815260040161086f90612f49565b60405180910390fd5b8060016000610885610db6565b73ffffffffffffffffffffffffffffffffffffffff1673ffffffffffffffffffffffffffffffffffffffff16815260200190815260200160002060008473ffffffffffffffffffffffffffffffffffffffff1673ffffffffffffffffffffffffffffffffffffffff16815260200190815260200160002060006101000a81548160ff0219169083151502179055508173ffffffffffffffffffffffffffffffffffffffff16610932610db6565b73ffffffffffffffffffffffffffffffffffffffff167f17307eab39ab6107e8899845ad3d59bd9653f200f220920489ca2b5937696c31836040516109779190612d8c565b60405180910390a35050565b6000600160008473ffffffffffffffffffffffffffffffffffffffff1673ffffffffffffffffffffffffffffffffffffffff16815260200190815260200160002060008373ffffffffffffffffffffffffffffffffffffffff1673ffffffffffffffffffffffffffffffffffffffff16815260200190815260200160002060009054906101000a900460ff16905092915050565b610a1f610db6565b73ffffffffffffffffffffffffffffffffffffffff168573ffffffffffffffffffffffffffffffffffffffff161480610a655750610a6485610a5f610db6565b610983565b5b610aa4576040517f08c379a0000000000000000000000000000000000000000000000000000000008152600401610a9b90612e89565b60405180910390fd5b610ab18585858585611708565b5050505050565b610ac3838383611993565b505050565b60007f01ffc9a7000000000000000000000000000000000000000000000000000000007bffffffffffffffffffffffffffffffffffffffffffffffffffffffff1916827bffffffffffffffffffffffffffffffffffffffffffffffffffffffff1916149050919050565b8060029080519060200190610b489291906120dc565b5050565b600073ffffffffffffffffffffffffffffffffffffffff168473ffffffffffffffffffffffffffffffffffffffff161415610bbc576040517f08c379a0000000000000000000000000000000000000000000000000000000008152600401610bb390612fa9565b60405180910390fd5b8151835114610c00576040517f08c379a0000000000000000000000000000000000000000000000000000000008152600401610bf790612f89565b60405180910390fd5b6000610c0a610db6565b9050610c1b81600087878787611bb9565b60005b8451811015610d2057838181518110610c60577f4e487b7100000000000000000000000000000000000000000000000000000000600052603260045260246000fd5b6020026020010151600080878481518110610ca4577f4e487b7100000000000000000000000000000000000000000000000000000000600052603260045260246000fd5b6020026020010151815260200190815260200160002060008873ffffffffffffffffffffffffffffffffffffffff1673ffffffffffffffffffffffffffffffffffffffff1681526020019081526020016000206000828254610d06919061315d565b925050819055508080610d1890613300565b915050610c1e565b508473ffffffffffffffffffffffffffffffffffffffff16600073ffffffffffffffffffffffffffffffffffffffff168273ffffffffffffffffffffffffffffffffffffffff167f4a39dc06d4c0dbc64b70af90fd698a233a518aa5d07e595d983b8c0526c8f7fb8787604051610d98929190612d55565b60405180910390a4610daf81600087878787611bcf565b5050505050565b600033905090565b8151835114610e02576040517f08c379a0000000000000000000000000000000000000000000000000000000008152600401610df990612f89565b60405180910390fd5b600073ffffffffffffffffffffffffffffffffffffffff168473ffffffffffffffffffffffffffffffffffffffff161415610e72576040517f08c379a0000000000000000000000000000000000000000000000000000000008152600401610e6990612ec9565b60405180910390fd5b6000610e7c610db6565b9050610e8c818787878787611bb9565b60005b8451811015611092576000858281518110610ed3577f4e487b7100000000000000000000000000000000000000000000000000000000600052603260045260246000fd5b602002602001015190506000858381518110610f18577f4e487b7100000000000000000000000000000000000000000000000000000000600052603260045260246000fd5b60200260200101519050600080600084815260200190815260200160002060008b73ffffffffffffffffffffffffffffffffffffffff1673ffffffffffffffffffffffffffffffffffffffff16815260200190815260200160002054905081811015610fb9576040517f08c379a0000000000000000000000000000000000000000000000000000000008152600401610fb090612f29565b60405180910390fd5b8181610fc591906131b3565b60008085815260200190815260200160002060008c73ffffffffffffffffffffffffffffffffffffffff1673ffffffffffffffffffffffffffffffffffffffff168152602001908152602001600020819055508160008085815260200190815260200160002060008b73ffffffffffffffffffffffffffffffffffffffff1673ffffffffffffffffffffffffffffffffffffffff1681526020019081526020016000206000828254611077919061315d565b925050819055505050508061108b90613300565b9050610e8f565b508473ffffffffffffffffffffffffffffffffffffffff168673ffffffffffffffffffffffffffffffffffffffff168273ffffffffffffffffffffffffffffffffffffffff167f4a39dc06d4c0dbc64b70af90fd698a233a518aa5d07e595d983b8c0526c8f7fb8787604051611109929190612d55565b60405180910390a461111f818787878787611bcf565b505050505050565b61112f6107bf565b61116e576040517f08c379a000000000000000000000000000000000000000000000000000000000815260040161116590612e09565b60405180910390fd5b6000600360006101000a81548160ff0219169083151502179055507f5db9ee0a495bf2e6ff9c91a7834c1ba4fdd244a5e8aa4e537bd38aeae4b073aa6111b2610db6565b6040516111bf9190612c56565b60405180910390a1565b600073ffffffffffffffffffffffffffffffffffffffff168373ffffffffffffffffffffffffffffffffffffffff161415611239576040517f08c379a000000000000000000000000000000000000000000000000000000000815260040161123090612f09565b60405180910390fd5b805182511461127d576040517f08c379a000000000000000000000000000000000000000000000000000000000815260040161127490612f89565b60405180910390fd5b6000611287610db6565b90506112a781856000868660405180602001604052806000815250611bb9565b60005b83518110156114495760008482815181106112ee577f4e487b7100000000000000000000000000000000000000000000000000000000600052603260045260246000fd5b602002602001015190506000848381518110611333577f4e487b7100000000000000000000000000000000000000000000000000000000600052603260045260246000fd5b60200260200101519050600080600084815260200190815260200160002060008973ffffffffffffffffffffffffffffffffffffffff1673ffffffffffffffffffffffffffffffffffffffff168152602001908152602001600020549050818110156113d4576040517f08c379a00000000000000000000000000000000000000000000000000000000081526004016113cb90612e49565b60405180910390fd5b81816113e091906131b3565b60008085815260200190815260200160002060008a73ffffffffffffffffffffffffffffffffffffffff1673ffffffffffffffffffffffffffffffffffffffff16815260200190815260200160002081905550505050808061144190613300565b9150506112aa565b50600073ffffffffffffffffffffffffffffffffffffffff168473ffffffffffffffffffffffffffffffffffffffff168273ffffffffffffffffffffffffffffffffffffffff167f4a39dc06d4c0dbc64b70af90fd698a233a518aa5d07e595d983b8c0526c8f7fb86866040516114c1929190612d55565b60405180910390a450505050565b600073ffffffffffffffffffffffffffffffffffffffff168473ffffffffffffffffffffffffffffffffffffffff16141561153f576040517f08c379a000000000000000000000000000000000000000000000000000000000815260040161153690612fa9565b60405180910390fd5b6000611549610db6565b905061156a8160008761155b88611db6565b61156488611db6565b87611bb9565b8260008086815260200190815260200160002060008773ffffffffffffffffffffffffffffffffffffffff1673ffffffffffffffffffffffffffffffffffffffff16815260200190815260200160002060008282546115c9919061315d565b925050819055508473ffffffffffffffffffffffffffffffffffffffff16600073ffffffffffffffffffffffffffffffffffffffff168273ffffffffffffffffffffffffffffffffffffffff167fc3d58168c5ae7397731d063d5bbf3d657854427343f4c083240f7aacaa2d0f628787604051611647929190612fe4565b60405180910390a461165e81600087878787611e7c565b5050505050565b61166d6107bf565b156116ad576040517f08c379a00000000000000000000000000000000000000000000000000000000081526004016116a490612ea9565b60405180910390fd5b6001600360006101000a81548160ff0219169083151502179055507f62e78cea01bee320cd4e420270b5ea74000d11b0c9f74754ebdbfc544b05a2586116f1610db6565b6040516116fe9190612c56565b60405180910390a1565b600073ffffffffffffffffffffffffffffffffffffffff168473ffffffffffffffffffffffffffffffffffffffff161415611778576040517f08c379a000000000000000000000000000000000000000000000000000000000815260040161176f90612ec9565b60405180910390fd5b6000611782610db6565b90506117a281878761179388611db6565b61179c88611db6565b87611bb9565b600080600086815260200190815260200160002060008873ffffffffffffffffffffffffffffffffffffffff1673ffffffffffffffffffffffffffffffffffffffff16815260200190815260200160002054905083811015611839576040517f08c379a000000000000000000000000000000000000000000000000000000000815260040161183090612f29565b60405180910390fd5b838161184591906131b3565b60008087815260200190815260200160002060008973ffffffffffffffffffffffffffffffffffffffff1673ffffffffffffffffffffffffffffffffffffffff168152602001908152602001600020819055508360008087815260200190815260200160002060008873ffffffffffffffffffffffffffffffffffffffff1673ffffffffffffffffffffffffffffffffffffffff16815260200190815260200160002060008282546118f7919061315d565b925050819055508573ffffffffffffffffffffffffffffffffffffffff168773ffffffffffffffffffffffffffffffffffffffff168373ffffffffffffffffffffffffffffffffffffffff167fc3d58168c5ae7397731d063d5bbf3d657854427343f4c083240f7aacaa2d0f628888604051611974929190612fe4565b60405180910390a461198a828888888888611e7c565b50505050505050565b600073ffffffffffffffffffffffffffffffffffffffff168373ffffffffffffffffffffffffffffffffffffffff161415611a03576040517f08c379a00000000000000000000000000000000000000000000000000000000081526004016119fa90612f09565b60405180910390fd5b6000611a0d610db6565b9050611a3d81856000611a1f87611db6565b611a2887611db6565b60405180602001604052806000815250611bb9565b600080600085815260200190815260200160002060008673ffffffffffffffffffffffffffffffffffffffff1673ffffffffffffffffffffffffffffffffffffffff16815260200190815260200160002054905082811015611ad4576040517f08c379a0000000000000000000000000000000000000000000000000000000008152600401611acb90612e49565b60405180910390fd5b8281611ae091906131b3565b60008086815260200190815260200160002060008773ffffffffffffffffffffffffffffffffffffffff1673ffffffffffffffffffffffffffffffffffffffff16815260200190815260200160002081905550600073ffffffffffffffffffffffffffffffffffffffff168573ffffffffffffffffffffffffffffffffffffffff168373ffffffffffffffffffffffffffffffffffffffff167fc3d58168c5ae7397731d063d5bbf3d657854427343f4c083240f7aacaa2d0f628787604051611baa929190612fe4565b60405180910390a45050505050565b611bc7868686868686612063565b505050505050565b611bee8473ffffffffffffffffffffffffffffffffffffffff166120c1565b15611dae578373ffffffffffffffffffffffffffffffffffffffff1663bc197c8187878686866040518663ffffffff1660e01b8152600401611c34959493929190612c71565b602060405180830381600087803b158015611c4e57600080fd5b505af1925050508015611c7f57506040513d601f19601f82011682018060405250810190611c7c919061286f565b60015b611d2557611c8b6133d6565b806308c379a01415611ce85750611ca06138ba565b80611cab5750611cea565b806040517f08c379a0000000000000000000000000000000000000000000000000000000008152600401611cdf9190612da7565b60405180910390fd5b505b6040517f08c379a0000000000000000000000000000000000000000000000000000000008152600401611d1c90612dc9565b60405180910390fd5b63bc197c8160e01b7bffffffffffffffffffffffffffffffffffffffffffffffffffffffff1916817bffffffffffffffffffffffffffffffffffffffffffffffffffffffff191614611dac576040517f08c379a0000000000000000000000000000000000000000000000000000000008152600401611da390612de9565b60405180910390fd5b505b505050505050565b60606000600167ffffffffffffffff811115611dfb577f4e487b7100000000000000000000000000000000000000000000000000000000600052604160045260246000fd5b604051908082528060200260200182016040528015611e295781602001602082028036833780820191505090505b5090508281600081518110611e67577f4e487b7100000000000000000000000000000000000000000000000000000000600052603260045260246000fd5b60200260200101818152505080915050919050565b611e9b8473ffffffffffffffffffffffffffffffffffffffff166120c1565b1561205b578373ffffffffffffffffffffffffffffffffffffffff1663f23a6e6187878686866040518663ffffffff1660e01b8152600401611ee1959493929190612cd9565b602060405180830381600087803b158015611efb57600080fd5b505af1925050508015611f2c57506040513d601f19601f82011682018060405250810190611f29919061286f565b60015b611fd257611f386133d6565b806308c379a01415611f955750611f4d6138ba565b80611f585750611f97565b806040517f08c379a0000000000000000000000000000000000000000000000000000000008152600401611f8c9190612da7565b60405180910390fd5b505b6040517f08c379a0000000000000000000000000000000000000000000000000000000008152600401611fc990612dc9565b60405180910390fd5b63f23a6e6160e01b7bffffffffffffffffffffffffffffffffffffffffffffffffffffffff1916817bffffffffffffffffffffffffffffffffffffffffffffffffffffffff191614612059576040517f08c379a000000000000000000000000000000000000000000000000000000000815260040161205090612de9565b60405180910390fd5b505b505050505050565b6120718686868686866120d4565b6120796107bf565b156120b9576040517f08c379a00000000000000000000000000000000000000000000000000000000081526004016120b090612e69565b60405180910390fd5b505050505050565b600080823b905060008111915050919050565b505050505050565b8280546120e89061329d565b90600052602060002090601f01602090048101928261210a5760008555612151565b82601f1061212357805160ff1916838001178555612151565b82800160010185558215612151579182015b82811115612150578251825591602001919060010190612135565b5b50905061215e9190612162565b5090565b5b8082111561217b576000816000905550600101612163565b5090565b600061219261218d84613032565b61300d565b905080838252602082019050828560208602820111156121b157600080fd5b60005b858110156121e157816121c788826122d3565b8452602084019350602083019250506001810190506121b4565b5050509392505050565b60006121fe6121f98461305e565b61300d565b9050808382526020820190508285602086028201111561221d57600080fd5b60005b8581101561224d578161223388826123cf565b845260208401935060208301925050600181019050612220565b5050509392505050565b600061226a6122658461308a565b61300d565b90508281526020810184848401111561228257600080fd5b61228d84828561325b565b509392505050565b60006122a86122a3846130bb565b61300d565b9050828152602081018484840111156122c057600080fd5b6122cb84828561325b565b509392505050565b6000813590506122e281613950565b92915050565b600082601f8301126122f957600080fd5b813561230984826020860161217f565b91505092915050565b600082601f83011261232357600080fd5b81356123338482602086016121eb565b91505092915050565b60008135905061234b81613967565b92915050565b6000813590506123608161397e565b92915050565b6000815190506123758161397e565b92915050565b600082601f83011261238c57600080fd5b813561239c848260208601612257565b91505092915050565b600082601f8301126123b657600080fd5b81356123c6848260208601612295565b91505092915050565b6000813590506123de81613995565b92915050565b600080604083850312156123f757600080fd5b6000612405858286016122d3565b9250506020612416858286016122d3565b9150509250929050565b600080600080600060a0868803121561243857600080fd5b6000612446888289016122d3565b9550506020612457888289016122d3565b945050604086013567ffffffffffffffff81111561247457600080fd5b61248088828901612312565b935050606086013567ffffffffffffffff81111561249d57600080fd5b6124a988828901612312565b925050608086013567ffffffffffffffff8111156124c657600080fd5b6124d28882890161237b565b9150509295509295909350565b600080600080600060a086880312156124f757600080fd5b6000612505888289016122d3565b9550506020612516888289016122d3565b9450506040612527888289016123cf565b9350506060612538888289016123cf565b925050608086013567ffffffffffffffff81111561255557600080fd5b6125618882890161237b565b9150509295509295909350565b60008060006060848603121561258357600080fd5b6000612591868287016122d3565b935050602084013567ffffffffffffffff8111156125ae57600080fd5b6125ba86828701612312565b925050604084013567ffffffffffffffff8111156125d757600080fd5b6125e386828701612312565b9150509250925092565b6000806000806080858703121561260357600080fd5b6000612611878288016122d3565b945050602085013567ffffffffffffffff81111561262e57600080fd5b61263a87828801612312565b935050604085013567ffffffffffffffff81111561265757600080fd5b61266387828801612312565b925050606085013567ffffffffffffffff81111561268057600080fd5b61268c8782880161237b565b91505092959194509250565b600080604083850312156126ab57600080fd5b60006126b9858286016122d3565b92505060206126ca8582860161233c565b9150509250929050565b600080604083850312156126e757600080fd5b60006126f5858286016122d3565b9250506020612706858286016123cf565b9150509250929050565b60008060006060848603121561272557600080fd5b6000612733868287016122d3565b9350506020612744868287016123cf565b9250506040612755868287016123cf565b9150509250925092565b6000806000806080858703121561277557600080fd5b6000612783878288016122d3565b9450506020612794878288016123cf565b93505060406127a5878288016123cf565b925050606085013567ffffffffffffffff8111156127c257600080fd5b6127ce8782880161237b565b91505092959194509250565b600080604083850312156127ed57600080fd5b600083013567ffffffffffffffff81111561280757600080fd5b612813858286016122e8565b925050602083013567ffffffffffffffff81111561283057600080fd5b61283c85828601612312565b9150509250929050565b60006020828403121561285857600080fd5b600061286684828501612351565b91505092915050565b60006020828403121561288157600080fd5b600061288f84828501612366565b91505092915050565b6000602082840312156128aa57600080fd5b600082013567ffffffffffffffff8111156128c457600080fd5b6128d0848285016123a5565b91505092915050565b6000602082840312156128eb57600080fd5b60006128f9848285016123cf565b91505092915050565b600061290e8383612c38565b60208301905092915050565b612923816131e7565b82525050565b6000612934826130fc565b61293e818561312a565b9350612949836130ec565b8060005b8381101561297a5781516129618882612902565b975061296c8361311d565b92505060018101905061294d565b5085935050505092915050565b612990816131f9565b82525050565b60006129a182613107565b6129ab818561313b565b93506129bb81856020860161326a565b6129c4816133f8565b840191505092915050565b60006129da82613112565b6129e4818561314c565b93506129f481856020860161326a565b6129fd816133f8565b840191505092915050565b6000612a1560348361314c565b9150612a2082613416565b604082019050919050565b6000612a3860288361314c565b9150612a4382613465565b604082019050919050565b6000612a5b60148361314c565b9150612a66826134b4565b602082019050919050565b6000612a7e602b8361314c565b9150612a89826134dd565b604082019050919050565b6000612aa160248361314c565b9150612aac8261352c565b604082019050919050565b6000612ac4602c8361314c565b9150612acf8261357b565b604082019050919050565b6000612ae760298361314c565b9150612af2826135ca565b604082019050919050565b6000612b0a60108361314c565b9150612b1582613619565b602082019050919050565b6000612b2d60258361314c565b9150612b3882613642565b604082019050919050565b6000612b5060328361314c565b9150612b5b82613691565b604082019050919050565b6000612b7360238361314c565b9150612b7e826136e0565b604082019050919050565b6000612b96602a8361314c565b9150612ba18261372f565b604082019050919050565b6000612bb960298361314c565b9150612bc48261377e565b604082019050919050565b6000612bdc60298361314c565b9150612be7826137cd565b604082019050919050565b6000612bff60288361314c565b9150612c0a8261381c565b604082019050919050565b6000612c2260218361314c565b9150612c2d8261386b565b604082019050919050565b612c4181613251565b82525050565b612c5081613251565b82525050565b6000602082019050612c6b600083018461291a565b92915050565b600060a082019050612c86600083018861291a565b612c93602083018761291a565b8181036040830152612ca58186612929565b90508181036060830152612cb98185612929565b90508181036080830152612ccd8184612996565b90509695505050505050565b600060a082019050612cee600083018861291a565b612cfb602083018761291a565b612d086040830186612c47565b612d156060830185612c47565b8181036080830152612d278184612996565b90509695505050505050565b60006020820190508181036000830152612d4d8184612929565b905092915050565b60006040820190508181036000830152612d6f8185612929565b90508181036020830152612d838184612929565b90509392505050565b6000602082019050612da16000830184612987565b92915050565b60006020820190508181036000830152612dc181846129cf565b905092915050565b60006020820190508181036000830152612de281612a08565b9050919050565b60006020820190508181036000830152612e0281612a2b565b9050919050565b60006020820190508181036000830152612e2281612a4e565b9050919050565b60006020820190508181036000830152612e4281612a71565b9050919050565b60006020820190508181036000830152612e6281612a94565b9050919050565b60006020820190508181036000830152612e8281612ab7565b9050919050565b60006020820190508181036000830152612ea281612ada565b9050919050565b60006020820190508181036000830152612ec281612afd565b9050919050565b60006020820190508181036000830152612ee281612b20565b9050919050565b60006020820190508181036000830152612f0281612b43565b9050919050565b60006020820190508181036000830152612f2281612b66565b9050919050565b60006020820190508181036000830152612f4281612b89565b9050919050565b60006020820190508181036000830152612f6281612bac565b9050919050565b60006020820190508181036000830152612f8281612bcf565b9050919050565b60006020820190508181036000830152612fa281612bf2565b9050919050565b60006020820190508181036000830152612fc281612c15565b9050919050565b6000602082019050612fde6000830184612c47565b92915050565b6000604082019050612ff96000830185612c47565b6130066020830184612c47565b9392505050565b6000613017613028565b905061302382826132cf565b919050565b6000604051905090565b600067ffffffffffffffff82111561304d5761304c6133a7565b5b602082029050602081019050919050565b600067ffffffffffffffff821115613079576130786133a7565b5b602082029050602081019050919050565b600067ffffffffffffffff8211156130a5576130a46133a7565b5b6130ae826133f8565b9050602081019050919050565b600067ffffffffffffffff8211156130d6576130d56133a7565b5b6130df826133f8565b9050602081019050919050565b6000819050602082019050919050565b600081519050919050565b600081519050919050565b600081519050919050565b6000602082019050919050565b600082825260208201905092915050565b600082825260208201905092915050565b600082825260208201905092915050565b600061316882613251565b915061317383613251565b9250827fffffffffffffffffffffffffffffffffffffffffffffffffffffffffffffffff038211156131a8576131a7613349565b5b828201905092915050565b60006131be82613251565b91506131c983613251565b9250828210156131dc576131db613349565b5b828203905092915050565b60006131f282613231565b9050919050565b60008115159050919050565b60007fffffffff0000000000000000000000000000000000000000000000000000000082169050919050565b600073ffffffffffffffffffffffffffffffffffffffff82169050919050565b6000819050919050565b82818337600083830152505050565b60005b8381101561328857808201518184015260208101905061326d565b83811115613297576000848401525b50505050565b600060028204905060018216806132b557607f821691505b602082108114156132c9576132c8613378565b5b50919050565b6132d8826133f8565b810181811067ffffffffffffffff821117156132f7576132f66133a7565b5b80604052505050565b600061330b82613251565b91507fffffffffffffffffffffffffffffffffffffffffffffffffffffffffffffffff82141561333e5761333d613349565b5b600182019050919050565b7f4e487b7100000000000000000000000000000000000000000000000000000000600052601160045260246000fd5b7f4e487b7100000000000000000000000000000000000000000000000000000000600052602260045260246000fd5b7f4e487b7100000000000000000000000000000000000000000000000000000000600052604160045260246000fd5b600060033d11156133f55760046000803e6133f2600051613409565b90505b90565b6000601f19601f8301169050919050565b60008160e01c9050919050565b7f455243313135353a207472616e7366657220746f206e6f6e204552433131353560008201527f526563656976657220696d706c656d656e746572000000000000000000000000602082015250565b7f455243313135353a204552433131353552656365697665722072656a6563746560008201527f6420746f6b656e73000000000000000000000000000000000000000000000000602082015250565b7f5061757361626c653a206e6f7420706175736564000000000000000000000000600082015250565b7f455243313135353a2062616c616e636520717565727920666f7220746865207a60008201527f65726f2061646472657373000000000000000000000000000000000000000000602082015250565b7f455243313135353a206275726e20616d6f756e7420657863656564732062616c60008201527f616e636500000000000000000000000000000000000000000000000000000000602082015250565b7f455243313135355061757361626c653a20746f6b656e207472616e736665722060008201527f7768696c65207061757365640000000000000000000000000000000000000000602082015250565b7f455243313135353a2063616c6c6572206973206e6f74206f776e6572206e6f7260008201527f20617070726f7665640000000000000000000000000000000000000000000000602082015250565b7f5061757361626c653a2070617573656400000000000000000000000000000000600082015250565b7f455243313135353a207472616e7366657220746f20746865207a65726f20616460008201527f6472657373000000000000000000000000000000000000000000000000000000602082015250565b7f455243313135353a207472616e736665722063616c6c6572206973206e6f742060008201527f6f776e6572206e6f7220617070726f7665640000000000000000000000000000602082015250565b7f455243313135353a206275726e2066726f6d20746865207a65726f206164647260008201527f6573730000000000000000000000000000000000000000000000000000000000602082015250565b7f455243313135353a20696e73756666696369656e742062616c616e636520666f60008201527f72207472616e7366657200000000000000000000000000000000000000000000602082015250565b7f455243313135353a2073657474696e6720617070726f76616c2073746174757360008201527f20666f722073656c660000000000000000000000000000000000000000000000602082015250565b7f455243313135353a206163636f756e747320616e6420696473206c656e67746860008201527f206d69736d617463680000000000000000000000000000000000000000000000602082015250565b7f455243313135353a2069647320616e6420616d6f756e7473206c656e6774682060008201527f6d69736d61746368000000000000000000000000000000000000000000000000602082015250565b7f455243313135353a206d696e7420746f20746865207a65726f2061646472657360008201527f7300000000000000000000000000000000000000000000000000000000000000602082015250565b600060443d10156138ca5761394d565b6138d2613028565b60043d036004823e80513d602482011167ffffffffffffffff821117156138fa57505061394d565b808201805167ffffffffffffffff811115613918575050505061394d565b80602083010160043d03850181111561393557505050505061394d565b613944826020018501866132cf565b82955050505050505b90565b613959816131e7565b811461396457600080fd5b50565b613970816131f9565b811461397b57600080fd5b50565b61398781613205565b811461399257600080fd5b50565b61399e81613251565b81146139a957600080fd5b5056fea2646970667358221220bcaed664c2ca31d4662405a51089d1849e6a0221dd91bdf47b47ac042685804364736f6c63430008030033",
  "immutableReferences": {},
  "source": "// SPDX-License-Identifier: MIT\r\n\r\npragma solidity ^0.8.0;\r\n\r\nimport \"./ERC1155Mock.sol\";\r\nimport \"../token/ERC1155/extensions/ERC1155Pausable.sol\";\r\n\r\ncontract ERC1155PausableMock is ERC1155Mock, ERC1155Pausable {\r\n    constructor(string memory uri) ERC1155Mock(uri) { }\r\n\r\n    function pause() external {\r\n        _pause();\r\n    }\r\n\r\n    function unpause() external {\r\n        _unpause();\r\n    }\r\n\r\n    function _beforeTokenTransfer(\r\n        address operator,\r\n        address from,\r\n        address to,\r\n        uint256[] memory ids,\r\n        uint256[] memory amounts,\r\n        bytes memory data\r\n    )\r\n        internal virtual override(ERC1155, ERC1155Pausable)\r\n    {\r\n        super._beforeTokenTransfer(operator, from, to, ids, amounts, data);\r\n    }\r\n}\r\n",
  "sourcePath": "D:/Code/NFTrees/contracts/OpenZepplin/mocks/ERC1155PausableMock.sol",
  "compiler": {
    "name": "solc",
    "version": "0.8.3+commit.8d00100c.Emscripten.clang"
  },
  "schemaVersion": "3.4.1",
  "updatedAt": "2021-05-22T22:20:34.892Z",
  "devdoc": {
    "kind": "dev",
    "methods": {
      "balanceOf(address,uint256)": {
        "details": "See {IERC1155-balanceOf}. Requirements: - `account` cannot be the zero address."
      },
      "balanceOfBatch(address[],uint256[])": {
        "details": "See {IERC1155-balanceOfBatch}. Requirements: - `accounts` and `ids` must have the same length."
      },
      "isApprovedForAll(address,address)": {
        "details": "See {IERC1155-isApprovedForAll}."
      },
      "paused()": {
        "details": "Returns true if the contract is paused, and false otherwise."
      },
      "safeBatchTransferFrom(address,address,uint256[],uint256[],bytes)": {
        "details": "See {IERC1155-safeBatchTransferFrom}."
      },
      "safeTransferFrom(address,address,uint256,uint256,bytes)": {
        "details": "See {IERC1155-safeTransferFrom}."
      },
      "setApprovalForAll(address,bool)": {
        "details": "See {IERC1155-setApprovalForAll}."
      },
      "supportsInterface(bytes4)": {
        "details": "See {IERC165-supportsInterface}."
      },
      "uri(uint256)": {
        "details": "See {IERC1155MetadataURI-uri}. This implementation returns the same URI for *all* token types. It relies on the token type ID substitution mechanism https://eips.ethereum.org/EIPS/eip-1155#metadata[defined in the EIP]. Clients calling this function must replace the `\\{id\\}` substring with the actual token type ID."
      }
    },
    "version": 1
  },
  "userdoc": {
    "kind": "user",
    "methods": {},
    "version": 1
  }
}