{
  "contractName": "ERC20SnapshotMock",
  "abi": [
    {
      "inputs": [
        {
          "internalType": "string",
          "name": "name",
          "type": "string"
        },
        {
          "internalType": "string",
          "name": "symbol",
          "type": "string"
        },
        {
          "internalType": "address",
          "name": "initialAccount",
          "type": "address"
        },
        {
          "internalType": "uint256",
          "name": "initialBalance",
          "type": "uint256"
        }
      ],
      "stateMutability": "nonpayable",
      "type": "constructor"
    },
    {
      "anonymous": false,
      "inputs": [
        {
          "indexed": true,
          "internalType": "address",
          "name": "owner",
          "type": "address"
        },
        {
          "indexed": true,
          "internalType": "address",
          "name": "spender",
          "type": "address"
        },
        {
          "indexed": false,
          "internalType": "uint256",
          "name": "value",
          "type": "uint256"
        }
      ],
      "name": "Approval",
      "type": "event"
    },
    {
      "anonymous": false,
      "inputs": [
        {
          "indexed": false,
          "internalType": "uint256",
          "name": "id",
          "type": "uint256"
        }
      ],
      "name": "Snapshot",
      "type": "event"
    },
    {
      "anonymous": false,
      "inputs": [
        {
          "indexed": true,
          "internalType": "address",
          "name": "from",
          "type": "address"
        },
        {
          "indexed": true,
          "internalType": "address",
          "name": "to",
          "type": "address"
        },
        {
          "indexed": false,
          "internalType": "uint256",
          "name": "value",
          "type": "uint256"
        }
      ],
      "name": "Transfer",
      "type": "event"
    },
    {
      "inputs": [
        {
          "internalType": "address",
          "name": "owner",
          "type": "address"
        },
        {
          "internalType": "address",
          "name": "spender",
          "type": "address"
        }
      ],
      "name": "allowance",
      "outputs": [
        {
          "internalType": "uint256",
          "name": "",
          "type": "uint256"
        }
      ],
      "stateMutability": "view",
      "type": "function"
    },
    {
      "inputs": [
        {
          "internalType": "address",
          "name": "spender",
          "type": "address"
        },
        {
          "internalType": "uint256",
          "name": "amount",
          "type": "uint256"
        }
      ],
      "name": "approve",
      "outputs": [
        {
          "internalType": "bool",
          "name": "",
          "type": "bool"
        }
      ],
      "stateMutability": "nonpayable",
      "type": "function"
    },
    {
      "inputs": [
        {
          "internalType": "address",
          "name": "account",
          "type": "address"
        }
      ],
      "name": "balanceOf",
      "outputs": [
        {
          "internalType": "uint256",
          "name": "",
          "type": "uint256"
        }
      ],
      "stateMutability": "view",
      "type": "function"
    },
    {
      "inputs": [
        {
          "internalType": "address",
          "name": "account",
          "type": "address"
        },
        {
          "internalType": "uint256",
          "name": "snapshotId",
          "type": "uint256"
        }
      ],
      "name": "balanceOfAt",
      "outputs": [
        {
          "internalType": "uint256",
          "name": "",
          "type": "uint256"
        }
      ],
      "stateMutability": "view",
      "type": "function"
    },
    {
      "inputs": [],
      "name": "decimals",
      "outputs": [
        {
          "internalType": "uint8",
          "name": "",
          "type": "uint8"
        }
      ],
      "stateMutability": "view",
      "type": "function"
    },
    {
      "inputs": [
        {
          "internalType": "address",
          "name": "spender",
          "type": "address"
        },
        {
          "internalType": "uint256",
          "name": "subtractedValue",
          "type": "uint256"
        }
      ],
      "name": "decreaseAllowance",
      "outputs": [
        {
          "internalType": "bool",
          "name": "",
          "type": "bool"
        }
      ],
      "stateMutability": "nonpayable",
      "type": "function"
    },
    {
      "inputs": [
        {
          "internalType": "address",
          "name": "spender",
          "type": "address"
        },
        {
          "internalType": "uint256",
          "name": "addedValue",
          "type": "uint256"
        }
      ],
      "name": "increaseAllowance",
      "outputs": [
        {
          "internalType": "bool",
          "name": "",
          "type": "bool"
        }
      ],
      "stateMutability": "nonpayable",
      "type": "function"
    },
    {
      "inputs": [],
      "name": "name",
      "outputs": [
        {
          "internalType": "string",
          "name": "",
          "type": "string"
        }
      ],
      "stateMutability": "view",
      "type": "function"
    },
    {
      "inputs": [],
      "name": "symbol",
      "outputs": [
        {
          "internalType": "string",
          "name": "",
          "type": "string"
        }
      ],
      "stateMutability": "view",
      "type": "function"
    },
    {
      "inputs": [],
      "name": "totalSupply",
      "outputs": [
        {
          "internalType": "uint256",
          "name": "",
          "type": "uint256"
        }
      ],
      "stateMutability": "view",
      "type": "function"
    },
    {
      "inputs": [
        {
          "internalType": "uint256",
          "name": "snapshotId",
          "type": "uint256"
        }
      ],
      "name": "totalSupplyAt",
      "outputs": [
        {
          "internalType": "uint256",
          "name": "",
          "type": "uint256"
        }
      ],
      "stateMutability": "view",
      "type": "function"
    },
    {
      "inputs": [
        {
          "internalType": "address",
          "name": "recipient",
          "type": "address"
        },
        {
          "internalType": "uint256",
          "name": "amount",
          "type": "uint256"
        }
      ],
      "name": "transfer",
      "outputs": [
        {
          "internalType": "bool",
          "name": "",
          "type": "bool"
        }
      ],
      "stateMutability": "nonpayable",
      "type": "function"
    },
    {
      "inputs": [
        {
          "internalType": "address",
          "name": "sender",
          "type": "address"
        },
        {
          "internalType": "address",
          "name": "recipient",
          "type": "address"
        },
        {
          "internalType": "uint256",
          "name": "amount",
          "type": "uint256"
        }
      ],
      "name": "transferFrom",
      "outputs": [
        {
          "internalType": "bool",
          "name": "",
          "type": "bool"
        }
      ],
      "stateMutability": "nonpayable",
      "type": "function"
    },
    {
      "inputs": [],
      "name": "snapshot",
      "outputs": [],
      "stateMutability": "nonpayable",
      "type": "function"
    },
    {
      "inputs": [
        {
          "internalType": "address",
          "name": "account",
          "type": "address"
        },
        {
          "internalType": "uint256",
          "name": "amount",
          "type": "uint256"
        }
      ],
      "name": "mint",
      "outputs": [],
      "stateMutability": "nonpayable",
      "type": "function"
    },
    {
      "inputs": [
        {
          "internalType": "address",
          "name": "account",
          "type": "address"
        },
        {
          "internalType": "uint256",
          "name": "amount",
          "type": "uint256"
        }
      ],
      "name": "burn",
      "outputs": [],
      "stateMutability": "nonpayable",
      "type": "function"
    }
  ],
  "bytecode": "0x60806040523480156200001157600080fd5b5060405162002b7138038062002b71833981810160405281019062000037919062000647565b8383816003908051906020019062000051929190620004f7565b5080600490805190602001906200006a929190620004f7565b5050506200007f82826200008960201b60201c565b5050505062000a3f565b600073ffffffffffffffffffffffffffffffffffffffff168273ffffffffffffffffffffffffffffffffffffffff161415620000fc576040517f08c379a0000000000000000000000000000000000000000000000000000000008152600401620000f3906200071d565b60405180910390fd5b6200011060008383620001ee60201b60201c565b8060026000828254620001249190620007cc565b92505081905550806000808473ffffffffffffffffffffffffffffffffffffffff1673ffffffffffffffffffffffffffffffffffffffff16815260200190815260200160002060008282546200017b9190620007cc565b925050819055508173ffffffffffffffffffffffffffffffffffffffff16600073ffffffffffffffffffffffffffffffffffffffff167fddf252ad1be2c89b69c2b068fc378daa952ba7f163c4a11628f55a4df523b3ef83604051620001e291906200073f565b60405180910390a35050565b62000206838383620002e960201b6200091a1760201c565b600073ffffffffffffffffffffffffffffffffffffffff168373ffffffffffffffffffffffffffffffffffffffff16141562000263576200024d82620002ee60201b60201c565b6200025d6200035160201b60201c565b620002e4565b600073ffffffffffffffffffffffffffffffffffffffff168273ffffffffffffffffffffffffffffffffffffffff161415620002c057620002aa83620002ee60201b60201c565b620002ba6200035160201b60201c565b620002e3565b620002d183620002ee60201b60201c565b620002e282620002ee60201b60201c565b5b5b505050565b505050565b6200034e600560008373ffffffffffffffffffffffffffffffffffffffff1673ffffffffffffffffffffffffffffffffffffffff16815260200190815260200160002062000342836200037560201b60201c565b620003bd60201b60201c565b50565b620003736006620003676200044960201b60201c565b620003bd60201b60201c565b565b60008060008373ffffffffffffffffffffffffffffffffffffffff1673ffffffffffffffffffffffffffffffffffffffff168152602001908152602001600020549050919050565b6000620003cf6200045360201b60201c565b905080620003e6846000016200047160201b60201c565b1015620004445782600001819080600181540180825580915050600190039060005260206000200160009091909190915055826001018290806001815401808255809150506001900390600052602060002001600090919091909150555b505050565b6000600254905090565b60006200046c6008620004e960201b6200091f1760201c565b905090565b600080828054905014156200048a5760009050620004e4565b81600183805490506200049e919062000829565b81548110620004d6577f4e487b7100000000000000000000000000000000000000000000000000000000600052603260045260246000fd5b906000526020600020015490505b919050565b600081600001549050919050565b8280546200050590620008d8565b90600052602060002090601f01602090048101928262000529576000855562000575565b82601f106200054457805160ff191683800117855562000575565b8280016001018555821562000575579182015b828111156200057457825182559160200191906001019062000557565b5b50905062000584919062000588565b5090565b5b80821115620005a357600081600090555060010162000589565b5090565b6000620005be620005b88462000785565b6200075c565b905082815260208101848484011115620005d757600080fd5b620005e4848285620008a2565b509392505050565b600081519050620005fd8162000a0b565b92915050565b600082601f8301126200061557600080fd5b815162000627848260208601620005a7565b91505092915050565b600081519050620006418162000a25565b92915050565b600080600080608085870312156200065e57600080fd5b600085015167ffffffffffffffff8111156200067957600080fd5b620006878782880162000603565b945050602085015167ffffffffffffffff811115620006a557600080fd5b620006b38782880162000603565b9350506040620006c687828801620005ec565b9250506060620006d98782880162000630565b91505092959194509250565b6000620006f4601f83620007bb565b91506200070182620009e2565b602082019050919050565b620007178162000898565b82525050565b600060208201905081810360008301526200073881620006e5565b9050919050565b60006020820190506200075660008301846200070c565b92915050565b6000620007686200077b565b90506200077682826200090e565b919050565b6000604051905090565b600067ffffffffffffffff821115620007a357620007a2620009a2565b5b620007ae82620009d1565b9050602081019050919050565b600082825260208201905092915050565b6000620007d98262000898565b9150620007e68362000898565b9250827fffffffffffffffffffffffffffffffffffffffffffffffffffffffffffffffff038211156200081e576200081d62000944565b5b828201905092915050565b6000620008368262000898565b9150620008438362000898565b92508282101562000859576200085862000944565b5b828203905092915050565b6000620008718262000878565b9050919050565b600073ffffffffffffffffffffffffffffffffffffffff82169050919050565b6000819050919050565b60005b83811015620008c2578082015181840152602081019050620008a5565b83811115620008d2576000848401525b50505050565b60006002820490506001821680620008f157607f821691505b6020821081141562000908576200090762000973565b5b50919050565b6200091982620009d1565b810181811067ffffffffffffffff821117156200093b576200093a620009a2565b5b80604052505050565b7f4e487b7100000000000000000000000000000000000000000000000000000000600052601160045260246000fd5b7f4e487b7100000000000000000000000000000000000000000000000000000000600052602260045260246000fd5b7f4e487b7100000000000000000000000000000000000000000000000000000000600052604160045260246000fd5b6000601f19601f8301169050919050565b7f45524332303a206d696e7420746f20746865207a65726f206164647265737300600082015250565b62000a168162000864565b811462000a2257600080fd5b50565b62000a308162000898565b811462000a3c57600080fd5b50565b6121228062000a4f6000396000f3fe608060405234801561001057600080fd5b50600436106101005760003560e01c806370a08231116100975780639dc29fac116100665780639dc29fac146102c3578063a457c2d7146102df578063a9059cbb1461030f578063dd62ed3e1461033f57610100565b806370a082311461023b57806395d89b411461026b5780639711715a14610289578063981b24d01461029357610100565b8063313ce567116100d3578063313ce567146101a157806339509351146101bf57806340c10f19146101ef5780634ee2cd7e1461020b57610100565b806306fdde0314610105578063095ea7b31461012357806318160ddd1461015357806323b872dd14610171575b600080fd5b61010d61036f565b60405161011a9190611944565b60405180910390f35b61013d600480360381019061013891906116ba565b610401565b60405161014a9190611929565b60405180910390f35b61015b61041f565b6040516101689190611ae6565b60405180910390f35b61018b6004803603810190610186919061166b565b610429565b6040516101989190611929565b60405180910390f35b6101a961052a565b6040516101b69190611b01565b60405180910390f35b6101d960048036038101906101d491906116ba565b610533565b6040516101e69190611929565b60405180910390f35b610209600480360381019061020491906116ba565b6105df565b005b610225600480360381019061022091906116ba565b6105ed565b6040516102329190611ae6565b60405180910390f35b61025560048036038101906102509190611606565b61065d565b6040516102629190611ae6565b60405180910390f35b6102736106a5565b6040516102809190611944565b60405180910390f35b610291610737565b005b6102ad60048036038101906102a891906116f6565b610742565b6040516102ba9190611ae6565b60405180910390f35b6102dd60048036038101906102d891906116ba565b610773565b005b6102f960048036038101906102f491906116ba565b610781565b6040516103069190611929565b60405180910390f35b610329600480360381019061032491906116ba565b610875565b6040516103369190611929565b60405180910390f35b6103596004803603810190610354919061162f565b610893565b6040516103669190611ae6565b60405180910390f35b60606003805461037e90611c7b565b80601f01602080910402602001604051908101604052809291908181526020018280546103aa90611c7b565b80156103f75780601f106103cc576101008083540402835291602001916103f7565b820191906000526020600020905b8154815290600101906020018083116103da57829003601f168201915b5050505050905090565b600061041561040e61092d565b8484610935565b6001905092915050565b6000600254905090565b6000610436848484610b00565b6000600160008673ffffffffffffffffffffffffffffffffffffffff1673ffffffffffffffffffffffffffffffffffffffff168152602001908152602001600020600061048161092d565b73ffffffffffffffffffffffffffffffffffffffff1673ffffffffffffffffffffffffffffffffffffffff16815260200190815260200160002054905082811015610501576040517f08c379a00000000000000000000000000000000000000000000000000000000081526004016104f890611a06565b60405180910390fd5b61051e8561050d61092d565b85846105199190611bbf565b610935565b60019150509392505050565b60006012905090565b60006105d561054061092d565b84846001600061054e61092d565b73ffffffffffffffffffffffffffffffffffffffff1673ffffffffffffffffffffffffffffffffffffffff16815260200190815260200160002060008873ffffffffffffffffffffffffffffffffffffffff1673ffffffffffffffffffffffffffffffffffffffff168152602001908152602001600020546105d09190611b38565b610935565b6001905092915050565b6105e98282610d7f565b5050565b600080600061063a84600560008873ffffffffffffffffffffffffffffffffffffffff1673ffffffffffffffffffffffffffffffffffffffff168152602001908152602001600020610ed3565b91509150816106515761064c8561065d565b610653565b805b9250505092915050565b60008060008373ffffffffffffffffffffffffffffffffffffffff1673ffffffffffffffffffffffffffffffffffffffff168152602001908152602001600020549050919050565b6060600480546106b490611c7b565b80601f01602080910402602001604051908101604052809291908181526020018280546106e090611c7b565b801561072d5780601f106107025761010080835404028352916020019161072d565b820191906000526020600020905b81548152906001019060200180831161071057829003601f168201915b5050505050905090565b61073f610fef565b50565b6000806000610752846006610ed3565b91509150816107685761076361041f565b61076a565b805b92505050919050565b61077d8282611045565b5050565b6000806001600061079061092d565b73ffffffffffffffffffffffffffffffffffffffff1673ffffffffffffffffffffffffffffffffffffffff16815260200190815260200160002060008573ffffffffffffffffffffffffffffffffffffffff1673ffffffffffffffffffffffffffffffffffffffff1681526020019081526020016000205490508281101561084d576040517f08c379a000000000000000000000000000000000000000000000000000000000815260040161084490611aa6565b60405180910390fd5b61086a61085861092d565b8585846108659190611bbf565b610935565b600191505092915050565b600061088961088261092d565b8484610b00565b6001905092915050565b6000600160008473ffffffffffffffffffffffffffffffffffffffff1673ffffffffffffffffffffffffffffffffffffffff16815260200190815260200160002060008373ffffffffffffffffffffffffffffffffffffffff1673ffffffffffffffffffffffffffffffffffffffff16815260200190815260200160002054905092915050565b505050565b600081600001549050919050565b600033905090565b600073ffffffffffffffffffffffffffffffffffffffff168373ffffffffffffffffffffffffffffffffffffffff1614156109a5576040517f08c379a000000000000000000000000000000000000000000000000000000000815260040161099c90611a66565b60405180910390fd5b600073ffffffffffffffffffffffffffffffffffffffff168273ffffffffffffffffffffffffffffffffffffffff161415610a15576040517f08c379a0000000000000000000000000000000000000000000000000000000008152600401610a0c906119c6565b60405180910390fd5b80600160008573ffffffffffffffffffffffffffffffffffffffff1673ffffffffffffffffffffffffffffffffffffffff16815260200190815260200160002060008473ffffffffffffffffffffffffffffffffffffffff1673ffffffffffffffffffffffffffffffffffffffff168152602001908152602001600020819055508173ffffffffffffffffffffffffffffffffffffffff168373ffffffffffffffffffffffffffffffffffffffff167f8c5be1e5ebec7d5bd14f71427d1e84f3dd0314c0f7b2291e5b200ac8c7c3b92583604051610af39190611ae6565b60405180910390a3505050565b600073ffffffffffffffffffffffffffffffffffffffff168373ffffffffffffffffffffffffffffffffffffffff161415610b70576040517f08c379a0000000000000000000000000000000000000000000000000000000008152600401610b6790611a46565b60405180910390fd5b600073ffffffffffffffffffffffffffffffffffffffff168273ffffffffffffffffffffffffffffffffffffffff161415610be0576040517f08c379a0000000000000000000000000000000000000000000000000000000008152600401610bd790611986565b60405180910390fd5b610beb838383611219565b60008060008573ffffffffffffffffffffffffffffffffffffffff1673ffffffffffffffffffffffffffffffffffffffff16815260200190815260200160002054905081811015610c71576040517f08c379a0000000000000000000000000000000000000000000000000000000008152600401610c68906119e6565b60405180910390fd5b8181610c7d9190611bbf565b6000808673ffffffffffffffffffffffffffffffffffffffff1673ffffffffffffffffffffffffffffffffffffffff16815260200190815260200160002081905550816000808573ffffffffffffffffffffffffffffffffffffffff1673ffffffffffffffffffffffffffffffffffffffff1681526020019081526020016000206000828254610d0d9190611b38565b925050819055508273ffffffffffffffffffffffffffffffffffffffff168473ffffffffffffffffffffffffffffffffffffffff167fddf252ad1be2c89b69c2b068fc378daa952ba7f163c4a11628f55a4df523b3ef84604051610d719190611ae6565b60405180910390a350505050565b600073ffffffffffffffffffffffffffffffffffffffff168273ffffffffffffffffffffffffffffffffffffffff161415610def576040517f08c379a0000000000000000000000000000000000000000000000000000000008152600401610de690611ac6565b60405180910390fd5b610dfb60008383611219565b8060026000828254610e0d9190611b38565b92505081905550806000808473ffffffffffffffffffffffffffffffffffffffff1673ffffffffffffffffffffffffffffffffffffffff1681526020019081526020016000206000828254610e629190611b38565b925050819055508173ffffffffffffffffffffffffffffffffffffffff16600073ffffffffffffffffffffffffffffffffffffffff167fddf252ad1be2c89b69c2b068fc378daa952ba7f163c4a11628f55a4df523b3ef83604051610ec79190611ae6565b60405180910390a35050565b60008060008411610f19576040517f08c379a0000000000000000000000000000000000000000000000000000000008152600401610f1090611a86565b60405180910390fd5b610f216112d3565b841115610f63576040517f08c379a0000000000000000000000000000000000000000000000000000000008152600401610f5a90611966565b60405180910390fd5b6000610f7b85856000016112e490919063ffffffff16565b90508360000180549050811415610f99576000809250925050610fe8565b6001846001018281548110610fd7577f4e487b7100000000000000000000000000000000000000000000000000000000600052603260045260246000fd5b906000526020600020015492509250505b9250929050565b6000610ffb600861140a565b60006110056112d3565b90507f8030e83b04d87bef53480e26263266d6ca66863aa8506aca6f2559d18aa1cb67816040516110369190611ae6565b60405180910390a18091505090565b600073ffffffffffffffffffffffffffffffffffffffff168273ffffffffffffffffffffffffffffffffffffffff1614156110b5576040517f08c379a00000000000000000000000000000000000000000000000000000000081526004016110ac90611a26565b60405180910390fd5b6110c182600083611219565b60008060008473ffffffffffffffffffffffffffffffffffffffff1673ffffffffffffffffffffffffffffffffffffffff16815260200190815260200160002054905081811015611147576040517f08c379a000000000000000000000000000000000000000000000000000000000815260040161113e906119a6565b60405180910390fd5b81816111539190611bbf565b6000808573ffffffffffffffffffffffffffffffffffffffff1673ffffffffffffffffffffffffffffffffffffffff1681526020019081526020016000208190555081600260008282546111a79190611bbf565b92505081905550600073ffffffffffffffffffffffffffffffffffffffff168373ffffffffffffffffffffffffffffffffffffffff167fddf252ad1be2c89b69c2b068fc378daa952ba7f163c4a11628f55a4df523b3ef8460405161120c9190611ae6565b60405180910390a3505050565b61122483838361091a565b600073ffffffffffffffffffffffffffffffffffffffff168373ffffffffffffffffffffffffffffffffffffffff16141561126f5761126282611420565b61126a611473565b6112ce565b600073ffffffffffffffffffffffffffffffffffffffff168273ffffffffffffffffffffffffffffffffffffffff1614156112ba576112ad83611420565b6112b5611473565b6112cd565b6112c383611420565b6112cc82611420565b5b5b505050565b60006112df600861091f565b905090565b600080838054905014156112fb5760009050611404565b600080848054905090505b8082101561138557600061131a8383611487565b905084868281548110611356577f4e487b7100000000000000000000000000000000000000000000000000000000600052603260045260246000fd5b9060005260206000200154111561136f5780915061137f565b60018161137c9190611b38565b92505b50611306565b6000821180156113e35750838560018461139f9190611bbf565b815481106113d6577f4e487b7100000000000000000000000000000000000000000000000000000000600052603260045260246000fd5b9060005260206000200154145b156113fe576001826113f59190611bbf565b92505050611404565b81925050505b92915050565b6001816000016000828254019250508190555050565b611470600560008373ffffffffffffffffffffffffffffffffffffffff1673ffffffffffffffffffffffffffffffffffffffff16815260200190815260200160002061146b8361065d565b6114ee565b50565b611485600661148061041f565b6114ee565b565b6000600280836114979190611cad565b6002856114a49190611cad565b6114ae9190611b38565b6114b89190611b8e565b6002836114c59190611b8e565b6002856114d29190611b8e565b6114dc9190611b38565b6114e69190611b38565b905092915050565b60006114f86112d3565b90508061150784600001611569565b10156115645782600001819080600181540180825580915050600190039060005260206000200160009091909190915055826001018290806001815401808255809150506001900390600052602060002001600090919091909150555b505050565b6000808280549050141561158057600090506115d7565b81600183805490506115929190611bbf565b815481106115c9577f4e487b7100000000000000000000000000000000000000000000000000000000600052603260045260246000fd5b906000526020600020015490505b919050565b6000813590506115eb816120be565b92915050565b600081359050611600816120d5565b92915050565b60006020828403121561161857600080fd5b6000611626848285016115dc565b91505092915050565b6000806040838503121561164257600080fd5b6000611650858286016115dc565b9250506020611661858286016115dc565b9150509250929050565b60008060006060848603121561168057600080fd5b600061168e868287016115dc565b935050602061169f868287016115dc565b92505060406116b0868287016115f1565b9150509250925092565b600080604083850312156116cd57600080fd5b60006116db858286016115dc565b92505060206116ec858286016115f1565b9150509250929050565b60006020828403121561170857600080fd5b6000611716848285016115f1565b91505092915050565b61172881611c05565b82525050565b600061173982611b1c565b6117438185611b27565b9350611753818560208601611c48565b61175c81611d6b565b840191505092915050565b6000611774601d83611b27565b915061177f82611d7c565b602082019050919050565b6000611797602383611b27565b91506117a282611da5565b604082019050919050565b60006117ba602283611b27565b91506117c582611df4565b604082019050919050565b60006117dd602283611b27565b91506117e882611e43565b604082019050919050565b6000611800602683611b27565b915061180b82611e92565b604082019050919050565b6000611823602883611b27565b915061182e82611ee1565b604082019050919050565b6000611846602183611b27565b915061185182611f30565b604082019050919050565b6000611869602583611b27565b915061187482611f7f565b604082019050919050565b600061188c602483611b27565b915061189782611fce565b604082019050919050565b60006118af601683611b27565b91506118ba8261201d565b602082019050919050565b60006118d2602583611b27565b91506118dd82612046565b604082019050919050565b60006118f5601f83611b27565b915061190082612095565b602082019050919050565b61191481611c31565b82525050565b61192381611c3b565b82525050565b600060208201905061193e600083018461171f565b92915050565b6000602082019050818103600083015261195e818461172e565b905092915050565b6000602082019050818103600083015261197f81611767565b9050919050565b6000602082019050818103600083015261199f8161178a565b9050919050565b600060208201905081810360008301526119bf816117ad565b9050919050565b600060208201905081810360008301526119df816117d0565b9050919050565b600060208201905081810360008301526119ff816117f3565b9050919050565b60006020820190508181036000830152611a1f81611816565b9050919050565b60006020820190508181036000830152611a3f81611839565b9050919050565b60006020820190508181036000830152611a5f8161185c565b9050919050565b60006020820190508181036000830152611a7f8161187f565b9050919050565b60006020820190508181036000830152611a9f816118a2565b9050919050565b60006020820190508181036000830152611abf816118c5565b9050919050565b60006020820190508181036000830152611adf816118e8565b9050919050565b6000602082019050611afb600083018461190b565b92915050565b6000602082019050611b16600083018461191a565b92915050565b600081519050919050565b600082825260208201905092915050565b6000611b4382611c31565b9150611b4e83611c31565b9250827fffffffffffffffffffffffffffffffffffffffffffffffffffffffffffffffff03821115611b8357611b82611cde565b5b828201905092915050565b6000611b9982611c31565b9150611ba483611c31565b925082611bb457611bb3611d0d565b5b828204905092915050565b6000611bca82611c31565b9150611bd583611c31565b925082821015611be857611be7611cde565b5b828203905092915050565b6000611bfe82611c11565b9050919050565b60008115159050919050565b600073ffffffffffffffffffffffffffffffffffffffff82169050919050565b6000819050919050565b600060ff82169050919050565b60005b83811015611c66578082015181840152602081019050611c4b565b83811115611c75576000848401525b50505050565b60006002820490506001821680611c9357607f821691505b60208210811415611ca757611ca6611d3c565b5b50919050565b6000611cb882611c31565b9150611cc383611c31565b925082611cd357611cd2611d0d565b5b828206905092915050565b7f4e487b7100000000000000000000000000000000000000000000000000000000600052601160045260246000fd5b7f4e487b7100000000000000000000000000000000000000000000000000000000600052601260045260246000fd5b7f4e487b7100000000000000000000000000000000000000000000000000000000600052602260045260246000fd5b6000601f19601f8301169050919050565b7f4552433230536e617073686f743a206e6f6e6578697374656e74206964000000600082015250565b7f45524332303a207472616e7366657220746f20746865207a65726f206164647260008201527f6573730000000000000000000000000000000000000000000000000000000000602082015250565b7f45524332303a206275726e20616d6f756e7420657863656564732062616c616e60008201527f6365000000000000000000000000000000000000000000000000000000000000602082015250565b7f45524332303a20617070726f766520746f20746865207a65726f20616464726560008201527f7373000000000000000000000000000000000000000000000000000000000000602082015250565b7f45524332303a207472616e7366657220616d6f756e742065786365656473206260008201527f616c616e63650000000000000000000000000000000000000000000000000000602082015250565b7f45524332303a207472616e7366657220616d6f756e742065786365656473206160008201527f6c6c6f77616e6365000000000000000000000000000000000000000000000000602082015250565b7f45524332303a206275726e2066726f6d20746865207a65726f2061646472657360008201527f7300000000000000000000000000000000000000000000000000000000000000602082015250565b7f45524332303a207472616e736665722066726f6d20746865207a65726f20616460008201527f6472657373000000000000000000000000000000000000000000000000000000602082015250565b7f45524332303a20617070726f76652066726f6d20746865207a65726f2061646460008201527f7265737300000000000000000000000000000000000000000000000000000000602082015250565b7f4552433230536e617073686f743a206964206973203000000000000000000000600082015250565b7f45524332303a2064656372656173656420616c6c6f77616e63652062656c6f7760008201527f207a65726f000000000000000000000000000000000000000000000000000000602082015250565b7f45524332303a206d696e7420746f20746865207a65726f206164647265737300600082015250565b6120c781611bf3565b81146120d257600080fd5b50565b6120de81611c31565b81146120e957600080fd5b5056fea264697066735822122032687a64c80bedfd5b28274722f3d2937fc885166ea026c7d6ba9d4a3ed8006064736f6c63430008030033",
  "immutableReferences": {},
  "source": "// SPDX-License-Identifier: MIT\n\npragma solidity ^0.8.0;\n\nimport \"../token/ERC20/extensions/ERC20Snapshot.sol\";\n\n\ncontract ERC20SnapshotMock is ERC20Snapshot {\n    constructor(\n        string memory name,\n        string memory symbol,\n        address initialAccount,\n        uint256 initialBalance\n    ) ERC20(name, symbol) {\n        _mint(initialAccount, initialBalance);\n    }\n\n    function snapshot() public {\n        _snapshot();\n    }\n\n    function mint(address account, uint256 amount) public {\n        _mint(account, amount);\n    }\n\n    function burn(address account, uint256 amount) public {\n        _burn(account, amount);\n    }\n}\n",
  "sourcePath": "/Users/brendanmorrison/Code/Nftrees/contracts/OpenZepplin/mocks/ERC20SnapshotMock.sol",
  "compiler": {
    "name": "solc",
    "version": "0.8.3+commit.8d00100c.Emscripten.clang"
  },
  "schemaVersion": "3.3.4",
  "updatedAt": "2021-05-19T17:43:06.638Z",
  "devdoc": {
    "kind": "dev",
    "methods": {
      "allowance(address,address)": {
        "details": "See {IERC20-allowance}."
      },
      "approve(address,uint256)": {
        "details": "See {IERC20-approve}. Requirements: - `spender` cannot be the zero address."
      },
      "balanceOf(address)": {
        "details": "See {IERC20-balanceOf}."
      },
      "balanceOfAt(address,uint256)": {
        "details": "Retrieves the balance of `account` at the time `snapshotId` was created."
      },
      "decimals()": {
        "details": "Returns the number of decimals used to get its user representation. For example, if `decimals` equals `2`, a balance of `505` tokens should be displayed to a user as `5,05` (`505 / 10 ** 2`). Tokens usually opt for a value of 18, imitating the relationship between Ether and Wei. This is the value {ERC20} uses, unless this function is overridden; NOTE: This information is only used for _display_ purposes: it in no way affects any of the arithmetic of the contract, including {IERC20-balanceOf} and {IERC20-transfer}."
      },
      "decreaseAllowance(address,uint256)": {
        "details": "Atomically decreases the allowance granted to `spender` by the caller. This is an alternative to {approve} that can be used as a mitigation for problems described in {IERC20-approve}. Emits an {Approval} event indicating the updated allowance. Requirements: - `spender` cannot be the zero address. - `spender` must have allowance for the caller of at least `subtractedValue`."
      },
      "increaseAllowance(address,uint256)": {
        "details": "Atomically increases the allowance granted to `spender` by the caller. This is an alternative to {approve} that can be used as a mitigation for problems described in {IERC20-approve}. Emits an {Approval} event indicating the updated allowance. Requirements: - `spender` cannot be the zero address."
      },
      "name()": {
        "details": "Returns the name of the token."
      },
      "symbol()": {
        "details": "Returns the symbol of the token, usually a shorter version of the name."
      },
      "totalSupply()": {
        "details": "See {IERC20-totalSupply}."
      },
      "totalSupplyAt(uint256)": {
        "details": "Retrieves the total supply at the time `snapshotId` was created."
      },
      "transfer(address,uint256)": {
        "details": "See {IERC20-transfer}. Requirements: - `recipient` cannot be the zero address. - the caller must have a balance of at least `amount`."
      },
      "transferFrom(address,address,uint256)": {
        "details": "See {IERC20-transferFrom}. Emits an {Approval} event indicating the updated allowance. This is not required by the EIP. See the note at the beginning of {ERC20}. Requirements: - `sender` and `recipient` cannot be the zero address. - `sender` must have a balance of at least `amount`. - the caller must have allowance for ``sender``'s tokens of at least `amount`."
      }
    },
    "version": 1
  },
  "userdoc": {
    "kind": "user",
    "methods": {},
    "version": 1
  }
}