{
  "contractName": "ERC20PausableMock",
  "abi": [
    {
      "inputs": [
        {
          "internalType": "string",
          "name": "name",
          "type": "string"
        },
        {
          "internalType": "string",
          "name": "symbol",
          "type": "string"
        },
        {
          "internalType": "address",
          "name": "initialAccount",
          "type": "address"
        },
        {
          "internalType": "uint256",
          "name": "initialBalance",
          "type": "uint256"
        }
      ],
      "stateMutability": "nonpayable",
      "type": "constructor"
    },
    {
      "anonymous": false,
      "inputs": [
        {
          "indexed": true,
          "internalType": "address",
          "name": "owner",
          "type": "address"
        },
        {
          "indexed": true,
          "internalType": "address",
          "name": "spender",
          "type": "address"
        },
        {
          "indexed": false,
          "internalType": "uint256",
          "name": "value",
          "type": "uint256"
        }
      ],
      "name": "Approval",
      "type": "event"
    },
    {
      "anonymous": false,
      "inputs": [
        {
          "indexed": false,
          "internalType": "address",
          "name": "account",
          "type": "address"
        }
      ],
      "name": "Paused",
      "type": "event"
    },
    {
      "anonymous": false,
      "inputs": [
        {
          "indexed": true,
          "internalType": "address",
          "name": "from",
          "type": "address"
        },
        {
          "indexed": true,
          "internalType": "address",
          "name": "to",
          "type": "address"
        },
        {
          "indexed": false,
          "internalType": "uint256",
          "name": "value",
          "type": "uint256"
        }
      ],
      "name": "Transfer",
      "type": "event"
    },
    {
      "anonymous": false,
      "inputs": [
        {
          "indexed": false,
          "internalType": "address",
          "name": "account",
          "type": "address"
        }
      ],
      "name": "Unpaused",
      "type": "event"
    },
    {
      "inputs": [
        {
          "internalType": "address",
          "name": "owner",
          "type": "address"
        },
        {
          "internalType": "address",
          "name": "spender",
          "type": "address"
        }
      ],
      "name": "allowance",
      "outputs": [
        {
          "internalType": "uint256",
          "name": "",
          "type": "uint256"
        }
      ],
      "stateMutability": "view",
      "type": "function"
    },
    {
      "inputs": [
        {
          "internalType": "address",
          "name": "spender",
          "type": "address"
        },
        {
          "internalType": "uint256",
          "name": "amount",
          "type": "uint256"
        }
      ],
      "name": "approve",
      "outputs": [
        {
          "internalType": "bool",
          "name": "",
          "type": "bool"
        }
      ],
      "stateMutability": "nonpayable",
      "type": "function"
    },
    {
      "inputs": [
        {
          "internalType": "address",
          "name": "account",
          "type": "address"
        }
      ],
      "name": "balanceOf",
      "outputs": [
        {
          "internalType": "uint256",
          "name": "",
          "type": "uint256"
        }
      ],
      "stateMutability": "view",
      "type": "function"
    },
    {
      "inputs": [],
      "name": "decimals",
      "outputs": [
        {
          "internalType": "uint8",
          "name": "",
          "type": "uint8"
        }
      ],
      "stateMutability": "view",
      "type": "function"
    },
    {
      "inputs": [
        {
          "internalType": "address",
          "name": "spender",
          "type": "address"
        },
        {
          "internalType": "uint256",
          "name": "subtractedValue",
          "type": "uint256"
        }
      ],
      "name": "decreaseAllowance",
      "outputs": [
        {
          "internalType": "bool",
          "name": "",
          "type": "bool"
        }
      ],
      "stateMutability": "nonpayable",
      "type": "function"
    },
    {
      "inputs": [
        {
          "internalType": "address",
          "name": "spender",
          "type": "address"
        },
        {
          "internalType": "uint256",
          "name": "addedValue",
          "type": "uint256"
        }
      ],
      "name": "increaseAllowance",
      "outputs": [
        {
          "internalType": "bool",
          "name": "",
          "type": "bool"
        }
      ],
      "stateMutability": "nonpayable",
      "type": "function"
    },
    {
      "inputs": [],
      "name": "name",
      "outputs": [
        {
          "internalType": "string",
          "name": "",
          "type": "string"
        }
      ],
      "stateMutability": "view",
      "type": "function"
    },
    {
      "inputs": [],
      "name": "paused",
      "outputs": [
        {
          "internalType": "bool",
          "name": "",
          "type": "bool"
        }
      ],
      "stateMutability": "view",
      "type": "function"
    },
    {
      "inputs": [],
      "name": "symbol",
      "outputs": [
        {
          "internalType": "string",
          "name": "",
          "type": "string"
        }
      ],
      "stateMutability": "view",
      "type": "function"
    },
    {
      "inputs": [],
      "name": "totalSupply",
      "outputs": [
        {
          "internalType": "uint256",
          "name": "",
          "type": "uint256"
        }
      ],
      "stateMutability": "view",
      "type": "function"
    },
    {
      "inputs": [
        {
          "internalType": "address",
          "name": "recipient",
          "type": "address"
        },
        {
          "internalType": "uint256",
          "name": "amount",
          "type": "uint256"
        }
      ],
      "name": "transfer",
      "outputs": [
        {
          "internalType": "bool",
          "name": "",
          "type": "bool"
        }
      ],
      "stateMutability": "nonpayable",
      "type": "function"
    },
    {
      "inputs": [
        {
          "internalType": "address",
          "name": "sender",
          "type": "address"
        },
        {
          "internalType": "address",
          "name": "recipient",
          "type": "address"
        },
        {
          "internalType": "uint256",
          "name": "amount",
          "type": "uint256"
        }
      ],
      "name": "transferFrom",
      "outputs": [
        {
          "internalType": "bool",
          "name": "",
          "type": "bool"
        }
      ],
      "stateMutability": "nonpayable",
      "type": "function"
    },
    {
      "inputs": [],
      "name": "pause",
      "outputs": [],
      "stateMutability": "nonpayable",
      "type": "function"
    },
    {
      "inputs": [],
      "name": "unpause",
      "outputs": [],
      "stateMutability": "nonpayable",
      "type": "function"
    },
    {
      "inputs": [
        {
          "internalType": "address",
          "name": "to",
          "type": "address"
        },
        {
          "internalType": "uint256",
          "name": "amount",
          "type": "uint256"
        }
      ],
      "name": "mint",
      "outputs": [],
      "stateMutability": "nonpayable",
      "type": "function"
    },
    {
      "inputs": [
        {
          "internalType": "address",
          "name": "from",
          "type": "address"
        },
        {
          "internalType": "uint256",
          "name": "amount",
          "type": "uint256"
        }
      ],
      "name": "burn",
      "outputs": [],
      "stateMutability": "nonpayable",
      "type": "function"
    }
  ],
  "bytecode": "0x60806040523480156200001157600080fd5b506040516200250f3803806200250f8339818101604052810190620000379190620003e5565b838381600390805190602001906200005192919062000295565b5080600490805190602001906200006a92919062000295565b5050506000600560006101000a81548160ff0219169083151502179055506200009a8282620000a460201b60201c565b505050506200083a565b600073ffffffffffffffffffffffffffffffffffffffff168273ffffffffffffffffffffffffffffffffffffffff16141562000117576040517f08c379a00000000000000000000000000000000000000000000000000000000081526004016200010e90620004e2565b60405180910390fd5b6200012b600083836200020960201b60201c565b80600260008282546200013f9190620005b3565b92505081905550806000808473ffffffffffffffffffffffffffffffffffffffff1673ffffffffffffffffffffffffffffffffffffffff1681526020019081526020016000206000828254620001969190620005b3565b925050819055508173ffffffffffffffffffffffffffffffffffffffff16600073ffffffffffffffffffffffffffffffffffffffff167fddf252ad1be2c89b69c2b068fc378daa952ba7f163c4a11628f55a4df523b3ef83604051620001fd919062000526565b60405180910390a35050565b620002218383836200027960201b620008611760201c565b620002316200027e60201b60201c565b1562000274576040517f08c379a00000000000000000000000000000000000000000000000000000000081526004016200026b9062000504565b60405180910390fd5b505050565b505050565b6000600560009054906101000a900460ff16905090565b828054620002a39062000684565b90600052602060002090601f016020900481019282620002c7576000855562000313565b82601f10620002e257805160ff191683800117855562000313565b8280016001018555821562000313579182015b8281111562000312578251825591602001919060010190620002f5565b5b50905062000322919062000326565b5090565b5b808211156200034157600081600090555060010162000327565b5090565b60006200035c62000356846200056c565b62000543565b9050828152602081018484840111156200037557600080fd5b620003828482856200064e565b509392505050565b6000815190506200039b8162000806565b92915050565b600082601f830112620003b357600080fd5b8151620003c584826020860162000345565b91505092915050565b600081519050620003df8162000820565b92915050565b60008060008060808587031215620003fc57600080fd5b600085015167ffffffffffffffff8111156200041757600080fd5b6200042587828801620003a1565b945050602085015167ffffffffffffffff8111156200044357600080fd5b6200045187828801620003a1565b935050604062000464878288016200038a565b92505060606200047787828801620003ce565b91505092959194509250565b600062000492601f83620005a2565b91506200049f826200078e565b602082019050919050565b6000620004b9602a83620005a2565b9150620004c682620007b7565b604082019050919050565b620004dc8162000644565b82525050565b60006020820190508181036000830152620004fd8162000483565b9050919050565b600060208201905081810360008301526200051f81620004aa565b9050919050565b60006020820190506200053d6000830184620004d1565b92915050565b60006200054f62000562565b90506200055d8282620006ba565b919050565b6000604051905090565b600067ffffffffffffffff8211156200058a57620005896200074e565b5b62000595826200077d565b9050602081019050919050565b600082825260208201905092915050565b6000620005c08262000644565b9150620005cd8362000644565b9250827fffffffffffffffffffffffffffffffffffffffffffffffffffffffffffffffff03821115620006055762000604620006f0565b5b828201905092915050565b60006200061d8262000624565b9050919050565b600073ffffffffffffffffffffffffffffffffffffffff82169050919050565b6000819050919050565b60005b838110156200066e57808201518184015260208101905062000651565b838111156200067e576000848401525b50505050565b600060028204905060018216806200069d57607f821691505b60208210811415620006b457620006b36200071f565b5b50919050565b620006c5826200077d565b810181811067ffffffffffffffff82111715620006e757620006e66200074e565b5b80604052505050565b7f4e487b7100000000000000000000000000000000000000000000000000000000600052601160045260246000fd5b7f4e487b7100000000000000000000000000000000000000000000000000000000600052602260045260246000fd5b7f4e487b7100000000000000000000000000000000000000000000000000000000600052604160045260246000fd5b6000601f19601f8301169050919050565b7f45524332303a206d696e7420746f20746865207a65726f206164647265737300600082015250565b7f45524332305061757361626c653a20746f6b656e207472616e7366657220776860008201527f696c652070617573656400000000000000000000000000000000000000000000602082015250565b620008118162000610565b81146200081d57600080fd5b50565b6200082b8162000644565b81146200083757600080fd5b50565b611cc5806200084a6000396000f3fe608060405234801561001057600080fd5b50600436106101005760003560e01c80635c975abb116100975780639dc29fac116100665780639dc29fac1461028b578063a457c2d7146102a7578063a9059cbb146102d7578063dd62ed3e1461030757610100565b80635c975abb1461021557806370a08231146102335780638456cb591461026357806395d89b411461026d57610100565b8063313ce567116100d3578063313ce567146101a157806339509351146101bf5780633f4ba83a146101ef57806340c10f19146101f957610100565b806306fdde0314610105578063095ea7b31461012357806318160ddd1461015357806323b872dd14610171575b600080fd5b61010d610337565b60405161011a9190611509565b60405180910390f35b61013d6004803603810190610138919061125b565b6103c9565b60405161014a91906114ee565b60405180910390f35b61015b6103e7565b60405161016891906116cb565b60405180910390f35b61018b6004803603810190610186919061120c565b6103f1565b60405161019891906114ee565b60405180910390f35b6101a96104f2565b6040516101b691906116e6565b60405180910390f35b6101d960048036038101906101d4919061125b565b6104fb565b6040516101e691906114ee565b60405180910390f35b6101f76105a7565b005b610213600480360381019061020e919061125b565b6105b1565b005b61021d6105bf565b60405161022a91906114ee565b60405180910390f35b61024d600480360381019061024891906111a7565b6105d6565b60405161025a91906116cb565b60405180910390f35b61026b61061e565b005b610275610628565b6040516102829190611509565b60405180910390f35b6102a560048036038101906102a0919061125b565b6106ba565b005b6102c160048036038101906102bc919061125b565b6106c8565b6040516102ce91906114ee565b60405180910390f35b6102f160048036038101906102ec919061125b565b6107bc565b6040516102fe91906114ee565b60405180910390f35b610321600480360381019061031c91906111d0565b6107da565b60405161032e91906116cb565b60405180910390f35b6060600380546103469061182f565b80601f01602080910402602001604051908101604052809291908181526020018280546103729061182f565b80156103bf5780601f10610394576101008083540402835291602001916103bf565b820191906000526020600020905b8154815290600101906020018083116103a257829003601f168201915b5050505050905090565b60006103dd6103d6610866565b848461086e565b6001905092915050565b6000600254905090565b60006103fe848484610a39565b6000600160008673ffffffffffffffffffffffffffffffffffffffff1673ffffffffffffffffffffffffffffffffffffffff1681526020019081526020016000206000610449610866565b73ffffffffffffffffffffffffffffffffffffffff1673ffffffffffffffffffffffffffffffffffffffff168152602001908152602001600020549050828110156104c9576040517f08c379a00000000000000000000000000000000000000000000000000000000081526004016104c0906115eb565b60405180910390fd5b6104e6856104d5610866565b85846104e19190611773565b61086e565b60019150509392505050565b60006012905090565b600061059d610508610866565b848460016000610516610866565b73ffffffffffffffffffffffffffffffffffffffff1673ffffffffffffffffffffffffffffffffffffffff16815260200190815260200160002060008873ffffffffffffffffffffffffffffffffffffffff1673ffffffffffffffffffffffffffffffffffffffff16815260200190815260200160002054610598919061171d565b61086e565b6001905092915050565b6105af610cb8565b565b6105bb8282610d5a565b5050565b6000600560009054906101000a900460ff16905090565b60008060008373ffffffffffffffffffffffffffffffffffffffff1673ffffffffffffffffffffffffffffffffffffffff168152602001908152602001600020549050919050565b610626610eae565b565b6060600480546106379061182f565b80601f01602080910402602001604051908101604052809291908181526020018280546106639061182f565b80156106b05780601f10610685576101008083540402835291602001916106b0565b820191906000526020600020905b81548152906001019060200180831161069357829003601f168201915b5050505050905090565b6106c48282610f51565b5050565b600080600160006106d7610866565b73ffffffffffffffffffffffffffffffffffffffff1673ffffffffffffffffffffffffffffffffffffffff16815260200190815260200160002060008573ffffffffffffffffffffffffffffffffffffffff1673ffffffffffffffffffffffffffffffffffffffff16815260200190815260200160002054905082811015610794576040517f08c379a000000000000000000000000000000000000000000000000000000000815260040161078b9061166b565b60405180910390fd5b6107b161079f610866565b8585846107ac9190611773565b61086e565b600191505092915050565b60006107d06107c9610866565b8484610a39565b6001905092915050565b6000600160008473ffffffffffffffffffffffffffffffffffffffff1673ffffffffffffffffffffffffffffffffffffffff16815260200190815260200160002060008373ffffffffffffffffffffffffffffffffffffffff1673ffffffffffffffffffffffffffffffffffffffff16815260200190815260200160002054905092915050565b505050565b600033905090565b600073ffffffffffffffffffffffffffffffffffffffff168373ffffffffffffffffffffffffffffffffffffffff1614156108de576040517f08c379a00000000000000000000000000000000000000000000000000000000081526004016108d59061164b565b60405180910390fd5b600073ffffffffffffffffffffffffffffffffffffffff168273ffffffffffffffffffffffffffffffffffffffff16141561094e576040517f08c379a00000000000000000000000000000000000000000000000000000000081526004016109459061158b565b60405180910390fd5b80600160008573ffffffffffffffffffffffffffffffffffffffff1673ffffffffffffffffffffffffffffffffffffffff16815260200190815260200160002060008473ffffffffffffffffffffffffffffffffffffffff1673ffffffffffffffffffffffffffffffffffffffff168152602001908152602001600020819055508173ffffffffffffffffffffffffffffffffffffffff168373ffffffffffffffffffffffffffffffffffffffff167f8c5be1e5ebec7d5bd14f71427d1e84f3dd0314c0f7b2291e5b200ac8c7c3b92583604051610a2c91906116cb565b60405180910390a3505050565b600073ffffffffffffffffffffffffffffffffffffffff168373ffffffffffffffffffffffffffffffffffffffff161415610aa9576040517f08c379a0000000000000000000000000000000000000000000000000000000008152600401610aa09061162b565b60405180910390fd5b600073ffffffffffffffffffffffffffffffffffffffff168273ffffffffffffffffffffffffffffffffffffffff161415610b19576040517f08c379a0000000000000000000000000000000000000000000000000000000008152600401610b109061152b565b60405180910390fd5b610b24838383611125565b60008060008573ffffffffffffffffffffffffffffffffffffffff1673ffffffffffffffffffffffffffffffffffffffff16815260200190815260200160002054905081811015610baa576040517f08c379a0000000000000000000000000000000000000000000000000000000008152600401610ba1906115ab565b60405180910390fd5b8181610bb69190611773565b6000808673ffffffffffffffffffffffffffffffffffffffff1673ffffffffffffffffffffffffffffffffffffffff16815260200190815260200160002081905550816000808573ffffffffffffffffffffffffffffffffffffffff1673ffffffffffffffffffffffffffffffffffffffff1681526020019081526020016000206000828254610c46919061171d565b925050819055508273ffffffffffffffffffffffffffffffffffffffff168473ffffffffffffffffffffffffffffffffffffffff167fddf252ad1be2c89b69c2b068fc378daa952ba7f163c4a11628f55a4df523b3ef84604051610caa91906116cb565b60405180910390a350505050565b610cc06105bf565b610cff576040517f08c379a0000000000000000000000000000000000000000000000000000000008152600401610cf69061154b565b60405180910390fd5b6000600560006101000a81548160ff0219169083151502179055507f5db9ee0a495bf2e6ff9c91a7834c1ba4fdd244a5e8aa4e537bd38aeae4b073aa610d43610866565b604051610d5091906114d3565b60405180910390a1565b600073ffffffffffffffffffffffffffffffffffffffff168273ffffffffffffffffffffffffffffffffffffffff161415610dca576040517f08c379a0000000000000000000000000000000000000000000000000000000008152600401610dc19061168b565b60405180910390fd5b610dd660008383611125565b8060026000828254610de8919061171d565b92505081905550806000808473ffffffffffffffffffffffffffffffffffffffff1673ffffffffffffffffffffffffffffffffffffffff1681526020019081526020016000206000828254610e3d919061171d565b925050819055508173ffffffffffffffffffffffffffffffffffffffff16600073ffffffffffffffffffffffffffffffffffffffff167fddf252ad1be2c89b69c2b068fc378daa952ba7f163c4a11628f55a4df523b3ef83604051610ea291906116cb565b60405180910390a35050565b610eb66105bf565b15610ef6576040517f08c379a0000000000000000000000000000000000000000000000000000000008152600401610eed906115cb565b60405180910390fd5b6001600560006101000a81548160ff0219169083151502179055507f62e78cea01bee320cd4e420270b5ea74000d11b0c9f74754ebdbfc544b05a258610f3a610866565b604051610f4791906114d3565b60405180910390a1565b600073ffffffffffffffffffffffffffffffffffffffff168273ffffffffffffffffffffffffffffffffffffffff161415610fc1576040517f08c379a0000000000000000000000000000000000000000000000000000000008152600401610fb89061160b565b60405180910390fd5b610fcd82600083611125565b60008060008473ffffffffffffffffffffffffffffffffffffffff1673ffffffffffffffffffffffffffffffffffffffff16815260200190815260200160002054905081811015611053576040517f08c379a000000000000000000000000000000000000000000000000000000000815260040161104a9061156b565b60405180910390fd5b818161105f9190611773565b6000808573ffffffffffffffffffffffffffffffffffffffff1673ffffffffffffffffffffffffffffffffffffffff1681526020019081526020016000208190555081600260008282546110b39190611773565b92505081905550600073ffffffffffffffffffffffffffffffffffffffff168373ffffffffffffffffffffffffffffffffffffffff167fddf252ad1be2c89b69c2b068fc378daa952ba7f163c4a11628f55a4df523b3ef8460405161111891906116cb565b60405180910390a3505050565b611130838383610861565b6111386105bf565b15611178576040517f08c379a000000000000000000000000000000000000000000000000000000000815260040161116f906116ab565b60405180910390fd5b505050565b60008135905061118c81611c61565b92915050565b6000813590506111a181611c78565b92915050565b6000602082840312156111b957600080fd5b60006111c78482850161117d565b91505092915050565b600080604083850312156111e357600080fd5b60006111f18582860161117d565b92505060206112028582860161117d565b9150509250929050565b60008060006060848603121561122157600080fd5b600061122f8682870161117d565b93505060206112408682870161117d565b925050604061125186828701611192565b9150509250925092565b6000806040838503121561126e57600080fd5b600061127c8582860161117d565b925050602061128d85828601611192565b9150509250929050565b6112a0816117a7565b82525050565b6112af816117b9565b82525050565b60006112c082611701565b6112ca818561170c565b93506112da8185602086016117fc565b6112e3816118bf565b840191505092915050565b60006112fb60238361170c565b9150611306826118d0565b604082019050919050565b600061131e60148361170c565b91506113298261191f565b602082019050919050565b600061134160228361170c565b915061134c82611948565b604082019050919050565b600061136460228361170c565b915061136f82611997565b604082019050919050565b600061138760268361170c565b9150611392826119e6565b604082019050919050565b60006113aa60108361170c565b91506113b582611a35565b602082019050919050565b60006113cd60288361170c565b91506113d882611a5e565b604082019050919050565b60006113f060218361170c565b91506113fb82611aad565b604082019050919050565b600061141360258361170c565b915061141e82611afc565b604082019050919050565b600061143660248361170c565b915061144182611b4b565b604082019050919050565b600061145960258361170c565b915061146482611b9a565b604082019050919050565b600061147c601f8361170c565b915061148782611be9565b602082019050919050565b600061149f602a8361170c565b91506114aa82611c12565b604082019050919050565b6114be816117e5565b82525050565b6114cd816117ef565b82525050565b60006020820190506114e86000830184611297565b92915050565b600060208201905061150360008301846112a6565b92915050565b6000602082019050818103600083015261152381846112b5565b905092915050565b60006020820190508181036000830152611544816112ee565b9050919050565b6000602082019050818103600083015261156481611311565b9050919050565b6000602082019050818103600083015261158481611334565b9050919050565b600060208201905081810360008301526115a481611357565b9050919050565b600060208201905081810360008301526115c48161137a565b9050919050565b600060208201905081810360008301526115e48161139d565b9050919050565b60006020820190508181036000830152611604816113c0565b9050919050565b60006020820190508181036000830152611624816113e3565b9050919050565b6000602082019050818103600083015261164481611406565b9050919050565b6000602082019050818103600083015261166481611429565b9050919050565b600060208201905081810360008301526116848161144c565b9050919050565b600060208201905081810360008301526116a48161146f565b9050919050565b600060208201905081810360008301526116c481611492565b9050919050565b60006020820190506116e060008301846114b5565b92915050565b60006020820190506116fb60008301846114c4565b92915050565b600081519050919050565b600082825260208201905092915050565b6000611728826117e5565b9150611733836117e5565b9250827fffffffffffffffffffffffffffffffffffffffffffffffffffffffffffffffff0382111561176857611767611861565b5b828201905092915050565b600061177e826117e5565b9150611789836117e5565b92508282101561179c5761179b611861565b5b828203905092915050565b60006117b2826117c5565b9050919050565b60008115159050919050565b600073ffffffffffffffffffffffffffffffffffffffff82169050919050565b6000819050919050565b600060ff82169050919050565b60005b8381101561181a5780820151818401526020810190506117ff565b83811115611829576000848401525b50505050565b6000600282049050600182168061184757607f821691505b6020821081141561185b5761185a611890565b5b50919050565b7f4e487b7100000000000000000000000000000000000000000000000000000000600052601160045260246000fd5b7f4e487b7100000000000000000000000000000000000000000000000000000000600052602260045260246000fd5b6000601f19601f8301169050919050565b7f45524332303a207472616e7366657220746f20746865207a65726f206164647260008201527f6573730000000000000000000000000000000000000000000000000000000000602082015250565b7f5061757361626c653a206e6f7420706175736564000000000000000000000000600082015250565b7f45524332303a206275726e20616d6f756e7420657863656564732062616c616e60008201527f6365000000000000000000000000000000000000000000000000000000000000602082015250565b7f45524332303a20617070726f766520746f20746865207a65726f20616464726560008201527f7373000000000000000000000000000000000000000000000000000000000000602082015250565b7f45524332303a207472616e7366657220616d6f756e742065786365656473206260008201527f616c616e63650000000000000000000000000000000000000000000000000000602082015250565b7f5061757361626c653a2070617573656400000000000000000000000000000000600082015250565b7f45524332303a207472616e7366657220616d6f756e742065786365656473206160008201527f6c6c6f77616e6365000000000000000000000000000000000000000000000000602082015250565b7f45524332303a206275726e2066726f6d20746865207a65726f2061646472657360008201527f7300000000000000000000000000000000000000000000000000000000000000602082015250565b7f45524332303a207472616e736665722066726f6d20746865207a65726f20616460008201527f6472657373000000000000000000000000000000000000000000000000000000602082015250565b7f45524332303a20617070726f76652066726f6d20746865207a65726f2061646460008201527f7265737300000000000000000000000000000000000000000000000000000000602082015250565b7f45524332303a2064656372656173656420616c6c6f77616e63652062656c6f7760008201527f207a65726f000000000000000000000000000000000000000000000000000000602082015250565b7f45524332303a206d696e7420746f20746865207a65726f206164647265737300600082015250565b7f45524332305061757361626c653a20746f6b656e207472616e7366657220776860008201527f696c652070617573656400000000000000000000000000000000000000000000602082015250565b611c6a816117a7565b8114611c7557600080fd5b50565b611c81816117e5565b8114611c8c57600080fd5b5056fea26469706673582212207de17fc0b3aa667a45d3c64d4b11a3b0b15aac2137269fd7dfc52be64255a82264736f6c63430008030033",
  "immutableReferences": {},
  "source": "// SPDX-License-Identifier: MIT\n\npragma solidity ^0.8.0;\n\nimport \"../token/ERC20/extensions/ERC20Pausable.sol\";\n\n// mock class using ERC20Pausable\ncontract ERC20PausableMock is ERC20Pausable {\n    constructor (\n        string memory name,\n        string memory symbol,\n        address initialAccount,\n        uint256 initialBalance\n    ) ERC20(name, symbol) {\n        _mint(initialAccount, initialBalance);\n    }\n\n    function pause() external {\n        _pause();\n    }\n\n    function unpause() external {\n        _unpause();\n    }\n\n    function mint(address to, uint256 amount) public {\n        _mint(to, amount);\n    }\n\n    function burn(address from, uint256 amount) public {\n        _burn(from, amount);\n    }\n}\n",
  "sourcePath": "/Users/brendanmorrison/Code/Nftrees/contracts/OpenZepplin/mocks/ERC20PausableMock.sol",
  "compiler": {
    "name": "solc",
    "version": "0.8.3+commit.8d00100c.Emscripten.clang"
  },
  "schemaVersion": "3.3.4",
  "updatedAt": "2021-05-19T17:43:06.414Z",
  "devdoc": {
    "kind": "dev",
    "methods": {
      "allowance(address,address)": {
        "details": "See {IERC20-allowance}."
      },
      "approve(address,uint256)": {
        "details": "See {IERC20-approve}. Requirements: - `spender` cannot be the zero address."
      },
      "balanceOf(address)": {
        "details": "See {IERC20-balanceOf}."
      },
      "decimals()": {
        "details": "Returns the number of decimals used to get its user representation. For example, if `decimals` equals `2`, a balance of `505` tokens should be displayed to a user as `5,05` (`505 / 10 ** 2`). Tokens usually opt for a value of 18, imitating the relationship between Ether and Wei. This is the value {ERC20} uses, unless this function is overridden; NOTE: This information is only used for _display_ purposes: it in no way affects any of the arithmetic of the contract, including {IERC20-balanceOf} and {IERC20-transfer}."
      },
      "decreaseAllowance(address,uint256)": {
        "details": "Atomically decreases the allowance granted to `spender` by the caller. This is an alternative to {approve} that can be used as a mitigation for problems described in {IERC20-approve}. Emits an {Approval} event indicating the updated allowance. Requirements: - `spender` cannot be the zero address. - `spender` must have allowance for the caller of at least `subtractedValue`."
      },
      "increaseAllowance(address,uint256)": {
        "details": "Atomically increases the allowance granted to `spender` by the caller. This is an alternative to {approve} that can be used as a mitigation for problems described in {IERC20-approve}. Emits an {Approval} event indicating the updated allowance. Requirements: - `spender` cannot be the zero address."
      },
      "name()": {
        "details": "Returns the name of the token."
      },
      "paused()": {
        "details": "Returns true if the contract is paused, and false otherwise."
      },
      "symbol()": {
        "details": "Returns the symbol of the token, usually a shorter version of the name."
      },
      "totalSupply()": {
        "details": "See {IERC20-totalSupply}."
      },
      "transfer(address,uint256)": {
        "details": "See {IERC20-transfer}. Requirements: - `recipient` cannot be the zero address. - the caller must have a balance of at least `amount`."
      },
      "transferFrom(address,address,uint256)": {
        "details": "See {IERC20-transferFrom}. Emits an {Approval} event indicating the updated allowance. This is not required by the EIP. See the note at the beginning of {ERC20}. Requirements: - `sender` and `recipient` cannot be the zero address. - `sender` must have a balance of at least `amount`. - the caller must have allowance for ``sender``'s tokens of at least `amount`."
      }
    },
    "version": 1
  },
  "userdoc": {
    "kind": "user",
    "methods": {},
    "version": 1
  }
}