{
  "contractName": "ERC20VotesMock",
  "abi": [
    {
      "inputs": [
        {
          "internalType": "string",
          "name": "name",
          "type": "string"
        },
        {
          "internalType": "string",
          "name": "symbol",
          "type": "string"
        },
        {
          "internalType": "address",
          "name": "initialAccount",
          "type": "address"
        },
        {
          "internalType": "uint256",
          "name": "initialBalance",
          "type": "uint256"
        }
      ],
      "stateMutability": "payable",
      "type": "constructor"
    },
    {
      "anonymous": false,
      "inputs": [
        {
          "indexed": true,
          "internalType": "address",
          "name": "owner",
          "type": "address"
        },
        {
          "indexed": true,
          "internalType": "address",
          "name": "spender",
          "type": "address"
        },
        {
          "indexed": false,
          "internalType": "uint256",
          "name": "value",
          "type": "uint256"
        }
      ],
      "name": "Approval",
      "type": "event"
    },
    {
      "anonymous": false,
      "inputs": [
        {
          "indexed": true,
          "internalType": "address",
          "name": "delegator",
          "type": "address"
        },
        {
          "indexed": true,
          "internalType": "address",
          "name": "fromDelegate",
          "type": "address"
        },
        {
          "indexed": true,
          "internalType": "address",
          "name": "toDelegate",
          "type": "address"
        }
      ],
      "name": "DelegateChanged",
      "type": "event"
    },
    {
      "anonymous": false,
      "inputs": [
        {
          "indexed": true,
          "internalType": "address",
          "name": "delegate",
          "type": "address"
        },
        {
          "indexed": false,
          "internalType": "uint256",
          "name": "previousBalance",
          "type": "uint256"
        },
        {
          "indexed": false,
          "internalType": "uint256",
          "name": "newBalance",
          "type": "uint256"
        }
      ],
      "name": "DelegateVotesChanged",
      "type": "event"
    },
    {
      "anonymous": false,
      "inputs": [
        {
          "indexed": true,
          "internalType": "address",
          "name": "from",
          "type": "address"
        },
        {
          "indexed": true,
          "internalType": "address",
          "name": "to",
          "type": "address"
        },
        {
          "indexed": false,
          "internalType": "uint256",
          "name": "value",
          "type": "uint256"
        }
      ],
      "name": "Transfer",
      "type": "event"
    },
    {
      "inputs": [],
      "name": "DOMAIN_SEPARATOR",
      "outputs": [
        {
          "internalType": "bytes32",
          "name": "",
          "type": "bytes32"
        }
      ],
      "stateMutability": "view",
      "type": "function"
    },
    {
      "inputs": [
        {
          "internalType": "address",
          "name": "owner",
          "type": "address"
        },
        {
          "internalType": "address",
          "name": "spender",
          "type": "address"
        }
      ],
      "name": "allowance",
      "outputs": [
        {
          "internalType": "uint256",
          "name": "",
          "type": "uint256"
        }
      ],
      "stateMutability": "view",
      "type": "function"
    },
    {
      "inputs": [
        {
          "internalType": "address",
          "name": "spender",
          "type": "address"
        },
        {
          "internalType": "uint256",
          "name": "amount",
          "type": "uint256"
        }
      ],
      "name": "approve",
      "outputs": [
        {
          "internalType": "bool",
          "name": "",
          "type": "bool"
        }
      ],
      "stateMutability": "nonpayable",
      "type": "function"
    },
    {
      "inputs": [
        {
          "internalType": "address",
          "name": "account",
          "type": "address"
        }
      ],
      "name": "balanceOf",
      "outputs": [
        {
          "internalType": "uint256",
          "name": "",
          "type": "uint256"
        }
      ],
      "stateMutability": "view",
      "type": "function"
    },
    {
      "inputs": [
        {
          "internalType": "address",
          "name": "account",
          "type": "address"
        },
        {
          "internalType": "uint32",
          "name": "pos",
          "type": "uint32"
        }
      ],
      "name": "checkpoints",
      "outputs": [
        {
          "components": [
            {
              "internalType": "uint32",
              "name": "fromBlock",
              "type": "uint32"
            },
            {
              "internalType": "uint224",
              "name": "votes",
              "type": "uint224"
            }
          ],
          "internalType": "struct IERC20Votes.Checkpoint",
          "name": "",
          "type": "tuple"
        }
      ],
      "stateMutability": "view",
      "type": "function"
    },
    {
      "inputs": [],
      "name": "decimals",
      "outputs": [
        {
          "internalType": "uint8",
          "name": "",
          "type": "uint8"
        }
      ],
      "stateMutability": "view",
      "type": "function"
    },
    {
      "inputs": [
        {
          "internalType": "address",
          "name": "spender",
          "type": "address"
        },
        {
          "internalType": "uint256",
          "name": "subtractedValue",
          "type": "uint256"
        }
      ],
      "name": "decreaseAllowance",
      "outputs": [
        {
          "internalType": "bool",
          "name": "",
          "type": "bool"
        }
      ],
      "stateMutability": "nonpayable",
      "type": "function"
    },
    {
      "inputs": [
        {
          "internalType": "address",
          "name": "delegatee",
          "type": "address"
        }
      ],
      "name": "delegate",
      "outputs": [],
      "stateMutability": "nonpayable",
      "type": "function"
    },
    {
      "inputs": [
        {
          "internalType": "address",
          "name": "delegatee",
          "type": "address"
        },
        {
          "internalType": "uint256",
          "name": "nonce",
          "type": "uint256"
        },
        {
          "internalType": "uint256",
          "name": "expiry",
          "type": "uint256"
        },
        {
          "internalType": "uint8",
          "name": "v",
          "type": "uint8"
        },
        {
          "internalType": "bytes32",
          "name": "r",
          "type": "bytes32"
        },
        {
          "internalType": "bytes32",
          "name": "s",
          "type": "bytes32"
        }
      ],
      "name": "delegateBySig",
      "outputs": [],
      "stateMutability": "nonpayable",
      "type": "function"
    },
    {
      "inputs": [
        {
          "internalType": "address",
          "name": "account",
          "type": "address"
        }
      ],
      "name": "delegates",
      "outputs": [
        {
          "internalType": "address",
          "name": "",
          "type": "address"
        }
      ],
      "stateMutability": "view",
      "type": "function"
    },
    {
      "inputs": [
        {
          "internalType": "address",
          "name": "account",
          "type": "address"
        }
      ],
      "name": "getCurrentVotes",
      "outputs": [
        {
          "internalType": "uint256",
          "name": "",
          "type": "uint256"
        }
      ],
      "stateMutability": "view",
      "type": "function"
    },
    {
      "inputs": [
        {
          "internalType": "address",
          "name": "account",
          "type": "address"
        },
        {
          "internalType": "uint256",
          "name": "blockNumber",
          "type": "uint256"
        }
      ],
      "name": "getPriorVotes",
      "outputs": [
        {
          "internalType": "uint256",
          "name": "",
          "type": "uint256"
        }
      ],
      "stateMutability": "view",
      "type": "function"
    },
    {
      "inputs": [
        {
          "internalType": "address",
          "name": "spender",
          "type": "address"
        },
        {
          "internalType": "uint256",
          "name": "addedValue",
          "type": "uint256"
        }
      ],
      "name": "increaseAllowance",
      "outputs": [
        {
          "internalType": "bool",
          "name": "",
          "type": "bool"
        }
      ],
      "stateMutability": "nonpayable",
      "type": "function"
    },
    {
      "inputs": [],
      "name": "name",
      "outputs": [
        {
          "internalType": "string",
          "name": "",
          "type": "string"
        }
      ],
      "stateMutability": "view",
      "type": "function"
    },
    {
      "inputs": [
        {
          "internalType": "address",
          "name": "owner",
          "type": "address"
        }
      ],
      "name": "nonces",
      "outputs": [
        {
          "internalType": "uint256",
          "name": "",
          "type": "uint256"
        }
      ],
      "stateMutability": "view",
      "type": "function"
    },
    {
      "inputs": [
        {
          "internalType": "address",
          "name": "account",
          "type": "address"
        }
      ],
      "name": "numCheckpoints",
      "outputs": [
        {
          "internalType": "uint32",
          "name": "",
          "type": "uint32"
        }
      ],
      "stateMutability": "view",
      "type": "function"
    },
    {
      "inputs": [
        {
          "internalType": "address",
          "name": "owner",
          "type": "address"
        },
        {
          "internalType": "address",
          "name": "spender",
          "type": "address"
        },
        {
          "internalType": "uint256",
          "name": "value",
          "type": "uint256"
        },
        {
          "internalType": "uint256",
          "name": "deadline",
          "type": "uint256"
        },
        {
          "internalType": "uint8",
          "name": "v",
          "type": "uint8"
        },
        {
          "internalType": "bytes32",
          "name": "r",
          "type": "bytes32"
        },
        {
          "internalType": "bytes32",
          "name": "s",
          "type": "bytes32"
        }
      ],
      "name": "permit",
      "outputs": [],
      "stateMutability": "nonpayable",
      "type": "function"
    },
    {
      "inputs": [],
      "name": "symbol",
      "outputs": [
        {
          "internalType": "string",
          "name": "",
          "type": "string"
        }
      ],
      "stateMutability": "view",
      "type": "function"
    },
    {
      "inputs": [],
      "name": "totalSupply",
      "outputs": [
        {
          "internalType": "uint256",
          "name": "",
          "type": "uint256"
        }
      ],
      "stateMutability": "view",
      "type": "function"
    },
    {
      "inputs": [
        {
          "internalType": "address",
          "name": "recipient",
          "type": "address"
        },
        {
          "internalType": "uint256",
          "name": "amount",
          "type": "uint256"
        }
      ],
      "name": "transfer",
      "outputs": [
        {
          "internalType": "bool",
          "name": "",
          "type": "bool"
        }
      ],
      "stateMutability": "nonpayable",
      "type": "function"
    },
    {
      "inputs": [
        {
          "internalType": "address",
          "name": "sender",
          "type": "address"
        },
        {
          "internalType": "address",
          "name": "recipient",
          "type": "address"
        },
        {
          "internalType": "uint256",
          "name": "amount",
          "type": "uint256"
        }
      ],
      "name": "transferFrom",
      "outputs": [
        {
          "internalType": "bool",
          "name": "",
          "type": "bool"
        }
      ],
      "stateMutability": "nonpayable",
      "type": "function"
    },
    {
      "inputs": [],
      "name": "getChainId",
      "outputs": [
        {
          "internalType": "uint256",
          "name": "",
          "type": "uint256"
        }
      ],
      "stateMutability": "view",
      "type": "function"
    }
  ],
  "bytecode": "0x6101406040527f6e71edae12b1b97f4d1f60370fef10105fa2faae0126114a169c64845d6126c96101209081525060405162004ade38038062004ade833981810160405281019062000052919062000d13565b83806040518060400160405280600181526020017f310000000000000000000000000000000000000000000000000000000000000081525086868160039080519060200190620000a492919062000bc3565b508060049080519060200190620000bd92919062000bc3565b50505060008280519060200120905060008280519060200120905060007f8b73c3c69bb8fe3d512ecc4cf759cc79239f7b179b0ffacaa9a75d522b39400f90508260c081815250508160e081815250504660a08181525050620001288184846200015a60201b60201c565b608081815250508061010081815250505050505050506200015082826200019660201b60201c565b5050505062001389565b600083838346306040516020016200017795949392919062000e80565b6040516020818303038152906040528051906020012090509392505050565b620001ad82826200022460201b6200116c1760201c565b7bffffffffffffffffffffffffffffffffffffffffffffffffffffffff8016620001dc6200038960201b60201c565b111562000220576040517f08c379a0000000000000000000000000000000000000000000000000000000008152600401620002179062000f21565b60405180910390fd5b5050565b600073ffffffffffffffffffffffffffffffffffffffff168273ffffffffffffffffffffffffffffffffffffffff16141562000297576040517f08c379a00000000000000000000000000000000000000000000000000000000081526004016200028e9062000f43565b60405180910390fd5b620002ab600083836200039360201b60201c565b8060026000828254620002bf91906200101f565b92505081905550806000808473ffffffffffffffffffffffffffffffffffffffff1673ffffffffffffffffffffffffffffffffffffffff16815260200190815260200160002060008282546200031691906200101f565b925050819055508173ffffffffffffffffffffffffffffffffffffffff16600073ffffffffffffffffffffffffffffffffffffffff167fddf252ad1be2c89b69c2b068fc378daa952ba7f163c4a11628f55a4df523b3ef836040516200037d919062000f65565b60405180910390a35050565b6000600254905090565b620003c6620003a884620003cb60201b60201c565b620003b984620003cb60201b60201c565b836200043460201b60201c565b505050565b6000600660008373ffffffffffffffffffffffffffffffffffffffff1673ffffffffffffffffffffffffffffffffffffffff16815260200190815260200160002060009054906101000a900473ffffffffffffffffffffffffffffffffffffffff169050919050565b8173ffffffffffffffffffffffffffffffffffffffff168373ffffffffffffffffffffffffffffffffffffffff1614158015620004715750600081115b15620007a257600073ffffffffffffffffffffffffffffffffffffffff168373ffffffffffffffffffffffffffffffffffffffff16146200060c576000600760008573ffffffffffffffffffffffffffffffffffffffff1673ffffffffffffffffffffffffffffffffffffffff1681526020019081526020016000208054905090506000808214620005bf57600760008673ffffffffffffffffffffffffffffffffffffffff1673ffffffffffffffffffffffffffffffffffffffff1681526020019081526020016000206001836200054b91906200107c565b8154811062000583577f4e487b7100000000000000000000000000000000000000000000000000000000600052603260045260246000fd5b9060005260206000200160000160049054906101000a90047bffffffffffffffffffffffffffffffffffffffffffffffffffffffff16620005c2565b60005b7bffffffffffffffffffffffffffffffffffffffffffffffffffffffff16905060008382620005f291906200107c565b90506200060886848484620007a760201b60201c565b5050505b600073ffffffffffffffffffffffffffffffffffffffff168273ffffffffffffffffffffffffffffffffffffffff1614620007a1576000600760008473ffffffffffffffffffffffffffffffffffffffff1673ffffffffffffffffffffffffffffffffffffffff16815260200190815260200160002080549050905060008082146200075457600760008573ffffffffffffffffffffffffffffffffffffffff1673ffffffffffffffffffffffffffffffffffffffff168152602001908152602001600020600183620006e091906200107c565b8154811062000718577f4e487b7100000000000000000000000000000000000000000000000000000000600052603260045260246000fd5b9060005260206000200160000160049054906101000a90047bffffffffffffffffffffffffffffffffffffffffffffffffffffffff1662000757565b60005b7bffffffffffffffffffffffffffffffffffffffffffffffffffffffff169050600083826200078791906200101f565b90506200079d85848484620007a760201b60201c565b5050505b5b505050565b60008311801562000860575043600760008673ffffffffffffffffffffffffffffffffffffffff1673ffffffffffffffffffffffffffffffffffffffff1681526020019081526020016000206001856200080291906200107c565b815481106200083a577f4e487b7100000000000000000000000000000000000000000000000000000000600052603260045260246000fd5b9060005260206000200160000160009054906101000a900463ffffffff1663ffffffff16145b1562000963576200087c8162000b0360201b620012c01760201c565b600760008673ffffffffffffffffffffffffffffffffffffffff1673ffffffffffffffffffffffffffffffffffffffff168152602001908152602001600020600185620008ca91906200107c565b8154811062000902577f4e487b7100000000000000000000000000000000000000000000000000000000600052603260045260246000fd5b9060005260206000200160000160046101000a8154817bffffffffffffffffffffffffffffffffffffffffffffffffffffffff02191690837bffffffffffffffffffffffffffffffffffffffffffffffffffffffff16021790555062000aab565b600760008573ffffffffffffffffffffffffffffffffffffffff1673ffffffffffffffffffffffffffffffffffffffff1681526020019081526020016000206040518060400160405280620009c34362000b6f60201b620013291760201c565b63ffffffff168152602001620009e48462000b0360201b620012c01760201c565b7bffffffffffffffffffffffffffffffffffffffffffffffffffffffff168152509080600181540180825580915050600190039060005260206000200160009091909190915060008201518160000160006101000a81548163ffffffff021916908363ffffffff16021790555060208201518160000160046101000a8154817bffffffffffffffffffffffffffffffffffffffffffffffffffffffff02191690837bffffffffffffffffffffffffffffffffffffffffffffffffffffffff16021790555050505b8373ffffffffffffffffffffffffffffffffffffffff167fdec2bacdd2f05b59de34da9b523dff8be42e5e38e818c82fdb0bae774387a724838360405162000af592919062000f82565b60405180910390a250505050565b60007c0100000000000000000000000000000000000000000000000000000000821062000b67576040517f08c379a000000000000000000000000000000000000000000000000000000000815260040162000b5e9062000edd565b60405180910390fd5b819050919050565b6000640100000000821062000bbb576040517f08c379a000000000000000000000000000000000000000000000000000000000815260040162000bb29062000eff565b60405180910390fd5b819050919050565b82805462000bd19062001135565b90600052602060002090601f01602090048101928262000bf5576000855562000c41565b82601f1062000c1057805160ff191683800117855562000c41565b8280016001018555821562000c41579182015b8281111562000c4057825182559160200191906001019062000c23565b5b50905062000c50919062000c54565b5090565b5b8082111562000c6f57600081600090555060010162000c55565b5090565b600062000c8a62000c848462000fd8565b62000faf565b90508281526020810184848401111562000ca357600080fd5b62000cb0848285620010ff565b509392505050565b60008151905062000cc98162001355565b92915050565b600082601f83011262000ce157600080fd5b815162000cf384826020860162000c73565b91505092915050565b60008151905062000d0d816200136f565b92915050565b6000806000806080858703121562000d2a57600080fd5b600085015167ffffffffffffffff81111562000d4557600080fd5b62000d538782880162000ccf565b945050602085015167ffffffffffffffff81111562000d7157600080fd5b62000d7f8782880162000ccf565b935050604062000d928782880162000cb8565b925050606062000da58782880162000cfc565b91505092959194509250565b62000dbc81620010b7565b82525050565b62000dcd81620010cb565b82525050565b600062000de26027836200100e565b915062000def826200123f565b604082019050919050565b600062000e096026836200100e565b915062000e16826200128e565b604082019050919050565b600062000e306027836200100e565b915062000e3d82620012dd565b604082019050919050565b600062000e57601f836200100e565b915062000e64826200132c565b602082019050919050565b62000e7a81620010f5565b82525050565b600060a08201905062000e97600083018862000dc2565b62000ea6602083018762000dc2565b62000eb5604083018662000dc2565b62000ec4606083018562000e6f565b62000ed3608083018462000db1565b9695505050505050565b6000602082019050818103600083015262000ef88162000dd3565b9050919050565b6000602082019050818103600083015262000f1a8162000dfa565b9050919050565b6000602082019050818103600083015262000f3c8162000e21565b9050919050565b6000602082019050818103600083015262000f5e8162000e48565b9050919050565b600060208201905062000f7c600083018462000e6f565b92915050565b600060408201905062000f99600083018562000e6f565b62000fa8602083018462000e6f565b9392505050565b600062000fbb62000fce565b905062000fc982826200116b565b919050565b6000604051905090565b600067ffffffffffffffff82111562000ff65762000ff5620011ff565b5b62001001826200122e565b9050602081019050919050565b600082825260208201905092915050565b60006200102c82620010f5565b91506200103983620010f5565b9250827fffffffffffffffffffffffffffffffffffffffffffffffffffffffffffffffff03821115620010715762001070620011a1565b5b828201905092915050565b60006200108982620010f5565b91506200109683620010f5565b925082821015620010ac57620010ab620011a1565b5b828203905092915050565b6000620010c482620010d5565b9050919050565b6000819050919050565b600073ffffffffffffffffffffffffffffffffffffffff82169050919050565b6000819050919050565b60005b838110156200111f57808201518184015260208101905062001102565b838111156200112f576000848401525b50505050565b600060028204905060018216806200114e57607f821691505b60208210811415620011655762001164620011d0565b5b50919050565b62001176826200122e565b810181811067ffffffffffffffff82111715620011985762001197620011ff565b5b80604052505050565b7f4e487b7100000000000000000000000000000000000000000000000000000000600052601160045260246000fd5b7f4e487b7100000000000000000000000000000000000000000000000000000000600052602260045260246000fd5b7f4e487b7100000000000000000000000000000000000000000000000000000000600052604160045260246000fd5b6000601f19601f8301169050919050565b7f53616665436173743a2076616c756520646f65736e27742066697420696e203260008201527f3234206269747300000000000000000000000000000000000000000000000000602082015250565b7f53616665436173743a2076616c756520646f65736e27742066697420696e203360008201527f3220626974730000000000000000000000000000000000000000000000000000602082015250565b7f4552433230566f7465733a20746f74616c20737570706c79206578636565647360008201527f20322a2a32323400000000000000000000000000000000000000000000000000602082015250565b7f45524332303a206d696e7420746f20746865207a65726f206164647265737300600082015250565b6200136081620010b7565b81146200136c57600080fd5b50565b6200137a81620010f5565b81146200138657600080fd5b50565b60805160a05160c05160e0516101005161012051613705620013d96000396000610eb4015260006118230152600061186501526000611844015260006117d0015260006117f801526137056000f3fe608060405234801561001057600080fd5b50600436106101425760003560e01c806370a08231116100b8578063a9059cbb1161007c578063a9059cbb146103c7578063b4b5ea57146103f7578063c3cda52014610427578063d505accf14610443578063dd62ed3e1461045f578063f1127ed81461048f57610142565b806370a08231146102e9578063782d6fe1146103195780637ecebe001461034957806395d89b4114610379578063a457c2d71461039757610142565b80633408e4701161010a5780633408e470146102015780633644e5151461021f578063395093511461023d578063587cde1e1461026d5780635c19a95c1461029d5780636fcfff45146102b957610142565b806306fdde0314610147578063095ea7b31461016557806318160ddd1461019557806323b872dd146101b3578063313ce567146101e3575b600080fd5b61014f6104bf565b60405161015c9190612b8f565b60405180910390f35b61017f600480360381019061017a9190612538565b610551565b60405161018c9190612a1b565b60405180910390f35b61019d61056f565b6040516101aa9190612e0c565b60405180910390f35b6101cd60048036038101906101c8919061244b565b610579565b6040516101da9190612a1b565b60405180910390f35b6101eb61067a565b6040516101f89190612e6b565b60405180910390f35b610209610683565b6040516102169190612e0c565b60405180910390f35b61022761068b565b6040516102349190612a36565b60405180910390f35b61025760048036038101906102529190612538565b61069a565b6040516102649190612a1b565b60405180910390f35b610287600480360381019061028291906123e6565b610746565b6040516102949190612a00565b60405180910390f35b6102b760048036038101906102b291906123e6565b6107af565b005b6102d360048036038101906102ce91906123e6565b6107c3565b6040516102e09190612e50565b60405180910390f35b61030360048036038101906102fe91906123e6565b610817565b6040516103109190612e0c565b60405180910390f35b610333600480360381019061032e9190612538565b61085f565b6040516103409190612e0c565b60405180910390f35b610363600480360381019061035e91906123e6565b610a3e565b6040516103709190612e0c565b60405180910390f35b610381610a8e565b60405161038e9190612b8f565b60405180910390f35b6103b160048036038101906103ac9190612538565b610b20565b6040516103be9190612a1b565b60405180910390f35b6103e160048036038101906103dc9190612538565b610c14565b6040516103ee9190612a1b565b60405180910390f35b610411600480360381019061040c91906123e6565b610c32565b60405161041e9190612e0c565b60405180910390f35b610441600480360381019061043c9190612574565b610d69565b005b61045d6004803603810190610458919061249a565b610e6d565b005b6104796004803603810190610474919061240f565b610faf565b6040516104869190612e0c565b60405180910390f35b6104a960048036038101906104a491906125fd565b611036565b6040516104b69190612df1565b60405180910390f35b6060600380546104ce90613032565b80601f01602080910402602001604051908101604052809291908181526020018280546104fa90613032565b80156105475780601f1061051c57610100808354040283529160200191610547565b820191906000526020600020905b81548152906001019060200180831161052a57829003601f168201915b5050505050905090565b600061056561055e61137a565b8484611382565b6001905092915050565b6000600254905090565b600061058684848461154d565b6000600160008673ffffffffffffffffffffffffffffffffffffffff1673ffffffffffffffffffffffffffffffffffffffff16815260200190815260200160002060006105d161137a565b73ffffffffffffffffffffffffffffffffffffffff1673ffffffffffffffffffffffffffffffffffffffff16815260200190815260200160002054905082811015610651576040517f08c379a000000000000000000000000000000000000000000000000000000000815260040161064890612d11565b60405180910390fd5b61066e8561065d61137a565b85846106699190612f34565b611382565b60019150509392505050565b60006012905090565b600046905090565b60006106956117cc565b905090565b600061073c6106a761137a565b8484600160006106b561137a565b73ffffffffffffffffffffffffffffffffffffffff1673ffffffffffffffffffffffffffffffffffffffff16815260200190815260200160002060008873ffffffffffffffffffffffffffffffffffffffff1673ffffffffffffffffffffffffffffffffffffffff168152602001908152602001600020546107379190612ead565b611382565b6001905092915050565b6000600660008373ffffffffffffffffffffffffffffffffffffffff1673ffffffffffffffffffffffffffffffffffffffff16815260200190815260200160002060009054906101000a900473ffffffffffffffffffffffffffffffffffffffff169050919050565b6107c06107ba61137a565b8261188f565b50565b6000610810600760008473ffffffffffffffffffffffffffffffffffffffff1673ffffffffffffffffffffffffffffffffffffffff16815260200190815260200160002080549050611329565b9050919050565b60008060008373ffffffffffffffffffffffffffffffffffffffff1673ffffffffffffffffffffffffffffffffffffffff168152602001908152602001600020549050919050565b60004382106108a3576040517f08c379a000000000000000000000000000000000000000000000000000000000815260040161089a90612c91565b60405180910390fd5b6000600760008573ffffffffffffffffffffffffffffffffffffffff1673ffffffffffffffffffffffffffffffffffffffff168152602001908152602001600020905060008180549050905060005b8181101561098a57600061090682846119a9565b905085848281548110610942577f4e487b7100000000000000000000000000000000000000000000000000000000600052603260045260246000fd5b9060005260206000200160000160009054906101000a900463ffffffff1663ffffffff16111561097457809250610984565b6001816109819190612ead565b91505b506108f2565b60008214610a1257826001836109a09190612f34565b815481106109d7577f4e487b7100000000000000000000000000000000000000000000000000000000600052603260045260246000fd5b9060005260206000200160000160049054906101000a90047bffffffffffffffffffffffffffffffffffffffffffffffffffffffff16610a15565b60005b7bffffffffffffffffffffffffffffffffffffffffffffffffffffffff16935050505092915050565b6000610a87600560008473ffffffffffffffffffffffffffffffffffffffff1673ffffffffffffffffffffffffffffffffffffffff168152602001908152602001600020611a10565b9050919050565b606060048054610a9d90613032565b80601f0160208091040260200160405190810160405280929190818152602001828054610ac990613032565b8015610b165780601f10610aeb57610100808354040283529160200191610b16565b820191906000526020600020905b815481529060010190602001808311610af957829003601f168201915b5050505050905090565b60008060016000610b2f61137a565b73ffffffffffffffffffffffffffffffffffffffff1673ffffffffffffffffffffffffffffffffffffffff16815260200190815260200160002060008573ffffffffffffffffffffffffffffffffffffffff1673ffffffffffffffffffffffffffffffffffffffff16815260200190815260200160002054905082811015610bec576040517f08c379a0000000000000000000000000000000000000000000000000000000008152600401610be390612db1565b60405180910390fd5b610c09610bf761137a565b858584610c049190612f34565b611382565b600191505092915050565b6000610c28610c2161137a565b848461154d565b6001905092915050565b600080600760008473ffffffffffffffffffffffffffffffffffffffff1673ffffffffffffffffffffffffffffffffffffffff16815260200190815260200160002080549050905060008114610d4057600760008473ffffffffffffffffffffffffffffffffffffffff1673ffffffffffffffffffffffffffffffffffffffff168152602001908152602001600020600182610cce9190612f34565b81548110610d05577f4e487b7100000000000000000000000000000000000000000000000000000000600052603260045260246000fd5b9060005260206000200160000160049054906101000a90047bffffffffffffffffffffffffffffffffffffffffffffffffffffffff16610d43565b60005b7bffffffffffffffffffffffffffffffffffffffffffffffffffffffff16915050919050565b83421115610dac576040517f08c379a0000000000000000000000000000000000000000000000000000000008152600401610da390612c11565b60405180910390fd5b6000610e0e610e067fe48329057bfd03d55e49b547132e39cffd9c1820ad7b9d4c5307691425d15adf898989604051602001610deb9493929190612ab2565b60405160208183030381529060405280519060200120611a1e565b858585611a38565b9050610e1981611bc3565b8614610e5a576040517f08c379a0000000000000000000000000000000000000000000000000000000008152600401610e5190612cb1565b60405180910390fd5b610e64818861188f565b50505050505050565b83421115610eb0576040517f08c379a0000000000000000000000000000000000000000000000000000000008152600401610ea790612c31565b60405180910390fd5b60007f0000000000000000000000000000000000000000000000000000000000000000888888610edf8c611bc3565b89604051602001610ef596959493929190612a51565b6040516020818303038152906040528051906020012090506000610f1882611a1e565b90506000610f2882878787611a38565b90508973ffffffffffffffffffffffffffffffffffffffff168173ffffffffffffffffffffffffffffffffffffffff1614610f98576040517f08c379a0000000000000000000000000000000000000000000000000000000008152600401610f8f90612cf1565b60405180910390fd5b610fa38a8a8a611382565b50505050505050505050565b6000600160008473ffffffffffffffffffffffffffffffffffffffff1673ffffffffffffffffffffffffffffffffffffffff16815260200190815260200160002060008373ffffffffffffffffffffffffffffffffffffffff1673ffffffffffffffffffffffffffffffffffffffff16815260200190815260200160002054905092915050565b61103e61233f565b600760008473ffffffffffffffffffffffffffffffffffffffff1673ffffffffffffffffffffffffffffffffffffffff1681526020019081526020016000208263ffffffff16815481106110bb577f4e487b7100000000000000000000000000000000000000000000000000000000600052603260045260246000fd5b906000526020600020016040518060400160405290816000820160009054906101000a900463ffffffff1663ffffffff1663ffffffff1681526020016000820160049054906101000a90047bffffffffffffffffffffffffffffffffffffffffffffffffffffffff167bffffffffffffffffffffffffffffffffffffffffffffffffffffffff167bffffffffffffffffffffffffffffffffffffffffffffffffffffffff1681525050905092915050565b600073ffffffffffffffffffffffffffffffffffffffff168273ffffffffffffffffffffffffffffffffffffffff1614156111dc576040517f08c379a00000000000000000000000000000000000000000000000000000000081526004016111d390612dd1565b60405180910390fd5b6111e860008383611c21565b80600260008282546111fa9190612ead565b92505081905550806000808473ffffffffffffffffffffffffffffffffffffffff1673ffffffffffffffffffffffffffffffffffffffff168152602001908152602001600020600082825461124f9190612ead565b925050819055508173ffffffffffffffffffffffffffffffffffffffff16600073ffffffffffffffffffffffffffffffffffffffff167fddf252ad1be2c89b69c2b068fc378daa952ba7f163c4a11628f55a4df523b3ef836040516112b49190612e0c565b60405180910390a35050565b60007c01000000000000000000000000000000000000000000000000000000008210611321576040517f08c379a000000000000000000000000000000000000000000000000000000000815260040161131890612d31565b60405180910390fd5b819050919050565b60006401000000008210611372576040517f08c379a000000000000000000000000000000000000000000000000000000000815260040161136990612d71565b60405180910390fd5b819050919050565b600033905090565b600073ffffffffffffffffffffffffffffffffffffffff168373ffffffffffffffffffffffffffffffffffffffff1614156113f2576040517f08c379a00000000000000000000000000000000000000000000000000000000081526004016113e990612d91565b60405180910390fd5b600073ffffffffffffffffffffffffffffffffffffffff168273ffffffffffffffffffffffffffffffffffffffff161415611462576040517f08c379a000000000000000000000000000000000000000000000000000000000815260040161145990612bf1565b60405180910390fd5b80600160008573ffffffffffffffffffffffffffffffffffffffff1673ffffffffffffffffffffffffffffffffffffffff16815260200190815260200160002060008473ffffffffffffffffffffffffffffffffffffffff1673ffffffffffffffffffffffffffffffffffffffff168152602001908152602001600020819055508173ffffffffffffffffffffffffffffffffffffffff168373ffffffffffffffffffffffffffffffffffffffff167f8c5be1e5ebec7d5bd14f71427d1e84f3dd0314c0f7b2291e5b200ac8c7c3b925836040516115409190612e0c565b60405180910390a3505050565b600073ffffffffffffffffffffffffffffffffffffffff168373ffffffffffffffffffffffffffffffffffffffff1614156115bd576040517f08c379a00000000000000000000000000000000000000000000000000000000081526004016115b490612d51565b60405180910390fd5b600073ffffffffffffffffffffffffffffffffffffffff168273ffffffffffffffffffffffffffffffffffffffff16141561162d576040517f08c379a000000000000000000000000000000000000000000000000000000000815260040161162490612bd1565b60405180910390fd5b611638838383611c21565b60008060008573ffffffffffffffffffffffffffffffffffffffff1673ffffffffffffffffffffffffffffffffffffffff168152602001908152602001600020549050818110156116be576040517f08c379a00000000000000000000000000000000000000000000000000000000081526004016116b590612c51565b60405180910390fd5b81816116ca9190612f34565b6000808673ffffffffffffffffffffffffffffffffffffffff1673ffffffffffffffffffffffffffffffffffffffff16815260200190815260200160002081905550816000808573ffffffffffffffffffffffffffffffffffffffff1673ffffffffffffffffffffffffffffffffffffffff168152602001908152602001600020600082825461175a9190612ead565b925050819055508273ffffffffffffffffffffffffffffffffffffffff168473ffffffffffffffffffffffffffffffffffffffff167fddf252ad1be2c89b69c2b068fc378daa952ba7f163c4a11628f55a4df523b3ef846040516117be9190612e0c565b60405180910390a350505050565b60007f000000000000000000000000000000000000000000000000000000000000000046141561181e577f0000000000000000000000000000000000000000000000000000000000000000905061188c565b6118897f00000000000000000000000000000000000000000000000000000000000000007f00000000000000000000000000000000000000000000000000000000000000007f0000000000000000000000000000000000000000000000000000000000000000611c41565b90505b90565b600061189a83610746565b905060006118a784610817565b905082600660008673ffffffffffffffffffffffffffffffffffffffff1673ffffffffffffffffffffffffffffffffffffffff16815260200190815260200160002060006101000a81548173ffffffffffffffffffffffffffffffffffffffff021916908373ffffffffffffffffffffffffffffffffffffffff1602179055508273ffffffffffffffffffffffffffffffffffffffff168273ffffffffffffffffffffffffffffffffffffffff168573ffffffffffffffffffffffffffffffffffffffff167f3134e8a2e6d97e929a7e54011ea5485d7d196dd5f0ba4d4ef95803e8e3fc257f60405160405180910390a46119a3828483611c7b565b50505050565b6000600280836119b9919061306e565b6002856119c6919061306e565b6119d09190612ead565b6119da9190612f03565b6002836119e79190612f03565b6002856119f49190612f03565b6119fe9190612ead565b611a089190612ead565b905092915050565b600081600001549050919050565b6000611a31611a2b6117cc565b83611fcc565b9050919050565b60007f7fffffffffffffffffffffffffffffff5d576e7357a4501ddfe92f46681b20a08260001c1115611aa0576040517f08c379a0000000000000000000000000000000000000000000000000000000008152600401611a9790612c71565b60405180910390fd5b601b8460ff161480611ab55750601c8460ff16145b611af4576040517f08c379a0000000000000000000000000000000000000000000000000000000008152600401611aeb90612cd1565b60405180910390fd5b600060018686868660405160008152602001604052604051611b199493929190612b4a565b6020604051602081039080840390855afa158015611b3b573d6000803e3d6000fd5b505050602060405103519050600073ffffffffffffffffffffffffffffffffffffffff168173ffffffffffffffffffffffffffffffffffffffff161415611bb7576040517f08c379a0000000000000000000000000000000000000000000000000000000008152600401611bae90612bb1565b60405180910390fd5b80915050949350505050565b600080600560008473ffffffffffffffffffffffffffffffffffffffff1673ffffffffffffffffffffffffffffffffffffffff1681526020019081526020016000209050611c1081611a10565b9150611c1b81611fff565b50919050565b611c3c611c2d84610746565b611c3684610746565b83611c7b565b505050565b60008383834630604051602001611c5c959493929190612af7565b6040516020818303038152906040528051906020012090509392505050565b8173ffffffffffffffffffffffffffffffffffffffff168373ffffffffffffffffffffffffffffffffffffffff1614158015611cb75750600081115b15611fc757600073ffffffffffffffffffffffffffffffffffffffff168373ffffffffffffffffffffffffffffffffffffffff1614611e41576000600760008573ffffffffffffffffffffffffffffffffffffffff1673ffffffffffffffffffffffffffffffffffffffff1681526020019081526020016000208054905090506000808214611dfe57600760008673ffffffffffffffffffffffffffffffffffffffff1673ffffffffffffffffffffffffffffffffffffffff168152602001908152602001600020600183611d8c9190612f34565b81548110611dc3577f4e487b7100000000000000000000000000000000000000000000000000000000600052603260045260246000fd5b9060005260206000200160000160049054906101000a90047bffffffffffffffffffffffffffffffffffffffffffffffffffffffff16611e01565b60005b7bffffffffffffffffffffffffffffffffffffffffffffffffffffffff16905060008382611e2f9190612f34565b9050611e3d86848484612015565b5050505b600073ffffffffffffffffffffffffffffffffffffffff168273ffffffffffffffffffffffffffffffffffffffff1614611fc6576000600760008473ffffffffffffffffffffffffffffffffffffffff1673ffffffffffffffffffffffffffffffffffffffff1681526020019081526020016000208054905090506000808214611f8357600760008573ffffffffffffffffffffffffffffffffffffffff1673ffffffffffffffffffffffffffffffffffffffff168152602001908152602001600020600183611f119190612f34565b81548110611f48577f4e487b7100000000000000000000000000000000000000000000000000000000600052603260045260246000fd5b9060005260206000200160000160049054906101000a90047bffffffffffffffffffffffffffffffffffffffffffffffffffffffff16611f86565b60005b7bffffffffffffffffffffffffffffffffffffffffffffffffffffffff16905060008382611fb49190612ead565b9050611fc285848484612015565b5050505b5b505050565b60008282604051602001611fe19291906129c9565b60405160208183030381529060405280519060200120905092915050565b6001816000016000828254019250508190555050565b6000831180156120ca575043600760008673ffffffffffffffffffffffffffffffffffffffff1673ffffffffffffffffffffffffffffffffffffffff16815260200190815260200160002060018561206d9190612f34565b815481106120a4577f4e487b7100000000000000000000000000000000000000000000000000000000600052603260045260246000fd5b9060005260206000200160000160009054906101000a900463ffffffff1663ffffffff16145b156121bb576120d8816112c0565b600760008673ffffffffffffffffffffffffffffffffffffffff1673ffffffffffffffffffffffffffffffffffffffff1681526020019081526020016000206001856121249190612f34565b8154811061215b577f4e487b7100000000000000000000000000000000000000000000000000000000600052603260045260246000fd5b9060005260206000200160000160046101000a8154817bffffffffffffffffffffffffffffffffffffffffffffffffffffffff02191690837bffffffffffffffffffffffffffffffffffffffffffffffffffffffff1602179055506122e9565b600760008573ffffffffffffffffffffffffffffffffffffffff1673ffffffffffffffffffffffffffffffffffffffff168152602001908152602001600020604051806040016040528061220e43611329565b63ffffffff168152602001612222846112c0565b7bffffffffffffffffffffffffffffffffffffffffffffffffffffffff168152509080600181540180825580915050600190039060005260206000200160009091909190915060008201518160000160006101000a81548163ffffffff021916908363ffffffff16021790555060208201518160000160046101000a8154817bffffffffffffffffffffffffffffffffffffffffffffffffffffffff02191690837bffffffffffffffffffffffffffffffffffffffffffffffffffffffff16021790555050505b8373ffffffffffffffffffffffffffffffffffffffff167fdec2bacdd2f05b59de34da9b523dff8be42e5e38e818c82fdb0bae774387a7248383604051612331929190612e27565b60405180910390a250505050565b6040518060400160405280600063ffffffff16815260200160007bffffffffffffffffffffffffffffffffffffffffffffffffffffffff1681525090565b60008135905061238c8161365c565b92915050565b6000813590506123a181613673565b92915050565b6000813590506123b68161368a565b92915050565b6000813590506123cb816136a1565b92915050565b6000813590506123e0816136b8565b92915050565b6000602082840312156123f857600080fd5b60006124068482850161237d565b91505092915050565b6000806040838503121561242257600080fd5b60006124308582860161237d565b92505060206124418582860161237d565b9150509250929050565b60008060006060848603121561246057600080fd5b600061246e8682870161237d565b935050602061247f8682870161237d565b9250506040612490868287016123a7565b9150509250925092565b600080600080600080600060e0888a0312156124b557600080fd5b60006124c38a828b0161237d565b97505060206124d48a828b0161237d565b96505060406124e58a828b016123a7565b95505060606124f68a828b016123a7565b94505060806125078a828b016123d1565b93505060a06125188a828b01612392565b92505060c06125298a828b01612392565b91505092959891949750929550565b6000806040838503121561254b57600080fd5b60006125598582860161237d565b925050602061256a858286016123a7565b9150509250929050565b60008060008060008060c0878903121561258d57600080fd5b600061259b89828a0161237d565b96505060206125ac89828a016123a7565b95505060406125bd89828a016123a7565b94505060606125ce89828a016123d1565b93505060806125df89828a01612392565b92505060a06125f089828a01612392565b9150509295509295509295565b6000806040838503121561261057600080fd5b600061261e8582860161237d565b925050602061262f858286016123bc565b9150509250929050565b61264281612f68565b82525050565b61265181612f7a565b82525050565b61266081612f86565b82525050565b61267761267282612f86565b613064565b82525050565b600061268882612e86565b6126928185612e91565b93506126a2818560208601612fff565b6126ab8161312c565b840191505092915050565b60006126c3601883612e91565b91506126ce8261313d565b602082019050919050565b60006126e6602383612e91565b91506126f182613166565b604082019050919050565b6000612709602283612e91565b9150612714826131b5565b604082019050919050565b600061272c602c83612e91565b915061273782613204565b604082019050919050565b600061274f600283612ea2565b915061275a82613253565b600282019050919050565b6000612772601d83612e91565b915061277d8261327c565b602082019050919050565b6000612795602683612e91565b91506127a0826132a5565b604082019050919050565b60006127b8602283612e91565b91506127c3826132f4565b604082019050919050565b60006127db602d83612e91565b91506127e682613343565b604082019050919050565b60006127fe602883612e91565b915061280982613392565b604082019050919050565b6000612821602283612e91565b915061282c826133e1565b604082019050919050565b6000612844601e83612e91565b915061284f82613430565b602082019050919050565b6000612867602883612e91565b915061287282613459565b604082019050919050565b600061288a602783612e91565b9150612895826134a8565b604082019050919050565b60006128ad602583612e91565b91506128b8826134f7565b604082019050919050565b60006128d0602683612e91565b91506128db82613546565b604082019050919050565b60006128f3602483612e91565b91506128fe82613595565b604082019050919050565b6000612916602583612e91565b9150612921826135e4565b604082019050919050565b6000612939601f83612e91565b915061294482613633565b602082019050919050565b604082016000820151612965600085018261299c565b506020820151612978602085018261297e565b50505050565b61298781612fb0565b82525050565b61299681612fd8565b82525050565b6129a581612fe2565b82525050565b6129b481612fe2565b82525050565b6129c381612ff2565b82525050565b60006129d482612742565b91506129e08285612666565b6020820191506129f08284612666565b6020820191508190509392505050565b6000602082019050612a156000830184612639565b92915050565b6000602082019050612a306000830184612648565b92915050565b6000602082019050612a4b6000830184612657565b92915050565b600060c082019050612a666000830189612657565b612a736020830188612639565b612a806040830187612639565b612a8d606083018661298d565b612a9a608083018561298d565b612aa760a083018461298d565b979650505050505050565b6000608082019050612ac76000830187612657565b612ad46020830186612639565b612ae1604083018561298d565b612aee606083018461298d565b95945050505050565b600060a082019050612b0c6000830188612657565b612b196020830187612657565b612b266040830186612657565b612b33606083018561298d565b612b406080830184612639565b9695505050505050565b6000608082019050612b5f6000830187612657565b612b6c60208301866129ba565b612b796040830185612657565b612b866060830184612657565b95945050505050565b60006020820190508181036000830152612ba9818461267d565b905092915050565b60006020820190508181036000830152612bca816126b6565b9050919050565b60006020820190508181036000830152612bea816126d9565b9050919050565b60006020820190508181036000830152612c0a816126fc565b9050919050565b60006020820190508181036000830152612c2a8161271f565b9050919050565b60006020820190508181036000830152612c4a81612765565b9050919050565b60006020820190508181036000830152612c6a81612788565b9050919050565b60006020820190508181036000830152612c8a816127ab565b9050919050565b60006020820190508181036000830152612caa816127ce565b9050919050565b60006020820190508181036000830152612cca816127f1565b9050919050565b60006020820190508181036000830152612cea81612814565b9050919050565b60006020820190508181036000830152612d0a81612837565b9050919050565b60006020820190508181036000830152612d2a8161285a565b9050919050565b60006020820190508181036000830152612d4a8161287d565b9050919050565b60006020820190508181036000830152612d6a816128a0565b9050919050565b60006020820190508181036000830152612d8a816128c3565b9050919050565b60006020820190508181036000830152612daa816128e6565b9050919050565b60006020820190508181036000830152612dca81612909565b9050919050565b60006020820190508181036000830152612dea8161292c565b9050919050565b6000604082019050612e06600083018461294f565b92915050565b6000602082019050612e21600083018461298d565b92915050565b6000604082019050612e3c600083018561298d565b612e49602083018461298d565b9392505050565b6000602082019050612e6560008301846129ab565b92915050565b6000602082019050612e8060008301846129ba565b92915050565b600081519050919050565b600082825260208201905092915050565b600081905092915050565b6000612eb882612fd8565b9150612ec383612fd8565b9250827fffffffffffffffffffffffffffffffffffffffffffffffffffffffffffffffff03821115612ef857612ef761309f565b5b828201905092915050565b6000612f0e82612fd8565b9150612f1983612fd8565b925082612f2957612f286130ce565b5b828204905092915050565b6000612f3f82612fd8565b9150612f4a83612fd8565b925082821015612f5d57612f5c61309f565b5b828203905092915050565b6000612f7382612f90565b9050919050565b60008115159050919050565b6000819050919050565b600073ffffffffffffffffffffffffffffffffffffffff82169050919050565b60007bffffffffffffffffffffffffffffffffffffffffffffffffffffffff82169050919050565b6000819050919050565b600063ffffffff82169050919050565b600060ff82169050919050565b60005b8381101561301d578082015181840152602081019050613002565b8381111561302c576000848401525b50505050565b6000600282049050600182168061304a57607f821691505b6020821081141561305e5761305d6130fd565b5b50919050565b6000819050919050565b600061307982612fd8565b915061308483612fd8565b925082613094576130936130ce565b5b828206905092915050565b7f4e487b7100000000000000000000000000000000000000000000000000000000600052601160045260246000fd5b7f4e487b7100000000000000000000000000000000000000000000000000000000600052601260045260246000fd5b7f4e487b7100000000000000000000000000000000000000000000000000000000600052602260045260246000fd5b6000601f19601f8301169050919050565b7f45434453413a20696e76616c6964207369676e61747572650000000000000000600082015250565b7f45524332303a207472616e7366657220746f20746865207a65726f206164647260008201527f6573730000000000000000000000000000000000000000000000000000000000602082015250565b7f45524332303a20617070726f766520746f20746865207a65726f20616464726560008201527f7373000000000000000000000000000000000000000000000000000000000000602082015250565b7f4552433230566f7465733a3a64656c656761746542795369673a207369676e6160008201527f7475726520657870697265640000000000000000000000000000000000000000602082015250565b7f1901000000000000000000000000000000000000000000000000000000000000600082015250565b7f45524332305065726d69743a206578706972656420646561646c696e65000000600082015250565b7f45524332303a207472616e7366657220616d6f756e742065786365656473206260008201527f616c616e63650000000000000000000000000000000000000000000000000000602082015250565b7f45434453413a20696e76616c6964207369676e6174757265202773272076616c60008201527f7565000000000000000000000000000000000000000000000000000000000000602082015250565b7f4552433230566f7465733a3a6765745072696f72566f7465733a206e6f74207960008201527f65742064657465726d696e656400000000000000000000000000000000000000602082015250565b7f4552433230566f7465733a3a64656c656761746542795369673a20696e76616c60008201527f6964206e6f6e6365000000000000000000000000000000000000000000000000602082015250565b7f45434453413a20696e76616c6964207369676e6174757265202776272076616c60008201527f7565000000000000000000000000000000000000000000000000000000000000602082015250565b7f45524332305065726d69743a20696e76616c6964207369676e61747572650000600082015250565b7f45524332303a207472616e7366657220616d6f756e742065786365656473206160008201527f6c6c6f77616e6365000000000000000000000000000000000000000000000000602082015250565b7f53616665436173743a2076616c756520646f65736e27742066697420696e203260008201527f3234206269747300000000000000000000000000000000000000000000000000602082015250565b7f45524332303a207472616e736665722066726f6d20746865207a65726f20616460008201527f6472657373000000000000000000000000000000000000000000000000000000602082015250565b7f53616665436173743a2076616c756520646f65736e27742066697420696e203360008201527f3220626974730000000000000000000000000000000000000000000000000000602082015250565b7f45524332303a20617070726f76652066726f6d20746865207a65726f2061646460008201527f7265737300000000000000000000000000000000000000000000000000000000602082015250565b7f45524332303a2064656372656173656420616c6c6f77616e63652062656c6f7760008201527f207a65726f000000000000000000000000000000000000000000000000000000602082015250565b7f45524332303a206d696e7420746f20746865207a65726f206164647265737300600082015250565b61366581612f68565b811461367057600080fd5b50565b61367c81612f86565b811461368757600080fd5b50565b61369381612fd8565b811461369e57600080fd5b50565b6136aa81612fe2565b81146136b557600080fd5b50565b6136c181612ff2565b81146136cc57600080fd5b5056fea2646970667358221220862e3aebc4f771c418170005fb341bdfe0141d7cdb21b9b1d5012b8bb0cad6c864736f6c63430008030033",
  "immutableReferences": {
    "14112": [
      {
        "length": 32,
        "start": 3764
      }
    ],
    "19709": [
      {
        "length": 32,
        "start": 6136
      }
    ],
    "19711": [
      {
        "length": 32,
        "start": 6096
      }
    ],
    "19713": [
      {
        "length": 32,
        "start": 6212
      }
    ],
    "19715": [
      {
        "length": 32,
        "start": 6245
      }
    ],
    "19717": [
      {
        "length": 32,
        "start": 6179
      }
    ]
  },
  "source": "// SPDX-License-Identifier: MIT\r\n\r\npragma solidity ^0.8.0;\r\n\r\n\r\nimport \"../token/ERC20/extensions/draft-ERC20Votes.sol\";\r\n\r\ncontract ERC20VotesMock is ERC20Votes {\r\n    constructor (\r\n        string memory name,\r\n        string memory symbol,\r\n        address initialAccount,\r\n        uint256 initialBalance\r\n    ) payable ERC20(name, symbol) ERC20Permit(name) {\r\n        _mint(initialAccount, initialBalance);\r\n    }\r\n\r\n    function getChainId() external view returns (uint256) {\r\n        return block.chainid;\r\n    }\r\n}\r\n",
  "sourcePath": "D:/Code/NFTrees/contracts/OpenZepplin/mocks/ERC20VotesMock.sol",
  "compiler": {
    "name": "solc",
    "version": "0.8.3+commit.8d00100c.Emscripten.clang"
  },
  "schemaVersion": "3.4.1",
  "updatedAt": "2021-05-22T22:20:35.114Z",
  "devdoc": {
    "kind": "dev",
    "methods": {
      "DOMAIN_SEPARATOR()": {
        "details": "See {IERC20Permit-DOMAIN_SEPARATOR}."
      },
      "allowance(address,address)": {
        "details": "See {IERC20-allowance}."
      },
      "approve(address,uint256)": {
        "details": "See {IERC20-approve}. Requirements: - `spender` cannot be the zero address."
      },
      "balanceOf(address)": {
        "details": "See {IERC20-balanceOf}."
      },
      "checkpoints(address,uint32)": {
        "details": "Get the `pos`-th checkpoint for `account`."
      },
      "decimals()": {
        "details": "Returns the number of decimals used to get its user representation. For example, if `decimals` equals `2`, a balance of `505` tokens should be displayed to a user as `5,05` (`505 / 10 ** 2`). Tokens usually opt for a value of 18, imitating the relationship between Ether and Wei. This is the value {ERC20} uses, unless this function is overridden; NOTE: This information is only used for _display_ purposes: it in no way affects any of the arithmetic of the contract, including {IERC20-balanceOf} and {IERC20-transfer}."
      },
      "decreaseAllowance(address,uint256)": {
        "details": "Atomically decreases the allowance granted to `spender` by the caller. This is an alternative to {approve} that can be used as a mitigation for problems described in {IERC20-approve}. Emits an {Approval} event indicating the updated allowance. Requirements: - `spender` cannot be the zero address. - `spender` must have allowance for the caller of at least `subtractedValue`."
      },
      "delegate(address)": {
        "details": "Delegate votes from the sender to `delegatee`."
      },
      "delegateBySig(address,uint256,uint256,uint8,bytes32,bytes32)": {
        "details": "Delegates votes from signer to `delegatee`"
      },
      "delegates(address)": {
        "details": "Get the address `account` is currently delegating to."
      },
      "getCurrentVotes(address)": {
        "details": "Gets the current votes balance for `account`"
      },
      "getPriorVotes(address,uint256)": {
        "details": "Determine the number of votes for `account` at the begining of `blockNumber`."
      },
      "increaseAllowance(address,uint256)": {
        "details": "Atomically increases the allowance granted to `spender` by the caller. This is an alternative to {approve} that can be used as a mitigation for problems described in {IERC20-approve}. Emits an {Approval} event indicating the updated allowance. Requirements: - `spender` cannot be the zero address."
      },
      "name()": {
        "details": "Returns the name of the token."
      },
      "nonces(address)": {
        "details": "See {IERC20Permit-nonces}."
      },
      "numCheckpoints(address)": {
        "details": "Get number of checkpoints for `account`."
      },
      "permit(address,address,uint256,uint256,uint8,bytes32,bytes32)": {
        "details": "See {IERC20Permit-permit}."
      },
      "symbol()": {
        "details": "Returns the symbol of the token, usually a shorter version of the name."
      },
      "totalSupply()": {
        "details": "See {IERC20-totalSupply}."
      },
      "transfer(address,uint256)": {
        "details": "See {IERC20-transfer}. Requirements: - `recipient` cannot be the zero address. - the caller must have a balance of at least `amount`."
      },
      "transferFrom(address,address,uint256)": {
        "details": "See {IERC20-transferFrom}. Emits an {Approval} event indicating the updated allowance. This is not required by the EIP. See the note at the beginning of {ERC20}. Requirements: - `sender` and `recipient` cannot be the zero address. - `sender` must have a balance of at least `amount`. - the caller must have allowance for ``sender``'s tokens of at least `amount`."
      }
    },
    "version": 1
  },
  "userdoc": {
    "kind": "user",
    "methods": {},
    "version": 1
  }
}