{
  "contractName": "ERC20PermitMock",
  "abi": [
    {
      "inputs": [
        {
          "internalType": "string",
          "name": "name",
          "type": "string"
        },
        {
          "internalType": "string",
          "name": "symbol",
          "type": "string"
        },
        {
          "internalType": "address",
          "name": "initialAccount",
          "type": "address"
        },
        {
          "internalType": "uint256",
          "name": "initialBalance",
          "type": "uint256"
        }
      ],
      "stateMutability": "payable",
      "type": "constructor"
    },
    {
      "anonymous": false,
      "inputs": [
        {
          "indexed": true,
          "internalType": "address",
          "name": "owner",
          "type": "address"
        },
        {
          "indexed": true,
          "internalType": "address",
          "name": "spender",
          "type": "address"
        },
        {
          "indexed": false,
          "internalType": "uint256",
          "name": "value",
          "type": "uint256"
        }
      ],
      "name": "Approval",
      "type": "event"
    },
    {
      "anonymous": false,
      "inputs": [
        {
          "indexed": true,
          "internalType": "address",
          "name": "from",
          "type": "address"
        },
        {
          "indexed": true,
          "internalType": "address",
          "name": "to",
          "type": "address"
        },
        {
          "indexed": false,
          "internalType": "uint256",
          "name": "value",
          "type": "uint256"
        }
      ],
      "name": "Transfer",
      "type": "event"
    },
    {
      "inputs": [],
      "name": "DOMAIN_SEPARATOR",
      "outputs": [
        {
          "internalType": "bytes32",
          "name": "",
          "type": "bytes32"
        }
      ],
      "stateMutability": "view",
      "type": "function"
    },
    {
      "inputs": [
        {
          "internalType": "address",
          "name": "owner",
          "type": "address"
        },
        {
          "internalType": "address",
          "name": "spender",
          "type": "address"
        }
      ],
      "name": "allowance",
      "outputs": [
        {
          "internalType": "uint256",
          "name": "",
          "type": "uint256"
        }
      ],
      "stateMutability": "view",
      "type": "function"
    },
    {
      "inputs": [
        {
          "internalType": "address",
          "name": "spender",
          "type": "address"
        },
        {
          "internalType": "uint256",
          "name": "amount",
          "type": "uint256"
        }
      ],
      "name": "approve",
      "outputs": [
        {
          "internalType": "bool",
          "name": "",
          "type": "bool"
        }
      ],
      "stateMutability": "nonpayable",
      "type": "function"
    },
    {
      "inputs": [
        {
          "internalType": "address",
          "name": "account",
          "type": "address"
        }
      ],
      "name": "balanceOf",
      "outputs": [
        {
          "internalType": "uint256",
          "name": "",
          "type": "uint256"
        }
      ],
      "stateMutability": "view",
      "type": "function"
    },
    {
      "inputs": [],
      "name": "decimals",
      "outputs": [
        {
          "internalType": "uint8",
          "name": "",
          "type": "uint8"
        }
      ],
      "stateMutability": "view",
      "type": "function"
    },
    {
      "inputs": [
        {
          "internalType": "address",
          "name": "spender",
          "type": "address"
        },
        {
          "internalType": "uint256",
          "name": "subtractedValue",
          "type": "uint256"
        }
      ],
      "name": "decreaseAllowance",
      "outputs": [
        {
          "internalType": "bool",
          "name": "",
          "type": "bool"
        }
      ],
      "stateMutability": "nonpayable",
      "type": "function"
    },
    {
      "inputs": [
        {
          "internalType": "address",
          "name": "spender",
          "type": "address"
        },
        {
          "internalType": "uint256",
          "name": "addedValue",
          "type": "uint256"
        }
      ],
      "name": "increaseAllowance",
      "outputs": [
        {
          "internalType": "bool",
          "name": "",
          "type": "bool"
        }
      ],
      "stateMutability": "nonpayable",
      "type": "function"
    },
    {
      "inputs": [],
      "name": "name",
      "outputs": [
        {
          "internalType": "string",
          "name": "",
          "type": "string"
        }
      ],
      "stateMutability": "view",
      "type": "function"
    },
    {
      "inputs": [
        {
          "internalType": "address",
          "name": "owner",
          "type": "address"
        }
      ],
      "name": "nonces",
      "outputs": [
        {
          "internalType": "uint256",
          "name": "",
          "type": "uint256"
        }
      ],
      "stateMutability": "view",
      "type": "function"
    },
    {
      "inputs": [
        {
          "internalType": "address",
          "name": "owner",
          "type": "address"
        },
        {
          "internalType": "address",
          "name": "spender",
          "type": "address"
        },
        {
          "internalType": "uint256",
          "name": "value",
          "type": "uint256"
        },
        {
          "internalType": "uint256",
          "name": "deadline",
          "type": "uint256"
        },
        {
          "internalType": "uint8",
          "name": "v",
          "type": "uint8"
        },
        {
          "internalType": "bytes32",
          "name": "r",
          "type": "bytes32"
        },
        {
          "internalType": "bytes32",
          "name": "s",
          "type": "bytes32"
        }
      ],
      "name": "permit",
      "outputs": [],
      "stateMutability": "nonpayable",
      "type": "function"
    },
    {
      "inputs": [],
      "name": "symbol",
      "outputs": [
        {
          "internalType": "string",
          "name": "",
          "type": "string"
        }
      ],
      "stateMutability": "view",
      "type": "function"
    },
    {
      "inputs": [],
      "name": "totalSupply",
      "outputs": [
        {
          "internalType": "uint256",
          "name": "",
          "type": "uint256"
        }
      ],
      "stateMutability": "view",
      "type": "function"
    },
    {
      "inputs": [
        {
          "internalType": "address",
          "name": "recipient",
          "type": "address"
        },
        {
          "internalType": "uint256",
          "name": "amount",
          "type": "uint256"
        }
      ],
      "name": "transfer",
      "outputs": [
        {
          "internalType": "bool",
          "name": "",
          "type": "bool"
        }
      ],
      "stateMutability": "nonpayable",
      "type": "function"
    },
    {
      "inputs": [
        {
          "internalType": "address",
          "name": "sender",
          "type": "address"
        },
        {
          "internalType": "address",
          "name": "recipient",
          "type": "address"
        },
        {
          "internalType": "uint256",
          "name": "amount",
          "type": "uint256"
        }
      ],
      "name": "transferFrom",
      "outputs": [
        {
          "internalType": "bool",
          "name": "",
          "type": "bool"
        }
      ],
      "stateMutability": "nonpayable",
      "type": "function"
    },
    {
      "inputs": [],
      "name": "getChainId",
      "outputs": [
        {
          "internalType": "uint256",
          "name": "",
          "type": "uint256"
        }
      ],
      "stateMutability": "view",
      "type": "function"
    }
  ],
  "bytecode": "0x6101406040527f6e71edae12b1b97f4d1f60370fef10105fa2faae0126114a169c64845d6126c961012090815250604051620027d7380380620027d7833981810160405281019062000052919062000450565b83806040518060400160405280600181526020017f310000000000000000000000000000000000000000000000000000000000000081525086868160039080519060200190620000a492919062000300565b508060049080519060200190620000bd92919062000300565b50505060008280519060200120905060008280519060200120905060007f8b73c3c69bb8fe3d512ecc4cf759cc79239f7b179b0ffacaa9a75d522b39400f90508260c081815250508160e081815250504660a08181525050620001288184846200015a60201b60201c565b608081815250508061010081815250505050505050506200015082826200019660201b60201c565b5050505062000896565b600083838346306040516020016200017795949392919062000548565b6040516020818303038152906040528051906020012090509392505050565b600073ffffffffffffffffffffffffffffffffffffffff168273ffffffffffffffffffffffffffffffffffffffff16141562000209576040517f08c379a00000000000000000000000000000000000000000000000000000000081526004016200020090620005a5565b60405180910390fd5b6200021d60008383620002fb60201b60201c565b806002600082825462000231919062000654565b92505081905550806000808473ffffffffffffffffffffffffffffffffffffffff1673ffffffffffffffffffffffffffffffffffffffff168152602001908152602001600020600082825462000288919062000654565b925050819055508173ffffffffffffffffffffffffffffffffffffffff16600073ffffffffffffffffffffffffffffffffffffffff167fddf252ad1be2c89b69c2b068fc378daa952ba7f163c4a11628f55a4df523b3ef83604051620002ef9190620005c7565b60405180910390a35050565b505050565b8280546200030e906200072f565b90600052602060002090601f0160209004810192826200033257600085556200037e565b82601f106200034d57805160ff19168380011785556200037e565b828001600101855582156200037e579182015b828111156200037d57825182559160200191906001019062000360565b5b5090506200038d919062000391565b5090565b5b80821115620003ac57600081600090555060010162000392565b5090565b6000620003c7620003c1846200060d565b620005e4565b905082815260208101848484011115620003e057600080fd5b620003ed848285620006f9565b509392505050565b600081519050620004068162000862565b92915050565b600082601f8301126200041e57600080fd5b815162000430848260208601620003b0565b91505092915050565b6000815190506200044a816200087c565b92915050565b600080600080608085870312156200046757600080fd5b600085015167ffffffffffffffff8111156200048257600080fd5b62000490878288016200040c565b945050602085015167ffffffffffffffff811115620004ae57600080fd5b620004bc878288016200040c565b9350506040620004cf87828801620003f5565b9250506060620004e28782880162000439565b91505092959194509250565b620004f981620006b1565b82525050565b6200050a81620006c5565b82525050565b60006200051f601f8362000643565b91506200052c8262000839565b602082019050919050565b6200054281620006ef565b82525050565b600060a0820190506200055f6000830188620004ff565b6200056e6020830187620004ff565b6200057d6040830186620004ff565b6200058c606083018562000537565b6200059b6080830184620004ee565b9695505050505050565b60006020820190508181036000830152620005c08162000510565b9050919050565b6000602082019050620005de600083018462000537565b92915050565b6000620005f062000603565b9050620005fe828262000765565b919050565b6000604051905090565b600067ffffffffffffffff8211156200062b576200062a620007f9565b5b620006368262000828565b9050602081019050919050565b600082825260208201905092915050565b60006200066182620006ef565b91506200066e83620006ef565b9250827fffffffffffffffffffffffffffffffffffffffffffffffffffffffffffffffff03821115620006a657620006a56200079b565b5b828201905092915050565b6000620006be82620006cf565b9050919050565b6000819050919050565b600073ffffffffffffffffffffffffffffffffffffffff82169050919050565b6000819050919050565b60005b8381101562000719578082015181840152602081019050620006fc565b8381111562000729576000848401525b50505050565b600060028204905060018216806200074857607f821691505b602082108114156200075f576200075e620007ca565b5b50919050565b620007708262000828565b810181811067ffffffffffffffff82111715620007925762000791620007f9565b5b80604052505050565b7f4e487b7100000000000000000000000000000000000000000000000000000000600052601160045260246000fd5b7f4e487b7100000000000000000000000000000000000000000000000000000000600052602260045260246000fd5b7f4e487b7100000000000000000000000000000000000000000000000000000000600052604160045260246000fd5b6000601f19601f8301169050919050565b7f45524332303a206d696e7420746f20746865207a65726f206164647265737300600082015250565b6200086d81620006b1565b81146200087957600080fd5b50565b6200088781620006ef565b81146200089357600080fd5b50565b60805160a05160c05160e0516101005161012051611ef1620008e6600039600061085401526000610e7f01526000610ec101526000610ea001526000610e2c01526000610e540152611ef16000f3fe608060405234801561001057600080fd5b50600436106100f55760003560e01c80633950935111610097578063a457c2d711610066578063a457c2d71461029e578063a9059cbb146102ce578063d505accf146102fe578063dd62ed3e1461031a576100f5565b806339509351146101f057806370a08231146102205780637ecebe001461025057806395d89b4114610280576100f5565b806323b872dd116100d357806323b872dd14610166578063313ce567146101965780633408e470146101b45780633644e515146101d2576100f5565b806306fdde03146100fa578063095ea7b31461011857806318160ddd14610148575b600080fd5b61010261034a565b60405161010f919061172e565b60405180910390f35b610132600480360381019061012d919061132a565b6103dc565b60405161013f91906115ff565b60405180910390f35b6101506103fa565b60405161015d91906118d0565b60405180910390f35b610180600480360381019061017b919061123d565b610404565b60405161018d91906115ff565b60405180910390f35b61019e610505565b6040516101ab91906118eb565b60405180910390f35b6101bc61050e565b6040516101c991906118d0565b60405180910390f35b6101da610516565b6040516101e7919061161a565b60405180910390f35b61020a6004803603810190610205919061132a565b610525565b60405161021791906115ff565b60405180910390f35b61023a600480360381019061023591906111d8565b6105d1565b60405161024791906118d0565b60405180910390f35b61026a600480360381019061026591906111d8565b610619565b60405161027791906118d0565b60405180910390f35b610288610669565b604051610295919061172e565b60405180910390f35b6102b860048036038101906102b3919061132a565b6106fb565b6040516102c591906115ff565b60405180910390f35b6102e860048036038101906102e3919061132a565b6107ef565b6040516102f591906115ff565b60405180910390f35b6103186004803603810190610313919061128c565b61080d565b005b610334600480360381019061032f9190611201565b61094f565b60405161034191906118d0565b60405180910390f35b60606003805461035990611a49565b80601f016020809104026020016040519081016040528092919081815260200182805461038590611a49565b80156103d25780601f106103a7576101008083540402835291602001916103d2565b820191906000526020600020905b8154815290600101906020018083116103b557829003601f168201915b5050505050905090565b60006103f06103e96109d6565b84846109de565b6001905092915050565b6000600254905090565b6000610411848484610ba9565b6000600160008673ffffffffffffffffffffffffffffffffffffffff1673ffffffffffffffffffffffffffffffffffffffff168152602001908152602001600020600061045c6109d6565b73ffffffffffffffffffffffffffffffffffffffff1673ffffffffffffffffffffffffffffffffffffffff168152602001908152602001600020549050828110156104dc576040517f08c379a00000000000000000000000000000000000000000000000000000000081526004016104d390611850565b60405180910390fd5b6104f9856104e86109d6565b85846104f49190611983565b6109de565b60019150509392505050565b60006012905090565b600046905090565b6000610520610e28565b905090565b60006105c76105326109d6565b8484600160006105406109d6565b73ffffffffffffffffffffffffffffffffffffffff1673ffffffffffffffffffffffffffffffffffffffff16815260200190815260200160002060008873ffffffffffffffffffffffffffffffffffffffff1673ffffffffffffffffffffffffffffffffffffffff168152602001908152602001600020546105c2919061192d565b6109de565b6001905092915050565b60008060008373ffffffffffffffffffffffffffffffffffffffff1673ffffffffffffffffffffffffffffffffffffffff168152602001908152602001600020549050919050565b6000610662600560008473ffffffffffffffffffffffffffffffffffffffff1673ffffffffffffffffffffffffffffffffffffffff168152602001908152602001600020610eeb565b9050919050565b60606004805461067890611a49565b80601f01602080910402602001604051908101604052809291908181526020018280546106a490611a49565b80156106f15780601f106106c6576101008083540402835291602001916106f1565b820191906000526020600020905b8154815290600101906020018083116106d457829003601f168201915b5050505050905090565b6000806001600061070a6109d6565b73ffffffffffffffffffffffffffffffffffffffff1673ffffffffffffffffffffffffffffffffffffffff16815260200190815260200160002060008573ffffffffffffffffffffffffffffffffffffffff1673ffffffffffffffffffffffffffffffffffffffff168152602001908152602001600020549050828110156107c7576040517f08c379a00000000000000000000000000000000000000000000000000000000081526004016107be906118b0565b60405180910390fd5b6107e46107d26109d6565b8585846107df9190611983565b6109de565b600191505092915050565b60006108036107fc6109d6565b8484610ba9565b6001905092915050565b83421115610850576040517f08c379a0000000000000000000000000000000000000000000000000000000008152600401610847906117b0565b60405180910390fd5b60007f000000000000000000000000000000000000000000000000000000000000000088888861087f8c610ef9565b8960405160200161089596959493929190611635565b60405160208183030381529060405280519060200120905060006108b882610f57565b905060006108c882878787610f71565b90508973ffffffffffffffffffffffffffffffffffffffff168173ffffffffffffffffffffffffffffffffffffffff1614610938576040517f08c379a000000000000000000000000000000000000000000000000000000000815260040161092f90611830565b60405180910390fd5b6109438a8a8a6109de565b50505050505050505050565b6000600160008473ffffffffffffffffffffffffffffffffffffffff1673ffffffffffffffffffffffffffffffffffffffff16815260200190815260200160002060008373ffffffffffffffffffffffffffffffffffffffff1673ffffffffffffffffffffffffffffffffffffffff16815260200190815260200160002054905092915050565b600033905090565b600073ffffffffffffffffffffffffffffffffffffffff168373ffffffffffffffffffffffffffffffffffffffff161415610a4e576040517f08c379a0000000000000000000000000000000000000000000000000000000008152600401610a4590611890565b60405180910390fd5b600073ffffffffffffffffffffffffffffffffffffffff168273ffffffffffffffffffffffffffffffffffffffff161415610abe576040517f08c379a0000000000000000000000000000000000000000000000000000000008152600401610ab590611790565b60405180910390fd5b80600160008573ffffffffffffffffffffffffffffffffffffffff1673ffffffffffffffffffffffffffffffffffffffff16815260200190815260200160002060008473ffffffffffffffffffffffffffffffffffffffff1673ffffffffffffffffffffffffffffffffffffffff168152602001908152602001600020819055508173ffffffffffffffffffffffffffffffffffffffff168373ffffffffffffffffffffffffffffffffffffffff167f8c5be1e5ebec7d5bd14f71427d1e84f3dd0314c0f7b2291e5b200ac8c7c3b92583604051610b9c91906118d0565b60405180910390a3505050565b600073ffffffffffffffffffffffffffffffffffffffff168373ffffffffffffffffffffffffffffffffffffffff161415610c19576040517f08c379a0000000000000000000000000000000000000000000000000000000008152600401610c1090611870565b60405180910390fd5b600073ffffffffffffffffffffffffffffffffffffffff168273ffffffffffffffffffffffffffffffffffffffff161415610c89576040517f08c379a0000000000000000000000000000000000000000000000000000000008152600401610c8090611770565b60405180910390fd5b610c948383836110fc565b60008060008573ffffffffffffffffffffffffffffffffffffffff1673ffffffffffffffffffffffffffffffffffffffff16815260200190815260200160002054905081811015610d1a576040517f08c379a0000000000000000000000000000000000000000000000000000000008152600401610d11906117d0565b60405180910390fd5b8181610d269190611983565b6000808673ffffffffffffffffffffffffffffffffffffffff1673ffffffffffffffffffffffffffffffffffffffff16815260200190815260200160002081905550816000808573ffffffffffffffffffffffffffffffffffffffff1673ffffffffffffffffffffffffffffffffffffffff1681526020019081526020016000206000828254610db6919061192d565b925050819055508273ffffffffffffffffffffffffffffffffffffffff168473ffffffffffffffffffffffffffffffffffffffff167fddf252ad1be2c89b69c2b068fc378daa952ba7f163c4a11628f55a4df523b3ef84604051610e1a91906118d0565b60405180910390a350505050565b60007f0000000000000000000000000000000000000000000000000000000000000000461415610e7a577f00000000000000000000000000000000000000000000000000000000000000009050610ee8565b610ee57f00000000000000000000000000000000000000000000000000000000000000007f00000000000000000000000000000000000000000000000000000000000000007f0000000000000000000000000000000000000000000000000000000000000000611101565b90505b90565b600081600001549050919050565b600080600560008473ffffffffffffffffffffffffffffffffffffffff1673ffffffffffffffffffffffffffffffffffffffff1681526020019081526020016000209050610f4681610eeb565b9150610f518161113b565b50919050565b6000610f6a610f64610e28565b83611151565b9050919050565b60007f7fffffffffffffffffffffffffffffff5d576e7357a4501ddfe92f46681b20a08260001c1115610fd9576040517f08c379a0000000000000000000000000000000000000000000000000000000008152600401610fd0906117f0565b60405180910390fd5b601b8460ff161480610fee5750601c8460ff16145b61102d576040517f08c379a000000000000000000000000000000000000000000000000000000000815260040161102490611810565b60405180910390fd5b60006001868686866040516000815260200160405260405161105294939291906116e9565b6020604051602081039080840390855afa158015611074573d6000803e3d6000fd5b505050602060405103519050600073ffffffffffffffffffffffffffffffffffffffff168173ffffffffffffffffffffffffffffffffffffffff1614156110f0576040517f08c379a00000000000000000000000000000000000000000000000000000000081526004016110e790611750565b60405180910390fd5b80915050949350505050565b505050565b6000838383463060405160200161111c959493929190611696565b6040516020818303038152906040528051906020012090509392505050565b6001816000016000828254019250508190555050565b600082826040516020016111669291906115c8565b60405160208183030381529060405280519060200120905092915050565b60008135905061119381611e5f565b92915050565b6000813590506111a881611e76565b92915050565b6000813590506111bd81611e8d565b92915050565b6000813590506111d281611ea4565b92915050565b6000602082840312156111ea57600080fd5b60006111f884828501611184565b91505092915050565b6000806040838503121561121457600080fd5b600061122285828601611184565b925050602061123385828601611184565b9150509250929050565b60008060006060848603121561125257600080fd5b600061126086828701611184565b935050602061127186828701611184565b9250506040611282868287016111ae565b9150509250925092565b600080600080600080600060e0888a0312156112a757600080fd5b60006112b58a828b01611184565b97505060206112c68a828b01611184565b96505060406112d78a828b016111ae565b95505060606112e88a828b016111ae565b94505060806112f98a828b016111c3565b93505060a061130a8a828b01611199565b92505060c061131b8a828b01611199565b91505092959891949750929550565b6000806040838503121561133d57600080fd5b600061134b85828601611184565b925050602061135c858286016111ae565b9150509250929050565b61136f816119b7565b82525050565b61137e816119c9565b82525050565b61138d816119d5565b82525050565b6113a461139f826119d5565b611a7b565b82525050565b60006113b582611906565b6113bf8185611911565b93506113cf818560208601611a16565b6113d881611ae3565b840191505092915050565b60006113f0601883611911565b91506113fb82611af4565b602082019050919050565b6000611413602383611911565b915061141e82611b1d565b604082019050919050565b6000611436602283611911565b915061144182611b6c565b604082019050919050565b6000611459600283611922565b915061146482611bbb565b600282019050919050565b600061147c601d83611911565b915061148782611be4565b602082019050919050565b600061149f602683611911565b91506114aa82611c0d565b604082019050919050565b60006114c2602283611911565b91506114cd82611c5c565b604082019050919050565b60006114e5602283611911565b91506114f082611cab565b604082019050919050565b6000611508601e83611911565b915061151382611cfa565b602082019050919050565b600061152b602883611911565b915061153682611d23565b604082019050919050565b600061154e602583611911565b915061155982611d72565b604082019050919050565b6000611571602483611911565b915061157c82611dc1565b604082019050919050565b6000611594602583611911565b915061159f82611e10565b604082019050919050565b6115b3816119ff565b82525050565b6115c281611a09565b82525050565b60006115d38261144c565b91506115df8285611393565b6020820191506115ef8284611393565b6020820191508190509392505050565b60006020820190506116146000830184611375565b92915050565b600060208201905061162f6000830184611384565b92915050565b600060c08201905061164a6000830189611384565b6116576020830188611366565b6116646040830187611366565b61167160608301866115aa565b61167e60808301856115aa565b61168b60a08301846115aa565b979650505050505050565b600060a0820190506116ab6000830188611384565b6116b86020830187611384565b6116c56040830186611384565b6116d260608301856115aa565b6116df6080830184611366565b9695505050505050565b60006080820190506116fe6000830187611384565b61170b60208301866115b9565b6117186040830185611384565b6117256060830184611384565b95945050505050565b6000602082019050818103600083015261174881846113aa565b905092915050565b60006020820190508181036000830152611769816113e3565b9050919050565b6000602082019050818103600083015261178981611406565b9050919050565b600060208201905081810360008301526117a981611429565b9050919050565b600060208201905081810360008301526117c98161146f565b9050919050565b600060208201905081810360008301526117e981611492565b9050919050565b60006020820190508181036000830152611809816114b5565b9050919050565b60006020820190508181036000830152611829816114d8565b9050919050565b60006020820190508181036000830152611849816114fb565b9050919050565b600060208201905081810360008301526118698161151e565b9050919050565b6000602082019050818103600083015261188981611541565b9050919050565b600060208201905081810360008301526118a981611564565b9050919050565b600060208201905081810360008301526118c981611587565b9050919050565b60006020820190506118e560008301846115aa565b92915050565b600060208201905061190060008301846115b9565b92915050565b600081519050919050565b600082825260208201905092915050565b600081905092915050565b6000611938826119ff565b9150611943836119ff565b9250827fffffffffffffffffffffffffffffffffffffffffffffffffffffffffffffffff0382111561197857611977611a85565b5b828201905092915050565b600061198e826119ff565b9150611999836119ff565b9250828210156119ac576119ab611a85565b5b828203905092915050565b60006119c2826119df565b9050919050565b60008115159050919050565b6000819050919050565b600073ffffffffffffffffffffffffffffffffffffffff82169050919050565b6000819050919050565b600060ff82169050919050565b60005b83811015611a34578082015181840152602081019050611a19565b83811115611a43576000848401525b50505050565b60006002820490506001821680611a6157607f821691505b60208210811415611a7557611a74611ab4565b5b50919050565b6000819050919050565b7f4e487b7100000000000000000000000000000000000000000000000000000000600052601160045260246000fd5b7f4e487b7100000000000000000000000000000000000000000000000000000000600052602260045260246000fd5b6000601f19601f8301169050919050565b7f45434453413a20696e76616c6964207369676e61747572650000000000000000600082015250565b7f45524332303a207472616e7366657220746f20746865207a65726f206164647260008201527f6573730000000000000000000000000000000000000000000000000000000000602082015250565b7f45524332303a20617070726f766520746f20746865207a65726f20616464726560008201527f7373000000000000000000000000000000000000000000000000000000000000602082015250565b7f1901000000000000000000000000000000000000000000000000000000000000600082015250565b7f45524332305065726d69743a206578706972656420646561646c696e65000000600082015250565b7f45524332303a207472616e7366657220616d6f756e742065786365656473206260008201527f616c616e63650000000000000000000000000000000000000000000000000000602082015250565b7f45434453413a20696e76616c6964207369676e6174757265202773272076616c60008201527f7565000000000000000000000000000000000000000000000000000000000000602082015250565b7f45434453413a20696e76616c6964207369676e6174757265202776272076616c60008201527f7565000000000000000000000000000000000000000000000000000000000000602082015250565b7f45524332305065726d69743a20696e76616c6964207369676e61747572650000600082015250565b7f45524332303a207472616e7366657220616d6f756e742065786365656473206160008201527f6c6c6f77616e6365000000000000000000000000000000000000000000000000602082015250565b7f45524332303a207472616e736665722066726f6d20746865207a65726f20616460008201527f6472657373000000000000000000000000000000000000000000000000000000602082015250565b7f45524332303a20617070726f76652066726f6d20746865207a65726f2061646460008201527f7265737300000000000000000000000000000000000000000000000000000000602082015250565b7f45524332303a2064656372656173656420616c6c6f77616e63652062656c6f7760008201527f207a65726f000000000000000000000000000000000000000000000000000000602082015250565b611e68816119b7565b8114611e7357600080fd5b50565b611e7f816119d5565b8114611e8a57600080fd5b50565b611e96816119ff565b8114611ea157600080fd5b50565b611ead81611a09565b8114611eb857600080fd5b5056fea264697066735822122038a0fff14e01af47a646816e8b24825458d25e185014335ce9da34d2dca2621464736f6c63430008030033",
  "immutableReferences": {
    "9666": [
      {
        "length": 32,
        "start": 2132
      }
    ],
    "15081": [
      {
        "length": 32,
        "start": 3668
      }
    ],
    "15083": [
      {
        "length": 32,
        "start": 3628
      }
    ],
    "15085": [
      {
        "length": 32,
        "start": 3744
      }
    ],
    "15087": [
      {
        "length": 32,
        "start": 3777
      }
    ],
    "15089": [
      {
        "length": 32,
        "start": 3711
      }
    ]
  },
  "source": "// SPDX-License-Identifier: MIT\n\npragma solidity ^0.8.0;\n\n\nimport \"../token/ERC20/extensions/draft-ERC20Permit.sol\";\n\ncontract ERC20PermitMock is ERC20Permit {\n    constructor (\n        string memory name,\n        string memory symbol,\n        address initialAccount,\n        uint256 initialBalance\n    ) payable ERC20(name, symbol) ERC20Permit(name) {\n        _mint(initialAccount, initialBalance);\n    }\n\n    function getChainId() external view returns (uint256) {\n        return block.chainid;\n    }\n}\n",
  "sourcePath": "/Users/brendanmorrison/Code/Nftrees/contracts/OpenZepplin/mocks/ERC20PermitMock.sol",
  "compiler": {
    "name": "solc",
    "version": "0.8.3+commit.8d00100c.Emscripten.clang"
  },
  "schemaVersion": "3.3.4",
  "updatedAt": "2021-05-20T18:36:23.761Z",
  "devdoc": {
    "kind": "dev",
    "methods": {
      "DOMAIN_SEPARATOR()": {
        "details": "See {IERC20Permit-DOMAIN_SEPARATOR}."
      },
      "allowance(address,address)": {
        "details": "See {IERC20-allowance}."
      },
      "approve(address,uint256)": {
        "details": "See {IERC20-approve}. Requirements: - `spender` cannot be the zero address."
      },
      "balanceOf(address)": {
        "details": "See {IERC20-balanceOf}."
      },
      "decimals()": {
        "details": "Returns the number of decimals used to get its user representation. For example, if `decimals` equals `2`, a balance of `505` tokens should be displayed to a user as `5,05` (`505 / 10 ** 2`). Tokens usually opt for a value of 18, imitating the relationship between Ether and Wei. This is the value {ERC20} uses, unless this function is overridden; NOTE: This information is only used for _display_ purposes: it in no way affects any of the arithmetic of the contract, including {IERC20-balanceOf} and {IERC20-transfer}."
      },
      "decreaseAllowance(address,uint256)": {
        "details": "Atomically decreases the allowance granted to `spender` by the caller. This is an alternative to {approve} that can be used as a mitigation for problems described in {IERC20-approve}. Emits an {Approval} event indicating the updated allowance. Requirements: - `spender` cannot be the zero address. - `spender` must have allowance for the caller of at least `subtractedValue`."
      },
      "increaseAllowance(address,uint256)": {
        "details": "Atomically increases the allowance granted to `spender` by the caller. This is an alternative to {approve} that can be used as a mitigation for problems described in {IERC20-approve}. Emits an {Approval} event indicating the updated allowance. Requirements: - `spender` cannot be the zero address."
      },
      "name()": {
        "details": "Returns the name of the token."
      },
      "nonces(address)": {
        "details": "See {IERC20Permit-nonces}."
      },
      "permit(address,address,uint256,uint256,uint8,bytes32,bytes32)": {
        "details": "See {IERC20Permit-permit}."
      },
      "symbol()": {
        "details": "Returns the symbol of the token, usually a shorter version of the name."
      },
      "totalSupply()": {
        "details": "See {IERC20-totalSupply}."
      },
      "transfer(address,uint256)": {
        "details": "See {IERC20-transfer}. Requirements: - `recipient` cannot be the zero address. - the caller must have a balance of at least `amount`."
      },
      "transferFrom(address,address,uint256)": {
        "details": "See {IERC20-transferFrom}. Emits an {Approval} event indicating the updated allowance. This is not required by the EIP. See the note at the beginning of {ERC20}. Requirements: - `sender` and `recipient` cannot be the zero address. - `sender` must have a balance of at least `amount`. - the caller must have allowance for ``sender``'s tokens of at least `amount`."
      }
    },
    "version": 1
  },
  "userdoc": {
    "kind": "user",
    "methods": {},
    "version": 1
  }
}