{
  "contractName": "ERC777SenderRecipientMock",
  "abi": [
    {
      "anonymous": false,
      "inputs": [],
      "name": "BeforeTokenTransfer",
      "type": "event"
    },
    {
      "anonymous": false,
      "inputs": [
        {
          "indexed": false,
          "internalType": "address",
          "name": "operator",
          "type": "address"
        },
        {
          "indexed": false,
          "internalType": "address",
          "name": "from",
          "type": "address"
        },
        {
          "indexed": false,
          "internalType": "address",
          "name": "to",
          "type": "address"
        },
        {
          "indexed": false,
          "internalType": "uint256",
          "name": "amount",
          "type": "uint256"
        },
        {
          "indexed": false,
          "internalType": "bytes",
          "name": "data",
          "type": "bytes"
        },
        {
          "indexed": false,
          "internalType": "bytes",
          "name": "operatorData",
          "type": "bytes"
        },
        {
          "indexed": false,
          "internalType": "address",
          "name": "token",
          "type": "address"
        },
        {
          "indexed": false,
          "internalType": "uint256",
          "name": "fromBalance",
          "type": "uint256"
        },
        {
          "indexed": false,
          "internalType": "uint256",
          "name": "toBalance",
          "type": "uint256"
        }
      ],
      "name": "TokensReceivedCalled",
      "type": "event"
    },
    {
      "anonymous": false,
      "inputs": [
        {
          "indexed": false,
          "internalType": "address",
          "name": "operator",
          "type": "address"
        },
        {
          "indexed": false,
          "internalType": "address",
          "name": "from",
          "type": "address"
        },
        {
          "indexed": false,
          "internalType": "address",
          "name": "to",
          "type": "address"
        },
        {
          "indexed": false,
          "internalType": "uint256",
          "name": "amount",
          "type": "uint256"
        },
        {
          "indexed": false,
          "internalType": "bytes",
          "name": "data",
          "type": "bytes"
        },
        {
          "indexed": false,
          "internalType": "bytes",
          "name": "operatorData",
          "type": "bytes"
        },
        {
          "indexed": false,
          "internalType": "address",
          "name": "token",
          "type": "address"
        },
        {
          "indexed": false,
          "internalType": "uint256",
          "name": "fromBalance",
          "type": "uint256"
        },
        {
          "indexed": false,
          "internalType": "uint256",
          "name": "toBalance",
          "type": "uint256"
        }
      ],
      "name": "TokensToSendCalled",
      "type": "event"
    },
    {
      "inputs": [
        {
          "internalType": "bytes32",
          "name": "interfaceHash",
          "type": "bytes32"
        },
        {
          "internalType": "address",
          "name": "account",
          "type": "address"
        }
      ],
      "name": "canImplementInterfaceForAddress",
      "outputs": [
        {
          "internalType": "bytes32",
          "name": "",
          "type": "bytes32"
        }
      ],
      "stateMutability": "view",
      "type": "function"
    },
    {
      "inputs": [
        {
          "internalType": "address",
          "name": "operator",
          "type": "address"
        },
        {
          "internalType": "address",
          "name": "from",
          "type": "address"
        },
        {
          "internalType": "address",
          "name": "to",
          "type": "address"
        },
        {
          "internalType": "uint256",
          "name": "amount",
          "type": "uint256"
        },
        {
          "internalType": "bytes",
          "name": "userData",
          "type": "bytes"
        },
        {
          "internalType": "bytes",
          "name": "operatorData",
          "type": "bytes"
        }
      ],
      "name": "tokensToSend",
      "outputs": [],
      "stateMutability": "nonpayable",
      "type": "function"
    },
    {
      "inputs": [
        {
          "internalType": "address",
          "name": "operator",
          "type": "address"
        },
        {
          "internalType": "address",
          "name": "from",
          "type": "address"
        },
        {
          "internalType": "address",
          "name": "to",
          "type": "address"
        },
        {
          "internalType": "uint256",
          "name": "amount",
          "type": "uint256"
        },
        {
          "internalType": "bytes",
          "name": "userData",
          "type": "bytes"
        },
        {
          "internalType": "bytes",
          "name": "operatorData",
          "type": "bytes"
        }
      ],
      "name": "tokensReceived",
      "outputs": [],
      "stateMutability": "nonpayable",
      "type": "function"
    },
    {
      "inputs": [
        {
          "internalType": "address",
          "name": "account",
          "type": "address"
        }
      ],
      "name": "senderFor",
      "outputs": [],
      "stateMutability": "nonpayable",
      "type": "function"
    },
    {
      "inputs": [
        {
          "internalType": "address",
          "name": "sender",
          "type": "address"
        }
      ],
      "name": "registerSender",
      "outputs": [],
      "stateMutability": "nonpayable",
      "type": "function"
    },
    {
      "inputs": [
        {
          "internalType": "address",
          "name": "account",
          "type": "address"
        }
      ],
      "name": "recipientFor",
      "outputs": [],
      "stateMutability": "nonpayable",
      "type": "function"
    },
    {
      "inputs": [
        {
          "internalType": "address",
          "name": "recipient",
          "type": "address"
        }
      ],
      "name": "registerRecipient",
      "outputs": [],
      "stateMutability": "nonpayable",
      "type": "function"
    },
    {
      "inputs": [
        {
          "internalType": "bool",
          "name": "shouldRevert",
          "type": "bool"
        }
      ],
      "name": "setShouldRevertSend",
      "outputs": [],
      "stateMutability": "nonpayable",
      "type": "function"
    },
    {
      "inputs": [
        {
          "internalType": "bool",
          "name": "shouldRevert",
          "type": "bool"
        }
      ],
      "name": "setShouldRevertReceive",
      "outputs": [],
      "stateMutability": "nonpayable",
      "type": "function"
    },
    {
      "inputs": [
        {
          "internalType": "contract IERC777",
          "name": "token",
          "type": "address"
        },
        {
          "internalType": "address",
          "name": "to",
          "type": "address"
        },
        {
          "internalType": "uint256",
          "name": "amount",
          "type": "uint256"
        },
        {
          "internalType": "bytes",
          "name": "data",
          "type": "bytes"
        }
      ],
      "name": "send",
      "outputs": [],
      "stateMutability": "nonpayable",
      "type": "function"
    },
    {
      "inputs": [
        {
          "internalType": "contract IERC777",
          "name": "token",
          "type": "address"
        },
        {
          "internalType": "uint256",
          "name": "amount",
          "type": "uint256"
        },
        {
          "internalType": "bytes",
          "name": "data",
          "type": "bytes"
        }
      ],
      "name": "burn",
      "outputs": [],
      "stateMutability": "nonpayable",
      "type": "function"
    }
  ],
  "bytecode": "0x6080604052731820a4b7618bde71dce8cdc73aab6c95905fad24600160026101000a81548173ffffffffffffffffffffffffffffffffffffffff021916908373ffffffffffffffffffffffffffffffffffffffff16021790555034801561006557600080fd5b50611162806100756000396000f3fe608060405234801561001057600080fd5b50600436106100a85760003560e01c806375ab97821161007157806375ab97821461014d578063a8badaa514610169578063c97e18fc14610185578063d2de6474146101a1578063e0eb2180146101bd578063e1ecbd30146101d9576100a8565b806223de29146100ad578063249cb3fa146100c95780633836ef89146100f957806344d17187146101155780634e4ae5a514610131575b600080fd5b6100c760048036038101906100c29190610af0565b6101f5565b005b6100e360048036038101906100de9190610bdc565b61038b565b6040516100f09190610ee5565b60405180910390f35b610113600480360381019061010e9190610c18565b610421565b005b61012f600480360381019061012a9190610c93565b610496565b005b61014b60048036038101906101469190610bb3565b610508565b005b61016760048036038101906101629190610af0565b610525565b005b610183600480360381019061017e9190610ac7565b6106bd565b005b61019f600480360381019061019a9190610bb3565b610771565b005b6101bb60048036038101906101b69190610ac7565b61078d565b005b6101d760048036038101906101d29190610ac7565b6107fe565b005b6101f360048036038101906101ee9190610ac7565b61086f565b005b60018054906101000a900460ff161561020d57600080fd5b6000610217610923565b905060008173ffffffffffffffffffffffffffffffffffffffff166370a082318a6040518263ffffffff1660e01b81526004016102549190610db6565b60206040518083038186803b15801561026c57600080fd5b505afa158015610280573d6000803e3d6000fd5b505050506040513d601f19601f820116820180604052508101906102a49190610cfa565b905060008273ffffffffffffffffffffffffffffffffffffffff166370a082318a6040518263ffffffff1660e01b81526004016102e19190610db6565b60206040518083038186803b1580156102f957600080fd5b505afa15801561030d573d6000803e3d6000fd5b505050506040513d601f19601f820116820180604052508101906103319190610cfa565b90507f47e915878c47f3ec4d7ff646a2becb229f64fd2abe4d2b5e2bb4275b0cf50d4e8b8b8b8b8b8b8b8b8b8b8b6040516103769b9a99989796959493929190610dd1565b60405180910390a15050505050505050505050565b600080600084815260200190815260200160002060008373ffffffffffffffffffffffffffffffffffffffff1673ffffffffffffffffffffffffffffffffffffffff16815260200190815260200160002060009054906101000a900460ff166103f7576000801b610419565b7fa2ef4600d742022d532d4747cb3547474667d6f13804902513b2ec01c848f4b45b905092915050565b8373ffffffffffffffffffffffffffffffffffffffff16639bd9bbc68484846040518463ffffffff1660e01b815260040161045e93929190610ea7565b600060405180830381600087803b15801561047857600080fd5b505af115801561048c573d6000803e3d6000fd5b5050505050505050565b8273ffffffffffffffffffffffffffffffffffffffff1663fe9d930383836040518363ffffffff1660e01b81526004016104d1929190610f00565b600060405180830381600087803b1580156104eb57600080fd5b505af11580156104ff573d6000803e3d6000fd5b50505050505050565b80600160006101000a81548160ff02191690831515021790555050565b600160009054906101000a900460ff161561053f57600080fd5b6000610549610923565b905060008173ffffffffffffffffffffffffffffffffffffffff166370a082318a6040518263ffffffff1660e01b81526004016105869190610db6565b60206040518083038186803b15801561059e57600080fd5b505afa1580156105b2573d6000803e3d6000fd5b505050506040513d601f19601f820116820180604052508101906105d69190610cfa565b905060008273ffffffffffffffffffffffffffffffffffffffff166370a082318a6040518263ffffffff1660e01b81526004016106139190610db6565b60206040518083038186803b15801561062b57600080fd5b505afa15801561063f573d6000803e3d6000fd5b505050506040513d601f19601f820116820180604052508101906106639190610cfa565b90507faa3e88aca472e90221daf7d3d601abafb62b120319089d7a2c2f63588da855298b8b8b8b8b8b8b8b8b8b8b6040516106a89b9a99989796959493929190610dd1565b60405180910390a15050505050505050505050565b600160029054906101000a900473ffffffffffffffffffffffffffffffffffffffff1673ffffffffffffffffffffffffffffffffffffffff166329965a1d307fb281fc8c12954d22544db45de3159a39272895b169a852b314f9cc762e44c53b846040518463ffffffff1660e01b815260040161073c93929190610e70565b600060405180830381600087803b15801561075657600080fd5b505af115801561076a573d6000803e3d6000fd5b5050505050565b806001806101000a81548160ff02191690831515021790555050565b6107b77f29ddb589b1fb5fc7cf394961c1adf5f8c6454761adf795e67fe149f658abe8958261092b565b60003090508073ffffffffffffffffffffffffffffffffffffffff168273ffffffffffffffffffffffffffffffffffffffff1614156107fa576107f98161086f565b5b5050565b6108287fb281fc8c12954d22544db45de3159a39272895b169a852b314f9cc762e44c53b8261092b565b60003090508073ffffffffffffffffffffffffffffffffffffffff168273ffffffffffffffffffffffffffffffffffffffff16141561086b5761086a816106bd565b5b5050565b600160029054906101000a900473ffffffffffffffffffffffffffffffffffffffff1673ffffffffffffffffffffffffffffffffffffffff166329965a1d307f29ddb589b1fb5fc7cf394961c1adf5f8c6454761adf795e67fe149f658abe895846040518463ffffffff1660e01b81526004016108ee93929190610e70565b600060405180830381600087803b15801561090857600080fd5b505af115801561091c573d6000803e3d6000fd5b5050505050565b600033905090565b600160008084815260200190815260200160002060008373ffffffffffffffffffffffffffffffffffffffff1673ffffffffffffffffffffffffffffffffffffffff16815260200190815260200160002060006101000a81548160ff0219169083151502179055505050565b60006109aa6109a584610f55565b610f30565b9050828152602081018484840111156109c257600080fd5b6109cd848285611006565b509392505050565b6000813590506109e4816110b9565b92915050565b6000813590506109f9816110d0565b92915050565b600081359050610a0e816110e7565b92915050565b60008083601f840112610a2657600080fd5b8235905067ffffffffffffffff811115610a3f57600080fd5b602083019150836001820283011115610a5757600080fd5b9250929050565b600082601f830112610a6f57600080fd5b8135610a7f848260208601610997565b91505092915050565b600081359050610a97816110fe565b92915050565b600081359050610aac81611115565b92915050565b600081519050610ac181611115565b92915050565b600060208284031215610ad957600080fd5b6000610ae7848285016109d5565b91505092915050565b60008060008060008060008060c0898b031215610b0c57600080fd5b6000610b1a8b828c016109d5565b9850506020610b2b8b828c016109d5565b9750506040610b3c8b828c016109d5565b9650506060610b4d8b828c01610a9d565b955050608089013567ffffffffffffffff811115610b6a57600080fd5b610b768b828c01610a14565b945094505060a089013567ffffffffffffffff811115610b9557600080fd5b610ba18b828c01610a14565b92509250509295985092959890939650565b600060208284031215610bc557600080fd5b6000610bd3848285016109ea565b91505092915050565b60008060408385031215610bef57600080fd5b6000610bfd858286016109ff565b9250506020610c0e858286016109d5565b9150509250929050565b60008060008060808587031215610c2e57600080fd5b6000610c3c87828801610a88565b9450506020610c4d878288016109d5565b9350506040610c5e87828801610a9d565b925050606085013567ffffffffffffffff811115610c7b57600080fd5b610c8787828801610a5e565b91505092959194509250565b600080600060608486031215610ca857600080fd5b6000610cb686828701610a88565b9350506020610cc786828701610a9d565b925050604084013567ffffffffffffffff811115610ce457600080fd5b610cf086828701610a5e565b9150509250925092565b600060208284031215610d0c57600080fd5b6000610d1a84828501610ab2565b91505092915050565b610d2c81610fa2565b82525050565b610d3b81610fc0565b82525050565b6000610d4d8385610f91565b9350610d5a838584611006565b610d63836110a8565b840190509392505050565b6000610d7982610f86565b610d838185610f91565b9350610d93818560208601611015565b610d9c816110a8565b840191505092915050565b610db081610ffc565b82525050565b6000602082019050610dcb6000830184610d23565b92915050565b600061012082019050610de7600083018e610d23565b610df4602083018d610d23565b610e01604083018c610d23565b610e0e606083018b610da7565b8181036080830152610e2181898b610d41565b905081810360a0830152610e36818789610d41565b9050610e4560c0830186610d23565b610e5260e0830185610da7565b610e60610100830184610da7565b9c9b505050505050505050505050565b6000606082019050610e856000830186610d23565b610e926020830185610d32565b610e9f6040830184610d23565b949350505050565b6000606082019050610ebc6000830186610d23565b610ec96020830185610da7565b8181036040830152610edb8184610d6e565b9050949350505050565b6000602082019050610efa6000830184610d32565b92915050565b6000604082019050610f156000830185610da7565b8181036020830152610f278184610d6e565b90509392505050565b6000610f3a610f4b565b9050610f468282611048565b919050565b6000604051905090565b600067ffffffffffffffff821115610f7057610f6f611079565b5b610f79826110a8565b9050602081019050919050565b600081519050919050565b600082825260208201905092915050565b6000610fad82610fdc565b9050919050565b60008115159050919050565b6000819050919050565b6000610fd582610fa2565b9050919050565b600073ffffffffffffffffffffffffffffffffffffffff82169050919050565b6000819050919050565b82818337600083830152505050565b60005b83811015611033578082015181840152602081019050611018565b83811115611042576000848401525b50505050565b611051826110a8565b810181811067ffffffffffffffff821117156110705761106f611079565b5b80604052505050565b7f4e487b7100000000000000000000000000000000000000000000000000000000600052604160045260246000fd5b6000601f19601f8301169050919050565b6110c281610fa2565b81146110cd57600080fd5b50565b6110d981610fb4565b81146110e457600080fd5b50565b6110f081610fc0565b81146110fb57600080fd5b50565b61110781610fca565b811461111257600080fd5b50565b61111e81610ffc565b811461112957600080fd5b5056fea264697066735822122043f9f43ede94d4ce1503e96d8be76e71f6e18270933d4db33371eaa1d0d489b464736f6c63430008030033",
  "immutableReferences": {},
  "source": "// SPDX-License-Identifier: MIT\r\n\r\npragma solidity ^0.8.0;\r\n\r\nimport \"../token/ERC777/IERC777.sol\";\r\nimport \"../token/ERC777/IERC777Sender.sol\";\r\nimport \"../token/ERC777/IERC777Recipient.sol\";\r\nimport \"../utils/Context.sol\";\r\nimport \"../utils/introspection/IERC1820Registry.sol\";\r\nimport \"../utils/introspection/ERC1820Implementer.sol\";\r\n\r\ncontract ERC777SenderRecipientMock is Context, IERC777Sender, IERC777Recipient, ERC1820Implementer {\r\n    event TokensToSendCalled(\r\n        address operator,\r\n        address from,\r\n        address to,\r\n        uint256 amount,\r\n        bytes data,\r\n        bytes operatorData,\r\n        address token,\r\n        uint256 fromBalance,\r\n        uint256 toBalance\r\n    );\r\n\r\n    event TokensReceivedCalled(\r\n        address operator,\r\n        address from,\r\n        address to,\r\n        uint256 amount,\r\n        bytes data,\r\n        bytes operatorData,\r\n        address token,\r\n        uint256 fromBalance,\r\n        uint256 toBalance\r\n    );\r\n\r\n    // Emitted in ERC777Mock. Here for easier decoding\r\n    event BeforeTokenTransfer();\r\n\r\n    bool private _shouldRevertSend;\r\n    bool private _shouldRevertReceive;\r\n\r\n    IERC1820Registry private _erc1820 = IERC1820Registry(0x1820a4B7618BdE71Dce8cdc73aAB6C95905faD24);\r\n\r\n    bytes32 constant private _TOKENS_SENDER_INTERFACE_HASH = keccak256(\"ERC777TokensSender\");\r\n    bytes32 constant private _TOKENS_RECIPIENT_INTERFACE_HASH = keccak256(\"ERC777TokensRecipient\");\r\n\r\n    function tokensToSend(\r\n        address operator,\r\n        address from,\r\n        address to,\r\n        uint256 amount,\r\n        bytes calldata userData,\r\n        bytes calldata operatorData\r\n    ) external override {\r\n        if (_shouldRevertSend) {\r\n            revert();\r\n        }\r\n\r\n        IERC777 token = IERC777(_msgSender());\r\n\r\n        uint256 fromBalance = token.balanceOf(from);\r\n        // when called due to burn, to will be the zero address, which will have a balance of 0\r\n        uint256 toBalance = token.balanceOf(to);\r\n\r\n        emit TokensToSendCalled(\r\n            operator,\r\n            from,\r\n            to,\r\n            amount,\r\n            userData,\r\n            operatorData,\r\n            address(token),\r\n            fromBalance,\r\n            toBalance\r\n        );\r\n    }\r\n\r\n    function tokensReceived(\r\n        address operator,\r\n        address from,\r\n        address to,\r\n        uint256 amount,\r\n        bytes calldata userData,\r\n        bytes calldata operatorData\r\n    ) external override {\r\n        if (_shouldRevertReceive) {\r\n            revert();\r\n        }\r\n\r\n        IERC777 token = IERC777(_msgSender());\r\n\r\n        uint256 fromBalance = token.balanceOf(from);\r\n        // when called due to burn, to will be the zero address, which will have a balance of 0\r\n        uint256 toBalance = token.balanceOf(to);\r\n\r\n        emit TokensReceivedCalled(\r\n            operator,\r\n            from,\r\n            to,\r\n            amount,\r\n            userData,\r\n            operatorData,\r\n            address(token),\r\n            fromBalance,\r\n            toBalance\r\n        );\r\n    }\r\n\r\n    function senderFor(address account) public {\r\n        _registerInterfaceForAddress(_TOKENS_SENDER_INTERFACE_HASH, account);\r\n\r\n        address self = address(this);\r\n        if (account == self) {\r\n            registerSender(self);\r\n        }\r\n    }\r\n\r\n    function registerSender(address sender) public {\r\n        _erc1820.setInterfaceImplementer(address(this), _TOKENS_SENDER_INTERFACE_HASH, sender);\r\n    }\r\n\r\n    function recipientFor(address account) public {\r\n        _registerInterfaceForAddress(_TOKENS_RECIPIENT_INTERFACE_HASH, account);\r\n\r\n        address self = address(this);\r\n        if (account == self) {\r\n            registerRecipient(self);\r\n        }\r\n    }\r\n\r\n    function registerRecipient(address recipient) public {\r\n        _erc1820.setInterfaceImplementer(address(this), _TOKENS_RECIPIENT_INTERFACE_HASH, recipient);\r\n    }\r\n\r\n    function setShouldRevertSend(bool shouldRevert) public {\r\n        _shouldRevertSend = shouldRevert;\r\n    }\r\n\r\n    function setShouldRevertReceive(bool shouldRevert) public {\r\n        _shouldRevertReceive = shouldRevert;\r\n    }\r\n\r\n    function send(IERC777 token, address to, uint256 amount, bytes memory data) public {\r\n        // This is 777's send function, not the Solidity send function\r\n        token.send(to, amount, data); // solhint-disable-line check-send-result\r\n    }\r\n\r\n    function burn(IERC777 token, uint256 amount, bytes memory data) public {\r\n        token.burn(amount, data);\r\n    }\r\n}\r\n",
  "sourcePath": "D:/Code/NFTrees/contracts/OpenZepplin/mocks/ERC777SenderRecipientMock.sol",
  "compiler": {
    "name": "solc",
    "version": "0.8.3+commit.8d00100c.Emscripten.clang"
  },
  "schemaVersion": "3.4.1",
  "updatedAt": "2021-05-22T22:20:35.309Z",
  "devdoc": {
    "kind": "dev",
    "methods": {
      "canImplementInterfaceForAddress(bytes32,address)": {
        "details": "See {IERC1820Implementer-canImplementInterfaceForAddress}."
      },
      "tokensReceived(address,address,address,uint256,bytes,bytes)": {
        "details": "Called by an {IERC777} token contract whenever tokens are being moved or created into a registered account (`to`). The type of operation is conveyed by `from` being the zero address or not. This call occurs _after_ the token contract's state is updated, so {IERC777-balanceOf}, etc., can be used to query the post-operation state. This function may revert to prevent the operation from being executed."
      },
      "tokensToSend(address,address,address,uint256,bytes,bytes)": {
        "details": "Called by an {IERC777} token contract whenever a registered holder's (`from`) tokens are about to be moved or destroyed. The type of operation is conveyed by `to` being the zero address or not. This call occurs _before_ the token contract's state is updated, so {IERC777-balanceOf}, etc., can be used to query the pre-operation state. This function may revert to prevent the operation from being executed."
      }
    },
    "version": 1
  },
  "userdoc": {
    "kind": "user",
    "methods": {},
    "version": 1
  }
}