{
  "contractName": "ERC721BurnableMock",
  "abi": [
    {
      "inputs": [
        {
          "internalType": "string",
          "name": "name",
          "type": "string"
        },
        {
          "internalType": "string",
          "name": "symbol",
          "type": "string"
        }
      ],
      "stateMutability": "nonpayable",
      "type": "constructor"
    },
    {
      "anonymous": false,
      "inputs": [
        {
          "indexed": true,
          "internalType": "address",
          "name": "owner",
          "type": "address"
        },
        {
          "indexed": true,
          "internalType": "address",
          "name": "approved",
          "type": "address"
        },
        {
          "indexed": true,
          "internalType": "uint256",
          "name": "tokenId",
          "type": "uint256"
        }
      ],
      "name": "Approval",
      "type": "event"
    },
    {
      "anonymous": false,
      "inputs": [
        {
          "indexed": true,
          "internalType": "address",
          "name": "owner",
          "type": "address"
        },
        {
          "indexed": true,
          "internalType": "address",
          "name": "operator",
          "type": "address"
        },
        {
          "indexed": false,
          "internalType": "bool",
          "name": "approved",
          "type": "bool"
        }
      ],
      "name": "ApprovalForAll",
      "type": "event"
    },
    {
      "anonymous": false,
      "inputs": [
        {
          "indexed": true,
          "internalType": "address",
          "name": "from",
          "type": "address"
        },
        {
          "indexed": true,
          "internalType": "address",
          "name": "to",
          "type": "address"
        },
        {
          "indexed": true,
          "internalType": "uint256",
          "name": "tokenId",
          "type": "uint256"
        }
      ],
      "name": "Transfer",
      "type": "event"
    },
    {
      "inputs": [
        {
          "internalType": "address",
          "name": "to",
          "type": "address"
        },
        {
          "internalType": "uint256",
          "name": "tokenId",
          "type": "uint256"
        }
      ],
      "name": "approve",
      "outputs": [],
      "stateMutability": "nonpayable",
      "type": "function"
    },
    {
      "inputs": [
        {
          "internalType": "address",
          "name": "owner",
          "type": "address"
        }
      ],
      "name": "balanceOf",
      "outputs": [
        {
          "internalType": "uint256",
          "name": "",
          "type": "uint256"
        }
      ],
      "stateMutability": "view",
      "type": "function"
    },
    {
      "inputs": [
        {
          "internalType": "uint256",
          "name": "tokenId",
          "type": "uint256"
        }
      ],
      "name": "burn",
      "outputs": [],
      "stateMutability": "nonpayable",
      "type": "function"
    },
    {
      "inputs": [
        {
          "internalType": "uint256",
          "name": "tokenId",
          "type": "uint256"
        }
      ],
      "name": "getApproved",
      "outputs": [
        {
          "internalType": "address",
          "name": "",
          "type": "address"
        }
      ],
      "stateMutability": "view",
      "type": "function"
    },
    {
      "inputs": [
        {
          "internalType": "address",
          "name": "owner",
          "type": "address"
        },
        {
          "internalType": "address",
          "name": "operator",
          "type": "address"
        }
      ],
      "name": "isApprovedForAll",
      "outputs": [
        {
          "internalType": "bool",
          "name": "",
          "type": "bool"
        }
      ],
      "stateMutability": "view",
      "type": "function"
    },
    {
      "inputs": [],
      "name": "name",
      "outputs": [
        {
          "internalType": "string",
          "name": "",
          "type": "string"
        }
      ],
      "stateMutability": "view",
      "type": "function"
    },
    {
      "inputs": [
        {
          "internalType": "uint256",
          "name": "tokenId",
          "type": "uint256"
        }
      ],
      "name": "ownerOf",
      "outputs": [
        {
          "internalType": "address",
          "name": "",
          "type": "address"
        }
      ],
      "stateMutability": "view",
      "type": "function"
    },
    {
      "inputs": [
        {
          "internalType": "address",
          "name": "from",
          "type": "address"
        },
        {
          "internalType": "address",
          "name": "to",
          "type": "address"
        },
        {
          "internalType": "uint256",
          "name": "tokenId",
          "type": "uint256"
        }
      ],
      "name": "safeTransferFrom",
      "outputs": [],
      "stateMutability": "nonpayable",
      "type": "function"
    },
    {
      "inputs": [
        {
          "internalType": "address",
          "name": "from",
          "type": "address"
        },
        {
          "internalType": "address",
          "name": "to",
          "type": "address"
        },
        {
          "internalType": "uint256",
          "name": "tokenId",
          "type": "uint256"
        },
        {
          "internalType": "bytes",
          "name": "_data",
          "type": "bytes"
        }
      ],
      "name": "safeTransferFrom",
      "outputs": [],
      "stateMutability": "nonpayable",
      "type": "function"
    },
    {
      "inputs": [
        {
          "internalType": "address",
          "name": "operator",
          "type": "address"
        },
        {
          "internalType": "bool",
          "name": "approved",
          "type": "bool"
        }
      ],
      "name": "setApprovalForAll",
      "outputs": [],
      "stateMutability": "nonpayable",
      "type": "function"
    },
    {
      "inputs": [
        {
          "internalType": "bytes4",
          "name": "interfaceId",
          "type": "bytes4"
        }
      ],
      "name": "supportsInterface",
      "outputs": [
        {
          "internalType": "bool",
          "name": "",
          "type": "bool"
        }
      ],
      "stateMutability": "view",
      "type": "function"
    },
    {
      "inputs": [],
      "name": "symbol",
      "outputs": [
        {
          "internalType": "string",
          "name": "",
          "type": "string"
        }
      ],
      "stateMutability": "view",
      "type": "function"
    },
    {
      "inputs": [
        {
          "internalType": "uint256",
          "name": "tokenId",
          "type": "uint256"
        }
      ],
      "name": "tokenURI",
      "outputs": [
        {
          "internalType": "string",
          "name": "",
          "type": "string"
        }
      ],
      "stateMutability": "view",
      "type": "function"
    },
    {
      "inputs": [
        {
          "internalType": "address",
          "name": "from",
          "type": "address"
        },
        {
          "internalType": "address",
          "name": "to",
          "type": "address"
        },
        {
          "internalType": "uint256",
          "name": "tokenId",
          "type": "uint256"
        }
      ],
      "name": "transferFrom",
      "outputs": [],
      "stateMutability": "nonpayable",
      "type": "function"
    },
    {
      "inputs": [
        {
          "internalType": "uint256",
          "name": "tokenId",
          "type": "uint256"
        }
      ],
      "name": "exists",
      "outputs": [
        {
          "internalType": "bool",
          "name": "",
          "type": "bool"
        }
      ],
      "stateMutability": "view",
      "type": "function"
    },
    {
      "inputs": [
        {
          "internalType": "address",
          "name": "to",
          "type": "address"
        },
        {
          "internalType": "uint256",
          "name": "tokenId",
          "type": "uint256"
        }
      ],
      "name": "mint",
      "outputs": [],
      "stateMutability": "nonpayable",
      "type": "function"
    },
    {
      "inputs": [
        {
          "internalType": "address",
          "name": "to",
          "type": "address"
        },
        {
          "internalType": "uint256",
          "name": "tokenId",
          "type": "uint256"
        },
        {
          "internalType": "bytes",
          "name": "_data",
          "type": "bytes"
        }
      ],
      "name": "safeMint",
      "outputs": [],
      "stateMutability": "nonpayable",
      "type": "function"
    },
    {
      "inputs": [
        {
          "internalType": "address",
          "name": "to",
          "type": "address"
        },
        {
          "internalType": "uint256",
          "name": "tokenId",
          "type": "uint256"
        }
      ],
      "name": "safeMint",
      "outputs": [],
      "stateMutability": "nonpayable",
      "type": "function"
    }
  ],
  "bytecode": "0x60806040523480156200001157600080fd5b5060405162002dd938038062002dd9833981810160405281019062000037919062000197565b818181600090805190602001906200005192919062000075565b5080600190805190602001906200006a92919062000075565b50505050506200037a565b82805462000083906200029f565b90600052602060002090601f016020900481019282620000a75760008555620000f3565b82601f10620000c257805160ff1916838001178555620000f3565b82800160010185558215620000f3579182015b82811115620000f2578251825591602001919060010190620000d5565b5b50905062000102919062000106565b5090565b5b808211156200012157600081600090555060010162000107565b5090565b60006200013c620001368462000233565b6200020a565b9050828152602081018484840111156200015557600080fd5b6200016284828562000269565b509392505050565b600082601f8301126200017c57600080fd5b81516200018e84826020860162000125565b91505092915050565b60008060408385031215620001ab57600080fd5b600083015167ffffffffffffffff811115620001c657600080fd5b620001d4858286016200016a565b925050602083015167ffffffffffffffff811115620001f257600080fd5b62000200858286016200016a565b9150509250929050565b60006200021662000229565b9050620002248282620002d5565b919050565b6000604051905090565b600067ffffffffffffffff8211156200025157620002506200033a565b5b6200025c8262000369565b9050602081019050919050565b60005b83811015620002895780820151818401526020810190506200026c565b8381111562000299576000848401525b50505050565b60006002820490506001821680620002b857607f821691505b60208210811415620002cf57620002ce6200030b565b5b50919050565b620002e08262000369565b810181811067ffffffffffffffff821117156200030257620003016200033a565b5b80604052505050565b7f4e487b7100000000000000000000000000000000000000000000000000000000600052602260045260246000fd5b7f4e487b7100000000000000000000000000000000000000000000000000000000600052604160045260246000fd5b6000601f19601f8301169050919050565b612a4f806200038a6000396000f3fe608060405234801561001057600080fd5b50600436106101165760003560e01c80636352211e116100a2578063a144819411610071578063a1448194146102ef578063a22cb4651461030b578063b88d4fde14610327578063c87b56dd14610343578063e985e9c51461037357610116565b80636352211e1461025557806370a08231146102855780638832e6e3146102b557806395d89b41146102d157610116565b806323b872dd116100e957806323b872dd146101b557806340c10f19146101d157806342842e0e146101ed57806342966c68146102095780634f558e791461022557610116565b806301ffc9a71461011b57806306fdde031461014b578063081812fc14610169578063095ea7b314610199575b600080fd5b61013560048036038101906101309190611bbf565b6103a3565b6040516101429190611fa2565b60405180910390f35b610153610485565b6040516101609190611fbd565b60405180910390f35b610183600480360381019061017e9190611c11565b610517565b6040516101909190611f3b565b60405180910390f35b6101b360048036038101906101ae9190611b1c565b61059c565b005b6101cf60048036038101906101ca9190611a16565b6106b4565b005b6101eb60048036038101906101e69190611b1c565b610714565b005b61020760048036038101906102029190611a16565b610722565b005b610223600480360381019061021e9190611c11565b610742565b005b61023f600480360381019061023a9190611c11565b61079e565b60405161024c9190611fa2565b60405180910390f35b61026f600480360381019061026a9190611c11565b6107b0565b60405161027c9190611f3b565b60405180910390f35b61029f600480360381019061029a91906119b1565b610862565b6040516102ac91906121bf565b60405180910390f35b6102cf60048036038101906102ca9190611b58565b61091a565b005b6102d961092a565b6040516102e69190611fbd565b60405180910390f35b61030960048036038101906103049190611b1c565b6109bc565b005b61032560048036038101906103209190611ae0565b6109ca565b005b610341600480360381019061033c9190611a65565b610b4b565b005b61035d60048036038101906103589190611c11565b610bad565b60405161036a9190611fbd565b60405180910390f35b61038d600480360381019061038891906119da565b610c54565b60405161039a9190611fa2565b60405180910390f35b60007f80ac58cd000000000000000000000000000000000000000000000000000000007bffffffffffffffffffffffffffffffffffffffffffffffffffffffff1916827bffffffffffffffffffffffffffffffffffffffffffffffffffffffff1916148061046e57507f5b5e139f000000000000000000000000000000000000000000000000000000007bffffffffffffffffffffffffffffffffffffffffffffffffffffffff1916827bffffffffffffffffffffffffffffffffffffffffffffffffffffffff1916145b8061047e575061047d82610ce8565b5b9050919050565b606060008054610494906123e4565b80601f01602080910402602001604051908101604052809291908181526020018280546104c0906123e4565b801561050d5780601f106104e25761010080835404028352916020019161050d565b820191906000526020600020905b8154815290600101906020018083116104f057829003601f168201915b5050505050905090565b600061052282610d52565b610561576040517f08c379a0000000000000000000000000000000000000000000000000000000008152600401610558906120ff565b60405180910390fd5b6004600083815260200190815260200160002060009054906101000a900473ffffffffffffffffffffffffffffffffffffffff169050919050565b60006105a7826107b0565b90508073ffffffffffffffffffffffffffffffffffffffff168373ffffffffffffffffffffffffffffffffffffffff161415610618576040517f08c379a000000000000000000000000000000000000000000000000000000000815260040161060f9061215f565b60405180910390fd5b8073ffffffffffffffffffffffffffffffffffffffff16610637610dbe565b73ffffffffffffffffffffffffffffffffffffffff161480610666575061066581610660610dbe565b610c54565b5b6106a5576040517f08c379a000000000000000000000000000000000000000000000000000000000815260040161069c9061207f565b60405180910390fd5b6106af8383610dc6565b505050565b6106c56106bf610dbe565b82610e7f565b610704576040517f08c379a00000000000000000000000000000000000000000000000000000000081526004016106fb9061217f565b60405180910390fd5b61070f838383610f5d565b505050565b61071e82826111b9565b5050565b61073d83838360405180602001604052806000815250610b4b565b505050565b61075361074d610dbe565b82610e7f565b610792576040517f08c379a00000000000000000000000000000000000000000000000000000000081526004016107899061219f565b60405180910390fd5b61079b81611387565b50565b60006107a982610d52565b9050919050565b6000806002600084815260200190815260200160002060009054906101000a900473ffffffffffffffffffffffffffffffffffffffff169050600073ffffffffffffffffffffffffffffffffffffffff168173ffffffffffffffffffffffffffffffffffffffff161415610859576040517f08c379a0000000000000000000000000000000000000000000000000000000008152600401610850906120bf565b60405180910390fd5b80915050919050565b60008073ffffffffffffffffffffffffffffffffffffffff168273ffffffffffffffffffffffffffffffffffffffff1614156108d3576040517f08c379a00000000000000000000000000000000000000000000000000000000081526004016108ca9061209f565b60405180910390fd5b600360008373ffffffffffffffffffffffffffffffffffffffff1673ffffffffffffffffffffffffffffffffffffffff168152602001908152602001600020549050919050565b610925838383611498565b505050565b606060018054610939906123e4565b80601f0160208091040260200160405190810160405280929190818152602001828054610965906123e4565b80156109b25780601f10610987576101008083540402835291602001916109b2565b820191906000526020600020905b81548152906001019060200180831161099557829003601f168201915b5050505050905090565b6109c682826114f3565b5050565b6109d2610dbe565b73ffffffffffffffffffffffffffffffffffffffff168273ffffffffffffffffffffffffffffffffffffffff161415610a40576040517f08c379a0000000000000000000000000000000000000000000000000000000008152600401610a379061203f565b60405180910390fd5b8060056000610a4d610dbe565b73ffffffffffffffffffffffffffffffffffffffff1673ffffffffffffffffffffffffffffffffffffffff16815260200190815260200160002060008473ffffffffffffffffffffffffffffffffffffffff1673ffffffffffffffffffffffffffffffffffffffff16815260200190815260200160002060006101000a81548160ff0219169083151502179055508173ffffffffffffffffffffffffffffffffffffffff16610afa610dbe565b73ffffffffffffffffffffffffffffffffffffffff167f17307eab39ab6107e8899845ad3d59bd9653f200f220920489ca2b5937696c3183604051610b3f9190611fa2565b60405180910390a35050565b610b5c610b56610dbe565b83610e7f565b610b9b576040517f08c379a0000000000000000000000000000000000000000000000000000000008152600401610b929061217f565b60405180910390fd5b610ba784848484611511565b50505050565b6060610bb882610d52565b610bf7576040517f08c379a0000000000000000000000000000000000000000000000000000000008152600401610bee9061213f565b60405180910390fd5b6000610c0161156d565b90506000815111610c215760405180602001604052806000815250610c4c565b80610c2b84611584565b604051602001610c3c929190611f17565b6040516020818303038152906040525b915050919050565b6000600560008473ffffffffffffffffffffffffffffffffffffffff1673ffffffffffffffffffffffffffffffffffffffff16815260200190815260200160002060008373ffffffffffffffffffffffffffffffffffffffff1673ffffffffffffffffffffffffffffffffffffffff16815260200190815260200160002060009054906101000a900460ff16905092915050565b60007f01ffc9a7000000000000000000000000000000000000000000000000000000007bffffffffffffffffffffffffffffffffffffffffffffffffffffffff1916827bffffffffffffffffffffffffffffffffffffffffffffffffffffffff1916149050919050565b60008073ffffffffffffffffffffffffffffffffffffffff166002600084815260200190815260200160002060009054906101000a900473ffffffffffffffffffffffffffffffffffffffff1673ffffffffffffffffffffffffffffffffffffffff1614159050919050565b600033905090565b816004600083815260200190815260200160002060006101000a81548173ffffffffffffffffffffffffffffffffffffffff021916908373ffffffffffffffffffffffffffffffffffffffff160217905550808273ffffffffffffffffffffffffffffffffffffffff16610e39836107b0565b73ffffffffffffffffffffffffffffffffffffffff167f8c5be1e5ebec7d5bd14f71427d1e84f3dd0314c0f7b2291e5b200ac8c7c3b92560405160405180910390a45050565b6000610e8a82610d52565b610ec9576040517f08c379a0000000000000000000000000000000000000000000000000000000008152600401610ec09061205f565b60405180910390fd5b6000610ed4836107b0565b90508073ffffffffffffffffffffffffffffffffffffffff168473ffffffffffffffffffffffffffffffffffffffff161480610f4357508373ffffffffffffffffffffffffffffffffffffffff16610f2b84610517565b73ffffffffffffffffffffffffffffffffffffffff16145b80610f545750610f538185610c54565b5b91505092915050565b8273ffffffffffffffffffffffffffffffffffffffff16610f7d826107b0565b73ffffffffffffffffffffffffffffffffffffffff1614610fd3576040517f08c379a0000000000000000000000000000000000000000000000000000000008152600401610fca9061211f565b60405180910390fd5b600073ffffffffffffffffffffffffffffffffffffffff168273ffffffffffffffffffffffffffffffffffffffff161415611043576040517f08c379a000000000000000000000000000000000000000000000000000000000815260040161103a9061201f565b60405180910390fd5b61104e838383611731565b611059600082610dc6565b6001600360008573ffffffffffffffffffffffffffffffffffffffff1673ffffffffffffffffffffffffffffffffffffffff16815260200190815260200160002060008282546110a991906122fa565b925050819055506001600360008473ffffffffffffffffffffffffffffffffffffffff1673ffffffffffffffffffffffffffffffffffffffff16815260200190815260200160002060008282546111009190612273565b92505081905550816002600083815260200190815260200160002060006101000a81548173ffffffffffffffffffffffffffffffffffffffff021916908373ffffffffffffffffffffffffffffffffffffffff160217905550808273ffffffffffffffffffffffffffffffffffffffff168473ffffffffffffffffffffffffffffffffffffffff167fddf252ad1be2c89b69c2b068fc378daa952ba7f163c4a11628f55a4df523b3ef60405160405180910390a4505050565b600073ffffffffffffffffffffffffffffffffffffffff168273ffffffffffffffffffffffffffffffffffffffff161415611229576040517f08c379a0000000000000000000000000000000000000000000000000000000008152600401611220906120df565b60405180910390fd5b61123281610d52565b15611272576040517f08c379a000000000000000000000000000000000000000000000000000000000815260040161126990611fff565b60405180910390fd5b61127e60008383611731565b6001600360008473ffffffffffffffffffffffffffffffffffffffff1673ffffffffffffffffffffffffffffffffffffffff16815260200190815260200160002060008282546112ce9190612273565b92505081905550816002600083815260200190815260200160002060006101000a81548173ffffffffffffffffffffffffffffffffffffffff021916908373ffffffffffffffffffffffffffffffffffffffff160217905550808273ffffffffffffffffffffffffffffffffffffffff16600073ffffffffffffffffffffffffffffffffffffffff167fddf252ad1be2c89b69c2b068fc378daa952ba7f163c4a11628f55a4df523b3ef60405160405180910390a45050565b6000611392826107b0565b90506113a081600084611731565b6113ab600083610dc6565b6001600360008373ffffffffffffffffffffffffffffffffffffffff1673ffffffffffffffffffffffffffffffffffffffff16815260200190815260200160002060008282546113fb91906122fa565b925050819055506002600083815260200190815260200160002060006101000a81549073ffffffffffffffffffffffffffffffffffffffff021916905581600073ffffffffffffffffffffffffffffffffffffffff168273ffffffffffffffffffffffffffffffffffffffff167fddf252ad1be2c89b69c2b068fc378daa952ba7f163c4a11628f55a4df523b3ef60405160405180910390a45050565b6114a283836111b9565b6114af6000848484611736565b6114ee576040517f08c379a00000000000000000000000000000000000000000000000000000000081526004016114e590611fdf565b60405180910390fd5b505050565b61150d828260405180602001604052806000815250611498565b5050565b61151c848484610f5d565b61152884848484611736565b611567576040517f08c379a000000000000000000000000000000000000000000000000000000000815260040161155e90611fdf565b60405180910390fd5b50505050565b606060405180602001604052806000815250905090565b606060008214156115cc576040518060400160405280600181526020017f3000000000000000000000000000000000000000000000000000000000000000815250905061172c565b600082905060005b600082146115fe5780806115e790612447565b915050600a826115f791906122c9565b91506115d4565b60008167ffffffffffffffff811115611640577f4e487b7100000000000000000000000000000000000000000000000000000000600052604160045260246000fd5b6040519080825280601f01601f1916602001820160405280156116725781602001600182028036833780820191505090505b5090505b600085146117255760018261168b91906122fa565b9150600a8561169a9190612490565b60306116a69190612273565b60f81b8183815181106116e2577f4e487b7100000000000000000000000000000000000000000000000000000000600052603260045260246000fd5b60200101907effffffffffffffffffffffffffffffffffffffffffffffffffffffffffffff1916908160001a905350600a8561171e91906122c9565b9450611676565b8093505050505b919050565b505050565b60006117578473ffffffffffffffffffffffffffffffffffffffff166118cd565b156118c0578373ffffffffffffffffffffffffffffffffffffffff1663150b7a02611780610dbe565b8786866040518563ffffffff1660e01b81526004016117a29493929190611f56565b602060405180830381600087803b1580156117bc57600080fd5b505af19250505080156117ed57506040513d601f19601f820116820180604052508101906117ea9190611be8565b60015b611870573d806000811461181d576040519150601f19603f3d011682016040523d82523d6000602084013e611822565b606091505b50600081511415611868576040517f08c379a000000000000000000000000000000000000000000000000000000000815260040161185f90611fdf565b60405180910390fd5b805181602001fd5b63150b7a0260e01b7bffffffffffffffffffffffffffffffffffffffffffffffffffffffff1916817bffffffffffffffffffffffffffffffffffffffffffffffffffffffff1916149150506118c5565b600190505b949350505050565b600080823b905060008111915050919050565b60006118f36118ee846121ff565b6121da565b90508281526020810184848401111561190b57600080fd5b6119168482856123a2565b509392505050565b60008135905061192d816129bd565b92915050565b600081359050611942816129d4565b92915050565b600081359050611957816129eb565b92915050565b60008151905061196c816129eb565b92915050565b600082601f83011261198357600080fd5b81356119938482602086016118e0565b91505092915050565b6000813590506119ab81612a02565b92915050565b6000602082840312156119c357600080fd5b60006119d18482850161191e565b91505092915050565b600080604083850312156119ed57600080fd5b60006119fb8582860161191e565b9250506020611a0c8582860161191e565b9150509250929050565b600080600060608486031215611a2b57600080fd5b6000611a398682870161191e565b9350506020611a4a8682870161191e565b9250506040611a5b8682870161199c565b9150509250925092565b60008060008060808587031215611a7b57600080fd5b6000611a898782880161191e565b9450506020611a9a8782880161191e565b9350506040611aab8782880161199c565b925050606085013567ffffffffffffffff811115611ac857600080fd5b611ad487828801611972565b91505092959194509250565b60008060408385031215611af357600080fd5b6000611b018582860161191e565b9250506020611b1285828601611933565b9150509250929050565b60008060408385031215611b2f57600080fd5b6000611b3d8582860161191e565b9250506020611b4e8582860161199c565b9150509250929050565b600080600060608486031215611b6d57600080fd5b6000611b7b8682870161191e565b9350506020611b8c8682870161199c565b925050604084013567ffffffffffffffff811115611ba957600080fd5b611bb586828701611972565b9150509250925092565b600060208284031215611bd157600080fd5b6000611bdf84828501611948565b91505092915050565b600060208284031215611bfa57600080fd5b6000611c088482850161195d565b91505092915050565b600060208284031215611c2357600080fd5b6000611c318482850161199c565b91505092915050565b611c438161232e565b82525050565b611c5281612340565b82525050565b6000611c6382612230565b611c6d8185612246565b9350611c7d8185602086016123b1565b611c868161257d565b840191505092915050565b6000611c9c8261223b565b611ca68185612257565b9350611cb68185602086016123b1565b611cbf8161257d565b840191505092915050565b6000611cd58261223b565b611cdf8185612268565b9350611cef8185602086016123b1565b80840191505092915050565b6000611d08603283612257565b9150611d138261258e565b604082019050919050565b6000611d2b601c83612257565b9150611d36826125dd565b602082019050919050565b6000611d4e602483612257565b9150611d5982612606565b604082019050919050565b6000611d71601983612257565b9150611d7c82612655565b602082019050919050565b6000611d94602c83612257565b9150611d9f8261267e565b604082019050919050565b6000611db7603883612257565b9150611dc2826126cd565b604082019050919050565b6000611dda602a83612257565b9150611de58261271c565b604082019050919050565b6000611dfd602983612257565b9150611e088261276b565b604082019050919050565b6000611e20602083612257565b9150611e2b826127ba565b602082019050919050565b6000611e43602c83612257565b9150611e4e826127e3565b604082019050919050565b6000611e66602983612257565b9150611e7182612832565b604082019050919050565b6000611e89602f83612257565b9150611e9482612881565b604082019050919050565b6000611eac602183612257565b9150611eb7826128d0565b604082019050919050565b6000611ecf603183612257565b9150611eda8261291f565b604082019050919050565b6000611ef2603083612257565b9150611efd8261296e565b604082019050919050565b611f1181612398565b82525050565b6000611f238285611cca565b9150611f2f8284611cca565b91508190509392505050565b6000602082019050611f506000830184611c3a565b92915050565b6000608082019050611f6b6000830187611c3a565b611f786020830186611c3a565b611f856040830185611f08565b8181036060830152611f978184611c58565b905095945050505050565b6000602082019050611fb76000830184611c49565b92915050565b60006020820190508181036000830152611fd78184611c91565b905092915050565b60006020820190508181036000830152611ff881611cfb565b9050919050565b6000602082019050818103600083015261201881611d1e565b9050919050565b6000602082019050818103600083015261203881611d41565b9050919050565b6000602082019050818103600083015261205881611d64565b9050919050565b6000602082019050818103600083015261207881611d87565b9050919050565b6000602082019050818103600083015261209881611daa565b9050919050565b600060208201905081810360008301526120b881611dcd565b9050919050565b600060208201905081810360008301526120d881611df0565b9050919050565b600060208201905081810360008301526120f881611e13565b9050919050565b6000602082019050818103600083015261211881611e36565b9050919050565b6000602082019050818103600083015261213881611e59565b9050919050565b6000602082019050818103600083015261215881611e7c565b9050919050565b6000602082019050818103600083015261217881611e9f565b9050919050565b6000602082019050818103600083015261219881611ec2565b9050919050565b600060208201905081810360008301526121b881611ee5565b9050919050565b60006020820190506121d46000830184611f08565b92915050565b60006121e46121f5565b90506121f08282612416565b919050565b6000604051905090565b600067ffffffffffffffff82111561221a5761221961254e565b5b6122238261257d565b9050602081019050919050565b600081519050919050565b600081519050919050565b600082825260208201905092915050565b600082825260208201905092915050565b600081905092915050565b600061227e82612398565b915061228983612398565b9250827fffffffffffffffffffffffffffffffffffffffffffffffffffffffffffffffff038211156122be576122bd6124c1565b5b828201905092915050565b60006122d482612398565b91506122df83612398565b9250826122ef576122ee6124f0565b5b828204905092915050565b600061230582612398565b915061231083612398565b925082821015612323576123226124c1565b5b828203905092915050565b600061233982612378565b9050919050565b60008115159050919050565b60007fffffffff0000000000000000000000000000000000000000000000000000000082169050919050565b600073ffffffffffffffffffffffffffffffffffffffff82169050919050565b6000819050919050565b82818337600083830152505050565b60005b838110156123cf5780820151818401526020810190506123b4565b838111156123de576000848401525b50505050565b600060028204905060018216806123fc57607f821691505b602082108114156124105761240f61251f565b5b50919050565b61241f8261257d565b810181811067ffffffffffffffff8211171561243e5761243d61254e565b5b80604052505050565b600061245282612398565b91507fffffffffffffffffffffffffffffffffffffffffffffffffffffffffffffffff821415612485576124846124c1565b5b600182019050919050565b600061249b82612398565b91506124a683612398565b9250826124b6576124b56124f0565b5b828206905092915050565b7f4e487b7100000000000000000000000000000000000000000000000000000000600052601160045260246000fd5b7f4e487b7100000000000000000000000000000000000000000000000000000000600052601260045260246000fd5b7f4e487b7100000000000000000000000000000000000000000000000000000000600052602260045260246000fd5b7f4e487b7100000000000000000000000000000000000000000000000000000000600052604160045260246000fd5b6000601f19601f8301169050919050565b7f4552433732313a207472616e7366657220746f206e6f6e20455243373231526560008201527f63656976657220696d706c656d656e7465720000000000000000000000000000602082015250565b7f4552433732313a20746f6b656e20616c7265616479206d696e74656400000000600082015250565b7f4552433732313a207472616e7366657220746f20746865207a65726f2061646460008201527f7265737300000000000000000000000000000000000000000000000000000000602082015250565b7f4552433732313a20617070726f766520746f2063616c6c657200000000000000600082015250565b7f4552433732313a206f70657261746f7220717565727920666f72206e6f6e657860008201527f697374656e7420746f6b656e0000000000000000000000000000000000000000602082015250565b7f4552433732313a20617070726f76652063616c6c6572206973206e6f74206f7760008201527f6e6572206e6f7220617070726f76656420666f7220616c6c0000000000000000602082015250565b7f4552433732313a2062616c616e636520717565727920666f7220746865207a6560008201527f726f206164647265737300000000000000000000000000000000000000000000602082015250565b7f4552433732313a206f776e657220717565727920666f72206e6f6e657869737460008201527f656e7420746f6b656e0000000000000000000000000000000000000000000000602082015250565b7f4552433732313a206d696e7420746f20746865207a65726f2061646472657373600082015250565b7f4552433732313a20617070726f76656420717565727920666f72206e6f6e657860008201527f697374656e7420746f6b656e0000000000000000000000000000000000000000602082015250565b7f4552433732313a207472616e73666572206f6620746f6b656e2074686174206960008201527f73206e6f74206f776e0000000000000000000000000000000000000000000000602082015250565b7f4552433732314d657461646174613a2055524920717565727920666f72206e6f60008201527f6e6578697374656e7420746f6b656e0000000000000000000000000000000000602082015250565b7f4552433732313a20617070726f76616c20746f2063757272656e74206f776e6560008201527f7200000000000000000000000000000000000000000000000000000000000000602082015250565b7f4552433732313a207472616e736665722063616c6c6572206973206e6f74206f60008201527f776e6572206e6f7220617070726f766564000000000000000000000000000000602082015250565b7f4552433732314275726e61626c653a2063616c6c6572206973206e6f74206f7760008201527f6e6572206e6f7220617070726f76656400000000000000000000000000000000602082015250565b6129c68161232e565b81146129d157600080fd5b50565b6129dd81612340565b81146129e857600080fd5b50565b6129f48161234c565b81146129ff57600080fd5b50565b612a0b81612398565b8114612a1657600080fd5b5056fea264697066735822122017d6c3a10a89633aa8b6b1d24ea7ef84ab7a7cded4b4732d87ecd4d00270cf0064736f6c63430008030033",
  "immutableReferences": {},
  "source": "// SPDX-License-Identifier: MIT\r\n\r\npragma solidity ^0.8.0;\r\n\r\nimport \"../token/ERC721/extensions/ERC721Burnable.sol\";\r\n\r\ncontract ERC721BurnableMock is ERC721Burnable {\r\n    constructor(string memory name, string memory symbol) ERC721(name, symbol) { }\r\n\r\n    function exists(uint256 tokenId) public view returns (bool) {\r\n        return _exists(tokenId);\r\n    }\r\n\r\n    function mint(address to, uint256 tokenId) public {\r\n        _mint(to, tokenId);\r\n    }\r\n\r\n    function safeMint(address to, uint256 tokenId) public {\r\n        _safeMint(to, tokenId);\r\n    }\r\n\r\n    function safeMint(address to, uint256 tokenId, bytes memory _data) public {\r\n        _safeMint(to, tokenId, _data);\r\n    }\r\n}\r\n",
  "sourcePath": "D:/Code/NFTrees/contracts/OpenZepplin/mocks/ERC721BurnableMock.sol",
  "compiler": {
    "name": "solc",
    "version": "0.8.3+commit.8d00100c.Emscripten.clang"
  },
  "schemaVersion": "3.4.1",
  "updatedAt": "2021-05-22T22:20:35.173Z",
  "devdoc": {
    "kind": "dev",
    "methods": {
      "approve(address,uint256)": {
        "details": "See {IERC721-approve}."
      },
      "balanceOf(address)": {
        "details": "See {IERC721-balanceOf}."
      },
      "burn(uint256)": {
        "details": "Burns `tokenId`. See {ERC721-_burn}. Requirements: - The caller must own `tokenId` or be an approved operator."
      },
      "getApproved(uint256)": {
        "details": "See {IERC721-getApproved}."
      },
      "isApprovedForAll(address,address)": {
        "details": "See {IERC721-isApprovedForAll}."
      },
      "name()": {
        "details": "See {IERC721Metadata-name}."
      },
      "ownerOf(uint256)": {
        "details": "See {IERC721-ownerOf}."
      },
      "safeTransferFrom(address,address,uint256)": {
        "details": "See {IERC721-safeTransferFrom}."
      },
      "safeTransferFrom(address,address,uint256,bytes)": {
        "details": "See {IERC721-safeTransferFrom}."
      },
      "setApprovalForAll(address,bool)": {
        "details": "See {IERC721-setApprovalForAll}."
      },
      "supportsInterface(bytes4)": {
        "details": "See {IERC165-supportsInterface}."
      },
      "symbol()": {
        "details": "See {IERC721Metadata-symbol}."
      },
      "tokenURI(uint256)": {
        "details": "See {IERC721Metadata-tokenURI}."
      },
      "transferFrom(address,address,uint256)": {
        "details": "See {IERC721-transferFrom}."
      }
    },
    "version": 1
  },
  "userdoc": {
    "kind": "user",
    "methods": {},
    "version": 1
  }
}