{
  "contractName": "Implementation1",
  "abi": [
    {
      "inputs": [],
      "name": "initialize",
      "outputs": [],
      "stateMutability": "nonpayable",
      "type": "function"
    },
    {
      "inputs": [
        {
          "internalType": "uint256",
          "name": "_number",
          "type": "uint256"
        }
      ],
      "name": "setValue",
      "outputs": [],
      "stateMutability": "nonpayable",
      "type": "function"
    }
  ],
  "bytecode": "0x608060405234801561001057600080fd5b5061027c806100206000396000f3fe608060405234801561001057600080fd5b50600436106100365760003560e01c8063552410771461003b5780638129fc1c14610057575b600080fd5b61005560048036038101906100509190610159565b610061565b005b61005f61006b565b005b8060018190555050565b600060019054906101000a900460ff1680610091575060008054906101000a900460ff16155b6100d0576040517f08c379a00000000000000000000000000000000000000000000000000000000081526004016100c7906101a5565b60405180910390fd5b60008060019054906101000a900460ff161590508015610120576001600060016101000a81548160ff02191690831515021790555060016000806101000a81548160ff0219169083151502179055505b80156101415760008060016101000a81548160ff0219169083151502179055505b50565b6000813590506101538161022f565b92915050565b60006020828403121561016b57600080fd5b600061017984828501610144565b91505092915050565b600061018f602e836101c5565b915061019a826101e0565b604082019050919050565b600060208201905081810360008301526101be81610182565b9050919050565b600082825260208201905092915050565b6000819050919050565b7f496e697469616c697a61626c653a20636f6e747261637420697320616c72656160008201527f647920696e697469616c697a6564000000000000000000000000000000000000602082015250565b610238816101d6565b811461024357600080fd5b5056fea2646970667358221220d1b570209203a0703836ec792fca168e06d240fb371893ef87b2f63ac282269964736f6c63430008030033",
  "immutableReferences": {},
  "source": "// SPDX-License-Identifier: MIT\r\n\r\npragma solidity ^0.8.0;\r\n\r\nimport \"../proxy/utils/Initializable.sol\";\r\n\r\ncontract Implementation1 is Initializable {\r\n  uint internal _value;\r\n\r\n  function initialize() public initializer {\r\n  }\r\n\r\n  function setValue(uint _number) public {\r\n    _value = _number;\r\n  }\r\n}\r\n\r\ncontract Implementation2 is Initializable {\r\n  uint internal _value;\r\n\r\n  function initialize() public initializer {\r\n  }\r\n\r\n  function setValue(uint _number) public {\r\n    _value = _number;\r\n  }\r\n\r\n  function getValue() public view returns (uint) {\r\n    return _value;\r\n  }\r\n}\r\n\r\ncontract Implementation3 is Initializable {\r\n  uint internal _value;\r\n\r\n  function initialize() public initializer {\r\n  }\r\n\r\n  function setValue(uint _number) public {\r\n    _value = _number;\r\n  }\r\n\r\n  function getValue(uint _number) public view returns (uint) {\r\n    return _value + _number;\r\n  }\r\n}\r\n\r\ncontract Implementation4 is Initializable {\r\n  uint internal _value;\r\n\r\n  function initialize() public initializer {\r\n  }\r\n\r\n  function setValue(uint _number) public {\r\n    _value = _number;\r\n  }\r\n\r\n  function getValue() public view returns (uint) {\r\n    return _value;\r\n  }\r\n\r\n  // solhint-disable-next-line payable-fallback\r\n  fallback() external {\r\n    _value = 1;\r\n  }\r\n}\r\n",
  "sourcePath": "D:/Code/NFTrees/contracts/OpenZepplin/mocks/RegressionImplementation.sol",
  "compiler": {
    "name": "solc",
    "version": "0.8.3+commit.8d00100c.Emscripten.clang"
  },
  "schemaVersion": "3.4.1",
  "updatedAt": "2021-05-22T22:20:35.462Z",
  "devdoc": {
    "kind": "dev",
    "methods": {},
    "version": 1
  },
  "userdoc": {
    "kind": "user",
    "methods": {},
    "version": 1
  }
}