{
  "contractName": "MulticallTokenMock",
  "abi": [
    {
      "inputs": [
        {
          "internalType": "uint256",
          "name": "initialBalance",
          "type": "uint256"
        }
      ],
      "stateMutability": "nonpayable",
      "type": "constructor"
    },
    {
      "anonymous": false,
      "inputs": [
        {
          "indexed": true,
          "internalType": "address",
          "name": "owner",
          "type": "address"
        },
        {
          "indexed": true,
          "internalType": "address",
          "name": "spender",
          "type": "address"
        },
        {
          "indexed": false,
          "internalType": "uint256",
          "name": "value",
          "type": "uint256"
        }
      ],
      "name": "Approval",
      "type": "event"
    },
    {
      "anonymous": false,
      "inputs": [
        {
          "indexed": true,
          "internalType": "address",
          "name": "from",
          "type": "address"
        },
        {
          "indexed": true,
          "internalType": "address",
          "name": "to",
          "type": "address"
        },
        {
          "indexed": false,
          "internalType": "uint256",
          "name": "value",
          "type": "uint256"
        }
      ],
      "name": "Transfer",
      "type": "event"
    },
    {
      "inputs": [
        {
          "internalType": "address",
          "name": "owner",
          "type": "address"
        },
        {
          "internalType": "address",
          "name": "spender",
          "type": "address"
        }
      ],
      "name": "allowance",
      "outputs": [
        {
          "internalType": "uint256",
          "name": "",
          "type": "uint256"
        }
      ],
      "stateMutability": "view",
      "type": "function"
    },
    {
      "inputs": [
        {
          "internalType": "address",
          "name": "spender",
          "type": "address"
        },
        {
          "internalType": "uint256",
          "name": "amount",
          "type": "uint256"
        }
      ],
      "name": "approve",
      "outputs": [
        {
          "internalType": "bool",
          "name": "",
          "type": "bool"
        }
      ],
      "stateMutability": "nonpayable",
      "type": "function"
    },
    {
      "inputs": [
        {
          "internalType": "address",
          "name": "owner",
          "type": "address"
        },
        {
          "internalType": "address",
          "name": "spender",
          "type": "address"
        },
        {
          "internalType": "uint256",
          "name": "value",
          "type": "uint256"
        }
      ],
      "name": "approveInternal",
      "outputs": [],
      "stateMutability": "nonpayable",
      "type": "function"
    },
    {
      "inputs": [
        {
          "internalType": "address",
          "name": "account",
          "type": "address"
        }
      ],
      "name": "balanceOf",
      "outputs": [
        {
          "internalType": "uint256",
          "name": "",
          "type": "uint256"
        }
      ],
      "stateMutability": "view",
      "type": "function"
    },
    {
      "inputs": [
        {
          "internalType": "address",
          "name": "account",
          "type": "address"
        },
        {
          "internalType": "uint256",
          "name": "amount",
          "type": "uint256"
        }
      ],
      "name": "burn",
      "outputs": [],
      "stateMutability": "nonpayable",
      "type": "function"
    },
    {
      "inputs": [],
      "name": "decimals",
      "outputs": [
        {
          "internalType": "uint8",
          "name": "",
          "type": "uint8"
        }
      ],
      "stateMutability": "view",
      "type": "function"
    },
    {
      "inputs": [
        {
          "internalType": "address",
          "name": "spender",
          "type": "address"
        },
        {
          "internalType": "uint256",
          "name": "subtractedValue",
          "type": "uint256"
        }
      ],
      "name": "decreaseAllowance",
      "outputs": [
        {
          "internalType": "bool",
          "name": "",
          "type": "bool"
        }
      ],
      "stateMutability": "nonpayable",
      "type": "function"
    },
    {
      "inputs": [
        {
          "internalType": "address",
          "name": "spender",
          "type": "address"
        },
        {
          "internalType": "uint256",
          "name": "addedValue",
          "type": "uint256"
        }
      ],
      "name": "increaseAllowance",
      "outputs": [
        {
          "internalType": "bool",
          "name": "",
          "type": "bool"
        }
      ],
      "stateMutability": "nonpayable",
      "type": "function"
    },
    {
      "inputs": [
        {
          "internalType": "address",
          "name": "account",
          "type": "address"
        },
        {
          "internalType": "uint256",
          "name": "amount",
          "type": "uint256"
        }
      ],
      "name": "mint",
      "outputs": [],
      "stateMutability": "nonpayable",
      "type": "function"
    },
    {
      "inputs": [
        {
          "internalType": "bytes[]",
          "name": "data",
          "type": "bytes[]"
        }
      ],
      "name": "multicall",
      "outputs": [
        {
          "internalType": "bytes[]",
          "name": "results",
          "type": "bytes[]"
        }
      ],
      "stateMutability": "nonpayable",
      "type": "function"
    },
    {
      "inputs": [],
      "name": "name",
      "outputs": [
        {
          "internalType": "string",
          "name": "",
          "type": "string"
        }
      ],
      "stateMutability": "view",
      "type": "function"
    },
    {
      "inputs": [],
      "name": "symbol",
      "outputs": [
        {
          "internalType": "string",
          "name": "",
          "type": "string"
        }
      ],
      "stateMutability": "view",
      "type": "function"
    },
    {
      "inputs": [],
      "name": "totalSupply",
      "outputs": [
        {
          "internalType": "uint256",
          "name": "",
          "type": "uint256"
        }
      ],
      "stateMutability": "view",
      "type": "function"
    },
    {
      "inputs": [
        {
          "internalType": "address",
          "name": "recipient",
          "type": "address"
        },
        {
          "internalType": "uint256",
          "name": "amount",
          "type": "uint256"
        }
      ],
      "name": "transfer",
      "outputs": [
        {
          "internalType": "bool",
          "name": "",
          "type": "bool"
        }
      ],
      "stateMutability": "nonpayable",
      "type": "function"
    },
    {
      "inputs": [
        {
          "internalType": "address",
          "name": "sender",
          "type": "address"
        },
        {
          "internalType": "address",
          "name": "recipient",
          "type": "address"
        },
        {
          "internalType": "uint256",
          "name": "amount",
          "type": "uint256"
        }
      ],
      "name": "transferFrom",
      "outputs": [
        {
          "internalType": "bool",
          "name": "",
          "type": "bool"
        }
      ],
      "stateMutability": "nonpayable",
      "type": "function"
    },
    {
      "inputs": [
        {
          "internalType": "address",
          "name": "from",
          "type": "address"
        },
        {
          "internalType": "address",
          "name": "to",
          "type": "address"
        },
        {
          "internalType": "uint256",
          "name": "value",
          "type": "uint256"
        }
      ],
      "name": "transferInternal",
      "outputs": [],
      "stateMutability": "nonpayable",
      "type": "function"
    }
  ],
  "bytecode": "0x60806040523480156200001157600080fd5b506040516200255038038062002550833981810160405281019062000037919062000329565b6040518060400160405280600e81526020017f4d756c746963616c6c546f6b656e0000000000000000000000000000000000008152506040518060400160405280600381526020017f4243540000000000000000000000000000000000000000000000000000000000815250338383838160039080519060200190620000bf92919062000262565b508060049080519060200190620000d892919062000262565b505050620000ed8282620000f860201b60201c565b50505050506200051b565b600073ffffffffffffffffffffffffffffffffffffffff168273ffffffffffffffffffffffffffffffffffffffff1614156200016b576040517f08c379a000000000000000000000000000000000000000000000000000000000815260040162000162906200038d565b60405180910390fd5b6200017f600083836200025d60201b60201c565b8060026000828254620001939190620003dd565b92505081905550806000808473ffffffffffffffffffffffffffffffffffffffff1673ffffffffffffffffffffffffffffffffffffffff1681526020019081526020016000206000828254620001ea9190620003dd565b925050819055508173ffffffffffffffffffffffffffffffffffffffff16600073ffffffffffffffffffffffffffffffffffffffff167fddf252ad1be2c89b69c2b068fc378daa952ba7f163c4a11628f55a4df523b3ef83604051620002519190620003af565b60405180910390a35050565b505050565b828054620002709062000444565b90600052602060002090601f016020900481019282620002945760008555620002e0565b82601f10620002af57805160ff1916838001178555620002e0565b82800160010185558215620002e0579182015b82811115620002df578251825591602001919060010190620002c2565b5b509050620002ef9190620002f3565b5090565b5b808211156200030e576000816000905550600101620002f4565b5090565b600081519050620003238162000501565b92915050565b6000602082840312156200033c57600080fd5b60006200034c8482850162000312565b91505092915050565b600062000364601f83620003cc565b91506200037182620004d8565b602082019050919050565b62000387816200043a565b82525050565b60006020820190508181036000830152620003a88162000355565b9050919050565b6000602082019050620003c660008301846200037c565b92915050565b600082825260208201905092915050565b6000620003ea826200043a565b9150620003f7836200043a565b9250827fffffffffffffffffffffffffffffffffffffffffffffffffffffffffffffffff038211156200042f576200042e6200047a565b5b828201905092915050565b6000819050919050565b600060028204905060018216806200045d57607f821691505b60208210811415620004745762000473620004a9565b5b50919050565b7f4e487b7100000000000000000000000000000000000000000000000000000000600052601160045260246000fd5b7f4e487b7100000000000000000000000000000000000000000000000000000000600052602260045260246000fd5b7f45524332303a206d696e7420746f20746865207a65726f206164647265737300600082015250565b6200050c816200043a565b81146200051857600080fd5b50565b612025806200052b6000396000f3fe608060405234801561001057600080fd5b50600436106101005760003560e01c806356189cb411610097578063a457c2d711610066578063a457c2d7146102ad578063a9059cbb146102dd578063ac9650d81461030d578063dd62ed3e1461033d57610100565b806356189cb41461022757806370a082311461024357806395d89b41146102735780639dc29fac1461029157610100565b806323b872dd116100d357806323b872dd1461018d578063313ce567146101bd57806339509351146101db57806340c10f191461020b57610100565b806306fdde0314610105578063095ea7b31461012357806318160ddd14610153578063222f5be014610171575b600080fd5b61010d61036d565b60405161011a91906117d4565b60405180910390f35b61013d60048036038101906101389190611425565b6103ff565b60405161014a91906117b9565b60405180910390f35b61015b61041d565b6040516101689190611956565b60405180910390f35b61018b600480360381019061018691906113d6565b610427565b005b6101a760048036038101906101a291906113d6565b610437565b6040516101b491906117b9565b60405180910390f35b6101c5610538565b6040516101d29190611971565b60405180910390f35b6101f560048036038101906101f09190611425565b610541565b60405161020291906117b9565b60405180910390f35b61022560048036038101906102209190611425565b6105ed565b005b610241600480360381019061023c91906113d6565b6105fb565b005b61025d60048036038101906102589190611371565b61060b565b60405161026a9190611956565b60405180910390f35b61027b610653565b60405161028891906117d4565b60405180910390f35b6102ab60048036038101906102a69190611425565b6106e5565b005b6102c760048036038101906102c29190611425565b6106f3565b6040516102d491906117b9565b60405180910390f35b6102f760048036038101906102f29190611425565b6107e7565b60405161030491906117b9565b60405180910390f35b61032760048036038101906103229190611461565b610805565b6040516103349190611797565b60405180910390f35b6103576004803603810190610352919061139a565b610983565b6040516103649190611956565b60405180910390f35b60606003805461037c90611b71565b80601f01602080910402602001604051908101604052809291908181526020018280546103a890611b71565b80156103f55780601f106103ca576101008083540402835291602001916103f5565b820191906000526020600020905b8154815290600101906020018083116103d857829003601f168201915b5050505050905090565b600061041361040c610a0a565b8484610a12565b6001905092915050565b6000600254905090565b610432838383610bdd565b505050565b6000610444848484610bdd565b6000600160008673ffffffffffffffffffffffffffffffffffffffff1673ffffffffffffffffffffffffffffffffffffffff168152602001908152602001600020600061048f610a0a565b73ffffffffffffffffffffffffffffffffffffffff1673ffffffffffffffffffffffffffffffffffffffff1681526020019081526020016000205490508281101561050f576040517f08c379a000000000000000000000000000000000000000000000000000000000815260040161050690611876565b60405180910390fd5b61052c8561051b610a0a565b85846105279190611ab5565b610a12565b60019150509392505050565b60006012905090565b60006105e361054e610a0a565b84846001600061055c610a0a565b73ffffffffffffffffffffffffffffffffffffffff1673ffffffffffffffffffffffffffffffffffffffff16815260200190815260200160002060008873ffffffffffffffffffffffffffffffffffffffff1673ffffffffffffffffffffffffffffffffffffffff168152602001908152602001600020546105de9190611a5f565b610a12565b6001905092915050565b6105f78282610e5c565b5050565b610606838383610a12565b505050565b60008060008373ffffffffffffffffffffffffffffffffffffffff1673ffffffffffffffffffffffffffffffffffffffff168152602001908152602001600020549050919050565b60606004805461066290611b71565b80601f016020809104026020016040519081016040528092919081815260200182805461068e90611b71565b80156106db5780601f106106b0576101008083540402835291602001916106db565b820191906000526020600020905b8154815290600101906020018083116106be57829003601f168201915b5050505050905090565b6106ef8282610fb0565b5050565b60008060016000610702610a0a565b73ffffffffffffffffffffffffffffffffffffffff1673ffffffffffffffffffffffffffffffffffffffff16815260200190815260200160002060008573ffffffffffffffffffffffffffffffffffffffff1673ffffffffffffffffffffffffffffffffffffffff168152602001908152602001600020549050828110156107bf576040517f08c379a00000000000000000000000000000000000000000000000000000000081526004016107b690611916565b60405180910390fd5b6107dc6107ca610a0a565b8585846107d79190611ab5565b610a12565b600191505092915050565b60006107fb6107f4610a0a565b8484610bdd565b6001905092915050565b60608282905067ffffffffffffffff81111561084a577f4e487b7100000000000000000000000000000000000000000000000000000000600052604160045260246000fd5b60405190808252806020026020018201604052801561087d57816020015b60608152602001906001900390816108685790505b50905060005b8383905081101561097c57610925308585848181106108cb577f4e487b7100000000000000000000000000000000000000000000000000000000600052603260045260246000fd5b90506020028101906108dd919061198c565b8080601f016020809104026020016040519081016040528093929190818152602001838380828437600081840152601f19601f82011690508083019250505050505050611184565b82828151811061095e577f4e487b7100000000000000000000000000000000000000000000000000000000600052603260045260246000fd5b6020026020010181905250808061097490611ba3565b915050610883565b5092915050565b6000600160008473ffffffffffffffffffffffffffffffffffffffff1673ffffffffffffffffffffffffffffffffffffffff16815260200190815260200160002060008373ffffffffffffffffffffffffffffffffffffffff1673ffffffffffffffffffffffffffffffffffffffff16815260200190815260200160002054905092915050565b600033905090565b600073ffffffffffffffffffffffffffffffffffffffff168373ffffffffffffffffffffffffffffffffffffffff161415610a82576040517f08c379a0000000000000000000000000000000000000000000000000000000008152600401610a79906118f6565b60405180910390fd5b600073ffffffffffffffffffffffffffffffffffffffff168273ffffffffffffffffffffffffffffffffffffffff161415610af2576040517f08c379a0000000000000000000000000000000000000000000000000000000008152600401610ae990611836565b60405180910390fd5b80600160008573ffffffffffffffffffffffffffffffffffffffff1673ffffffffffffffffffffffffffffffffffffffff16815260200190815260200160002060008473ffffffffffffffffffffffffffffffffffffffff1673ffffffffffffffffffffffffffffffffffffffff168152602001908152602001600020819055508173ffffffffffffffffffffffffffffffffffffffff168373ffffffffffffffffffffffffffffffffffffffff167f8c5be1e5ebec7d5bd14f71427d1e84f3dd0314c0f7b2291e5b200ac8c7c3b92583604051610bd09190611956565b60405180910390a3505050565b600073ffffffffffffffffffffffffffffffffffffffff168373ffffffffffffffffffffffffffffffffffffffff161415610c4d576040517f08c379a0000000000000000000000000000000000000000000000000000000008152600401610c44906118d6565b60405180910390fd5b600073ffffffffffffffffffffffffffffffffffffffff168273ffffffffffffffffffffffffffffffffffffffff161415610cbd576040517f08c379a0000000000000000000000000000000000000000000000000000000008152600401610cb4906117f6565b60405180910390fd5b610cc88383836111b1565b60008060008573ffffffffffffffffffffffffffffffffffffffff1673ffffffffffffffffffffffffffffffffffffffff16815260200190815260200160002054905081811015610d4e576040517f08c379a0000000000000000000000000000000000000000000000000000000008152600401610d4590611856565b60405180910390fd5b8181610d5a9190611ab5565b6000808673ffffffffffffffffffffffffffffffffffffffff1673ffffffffffffffffffffffffffffffffffffffff16815260200190815260200160002081905550816000808573ffffffffffffffffffffffffffffffffffffffff1673ffffffffffffffffffffffffffffffffffffffff1681526020019081526020016000206000828254610dea9190611a5f565b925050819055508273ffffffffffffffffffffffffffffffffffffffff168473ffffffffffffffffffffffffffffffffffffffff167fddf252ad1be2c89b69c2b068fc378daa952ba7f163c4a11628f55a4df523b3ef84604051610e4e9190611956565b60405180910390a350505050565b600073ffffffffffffffffffffffffffffffffffffffff168273ffffffffffffffffffffffffffffffffffffffff161415610ecc576040517f08c379a0000000000000000000000000000000000000000000000000000000008152600401610ec390611936565b60405180910390fd5b610ed8600083836111b1565b8060026000828254610eea9190611a5f565b92505081905550806000808473ffffffffffffffffffffffffffffffffffffffff1673ffffffffffffffffffffffffffffffffffffffff1681526020019081526020016000206000828254610f3f9190611a5f565b925050819055508173ffffffffffffffffffffffffffffffffffffffff16600073ffffffffffffffffffffffffffffffffffffffff167fddf252ad1be2c89b69c2b068fc378daa952ba7f163c4a11628f55a4df523b3ef83604051610fa49190611956565b60405180910390a35050565b600073ffffffffffffffffffffffffffffffffffffffff168273ffffffffffffffffffffffffffffffffffffffff161415611020576040517f08c379a000000000000000000000000000000000000000000000000000000000815260040161101790611896565b60405180910390fd5b61102c826000836111b1565b60008060008473ffffffffffffffffffffffffffffffffffffffff1673ffffffffffffffffffffffffffffffffffffffff168152602001908152602001600020549050818110156110b2576040517f08c379a00000000000000000000000000000000000000000000000000000000081526004016110a990611816565b60405180910390fd5b81816110be9190611ab5565b6000808573ffffffffffffffffffffffffffffffffffffffff1673ffffffffffffffffffffffffffffffffffffffff1681526020019081526020016000208190555081600260008282546111129190611ab5565b92505081905550600073ffffffffffffffffffffffffffffffffffffffff168373ffffffffffffffffffffffffffffffffffffffff167fddf252ad1be2c89b69c2b068fc378daa952ba7f163c4a11628f55a4df523b3ef846040516111779190611956565b60405180910390a3505050565b60606111a98383604051806060016040528060278152602001611fc9602791396111b6565b905092915050565b505050565b60606111c184611283565b611200576040517f08c379a00000000000000000000000000000000000000000000000000000000081526004016111f7906118b6565b60405180910390fd5b6000808573ffffffffffffffffffffffffffffffffffffffff16856040516112289190611780565b600060405180830381855af49150503d8060008114611263576040519150601f19603f3d011682016040523d82523d6000602084013e611268565b606091505b5091509150611278828286611296565b925050509392505050565b600080823b905060008111915050919050565b606083156112a6578290506112f6565b6000835111156112b95782518084602001fd5b816040517f08c379a00000000000000000000000000000000000000000000000000000000081526004016112ed91906117d4565b60405180910390fd5b9392505050565b60008135905061130c81611f9a565b92915050565b60008083601f84011261132457600080fd5b8235905067ffffffffffffffff81111561133d57600080fd5b60208301915083602082028301111561135557600080fd5b9250929050565b60008135905061136b81611fb1565b92915050565b60006020828403121561138357600080fd5b6000611391848285016112fd565b91505092915050565b600080604083850312156113ad57600080fd5b60006113bb858286016112fd565b92505060206113cc858286016112fd565b9150509250929050565b6000806000606084860312156113eb57600080fd5b60006113f9868287016112fd565b935050602061140a868287016112fd565b925050604061141b8682870161135c565b9150509250925092565b6000806040838503121561143857600080fd5b6000611446858286016112fd565b92505060206114578582860161135c565b9150509250929050565b6000806020838503121561147457600080fd5b600083013567ffffffffffffffff81111561148e57600080fd5b61149a85828601611312565b92509250509250929050565b60006114b2838361153e565b905092915050565b60006114c5826119f3565b6114cf8185611a21565b9350836020820285016114e1856119e3565b8060005b8581101561151d57848403895281516114fe85826114a6565b945061150983611a14565b925060208a019950506001810190506114e5565b50829750879550505050505092915050565b61153881611afb565b82525050565b6000611549826119fe565b6115538185611a32565b9350611563818560208601611b3e565b61156c81611c4a565b840191505092915050565b6000611582826119fe565b61158c8185611a43565b935061159c818560208601611b3e565b80840191505092915050565b60006115b382611a09565b6115bd8185611a4e565b93506115cd818560208601611b3e565b6115d681611c4a565b840191505092915050565b60006115ee602383611a4e565b91506115f982611c5b565b604082019050919050565b6000611611602283611a4e565b915061161c82611caa565b604082019050919050565b6000611634602283611a4e565b915061163f82611cf9565b604082019050919050565b6000611657602683611a4e565b915061166282611d48565b604082019050919050565b600061167a602883611a4e565b915061168582611d97565b604082019050919050565b600061169d602183611a4e565b91506116a882611de6565b604082019050919050565b60006116c0602683611a4e565b91506116cb82611e35565b604082019050919050565b60006116e3602583611a4e565b91506116ee82611e84565b604082019050919050565b6000611706602483611a4e565b915061171182611ed3565b604082019050919050565b6000611729602583611a4e565b915061173482611f22565b604082019050919050565b600061174c601f83611a4e565b915061175782611f71565b602082019050919050565b61176b81611b27565b82525050565b61177a81611b31565b82525050565b600061178c8284611577565b915081905092915050565b600060208201905081810360008301526117b181846114ba565b905092915050565b60006020820190506117ce600083018461152f565b92915050565b600060208201905081810360008301526117ee81846115a8565b905092915050565b6000602082019050818103600083015261180f816115e1565b9050919050565b6000602082019050818103600083015261182f81611604565b9050919050565b6000602082019050818103600083015261184f81611627565b9050919050565b6000602082019050818103600083015261186f8161164a565b9050919050565b6000602082019050818103600083015261188f8161166d565b9050919050565b600060208201905081810360008301526118af81611690565b9050919050565b600060208201905081810360008301526118cf816116b3565b9050919050565b600060208201905081810360008301526118ef816116d6565b9050919050565b6000602082019050818103600083015261190f816116f9565b9050919050565b6000602082019050818103600083015261192f8161171c565b9050919050565b6000602082019050818103600083015261194f8161173f565b9050919050565b600060208201905061196b6000830184611762565b92915050565b60006020820190506119866000830184611771565b92915050565b600080833560016020038436030381126119a557600080fd5b80840192508235915067ffffffffffffffff8211156119c357600080fd5b6020830192506001820236038313156119db57600080fd5b509250929050565b6000819050602082019050919050565b600081519050919050565b600081519050919050565b600081519050919050565b6000602082019050919050565b600082825260208201905092915050565b600082825260208201905092915050565b600081905092915050565b600082825260208201905092915050565b6000611a6a82611b27565b9150611a7583611b27565b9250827fffffffffffffffffffffffffffffffffffffffffffffffffffffffffffffffff03821115611aaa57611aa9611bec565b5b828201905092915050565b6000611ac082611b27565b9150611acb83611b27565b925082821015611ade57611add611bec565b5b828203905092915050565b6000611af482611b07565b9050919050565b60008115159050919050565b600073ffffffffffffffffffffffffffffffffffffffff82169050919050565b6000819050919050565b600060ff82169050919050565b60005b83811015611b5c578082015181840152602081019050611b41565b83811115611b6b576000848401525b50505050565b60006002820490506001821680611b8957607f821691505b60208210811415611b9d57611b9c611c1b565b5b50919050565b6000611bae82611b27565b91507fffffffffffffffffffffffffffffffffffffffffffffffffffffffffffffffff821415611be157611be0611bec565b5b600182019050919050565b7f4e487b7100000000000000000000000000000000000000000000000000000000600052601160045260246000fd5b7f4e487b7100000000000000000000000000000000000000000000000000000000600052602260045260246000fd5b6000601f19601f8301169050919050565b7f45524332303a207472616e7366657220746f20746865207a65726f206164647260008201527f6573730000000000000000000000000000000000000000000000000000000000602082015250565b7f45524332303a206275726e20616d6f756e7420657863656564732062616c616e60008201527f6365000000000000000000000000000000000000000000000000000000000000602082015250565b7f45524332303a20617070726f766520746f20746865207a65726f20616464726560008201527f7373000000000000000000000000000000000000000000000000000000000000602082015250565b7f45524332303a207472616e7366657220616d6f756e742065786365656473206260008201527f616c616e63650000000000000000000000000000000000000000000000000000602082015250565b7f45524332303a207472616e7366657220616d6f756e742065786365656473206160008201527f6c6c6f77616e6365000000000000000000000000000000000000000000000000602082015250565b7f45524332303a206275726e2066726f6d20746865207a65726f2061646472657360008201527f7300000000000000000000000000000000000000000000000000000000000000602082015250565b7f416464726573733a2064656c65676174652063616c6c20746f206e6f6e2d636f60008201527f6e74726163740000000000000000000000000000000000000000000000000000602082015250565b7f45524332303a207472616e736665722066726f6d20746865207a65726f20616460008201527f6472657373000000000000000000000000000000000000000000000000000000602082015250565b7f45524332303a20617070726f76652066726f6d20746865207a65726f2061646460008201527f7265737300000000000000000000000000000000000000000000000000000000602082015250565b7f45524332303a2064656372656173656420616c6c6f77616e63652062656c6f7760008201527f207a65726f000000000000000000000000000000000000000000000000000000602082015250565b7f45524332303a206d696e7420746f20746865207a65726f206164647265737300600082015250565b611fa381611ae9565b8114611fae57600080fd5b50565b611fba81611b27565b8114611fc557600080fd5b5056fe416464726573733a206c6f772d6c6576656c2064656c65676174652063616c6c206661696c6564a2646970667358221220837c05b2231b41caff98ebc391c6b486a81eb7c5030686661b91c6ce3680f1b064736f6c63430008030033",
  "immutableReferences": {},
  "source": "// SPDX-License-Identifier: MIT\r\n\r\npragma solidity ^0.8.0;\r\n\r\nimport \"../utils/Multicall.sol\";\r\nimport \"./ERC20Mock.sol\";\r\n\r\ncontract MulticallTokenMock is ERC20Mock, Multicall {\r\n    constructor (uint256 initialBalance) ERC20Mock(\"MulticallToken\", \"BCT\", msg.sender, initialBalance) {}\r\n}\r\n",
  "sourcePath": "D:/Code/NFTrees/contracts/OpenZepplin/mocks/MulticallTokenMock.sol",
  "compiler": {
    "name": "solc",
    "version": "0.8.3+commit.8d00100c.Emscripten.clang"
  },
  "schemaVersion": "3.4.1",
  "updatedAt": "2021-05-25T03:10:55.270Z",
  "devdoc": {
    "kind": "dev",
    "methods": {
      "allowance(address,address)": {
        "details": "See {IERC20-allowance}."
      },
      "approve(address,uint256)": {
        "details": "See {IERC20-approve}. Requirements: - `spender` cannot be the zero address."
      },
      "balanceOf(address)": {
        "details": "See {IERC20-balanceOf}."
      },
      "decimals()": {
        "details": "Returns the number of decimals used to get its user representation. For example, if `decimals` equals `2`, a balance of `505` tokens should be displayed to a user as `5,05` (`505 / 10 ** 2`). Tokens usually opt for a value of 18, imitating the relationship between Ether and Wei. This is the value {ERC20} uses, unless this function is overridden; NOTE: This information is only used for _display_ purposes: it in no way affects any of the arithmetic of the contract, including {IERC20-balanceOf} and {IERC20-transfer}."
      },
      "decreaseAllowance(address,uint256)": {
        "details": "Atomically decreases the allowance granted to `spender` by the caller. This is an alternative to {approve} that can be used as a mitigation for problems described in {IERC20-approve}. Emits an {Approval} event indicating the updated allowance. Requirements: - `spender` cannot be the zero address. - `spender` must have allowance for the caller of at least `subtractedValue`."
      },
      "increaseAllowance(address,uint256)": {
        "details": "Atomically increases the allowance granted to `spender` by the caller. This is an alternative to {approve} that can be used as a mitigation for problems described in {IERC20-approve}. Emits an {Approval} event indicating the updated allowance. Requirements: - `spender` cannot be the zero address."
      },
      "multicall(bytes[])": {
        "details": "Receives and executes a batch of function calls on this contract."
      },
      "name()": {
        "details": "Returns the name of the token."
      },
      "symbol()": {
        "details": "Returns the symbol of the token, usually a shorter version of the name."
      },
      "totalSupply()": {
        "details": "See {IERC20-totalSupply}."
      },
      "transfer(address,uint256)": {
        "details": "See {IERC20-transfer}. Requirements: - `recipient` cannot be the zero address. - the caller must have a balance of at least `amount`."
      },
      "transferFrom(address,address,uint256)": {
        "details": "See {IERC20-transferFrom}. Emits an {Approval} event indicating the updated allowance. This is not required by the EIP. See the note at the beginning of {ERC20}. Requirements: - `sender` and `recipient` cannot be the zero address. - `sender` must have a balance of at least `amount`. - the caller must have allowance for ``sender``'s tokens of at least `amount`."
      }
    },
    "version": 1
  },
  "userdoc": {
    "kind": "user",
    "methods": {},
    "version": 1
  }
}