{
  "contractName": "MulticallTest",
  "abi": [
    {
      "inputs": [
        {
          "internalType": "contract MulticallTokenMock",
          "name": "multicallToken",
          "type": "address"
        },
        {
          "internalType": "address[]",
          "name": "recipients",
          "type": "address[]"
        },
        {
          "internalType": "uint256[]",
          "name": "amounts",
          "type": "uint256[]"
        }
      ],
      "name": "testReturnValues",
      "outputs": [],
      "stateMutability": "nonpayable",
      "type": "function"
    }
  ],
  "bytecode": "0x608060405234801561001057600080fd5b50610a34806100206000396000f3fe608060405234801561001057600080fd5b506004361061002b5760003560e01c8063bc548f7614610030575b600080fd5b61004a600480360381019061004591906105b8565b61004c565b005b60008484905067ffffffffffffffff811115610091577f4e487b7100000000000000000000000000000000000000000000000000000000600052604160045260246000fd5b6040519080825280602002602001820160405280156100c457816020015b60608152602001906001900390816100af5790505b50905060005b858590508110156102485785858281811061010e577f4e487b7100000000000000000000000000000000000000000000000000000000600052603260045260246000fd5b90506020020160208101906101239190610525565b84848381811061015c577f4e487b7100000000000000000000000000000000000000000000000000000000600052603260045260246000fd5b90506020020135604051602401610174929190610721565b6040516020818303038152906040527fa9059cbb000000000000000000000000000000000000000000000000000000007bffffffffffffffffffffffffffffffffffffffffffffffffffffffff19166020820180517bffffffffffffffffffffffffffffffffffffffffffffffffffffffff838183161783525050505082828151811061022a577f4e487b7100000000000000000000000000000000000000000000000000000000600052603260045260246000fd5b6020026020010181905250808061024090610901565b9150506100ca565b5060008673ffffffffffffffffffffffffffffffffffffffff1663ac9650d8836040518263ffffffff1660e01b8152600401610284919061074a565b600060405180830381600087803b15801561029e57600080fd5b505af11580156102b2573d6000803e3d6000fd5b505050506040513d6000823e3d601f19601f820116820180604052508101906102db919061054e565b905060005b815181101561035957818181518110610322577f4e487b7100000000000000000000000000000000000000000000000000000000600052603260045260246000fd5b602002602001015180602001905181019061033d919061058f565b61034657600080fd5b808061035190610901565b9150506102e0565b5050505050505050565b600061037661037184610791565b61076c565b9050808382526020820190508260005b858110156103b6578151850161039c88826104e6565b845260208401935060208301925050600181019050610386565b5050509392505050565b60006103d36103ce846107bd565b61076c565b9050828152602081018484840111156103eb57600080fd5b6103f684828561089d565b509392505050565b60008135905061040d816109b9565b92915050565b60008083601f84011261042557600080fd5b8235905067ffffffffffffffff81111561043e57600080fd5b60208301915083602082028301111561045657600080fd5b9250929050565b600082601f83011261046e57600080fd5b815161047e848260208601610363565b91505092915050565b60008083601f84011261049957600080fd5b8235905067ffffffffffffffff8111156104b257600080fd5b6020830191508360208202830111156104ca57600080fd5b9250929050565b6000815190506104e0816109d0565b92915050565b600082601f8301126104f757600080fd5b81516105078482602086016103c0565b91505092915050565b60008135905061051f816109e7565b92915050565b60006020828403121561053757600080fd5b6000610545848285016103fe565b91505092915050565b60006020828403121561056057600080fd5b600082015167ffffffffffffffff81111561057a57600080fd5b6105868482850161045d565b91505092915050565b6000602082840312156105a157600080fd5b60006105af848285016104d1565b91505092915050565b6000806000806000606086880312156105d057600080fd5b60006105de88828901610510565b955050602086013567ffffffffffffffff8111156105fb57600080fd5b61060788828901610413565b9450945050604086013567ffffffffffffffff81111561062657600080fd5b61063288828901610487565b92509250509295509295909350565b600061064d83836106d9565b905092915050565b61065e81610843565b82525050565b600061066f826107fe565b6106798185610821565b93508360208202850161068b856107ee565b8060005b858110156106c757848403895281516106a88582610641565b94506106b383610814565b925060208a0199505060018101905061068f565b50829750879550505050505092915050565b60006106e482610809565b6106ee8185610832565b93506106fe81856020860161089d565b610707816109a8565b840191505092915050565b61071b81610893565b82525050565b60006040820190506107366000830185610655565b6107436020830184610712565b9392505050565b600060208201905081810360008301526107648184610664565b905092915050565b6000610776610787565b905061078282826108d0565b919050565b6000604051905090565b600067ffffffffffffffff8211156107ac576107ab610979565b5b602082029050602081019050919050565b600067ffffffffffffffff8211156107d8576107d7610979565b5b6107e1826109a8565b9050602081019050919050565b6000819050602082019050919050565b600081519050919050565b600081519050919050565b6000602082019050919050565b600082825260208201905092915050565b600082825260208201905092915050565b600061084e82610873565b9050919050565b60008115159050919050565b600061086c82610843565b9050919050565b600073ffffffffffffffffffffffffffffffffffffffff82169050919050565b6000819050919050565b60005b838110156108bb5780820151818401526020810190506108a0565b838111156108ca576000848401525b50505050565b6108d9826109a8565b810181811067ffffffffffffffff821117156108f8576108f7610979565b5b80604052505050565b600061090c82610893565b91507fffffffffffffffffffffffffffffffffffffffffffffffffffffffffffffffff82141561093f5761093e61094a565b5b600182019050919050565b7f4e487b7100000000000000000000000000000000000000000000000000000000600052601160045260246000fd5b7f4e487b7100000000000000000000000000000000000000000000000000000000600052604160045260246000fd5b6000601f19601f8301169050919050565b6109c281610843565b81146109cd57600080fd5b50565b6109d981610855565b81146109e457600080fd5b50565b6109f081610861565b81146109fb57600080fd5b5056fea26469706673582212203cfea39754993955d35a99c7c56f166fd47701ba67d35b113c979859b07a64f264736f6c63430008030033",
  "immutableReferences": {},
  "source": "// SPDX-License-Identifier: MIT\n\npragma solidity ^0.8.0;\n\nimport \"./MulticallTokenMock.sol\";\n\ncontract MulticallTest {\n    function testReturnValues(MulticallTokenMock multicallToken, address[] calldata recipients, uint256[] calldata amounts) external {\n        bytes[] memory calls = new bytes[](recipients.length);\n        for (uint i = 0; i < recipients.length; i++) {\n            calls[i] = abi.encodeWithSignature(\"transfer(address,uint256)\", recipients[i], amounts[i]);\n        }\n\n        bytes[] memory results = multicallToken.multicall(calls);\n        for (uint i = 0; i < results.length; i++) {\n            require(abi.decode(results[i], (bool)));\n        }\n    }\n}\n",
  "sourcePath": "/Users/brendanmorrison/Code/Nftrees/contracts/OpenZepplin/mocks/MulticallTest.sol",
  "compiler": {
    "name": "solc",
    "version": "0.8.3+commit.8d00100c.Emscripten.clang"
  },
  "schemaVersion": "3.3.4",
  "updatedAt": "2021-05-20T18:36:26.055Z",
  "devdoc": {
    "kind": "dev",
    "methods": {},
    "version": 1
  },
  "userdoc": {
    "kind": "user",
    "methods": {},
    "version": 1
  }
}