{
  "contractName": "NFTree",
  "abi": [
    {
      "inputs": [],
      "stateMutability": "nonpayable",
      "type": "constructor"
    },
    {
      "anonymous": false,
      "inputs": [
        {
          "indexed": true,
          "internalType": "address",
          "name": "owner",
          "type": "address"
        },
        {
          "indexed": true,
          "internalType": "address",
          "name": "approved",
          "type": "address"
        },
        {
          "indexed": true,
          "internalType": "uint256",
          "name": "tokenId",
          "type": "uint256"
        }
      ],
      "name": "Approval",
      "type": "event"
    },
    {
      "anonymous": false,
      "inputs": [
        {
          "indexed": true,
          "internalType": "address",
          "name": "owner",
          "type": "address"
        },
        {
          "indexed": true,
          "internalType": "address",
          "name": "operator",
          "type": "address"
        },
        {
          "indexed": false,
          "internalType": "bool",
          "name": "approved",
          "type": "bool"
        }
      ],
      "name": "ApprovalForAll",
      "type": "event"
    },
    {
      "anonymous": false,
      "inputs": [
        {
          "indexed": true,
          "internalType": "address",
          "name": "previousOwner",
          "type": "address"
        },
        {
          "indexed": true,
          "internalType": "address",
          "name": "newOwner",
          "type": "address"
        }
      ],
      "name": "OwnershipTransferred",
      "type": "event"
    },
    {
      "anonymous": false,
      "inputs": [
        {
          "indexed": true,
          "internalType": "address",
          "name": "from",
          "type": "address"
        },
        {
          "indexed": true,
          "internalType": "address",
          "name": "to",
          "type": "address"
        },
        {
          "indexed": true,
          "internalType": "uint256",
          "name": "tokenId",
          "type": "uint256"
        }
      ],
      "name": "Transfer",
      "type": "event"
    },
    {
      "inputs": [
        {
          "internalType": "address",
          "name": "to",
          "type": "address"
        },
        {
          "internalType": "uint256",
          "name": "tokenId",
          "type": "uint256"
        }
      ],
      "name": "approve",
      "outputs": [],
      "stateMutability": "nonpayable",
      "type": "function"
    },
    {
      "inputs": [
        {
          "internalType": "address",
          "name": "owner",
          "type": "address"
        }
      ],
      "name": "balanceOf",
      "outputs": [
        {
          "internalType": "uint256",
          "name": "",
          "type": "uint256"
        }
      ],
      "stateMutability": "view",
      "type": "function"
    },
    {
      "inputs": [],
      "name": "currentPrice",
      "outputs": [
        {
          "internalType": "uint256",
          "name": "",
          "type": "uint256"
        }
      ],
      "stateMutability": "view",
      "type": "function"
    },
    {
      "inputs": [
        {
          "internalType": "uint256",
          "name": "tokenId",
          "type": "uint256"
        }
      ],
      "name": "getApproved",
      "outputs": [
        {
          "internalType": "address",
          "name": "",
          "type": "address"
        }
      ],
      "stateMutability": "view",
      "type": "function"
    },
    {
      "inputs": [],
      "name": "hardCap",
      "outputs": [
        {
          "internalType": "uint256",
          "name": "",
          "type": "uint256"
        }
      ],
      "stateMutability": "view",
      "type": "function"
    },
    {
      "inputs": [
        {
          "internalType": "address",
          "name": "owner",
          "type": "address"
        },
        {
          "internalType": "address",
          "name": "operator",
          "type": "address"
        }
      ],
      "name": "isApprovedForAll",
      "outputs": [
        {
          "internalType": "bool",
          "name": "",
          "type": "bool"
        }
      ],
      "stateMutability": "view",
      "type": "function"
    },
    {
      "inputs": [],
      "name": "locked",
      "outputs": [
        {
          "internalType": "bool",
          "name": "",
          "type": "bool"
        }
      ],
      "stateMutability": "view",
      "type": "function"
    },
    {
      "inputs": [],
      "name": "name",
      "outputs": [
        {
          "internalType": "string",
          "name": "",
          "type": "string"
        }
      ],
      "stateMutability": "view",
      "type": "function"
    },
    {
      "inputs": [],
      "name": "owner",
      "outputs": [
        {
          "internalType": "address",
          "name": "",
          "type": "address"
        }
      ],
      "stateMutability": "view",
      "type": "function"
    },
    {
      "inputs": [
        {
          "internalType": "uint256",
          "name": "tokenId",
          "type": "uint256"
        }
      ],
      "name": "ownerOf",
      "outputs": [
        {
          "internalType": "address",
          "name": "",
          "type": "address"
        }
      ],
      "stateMutability": "view",
      "type": "function"
    },
    {
      "inputs": [],
      "name": "renounceOwnership",
      "outputs": [],
      "stateMutability": "nonpayable",
      "type": "function"
    },
    {
      "inputs": [
        {
          "internalType": "address",
          "name": "from",
          "type": "address"
        },
        {
          "internalType": "address",
          "name": "to",
          "type": "address"
        },
        {
          "internalType": "uint256",
          "name": "tokenId",
          "type": "uint256"
        }
      ],
      "name": "safeTransferFrom",
      "outputs": [],
      "stateMutability": "nonpayable",
      "type": "function"
    },
    {
      "inputs": [
        {
          "internalType": "address",
          "name": "from",
          "type": "address"
        },
        {
          "internalType": "address",
          "name": "to",
          "type": "address"
        },
        {
          "internalType": "uint256",
          "name": "tokenId",
          "type": "uint256"
        },
        {
          "internalType": "bytes",
          "name": "_data",
          "type": "bytes"
        }
      ],
      "name": "safeTransferFrom",
      "outputs": [],
      "stateMutability": "nonpayable",
      "type": "function"
    },
    {
      "inputs": [
        {
          "internalType": "address",
          "name": "operator",
          "type": "address"
        },
        {
          "internalType": "bool",
          "name": "approved",
          "type": "bool"
        }
      ],
      "name": "setApprovalForAll",
      "outputs": [],
      "stateMutability": "nonpayable",
      "type": "function"
    },
    {
      "inputs": [
        {
          "internalType": "bytes4",
          "name": "interfaceId",
          "type": "bytes4"
        }
      ],
      "name": "supportsInterface",
      "outputs": [
        {
          "internalType": "bool",
          "name": "",
          "type": "bool"
        }
      ],
      "stateMutability": "view",
      "type": "function"
    },
    {
      "inputs": [],
      "name": "symbol",
      "outputs": [
        {
          "internalType": "string",
          "name": "",
          "type": "string"
        }
      ],
      "stateMutability": "view",
      "type": "function"
    },
    {
      "inputs": [
        {
          "internalType": "uint256",
          "name": "tokenId",
          "type": "uint256"
        }
      ],
      "name": "tokenURI",
      "outputs": [
        {
          "internalType": "string",
          "name": "",
          "type": "string"
        }
      ],
      "stateMutability": "view",
      "type": "function"
    },
    {
      "inputs": [
        {
          "internalType": "address",
          "name": "from",
          "type": "address"
        },
        {
          "internalType": "address",
          "name": "to",
          "type": "address"
        },
        {
          "internalType": "uint256",
          "name": "tokenId",
          "type": "uint256"
        }
      ],
      "name": "transferFrom",
      "outputs": [],
      "stateMutability": "nonpayable",
      "type": "function"
    },
    {
      "inputs": [
        {
          "internalType": "address",
          "name": "newOwner",
          "type": "address"
        }
      ],
      "name": "transferOwnership",
      "outputs": [],
      "stateMutability": "nonpayable",
      "type": "function"
    },
    {
      "inputs": [
        {
          "internalType": "address",
          "name": "_address",
          "type": "address"
        }
      ],
      "name": "addToken",
      "outputs": [],
      "stateMutability": "nonpayable",
      "type": "function"
    },
    {
      "inputs": [
        {
          "internalType": "string",
          "name": "tokenHash",
          "type": "string"
        }
      ],
      "name": "buyNFTree",
      "outputs": [],
      "stateMutability": "payable",
      "type": "function"
    },
    {
      "inputs": [
        {
          "internalType": "address",
          "name": "_owner",
          "type": "address"
        }
      ],
      "name": "tokensOfOwner",
      "outputs": [
        {
          "internalType": "uint256[]",
          "name": "",
          "type": "uint256[]"
        }
      ],
      "stateMutability": "view",
      "type": "function"
    },
    {
      "inputs": [
        {
          "internalType": "address payable",
          "name": "_payee",
          "type": "address"
        }
      ],
      "name": "sendTo",
      "outputs": [],
      "stateMutability": "nonpayable",
      "type": "function"
    },
    {
      "inputs": [],
      "name": "getContractBalance",
      "outputs": [
        {
          "internalType": "uint256",
          "name": "",
          "type": "uint256"
        }
      ],
      "stateMutability": "view",
      "type": "function"
    },
    {
      "inputs": [
        {
          "internalType": "uint256",
          "name": "_currentPrice",
          "type": "uint256"
        }
      ],
      "name": "setCurrentPrice",
      "outputs": [],
      "stateMutability": "nonpayable",
      "type": "function"
    },
    {
      "inputs": [],
      "name": "getCurrentPrice",
      "outputs": [
        {
          "internalType": "uint256",
          "name": "",
          "type": "uint256"
        }
      ],
      "stateMutability": "view",
      "type": "function"
    },
    {
      "inputs": [],
      "name": "getNextTokenId",
      "outputs": [
        {
          "internalType": "uint256",
          "name": "",
          "type": "uint256"
        }
      ],
      "stateMutability": "view",
      "type": "function"
    },
    {
      "inputs": [],
      "name": "unlock",
      "outputs": [],
      "stateMutability": "nonpayable",
      "type": "function"
    },
    {
      "inputs": [],
      "name": "lock",
      "outputs": [],
      "stateMutability": "nonpayable",
      "type": "function"
    }
  ],
  "bytecode": "0x60806040523480156200001157600080fd5b506040518060400160405280600681526020017f4e465472656500000000000000000000000000000000000000000000000000008152506040518060400160405280600481526020017f5452454500000000000000000000000000000000000000000000000000000000815250600062000090620001a360201b60201c565b9050806000806101000a81548173ffffffffffffffffffffffffffffffffffffffff021916908373ffffffffffffffffffffffffffffffffffffffff1602179055508073ffffffffffffffffffffffffffffffffffffffff16600073ffffffffffffffffffffffffffffffffffffffff167f8be0079c531659141344cd1fd0a4f28419497f9722a3daafe3b4186f6b6457e060405160405180910390a350816001908051906020019062000146929190620001ab565b5080600290805190602001906200015f929190620001ab565b5050506103e8600881905550670de0b6b3a76400006009819055506000600a60006101000a81548160ff0219169083151502179055506001600b81905550620002c0565b600033905090565b828054620001b9906200025b565b90600052602060002090601f016020900481019282620001dd576000855562000229565b82601f10620001f857805160ff191683800117855562000229565b8280016001018555821562000229579182015b82811115620002285782518255916020019190600101906200020b565b5b5090506200023891906200023c565b5090565b5b80821115620002575760008160009055506001016200023d565b5090565b600060028204905060018216806200027457607f821691505b602082108114156200028b576200028a62000291565b5b50919050565b7f4e487b7100000000000000000000000000000000000000000000000000000000600052602260045260246000fd5b6140a080620002d06000396000f3fe6080604052600436106101c25760003560e01c806395d89b41116100f7578063cf30901211610095578063eb91d37e11610064578063eb91d37e14610631578063f2fde38b1461065c578063f83d08ba14610685578063fb86a4041461069c576101c2565b8063cf30901214610577578063d48bfca7146105a2578063e6d25245146105cb578063e985e9c5146105f4576101c2565b8063a69df4b5116100d1578063a69df4b5146104cf578063b88d4fde146104e6578063c87b56dd1461050f578063caa0f92a1461054c576101c2565b806395d89b41146104505780639d1b464a1461047b578063a22cb465146104a6576101c2565b80634f08160e1161016457806370a082311161013e57806370a0823114610394578063715018a6146103d15780638462151c146103e85780638da5cb5b14610425576101c2565b80634f08160e146103105780636352211e1461032c5780636f9fb98a14610369576101c2565b8063095ea7b3116101a0578063095ea7b31461026c57806318b200711461029557806323b872dd146102be57806342842e0e146102e7576101c2565b806301ffc9a7146101c757806306fdde0314610204578063081812fc1461022f575b600080fd5b3480156101d357600080fd5b506101ee60048036038101906101e99190612bb7565b6106c7565b6040516101fb91906131e0565b60405180910390f35b34801561021057600080fd5b506102196107a9565b60405161022691906131fb565b60405180910390f35b34801561023b57600080fd5b5061025660048036038101906102519190612c4a565b61083b565b6040516102639190613157565b60405180910390f35b34801561027857600080fd5b50610293600480360381019061028e9190612b7b565b6108c0565b005b3480156102a157600080fd5b506102bc60048036038101906102b79190612c4a565b6109d8565b005b3480156102ca57600080fd5b506102e560048036038101906102e09190612a75565b610a71565b005b3480156102f357600080fd5b5061030e60048036038101906103099190612a75565b610ad1565b005b61032a60048036038101906103259190612c09565b610af1565b005b34801561033857600080fd5b50610353600480360381019061034e9190612c4a565b610cf0565b6040516103609190613157565b60405180910390f35b34801561037557600080fd5b5061037e610da2565b60405161038b919061353d565b60405180910390f35b3480156103a057600080fd5b506103bb60048036038101906103b691906129e7565b610daa565b6040516103c8919061353d565b60405180910390f35b3480156103dd57600080fd5b506103e6610e62565b005b3480156103f457600080fd5b5061040f600480360381019061040a91906129e7565b610f9c565b60405161041c91906131be565b60405180910390f35b34801561043157600080fd5b5061043a611173565b6040516104479190613157565b60405180910390f35b34801561045c57600080fd5b5061046561119c565b60405161047291906131fb565b60405180910390f35b34801561048757600080fd5b5061049061122e565b60405161049d919061353d565b60405180910390f35b3480156104b257600080fd5b506104cd60048036038101906104c89190612b3f565b611234565b005b3480156104db57600080fd5b506104e46113b5565b005b3480156104f257600080fd5b5061050d60048036038101906105089190612ac4565b61149d565b005b34801561051b57600080fd5b5061053660048036038101906105319190612c4a565b6114ff565b60405161054391906131fb565b60405180910390f35b34801561055857600080fd5b50610561611651565b60405161056e919061353d565b60405180910390f35b34801561058357600080fd5b5061058c61165b565b60405161059991906131e0565b60405180910390f35b3480156105ae57600080fd5b506105c960048036038101906105c491906129e7565b61166e565b005b3480156105d757600080fd5b506105f260048036038101906105ed9190612a10565b611750565b005b34801561060057600080fd5b5061061b60048036038101906106169190612a39565b6118be565b60405161062891906131e0565b60405180910390f35b34801561063d57600080fd5b50610646611952565b604051610653919061353d565b60405180910390f35b34801561066857600080fd5b50610683600480360381019061067e91906129e7565b61195c565b005b34801561069157600080fd5b5061069a611b05565b005b3480156106a857600080fd5b506106b1611bee565b6040516106be919061353d565b60405180910390f35b60007f80ac58cd000000000000000000000000000000000000000000000000000000007bffffffffffffffffffffffffffffffffffffffffffffffffffffffff1916827bffffffffffffffffffffffffffffffffffffffffffffffffffffffff1916148061079257507f5b5e139f000000000000000000000000000000000000000000000000000000007bffffffffffffffffffffffffffffffffffffffffffffffffffffffff1916827bffffffffffffffffffffffffffffffffffffffffffffffffffffffff1916145b806107a257506107a182611bf4565b5b9050919050565b6060600180546107b890613838565b80601f01602080910402602001604051908101604052809291908181526020018280546107e490613838565b80156108315780601f1061080657610100808354040283529160200191610831565b820191906000526020600020905b81548152906001019060200180831161081457829003601f168201915b5050505050905090565b600061084682611c5e565b610885576040517f08c379a000000000000000000000000000000000000000000000000000000000815260040161087c9061343d565b60405180910390fd5b6005600083815260200190815260200160002060009054906101000a900473ffffffffffffffffffffffffffffffffffffffff169050919050565b60006108cb82610cf0565b90508073ffffffffffffffffffffffffffffffffffffffff168373ffffffffffffffffffffffffffffffffffffffff16141561093c576040517f08c379a0000000000000000000000000000000000000000000000000000000008152600401610933906134bd565b60405180910390fd5b8073ffffffffffffffffffffffffffffffffffffffff1661095b611cca565b73ffffffffffffffffffffffffffffffffffffffff16148061098a575061098981610984611cca565b6118be565b5b6109c9576040517f08c379a00000000000000000000000000000000000000000000000000000000081526004016109c09061337d565b60405180910390fd5b6109d38383611cd2565b505050565b6109e0611cca565b73ffffffffffffffffffffffffffffffffffffffff166109fe611173565b73ffffffffffffffffffffffffffffffffffffffff1614610a54576040517f08c379a0000000000000000000000000000000000000000000000000000000008152600401610a4b9061345d565b60405180910390fd5b670de0b6b3a764000081610a6891906136e2565b60098190555050565b610a82610a7c611cca565b82611d8b565b610ac1576040517f08c379a0000000000000000000000000000000000000000000000000000000008152600401610ab8906134dd565b60405180910390fd5b610acc838383611e69565b505050565b610aec8383836040518060200160405280600081525061149d565b505050565b600a60009054906101000a900460ff1615610b41576040517f08c379a0000000000000000000000000000000000000000000000000000000008152600401610b389061333d565b60405180910390fd5b600073ffffffffffffffffffffffffffffffffffffffff163373ffffffffffffffffffffffffffffffffffffffff1614158015610baa57503073ffffffffffffffffffffffffffffffffffffffff163373ffffffffffffffffffffffffffffffffffffffff1614155b610be9576040517f08c379a0000000000000000000000000000000000000000000000000000000008152600401610be09061321d565b60405180910390fd5b600954341015610c2e576040517f08c379a0000000000000000000000000000000000000000000000000000000008152600401610c259061335d565b60405180910390fd5b610c39600b54611c5e565b15610c79576040517f08c379a0000000000000000000000000000000000000000000000000000000008152600401610c709061323d565b60405180910390fd5b600854600b541115610cc0576040517f08c379a0000000000000000000000000000000000000000000000000000000008152600401610cb7906132bd565b60405180910390fd5b610ccc33600b546120c5565b610cd8600b54826120e3565b6001600b54610ce7919061365b565b600b8190555050565b6000806003600084815260200190815260200160002060009054906101000a900473ffffffffffffffffffffffffffffffffffffffff169050600073ffffffffffffffffffffffffffffffffffffffff168173ffffffffffffffffffffffffffffffffffffffff161415610d99576040517f08c379a0000000000000000000000000000000000000000000000000000000008152600401610d90906133bd565b60405180910390fd5b80915050919050565b600047905090565b60008073ffffffffffffffffffffffffffffffffffffffff168273ffffffffffffffffffffffffffffffffffffffff161415610e1b576040517f08c379a0000000000000000000000000000000000000000000000000000000008152600401610e129061339d565b60405180910390fd5b600460008373ffffffffffffffffffffffffffffffffffffffff1673ffffffffffffffffffffffffffffffffffffffff168152602001908152602001600020549050919050565b610e6a611cca565b73ffffffffffffffffffffffffffffffffffffffff16610e88611173565b73ffffffffffffffffffffffffffffffffffffffff1614610ede576040517f08c379a0000000000000000000000000000000000000000000000000000000008152600401610ed59061345d565b60405180910390fd5b600073ffffffffffffffffffffffffffffffffffffffff1660008054906101000a900473ffffffffffffffffffffffffffffffffffffffff1673ffffffffffffffffffffffffffffffffffffffff167f8be0079c531659141344cd1fd0a4f28419497f9722a3daafe3b4186f6b6457e060405160405180910390a360008060006101000a81548173ffffffffffffffffffffffffffffffffffffffff021916908373ffffffffffffffffffffffffffffffffffffffff160217905550565b60606000610fa983610daa565b9050600081141561102c57600067ffffffffffffffff811115610ff5577f4e487b7100000000000000000000000000000000000000000000000000000000600052604160045260246000fd5b6040519080825280602002602001820160405280156110235781602001602082028036833780820191505090505b5091505061116e565b60008167ffffffffffffffff81111561106e577f4e487b7100000000000000000000000000000000000000000000000000000000600052604160045260246000fd5b60405190808252806020026020018201604052801561109c5781602001602082028036833780820191505090505b50905060006001600b546110b0919061373c565b9050600080600190505b828111611165578673ffffffffffffffffffffffffffffffffffffffff166110e182610cf0565b73ffffffffffffffffffffffffffffffffffffffff1614156111525780848381518110611137577f4e487b7100000000000000000000000000000000000000000000000000000000600052603260045260246000fd5b602002602001018181525050818061114e9061389b565b9250505b808061115d9061389b565b9150506110ba565b83955050505050505b919050565b60008060009054906101000a900473ffffffffffffffffffffffffffffffffffffffff16905090565b6060600280546111ab90613838565b80601f01602080910402602001604051908101604052809291908181526020018280546111d790613838565b80156112245780601f106111f957610100808354040283529160200191611224565b820191906000526020600020905b81548152906001019060200180831161120757829003601f168201915b5050505050905090565b60095481565b61123c611cca565b73ffffffffffffffffffffffffffffffffffffffff168273ffffffffffffffffffffffffffffffffffffffff1614156112aa576040517f08c379a00000000000000000000000000000000000000000000000000000000081526004016112a1906132fd565b60405180910390fd5b80600660006112b7611cca565b73ffffffffffffffffffffffffffffffffffffffff1673ffffffffffffffffffffffffffffffffffffffff16815260200190815260200160002060008473ffffffffffffffffffffffffffffffffffffffff1673ffffffffffffffffffffffffffffffffffffffff16815260200190815260200160002060006101000a81548160ff0219169083151502179055508173ffffffffffffffffffffffffffffffffffffffff16611364611cca565b73ffffffffffffffffffffffffffffffffffffffff167f17307eab39ab6107e8899845ad3d59bd9653f200f220920489ca2b5937696c31836040516113a991906131e0565b60405180910390a35050565b6113bd611cca565b73ffffffffffffffffffffffffffffffffffffffff166113db611173565b73ffffffffffffffffffffffffffffffffffffffff1614611431576040517f08c379a00000000000000000000000000000000000000000000000000000000081526004016114289061345d565b60405180910390fd5b600a60009054906101000a900460ff16611480576040517f08c379a00000000000000000000000000000000000000000000000000000000081526004016114779061351d565b60405180910390fd5b6000600a60006101000a81548160ff021916908315150217905550565b6114ae6114a8611cca565b83611d8b565b6114ed576040517f08c379a00000000000000000000000000000000000000000000000000000000081526004016114e4906134dd565b60405180910390fd5b6114f984848484612157565b50505050565b606061150a82611c5e565b611549576040517f08c379a00000000000000000000000000000000000000000000000000000000081526004016115409061341d565b60405180910390fd5b600060076000848152602001908152602001600020805461156990613838565b80601f016020809104026020016040519081016040528092919081815260200182805461159590613838565b80156115e25780601f106115b7576101008083540402835291602001916115e2565b820191906000526020600020905b8154815290600101906020018083116115c557829003601f168201915b5050505050905060006115f36121b3565b905060008151141561160957819250505061164c565b60008251111561163e578082604051602001611626929190613133565b6040516020818303038152906040529250505061164c565b611647846121ca565b925050505b919050565b6000600b54905090565b600a60009054906101000a900460ff1681565b611676611cca565b73ffffffffffffffffffffffffffffffffffffffff16611694611173565b73ffffffffffffffffffffffffffffffffffffffff16146116ea576040517f08c379a00000000000000000000000000000000000000000000000000000000081526004016116e19061345d565b60405180910390fd5b600c819080600181540180825580915050600190039060005260206000200160009091909190916101000a81548173ffffffffffffffffffffffffffffffffffffffff021916908373ffffffffffffffffffffffffffffffffffffffff16021790555050565b611758611cca565b73ffffffffffffffffffffffffffffffffffffffff16611776611173565b73ffffffffffffffffffffffffffffffffffffffff16146117cc576040517f08c379a00000000000000000000000000000000000000000000000000000000081526004016117c39061345d565b60405180910390fd5b600073ffffffffffffffffffffffffffffffffffffffff168173ffffffffffffffffffffffffffffffffffffffff161415801561183557503073ffffffffffffffffffffffffffffffffffffffff168173ffffffffffffffffffffffffffffffffffffffff1614155b611874576040517f08c379a000000000000000000000000000000000000000000000000000000000815260040161186b9061321d565b60405180910390fd5b8073ffffffffffffffffffffffffffffffffffffffff166108fc479081150290604051600060405180830381858888f193505050501580156118ba573d6000803e3d6000fd5b5050565b6000600660008473ffffffffffffffffffffffffffffffffffffffff1673ffffffffffffffffffffffffffffffffffffffff16815260200190815260200160002060008373ffffffffffffffffffffffffffffffffffffffff1673ffffffffffffffffffffffffffffffffffffffff16815260200190815260200160002060009054906101000a900460ff16905092915050565b6000600954905090565b611964611cca565b73ffffffffffffffffffffffffffffffffffffffff16611982611173565b73ffffffffffffffffffffffffffffffffffffffff16146119d8576040517f08c379a00000000000000000000000000000000000000000000000000000000081526004016119cf9061345d565b60405180910390fd5b600073ffffffffffffffffffffffffffffffffffffffff168173ffffffffffffffffffffffffffffffffffffffff161415611a48576040517f08c379a0000000000000000000000000000000000000000000000000000000008152600401611a3f9061327d565b60405180910390fd5b8073ffffffffffffffffffffffffffffffffffffffff1660008054906101000a900473ffffffffffffffffffffffffffffffffffffffff1673ffffffffffffffffffffffffffffffffffffffff167f8be0079c531659141344cd1fd0a4f28419497f9722a3daafe3b4186f6b6457e060405160405180910390a3806000806101000a81548173ffffffffffffffffffffffffffffffffffffffff021916908373ffffffffffffffffffffffffffffffffffffffff16021790555050565b611b0d611cca565b73ffffffffffffffffffffffffffffffffffffffff16611b2b611173565b73ffffffffffffffffffffffffffffffffffffffff1614611b81576040517f08c379a0000000000000000000000000000000000000000000000000000000008152600401611b789061345d565b60405180910390fd5b600a60009054906101000a900460ff1615611bd1576040517f08c379a0000000000000000000000000000000000000000000000000000000008152600401611bc8906134fd565b60405180910390fd5b6001600a60006101000a81548160ff021916908315150217905550565b60085481565b60007f01ffc9a7000000000000000000000000000000000000000000000000000000007bffffffffffffffffffffffffffffffffffffffffffffffffffffffff1916827bffffffffffffffffffffffffffffffffffffffffffffffffffffffff1916149050919050565b60008073ffffffffffffffffffffffffffffffffffffffff166003600084815260200190815260200160002060009054906101000a900473ffffffffffffffffffffffffffffffffffffffff1673ffffffffffffffffffffffffffffffffffffffff1614159050919050565b600033905090565b816005600083815260200190815260200160002060006101000a81548173ffffffffffffffffffffffffffffffffffffffff021916908373ffffffffffffffffffffffffffffffffffffffff160217905550808273ffffffffffffffffffffffffffffffffffffffff16611d4583610cf0565b73ffffffffffffffffffffffffffffffffffffffff167f8c5be1e5ebec7d5bd14f71427d1e84f3dd0314c0f7b2291e5b200ac8c7c3b92560405160405180910390a45050565b6000611d9682611c5e565b611dd5576040517f08c379a0000000000000000000000000000000000000000000000000000000008152600401611dcc9061331d565b60405180910390fd5b6000611de083610cf0565b90508073ffffffffffffffffffffffffffffffffffffffff168473ffffffffffffffffffffffffffffffffffffffff161480611e4f57508373ffffffffffffffffffffffffffffffffffffffff16611e378461083b565b73ffffffffffffffffffffffffffffffffffffffff16145b80611e605750611e5f81856118be565b5b91505092915050565b8273ffffffffffffffffffffffffffffffffffffffff16611e8982610cf0565b73ffffffffffffffffffffffffffffffffffffffff1614611edf576040517f08c379a0000000000000000000000000000000000000000000000000000000008152600401611ed69061347d565b60405180910390fd5b600073ffffffffffffffffffffffffffffffffffffffff168273ffffffffffffffffffffffffffffffffffffffff161415611f4f576040517f08c379a0000000000000000000000000000000000000000000000000000000008152600401611f46906132dd565b60405180910390fd5b611f5a838383612271565b611f65600082611cd2565b6001600460008573ffffffffffffffffffffffffffffffffffffffff1673ffffffffffffffffffffffffffffffffffffffff1681526020019081526020016000206000828254611fb5919061373c565b925050819055506001600460008473ffffffffffffffffffffffffffffffffffffffff1673ffffffffffffffffffffffffffffffffffffffff168152602001908152602001600020600082825461200c919061365b565b92505081905550816003600083815260200190815260200160002060006101000a81548173ffffffffffffffffffffffffffffffffffffffff021916908373ffffffffffffffffffffffffffffffffffffffff160217905550808273ffffffffffffffffffffffffffffffffffffffff168473ffffffffffffffffffffffffffffffffffffffff167fddf252ad1be2c89b69c2b068fc378daa952ba7f163c4a11628f55a4df523b3ef60405160405180910390a4505050565b6120df828260405180602001604052806000815250612276565b5050565b6120ec82611c5e565b61212b576040517f08c379a0000000000000000000000000000000000000000000000000000000008152600401612122906133dd565b60405180910390fd5b806007600084815260200190815260200160002090805190602001906121529291906127f6565b505050565b612162848484611e69565b61216e848484846122d1565b6121ad576040517f08c379a00000000000000000000000000000000000000000000000000000000081526004016121a49061325d565b60405180910390fd5b50505050565b606060405180602001604052806000815250905090565b60606121d582611c5e565b612214576040517f08c379a000000000000000000000000000000000000000000000000000000000815260040161220b9061349d565b60405180910390fd5b600061221e6121b3565b9050600081511161223e5760405180602001604052806000815250612269565b8061224884612468565b604051602001612259929190613133565b6040516020818303038152906040525b915050919050565b505050565b6122808383612615565b61228d60008484846122d1565b6122cc576040517f08c379a00000000000000000000000000000000000000000000000000000000081526004016122c39061325d565b60405180910390fd5b505050565b60006122f28473ffffffffffffffffffffffffffffffffffffffff166127e3565b1561245b578373ffffffffffffffffffffffffffffffffffffffff1663150b7a0261231b611cca565b8786866040518563ffffffff1660e01b815260040161233d9493929190613172565b602060405180830381600087803b15801561235757600080fd5b505af192505050801561238857506040513d601f19601f820116820180604052508101906123859190612be0565b60015b61240b573d80600081146123b8576040519150601f19603f3d011682016040523d82523d6000602084013e6123bd565b606091505b50600081511415612403576040517f08c379a00000000000000000000000000000000000000000000000000000000081526004016123fa9061325d565b60405180910390fd5b805181602001fd5b63150b7a0260e01b7bffffffffffffffffffffffffffffffffffffffffffffffffffffffff1916817bffffffffffffffffffffffffffffffffffffffffffffffffffffffff191614915050612460565b600190505b949350505050565b606060008214156124b0576040518060400160405280600181526020017f30000000000000000000000000000000000000000000000000000000000000008152509050612610565b600082905060005b600082146124e25780806124cb9061389b565b915050600a826124db91906136b1565b91506124b8565b60008167ffffffffffffffff811115612524577f4e487b7100000000000000000000000000000000000000000000000000000000600052604160045260246000fd5b6040519080825280601f01601f1916602001820160405280156125565781602001600182028036833780820191505090505b5090505b600085146126095760018261256f919061373c565b9150600a8561257e91906138e4565b603061258a919061365b565b60f81b8183815181106125c6577f4e487b7100000000000000000000000000000000000000000000000000000000600052603260045260246000fd5b60200101907effffffffffffffffffffffffffffffffffffffffffffffffffffffffffffff1916908160001a905350600a8561260291906136b1565b945061255a565b8093505050505b919050565b600073ffffffffffffffffffffffffffffffffffffffff168273ffffffffffffffffffffffffffffffffffffffff161415612685576040517f08c379a000000000000000000000000000000000000000000000000000000000815260040161267c906133fd565b60405180910390fd5b61268e81611c5e565b156126ce576040517f08c379a00000000000000000000000000000000000000000000000000000000081526004016126c59061329d565b60405180910390fd5b6126da60008383612271565b6001600460008473ffffffffffffffffffffffffffffffffffffffff1673ffffffffffffffffffffffffffffffffffffffff168152602001908152602001600020600082825461272a919061365b565b92505081905550816003600083815260200190815260200160002060006101000a81548173ffffffffffffffffffffffffffffffffffffffff021916908373ffffffffffffffffffffffffffffffffffffffff160217905550808273ffffffffffffffffffffffffffffffffffffffff16600073ffffffffffffffffffffffffffffffffffffffff167fddf252ad1be2c89b69c2b068fc378daa952ba7f163c4a11628f55a4df523b3ef60405160405180910390a45050565b600080823b905060008111915050919050565b82805461280290613838565b90600052602060002090601f016020900481019282612824576000855561286b565b82601f1061283d57805160ff191683800117855561286b565b8280016001018555821561286b579182015b8281111561286a57825182559160200191906001019061284f565b5b509050612878919061287c565b5090565b5b8082111561289557600081600090555060010161287d565b5090565b60006128ac6128a78461357d565b613558565b9050828152602081018484840111156128c457600080fd5b6128cf8482856137f6565b509392505050565b60006128ea6128e5846135ae565b613558565b90508281526020810184848401111561290257600080fd5b61290d8482856137f6565b509392505050565b60008135905061292481613ff7565b92915050565b6000813590506129398161400e565b92915050565b60008135905061294e81614025565b92915050565b6000813590506129638161403c565b92915050565b6000815190506129788161403c565b92915050565b600082601f83011261298f57600080fd5b813561299f848260208601612899565b91505092915050565b600082601f8301126129b957600080fd5b81356129c98482602086016128d7565b91505092915050565b6000813590506129e181614053565b92915050565b6000602082840312156129f957600080fd5b6000612a0784828501612915565b91505092915050565b600060208284031215612a2257600080fd5b6000612a308482850161292a565b91505092915050565b60008060408385031215612a4c57600080fd5b6000612a5a85828601612915565b9250506020612a6b85828601612915565b9150509250929050565b600080600060608486031215612a8a57600080fd5b6000612a9886828701612915565b9350506020612aa986828701612915565b9250506040612aba868287016129d2565b9150509250925092565b60008060008060808587031215612ada57600080fd5b6000612ae887828801612915565b9450506020612af987828801612915565b9350506040612b0a878288016129d2565b925050606085013567ffffffffffffffff811115612b2757600080fd5b612b338782880161297e565b91505092959194509250565b60008060408385031215612b5257600080fd5b6000612b6085828601612915565b9250506020612b718582860161293f565b9150509250929050565b60008060408385031215612b8e57600080fd5b6000612b9c85828601612915565b9250506020612bad858286016129d2565b9150509250929050565b600060208284031215612bc957600080fd5b6000612bd784828501612954565b91505092915050565b600060208284031215612bf257600080fd5b6000612c0084828501612969565b91505092915050565b600060208284031215612c1b57600080fd5b600082013567ffffffffffffffff811115612c3557600080fd5b612c41848285016129a8565b91505092915050565b600060208284031215612c5c57600080fd5b6000612c6a848285016129d2565b91505092915050565b6000612c7f8383613115565b60208301905092915050565b612c9481613770565b82525050565b6000612ca5826135ef565b612caf818561361d565b9350612cba836135df565b8060005b83811015612ceb578151612cd28882612c73565b9750612cdd83613610565b925050600181019050612cbe565b5085935050505092915050565b612d0181613794565b82525050565b6000612d12826135fa565b612d1c818561362e565b9350612d2c818560208601613805565b612d35816139d1565b840191505092915050565b6000612d4b82613605565b612d55818561363f565b9350612d65818560208601613805565b612d6e816139d1565b840191505092915050565b6000612d8482613605565b612d8e8185613650565b9350612d9e818560208601613805565b80840191505092915050565b6000612db760058361363f565b9150612dc2826139e2565b602082019050919050565b6000612dda60158361363f565b9150612de582613a0b565b602082019050919050565b6000612dfd60328361363f565b9150612e0882613a34565b604082019050919050565b6000612e2060268361363f565b9150612e2b82613a83565b604082019050919050565b6000612e43601c8361363f565b9150612e4e82613ad2565b602082019050919050565b6000612e66600f8361363f565b9150612e7182613afb565b602082019050919050565b6000612e8960248361363f565b9150612e9482613b24565b604082019050919050565b6000612eac60198361363f565b9150612eb782613b73565b602082019050919050565b6000612ecf602c8361363f565b9150612eda82613b9c565b604082019050919050565b6000612ef260198361363f565b9150612efd82613beb565b602082019050919050565b6000612f1560118361363f565b9150612f2082613c14565b602082019050919050565b6000612f3860388361363f565b9150612f4382613c3d565b604082019050919050565b6000612f5b602a8361363f565b9150612f6682613c8c565b604082019050919050565b6000612f7e60298361363f565b9150612f8982613cdb565b604082019050919050565b6000612fa1602e8361363f565b9150612fac82613d2a565b604082019050919050565b6000612fc460208361363f565b9150612fcf82613d79565b602082019050919050565b6000612fe760318361363f565b9150612ff282613da2565b604082019050919050565b600061300a602c8361363f565b915061301582613df1565b604082019050919050565b600061302d60208361363f565b915061303882613e40565b602082019050919050565b600061305060298361363f565b915061305b82613e69565b604082019050919050565b6000613073602f8361363f565b915061307e82613eb8565b604082019050919050565b600061309660218361363f565b91506130a182613f07565b604082019050919050565b60006130b960318361363f565b91506130c482613f56565b604082019050919050565b60006130dc60138361363f565b91506130e782613fa5565b602082019050919050565b60006130ff60158361363f565b915061310a82613fce565b602082019050919050565b61311e816137ec565b82525050565b61312d816137ec565b82525050565b600061313f8285612d79565b915061314b8284612d79565b91508190509392505050565b600060208201905061316c6000830184612c8b565b92915050565b60006080820190506131876000830187612c8b565b6131946020830186612c8b565b6131a16040830185613124565b81810360608301526131b38184612d07565b905095945050505050565b600060208201905081810360008301526131d88184612c9a565b905092915050565b60006020820190506131f56000830184612cf8565b92915050565b600060208201905081810360008301526132158184612d40565b905092915050565b6000602082019050818103600083015261323681612daa565b9050919050565b6000602082019050818103600083015261325681612dcd565b9050919050565b6000602082019050818103600083015261327681612df0565b9050919050565b6000602082019050818103600083015261329681612e13565b9050919050565b600060208201905081810360008301526132b681612e36565b9050919050565b600060208201905081810360008301526132d681612e59565b9050919050565b600060208201905081810360008301526132f681612e7c565b9050919050565b6000602082019050818103600083015261331681612e9f565b9050919050565b6000602082019050818103600083015261333681612ec2565b9050919050565b6000602082019050818103600083015261335681612ee5565b9050919050565b6000602082019050818103600083015261337681612f08565b9050919050565b6000602082019050818103600083015261339681612f2b565b9050919050565b600060208201905081810360008301526133b681612f4e565b9050919050565b600060208201905081810360008301526133d681612f71565b9050919050565b600060208201905081810360008301526133f681612f94565b9050919050565b6000602082019050818103600083015261341681612fb7565b9050919050565b6000602082019050818103600083015261343681612fda565b9050919050565b6000602082019050818103600083015261345681612ffd565b9050919050565b6000602082019050818103600083015261347681613020565b9050919050565b6000602082019050818103600083015261349681613043565b9050919050565b600060208201905081810360008301526134b681613066565b9050919050565b600060208201905081810360008301526134d681613089565b9050919050565b600060208201905081810360008301526134f6816130ac565b9050919050565b60006020820190508181036000830152613516816130cf565b9050919050565b60006020820190508181036000830152613536816130f2565b9050919050565b60006020820190506135526000830184613124565b92915050565b6000613562613573565b905061356e828261386a565b919050565b6000604051905090565b600067ffffffffffffffff821115613598576135976139a2565b5b6135a1826139d1565b9050602081019050919050565b600067ffffffffffffffff8211156135c9576135c86139a2565b5b6135d2826139d1565b9050602081019050919050565b6000819050602082019050919050565b600081519050919050565b600081519050919050565b600081519050919050565b6000602082019050919050565b600082825260208201905092915050565b600082825260208201905092915050565b600082825260208201905092915050565b600081905092915050565b6000613666826137ec565b9150613671836137ec565b9250827fffffffffffffffffffffffffffffffffffffffffffffffffffffffffffffffff038211156136a6576136a5613915565b5b828201905092915050565b60006136bc826137ec565b91506136c7836137ec565b9250826136d7576136d6613944565b5b828204905092915050565b60006136ed826137ec565b91506136f8836137ec565b9250817fffffffffffffffffffffffffffffffffffffffffffffffffffffffffffffffff048311821515161561373157613730613915565b5b828202905092915050565b6000613747826137ec565b9150613752836137ec565b92508282101561376557613764613915565b5b828203905092915050565b600061377b826137cc565b9050919050565b600061378d826137cc565b9050919050565b60008115159050919050565b60007fffffffff0000000000000000000000000000000000000000000000000000000082169050919050565b600073ffffffffffffffffffffffffffffffffffffffff82169050919050565b6000819050919050565b82818337600083830152505050565b60005b83811015613823578082015181840152602081019050613808565b83811115613832576000848401525b50505050565b6000600282049050600182168061385057607f821691505b6020821081141561386457613863613973565b5b50919050565b613873826139d1565b810181811067ffffffffffffffff82111715613892576138916139a2565b5b80604052505050565b60006138a6826137ec565b91507fffffffffffffffffffffffffffffffffffffffffffffffffffffffffffffffff8214156138d9576138d8613915565b5b600182019050919050565b60006138ef826137ec565b91506138fa836137ec565b92508261390a57613909613944565b5b828206905092915050565b7f4e487b7100000000000000000000000000000000000000000000000000000000600052601160045260246000fd5b7f4e487b7100000000000000000000000000000000000000000000000000000000600052601260045260246000fd5b7f4e487b7100000000000000000000000000000000000000000000000000000000600052602260045260246000fd5b7f4e487b7100000000000000000000000000000000000000000000000000000000600052604160045260246000fd5b6000601f19601f8301169050919050565b7f6572726f72000000000000000000000000000000000000000000000000000000600082015250565b7f546f6b656e20616c7265616479206d696e7465642e0000000000000000000000600082015250565b7f4552433732313a207472616e7366657220746f206e6f6e20455243373231526560008201527f63656976657220696d706c656d656e7465720000000000000000000000000000602082015250565b7f4f776e61626c653a206e6577206f776e657220697320746865207a65726f206160008201527f6464726573730000000000000000000000000000000000000000000000000000602082015250565b7f4552433732313a20746f6b656e20616c7265616479206d696e74656400000000600082015250565b7f53616c652068617320656e6465642e0000000000000000000000000000000000600082015250565b7f4552433732313a207472616e7366657220746f20746865207a65726f2061646460008201527f7265737300000000000000000000000000000000000000000000000000000000602082015250565b7f4552433732313a20617070726f766520746f2063616c6c657200000000000000600082015250565b7f4552433732313a206f70657261746f7220717565727920666f72206e6f6e657860008201527f697374656e7420746f6b656e0000000000000000000000000000000000000000602082015250565b7f427579696e67204e465472656573206973206c6f636b65642e00000000000000600082015250565b7f4e6f7420656e6f7567682065746865722e000000000000000000000000000000600082015250565b7f4552433732313a20617070726f76652063616c6c6572206973206e6f74206f7760008201527f6e6572206e6f7220617070726f76656420666f7220616c6c0000000000000000602082015250565b7f4552433732313a2062616c616e636520717565727920666f7220746865207a6560008201527f726f206164647265737300000000000000000000000000000000000000000000602082015250565b7f4552433732313a206f776e657220717565727920666f72206e6f6e657869737460008201527f656e7420746f6b656e0000000000000000000000000000000000000000000000602082015250565b7f45524337323155524953746f726167653a2055524920736574206f66206e6f6e60008201527f6578697374656e7420746f6b656e000000000000000000000000000000000000602082015250565b7f4552433732313a206d696e7420746f20746865207a65726f2061646472657373600082015250565b7f45524337323155524953746f726167653a2055524920717565727920666f722060008201527f6e6f6e6578697374656e7420746f6b656e000000000000000000000000000000602082015250565b7f4552433732313a20617070726f76656420717565727920666f72206e6f6e657860008201527f697374656e7420746f6b656e0000000000000000000000000000000000000000602082015250565b7f4f776e61626c653a2063616c6c6572206973206e6f7420746865206f776e6572600082015250565b7f4552433732313a207472616e73666572206f6620746f6b656e2074686174206960008201527f73206e6f74206f776e0000000000000000000000000000000000000000000000602082015250565b7f4552433732314d657461646174613a2055524920717565727920666f72206e6f60008201527f6e6578697374656e7420746f6b656e0000000000000000000000000000000000602082015250565b7f4552433732313a20617070726f76616c20746f2063757272656e74206f776e6560008201527f7200000000000000000000000000000000000000000000000000000000000000602082015250565b7f4552433732313a207472616e736665722063616c6c6572206973206e6f74206f60008201527f776e6572206e6f7220617070726f766564000000000000000000000000000000602082015250565b7f436f6e7472616374206973206c6f636b65642e00000000000000000000000000600082015250565b7f436f6e747261637420697320756e6c6f636b65642e0000000000000000000000600082015250565b61400081613770565b811461400b57600080fd5b50565b61401781613782565b811461402257600080fd5b50565b61402e81613794565b811461403957600080fd5b50565b614045816137a0565b811461405057600080fd5b50565b61405c816137ec565b811461406757600080fd5b5056fea26469706673582212201ae8bb2ad2ba6b4bca9ed807be825e274076f31db2c6be0a811da4e16476e05f64736f6c63430008030033",
  "immutableReferences": {},
  "source": "// SPDX-License-Identifier: MIT\r\n\r\npragma solidity ^0.8.2;\r\n\r\nimport \"./OpenZepplin/token/ERC721/extensions/ERC721URIStorage.sol\";\r\nimport \"./OpenZepplin/token/ERC20/IERC20.sol\";\r\nimport \"./OpenZepplin/access/Ownable.sol\";\r\n\r\n/* Contract for NFtrees */\r\n\r\ncontract NFTree is Ownable, ERC721URIStorage{\r\n    uint256 public hardCap;\r\n    uint256 public currentPrice;\r\n    bool public locked;\r\n    uint256 tokenId;\r\n    IERC20[] tokenList;\r\n\r\n    constructor() ERC721('NFTree', 'TREE')\r\n    {\r\n        hardCap = 1000;\r\n        currentPrice = 1 * (10 ** 18); // 1 ether\r\n        locked = false;\r\n        tokenId = 1;\r\n    }\r\n\r\n    function addToken(address _address) public onlyOwner{\r\n        tokenList.push(IERC20(_address));\r\n    }\r\n\r\n    function buyNFTree(string memory tokenHash) public payable {\r\n        require(!locked, 'Buying NFTrees is locked.');\r\n        require(msg.sender != address(0) && msg.sender != address(this), 'error');\r\n        require(msg.value >= currentPrice, 'Not enough ether.');\r\n        require(!_exists(tokenId), 'Token already minted.');\r\n        require(tokenId <= hardCap, 'Sale has ended.');\r\n        _safeMint(msg.sender, tokenId);\r\n        _setTokenURI(tokenId, tokenHash); \r\n        tokenId = tokenId + 1; \r\n    }\r\n\r\n    function tokensOfOwner(address _owner) external view returns(uint256[] memory) {\r\n        uint256 tokenCount = balanceOf(_owner);\r\n\r\n        if (tokenCount == 0) {\r\n            // Return an empty array\r\n            return new uint256[](0);\r\n        } else {\r\n            uint256[] memory result = new uint256[](tokenCount);\r\n            uint256 totalNFTrees = tokenId - 1;\r\n            uint256 resultIndex = 0;\r\n\r\n            // We count on the fact that all cats have IDs starting at 1 and increasing\r\n            // sequentially up to the totalCat count.\r\n            uint256 NFTreeId;\r\n\r\n            for (NFTreeId = 1; NFTreeId <= totalNFTrees; NFTreeId++) {\r\n                if (ownerOf(NFTreeId) == _owner) {\r\n                    result[resultIndex] = NFTreeId;\r\n                    resultIndex++;\r\n                }\r\n            }\r\n\r\n            return result;\r\n        }\r\n\r\n    }\r\n\r\n    function sendTo(address payable _payee) public onlyOwner{\r\n        require(_payee != address(0) && _payee != address(this), 'error');\r\n        //require(_amount > 0 && _amount <= address(this).balance, 'Not enough ether in contract.');\r\n        _payee.transfer(address(this).balance);\r\n    }\r\n    \r\n    function getContractBalance() public view returns(uint256){\r\n        return(address(this).balance);\r\n    }\r\n\r\n    function setCurrentPrice(uint256 _currentPrice) public onlyOwner {\r\n        currentPrice = _currentPrice * (10 ** 18);\r\n    }\r\n    \r\n    function getCurrentPrice() public view returns(uint256){\r\n        return(currentPrice);\r\n    }\r\n\r\n    function getNextTokenId() public view returns(uint256){\r\n        return(tokenId);\r\n    }\r\n\r\n    function unlock() public onlyOwner {\r\n        require(locked, 'Contract is unlocked.');\r\n        locked = false;\r\n    }\r\n\r\n    function lock() public onlyOwner {\r\n        require(!locked, 'Contract is locked.');\r\n        locked = true;\r\n    }\r\n}\r\n\r\n\r\n",
  "sourcePath": "D:/Code/NFTrees/contracts/NFTree.sol",
  "compiler": {
    "name": "solc",
    "version": "0.8.3+commit.8d00100c.Emscripten.clang"
  },
  "schemaVersion": "3.4.1",
  "updatedAt": "2021-05-25T03:18:49.386Z",
  "devdoc": {
    "kind": "dev",
    "methods": {
      "approve(address,uint256)": {
        "details": "See {IERC721-approve}."
      },
      "balanceOf(address)": {
        "details": "See {IERC721-balanceOf}."
      },
      "getApproved(uint256)": {
        "details": "See {IERC721-getApproved}."
      },
      "isApprovedForAll(address,address)": {
        "details": "See {IERC721-isApprovedForAll}."
      },
      "name()": {
        "details": "See {IERC721Metadata-name}."
      },
      "owner()": {
        "details": "Returns the address of the current owner."
      },
      "ownerOf(uint256)": {
        "details": "See {IERC721-ownerOf}."
      },
      "renounceOwnership()": {
        "details": "Leaves the contract without owner. It will not be possible to call `onlyOwner` functions anymore. Can only be called by the current owner. NOTE: Renouncing ownership will leave the contract without an owner, thereby removing any functionality that is only available to the owner."
      },
      "safeTransferFrom(address,address,uint256)": {
        "details": "See {IERC721-safeTransferFrom}."
      },
      "safeTransferFrom(address,address,uint256,bytes)": {
        "details": "See {IERC721-safeTransferFrom}."
      },
      "setApprovalForAll(address,bool)": {
        "details": "See {IERC721-setApprovalForAll}."
      },
      "supportsInterface(bytes4)": {
        "details": "See {IERC165-supportsInterface}."
      },
      "symbol()": {
        "details": "See {IERC721Metadata-symbol}."
      },
      "tokenURI(uint256)": {
        "details": "See {IERC721Metadata-tokenURI}."
      },
      "transferFrom(address,address,uint256)": {
        "details": "See {IERC721-transferFrom}."
      },
      "transferOwnership(address)": {
        "details": "Transfers ownership of the contract to a new account (`newOwner`). Can only be called by the current owner."
      }
    },
    "version": 1
  },
  "userdoc": {
    "kind": "user",
    "methods": {},
    "version": 1
  }
}