{
  "contractName": "NFTree",
  "abi": [
    {
      "inputs": [],
      "stateMutability": "nonpayable",
      "type": "constructor"
    },
    {
      "anonymous": false,
      "inputs": [
        {
          "indexed": true,
          "internalType": "address",
          "name": "owner",
          "type": "address"
        },
        {
          "indexed": true,
          "internalType": "address",
          "name": "approved",
          "type": "address"
        },
        {
          "indexed": true,
          "internalType": "uint256",
          "name": "tokenId",
          "type": "uint256"
        }
      ],
      "name": "Approval",
      "type": "event"
    },
    {
      "anonymous": false,
      "inputs": [
        {
          "indexed": true,
          "internalType": "address",
          "name": "owner",
          "type": "address"
        },
        {
          "indexed": true,
          "internalType": "address",
          "name": "operator",
          "type": "address"
        },
        {
          "indexed": false,
          "internalType": "bool",
          "name": "approved",
          "type": "bool"
        }
      ],
      "name": "ApprovalForAll",
      "type": "event"
    },
    {
      "anonymous": false,
      "inputs": [
        {
          "indexed": true,
          "internalType": "address",
          "name": "previousOwner",
          "type": "address"
        },
        {
          "indexed": true,
          "internalType": "address",
          "name": "newOwner",
          "type": "address"
        }
      ],
      "name": "OwnershipTransferred",
      "type": "event"
    },
    {
      "anonymous": false,
      "inputs": [
        {
          "indexed": true,
          "internalType": "address",
          "name": "from",
          "type": "address"
        },
        {
          "indexed": true,
          "internalType": "address",
          "name": "to",
          "type": "address"
        },
        {
          "indexed": true,
          "internalType": "uint256",
          "name": "tokenId",
          "type": "uint256"
        }
      ],
      "name": "Transfer",
      "type": "event"
    },
    {
      "inputs": [
        {
          "internalType": "address",
          "name": "to",
          "type": "address"
        },
        {
          "internalType": "uint256",
          "name": "tokenId",
          "type": "uint256"
        }
      ],
      "name": "approve",
      "outputs": [],
      "stateMutability": "nonpayable",
      "type": "function"
    },
    {
      "inputs": [
        {
          "internalType": "address",
          "name": "owner",
          "type": "address"
        }
      ],
      "name": "balanceOf",
      "outputs": [
        {
          "internalType": "uint256",
          "name": "",
          "type": "uint256"
        }
      ],
      "stateMutability": "view",
      "type": "function"
    },
    {
      "inputs": [],
      "name": "currentPrice",
      "outputs": [
        {
          "internalType": "uint256",
          "name": "",
          "type": "uint256"
        }
      ],
      "stateMutability": "view",
      "type": "function"
    },
    {
      "inputs": [
        {
          "internalType": "uint256",
          "name": "tokenId",
          "type": "uint256"
        }
      ],
      "name": "getApproved",
      "outputs": [
        {
          "internalType": "address",
          "name": "",
          "type": "address"
        }
      ],
      "stateMutability": "view",
      "type": "function"
    },
    {
      "inputs": [],
      "name": "hardCap",
      "outputs": [
        {
          "internalType": "uint256",
          "name": "",
          "type": "uint256"
        }
      ],
      "stateMutability": "view",
      "type": "function"
    },
    {
      "inputs": [
        {
          "internalType": "address",
          "name": "owner",
          "type": "address"
        },
        {
          "internalType": "address",
          "name": "operator",
          "type": "address"
        }
      ],
      "name": "isApprovedForAll",
      "outputs": [
        {
          "internalType": "bool",
          "name": "",
          "type": "bool"
        }
      ],
      "stateMutability": "view",
      "type": "function"
    },
    {
      "inputs": [],
      "name": "locked",
      "outputs": [
        {
          "internalType": "bool",
          "name": "",
          "type": "bool"
        }
      ],
      "stateMutability": "view",
      "type": "function"
    },
    {
      "inputs": [],
      "name": "name",
      "outputs": [
        {
          "internalType": "string",
          "name": "",
          "type": "string"
        }
      ],
      "stateMutability": "view",
      "type": "function"
    },
    {
      "inputs": [],
      "name": "owner",
      "outputs": [
        {
          "internalType": "address",
          "name": "",
          "type": "address"
        }
      ],
      "stateMutability": "view",
      "type": "function"
    },
    {
      "inputs": [
        {
          "internalType": "uint256",
          "name": "tokenId",
          "type": "uint256"
        }
      ],
      "name": "ownerOf",
      "outputs": [
        {
          "internalType": "address",
          "name": "",
          "type": "address"
        }
      ],
      "stateMutability": "view",
      "type": "function"
    },
    {
      "inputs": [],
      "name": "renounceOwnership",
      "outputs": [],
      "stateMutability": "nonpayable",
      "type": "function"
    },
    {
      "inputs": [
        {
          "internalType": "address",
          "name": "from",
          "type": "address"
        },
        {
          "internalType": "address",
          "name": "to",
          "type": "address"
        },
        {
          "internalType": "uint256",
          "name": "tokenId",
          "type": "uint256"
        }
      ],
      "name": "safeTransferFrom",
      "outputs": [],
      "stateMutability": "nonpayable",
      "type": "function"
    },
    {
      "inputs": [
        {
          "internalType": "address",
          "name": "from",
          "type": "address"
        },
        {
          "internalType": "address",
          "name": "to",
          "type": "address"
        },
        {
          "internalType": "uint256",
          "name": "tokenId",
          "type": "uint256"
        },
        {
          "internalType": "bytes",
          "name": "_data",
          "type": "bytes"
        }
      ],
      "name": "safeTransferFrom",
      "outputs": [],
      "stateMutability": "nonpayable",
      "type": "function"
    },
    {
      "inputs": [
        {
          "internalType": "address",
          "name": "operator",
          "type": "address"
        },
        {
          "internalType": "bool",
          "name": "approved",
          "type": "bool"
        }
      ],
      "name": "setApprovalForAll",
      "outputs": [],
      "stateMutability": "nonpayable",
      "type": "function"
    },
    {
      "inputs": [
        {
          "internalType": "bytes4",
          "name": "interfaceId",
          "type": "bytes4"
        }
      ],
      "name": "supportsInterface",
      "outputs": [
        {
          "internalType": "bool",
          "name": "",
          "type": "bool"
        }
      ],
      "stateMutability": "view",
      "type": "function"
    },
    {
      "inputs": [],
      "name": "symbol",
      "outputs": [
        {
          "internalType": "string",
          "name": "",
          "type": "string"
        }
      ],
      "stateMutability": "view",
      "type": "function"
    },
    {
      "inputs": [
        {
          "internalType": "uint256",
          "name": "tokenId",
          "type": "uint256"
        }
      ],
      "name": "tokenURI",
      "outputs": [
        {
          "internalType": "string",
          "name": "",
          "type": "string"
        }
      ],
      "stateMutability": "view",
      "type": "function"
    },
    {
      "inputs": [
        {
          "internalType": "address",
          "name": "from",
          "type": "address"
        },
        {
          "internalType": "address",
          "name": "to",
          "type": "address"
        },
        {
          "internalType": "uint256",
          "name": "tokenId",
          "type": "uint256"
        }
      ],
      "name": "transferFrom",
      "outputs": [],
      "stateMutability": "nonpayable",
      "type": "function"
    },
    {
      "inputs": [
        {
          "internalType": "address",
          "name": "newOwner",
          "type": "address"
        }
      ],
      "name": "transferOwnership",
      "outputs": [],
      "stateMutability": "nonpayable",
      "type": "function"
    },
    {
      "inputs": [
        {
          "internalType": "string",
          "name": "tokenHash",
          "type": "string"
        }
      ],
      "name": "buyNFTree",
      "outputs": [],
      "stateMutability": "payable",
      "type": "function"
    },
    {
      "inputs": [
        {
          "internalType": "address",
          "name": "_owner",
          "type": "address"
        }
      ],
      "name": "tokensOfOwner",
      "outputs": [
        {
          "internalType": "uint256[]",
          "name": "",
          "type": "uint256[]"
        }
      ],
      "stateMutability": "view",
      "type": "function"
    },
    {
      "inputs": [
        {
          "internalType": "address payable",
          "name": "_payee",
          "type": "address"
        }
      ],
      "name": "sendTo",
      "outputs": [],
      "stateMutability": "nonpayable",
      "type": "function"
    },
    {
      "inputs": [],
      "name": "getContractBalance",
      "outputs": [
        {
          "internalType": "uint256",
          "name": "",
          "type": "uint256"
        }
      ],
      "stateMutability": "view",
      "type": "function"
    },
    {
      "inputs": [
        {
          "internalType": "uint256",
          "name": "_currentPrice",
          "type": "uint256"
        }
      ],
      "name": "setCurrentPrice",
      "outputs": [],
      "stateMutability": "nonpayable",
      "type": "function"
    },
    {
      "inputs": [],
      "name": "getCurrentPrice",
      "outputs": [
        {
          "internalType": "uint256",
          "name": "",
          "type": "uint256"
        }
      ],
      "stateMutability": "view",
      "type": "function"
    },
    {
      "inputs": [],
      "name": "getNextTokenId",
      "outputs": [
        {
          "internalType": "uint256",
          "name": "",
          "type": "uint256"
        }
      ],
      "stateMutability": "view",
      "type": "function"
    },
    {
      "inputs": [],
      "name": "unlock",
      "outputs": [],
      "stateMutability": "nonpayable",
      "type": "function"
    },
    {
      "inputs": [],
      "name": "lock",
      "outputs": [],
      "stateMutability": "nonpayable",
      "type": "function"
    }
  ],
  "bytecode": "0x60806040523480156200001157600080fd5b506040518060400160405280600681526020017f4e465472656500000000000000000000000000000000000000000000000000008152506040518060400160405280600481526020017f5452454500000000000000000000000000000000000000000000000000000000815250816000908051906020019062000096929190620001ac565b508060019080519060200190620000af929190620001ac565b5050506000620000c4620001a460201b60201c565b905080600760006101000a81548173ffffffffffffffffffffffffffffffffffffffff021916908373ffffffffffffffffffffffffffffffffffffffff1602179055508073ffffffffffffffffffffffffffffffffffffffff16600073ffffffffffffffffffffffffffffffffffffffff167f8be0079c531659141344cd1fd0a4f28419497f9722a3daafe3b4186f6b6457e060405160405180910390a3506103e8600881905550670de0b6b3a76400006009819055506000600a60006101000a81548160ff0219169083151502179055506001600b81905550620002c1565b600033905090565b828054620001ba906200025c565b90600052602060002090601f016020900481019282620001de57600085556200022a565b82601f10620001f957805160ff19168380011785556200022a565b828001600101855582156200022a579182015b82811115620002295782518255916020019190600101906200020c565b5b5090506200023991906200023d565b5090565b5b80821115620002585760008160009055506001016200023e565b5090565b600060028204905060018216806200027557607f821691505b602082108114156200028c576200028b62000292565b5b50919050565b7f4e487b7100000000000000000000000000000000000000000000000000000000600052602260045260246000fd5b613ee480620002d16000396000f3fe6080604052600436106101b75760003560e01c806395d89b41116100ec578063cf3090121161008a578063eb91d37e11610064578063eb91d37e146105fd578063f2fde38b14610628578063f83d08ba14610651578063fb86a40414610668576101b7565b8063cf3090121461056c578063e6d2524514610597578063e985e9c5146105c0576101b7565b8063a69df4b5116100c6578063a69df4b5146104c4578063b88d4fde146104db578063c87b56dd14610504578063caa0f92a14610541576101b7565b806395d89b41146104455780639d1b464a14610470578063a22cb4651461049b576101b7565b80634f08160e1161015957806370a082311161013357806370a0823114610389578063715018a6146103c65780638462151c146103dd5780638da5cb5b1461041a576101b7565b80634f08160e146103055780636352211e146103215780636f9fb98a1461035e576101b7565b8063095ea7b311610195578063095ea7b31461026157806318b200711461028a57806323b872dd146102b357806342842e0e146102dc576101b7565b806301ffc9a7146101bc57806306fdde03146101f9578063081812fc14610224575b600080fd5b3480156101c857600080fd5b506101e360048036038101906101de9190612a45565b610693565b6040516101f0919061304b565b60405180910390f35b34801561020557600080fd5b5061020e610775565b60405161021b9190613066565b60405180910390f35b34801561023057600080fd5b5061024b60048036038101906102469190612ad8565b610807565b6040516102589190612fc2565b60405180910390f35b34801561026d57600080fd5b5061028860048036038101906102839190612a09565b61088c565b005b34801561029657600080fd5b506102b160048036038101906102ac9190612ad8565b6109a4565b005b3480156102bf57600080fd5b506102da60048036038101906102d59190612903565b610a3d565b005b3480156102e857600080fd5b5061030360048036038101906102fe9190612903565b610a9d565b005b61031f600480360381019061031a9190612a97565b610abd565b005b34801561032d57600080fd5b5061034860048036038101906103439190612ad8565b610c86565b6040516103559190612fc2565b60405180910390f35b34801561036a57600080fd5b50610373610d38565b6040516103809190613388565b60405180910390f35b34801561039557600080fd5b506103b060048036038101906103ab9190612875565b610d40565b6040516103bd9190613388565b60405180910390f35b3480156103d257600080fd5b506103db610df8565b005b3480156103e957600080fd5b5061040460048036038101906103ff9190612875565b610f35565b6040516104119190613029565b60405180910390f35b34801561042657600080fd5b5061042f61110c565b60405161043c9190612fc2565b60405180910390f35b34801561045157600080fd5b5061045a611136565b6040516104679190613066565b60405180910390f35b34801561047c57600080fd5b506104856111c8565b6040516104929190613388565b60405180910390f35b3480156104a757600080fd5b506104c260048036038101906104bd91906129cd565b6111ce565b005b3480156104d057600080fd5b506104d961134f565b005b3480156104e757600080fd5b5061050260048036038101906104fd9190612952565b611437565b005b34801561051057600080fd5b5061052b60048036038101906105269190612ad8565b611499565b6040516105389190613066565b60405180910390f35b34801561054d57600080fd5b506105566115eb565b6040516105639190613388565b60405180910390f35b34801561057857600080fd5b506105816115f5565b60405161058e919061304b565b60405180910390f35b3480156105a357600080fd5b506105be60048036038101906105b9919061289e565b611608565b005b3480156105cc57600080fd5b506105e760048036038101906105e291906128c7565b611740565b6040516105f4919061304b565b60405180910390f35b34801561060957600080fd5b506106126117d4565b60405161061f9190613388565b60405180910390f35b34801561063457600080fd5b5061064f600480360381019061064a9190612875565b6117de565b005b34801561065d57600080fd5b5061066661198a565b005b34801561067457600080fd5b5061067d611a73565b60405161068a9190613388565b60405180910390f35b60007f80ac58cd000000000000000000000000000000000000000000000000000000007bffffffffffffffffffffffffffffffffffffffffffffffffffffffff1916827bffffffffffffffffffffffffffffffffffffffffffffffffffffffff1916148061075e57507f5b5e139f000000000000000000000000000000000000000000000000000000007bffffffffffffffffffffffffffffffffffffffffffffffffffffffff1916827bffffffffffffffffffffffffffffffffffffffffffffffffffffffff1916145b8061076e575061076d82611a79565b5b9050919050565b60606000805461078490613683565b80601f01602080910402602001604051908101604052809291908181526020018280546107b090613683565b80156107fd5780601f106107d2576101008083540402835291602001916107fd565b820191906000526020600020905b8154815290600101906020018083116107e057829003601f168201915b5050505050905090565b600061081282611ae3565b610851576040517f08c379a000000000000000000000000000000000000000000000000000000000815260040161084890613288565b60405180910390fd5b6004600083815260200190815260200160002060009054906101000a900473ffffffffffffffffffffffffffffffffffffffff169050919050565b600061089782610c86565b90508073ffffffffffffffffffffffffffffffffffffffff168373ffffffffffffffffffffffffffffffffffffffff161415610908576040517f08c379a00000000000000000000000000000000000000000000000000000000081526004016108ff90613308565b60405180910390fd5b8073ffffffffffffffffffffffffffffffffffffffff16610927611b4f565b73ffffffffffffffffffffffffffffffffffffffff161480610956575061095581610950611b4f565b611740565b5b610995576040517f08c379a000000000000000000000000000000000000000000000000000000000815260040161098c906131c8565b60405180910390fd5b61099f8383611b57565b505050565b6109ac611b4f565b73ffffffffffffffffffffffffffffffffffffffff166109ca61110c565b73ffffffffffffffffffffffffffffffffffffffff1614610a20576040517f08c379a0000000000000000000000000000000000000000000000000000000008152600401610a17906132a8565b60405180910390fd5b670de0b6b3a764000081610a34919061352d565b60098190555050565b610a4e610a48611b4f565b82611c10565b610a8d576040517f08c379a0000000000000000000000000000000000000000000000000000000008152600401610a8490613328565b60405180910390fd5b610a98838383611cee565b505050565b610ab883838360405180602001604052806000815250611437565b505050565b600a60009054906101000a900460ff1615610b0d576040517f08c379a0000000000000000000000000000000000000000000000000000000008152600401610b0490613188565b60405180910390fd5b600073ffffffffffffffffffffffffffffffffffffffff163373ffffffffffffffffffffffffffffffffffffffff1614158015610b7657503073ffffffffffffffffffffffffffffffffffffffff163373ffffffffffffffffffffffffffffffffffffffff1614155b610b7f57600080fd5b600954341015610bc4576040517f08c379a0000000000000000000000000000000000000000000000000000000008152600401610bbb906131a8565b60405180910390fd5b610bcf600b54611ae3565b15610c0f576040517f08c379a0000000000000000000000000000000000000000000000000000000008152600401610c0690613088565b60405180910390fd5b600854600b541115610c56576040517f08c379a0000000000000000000000000000000000000000000000000000000008152600401610c4d90613108565b60405180910390fd5b610c6233600b54611f4a565b610c6e600b5482611f68565b6001600b54610c7d91906134a6565b600b8190555050565b6000806002600084815260200190815260200160002060009054906101000a900473ffffffffffffffffffffffffffffffffffffffff169050600073ffffffffffffffffffffffffffffffffffffffff168173ffffffffffffffffffffffffffffffffffffffff161415610d2f576040517f08c379a0000000000000000000000000000000000000000000000000000000008152600401610d2690613208565b60405180910390fd5b80915050919050565b600047905090565b60008073ffffffffffffffffffffffffffffffffffffffff168273ffffffffffffffffffffffffffffffffffffffff161415610db1576040517f08c379a0000000000000000000000000000000000000000000000000000000008152600401610da8906131e8565b60405180910390fd5b600360008373ffffffffffffffffffffffffffffffffffffffff1673ffffffffffffffffffffffffffffffffffffffff168152602001908152602001600020549050919050565b610e00611b4f565b73ffffffffffffffffffffffffffffffffffffffff16610e1e61110c565b73ffffffffffffffffffffffffffffffffffffffff1614610e74576040517f08c379a0000000000000000000000000000000000000000000000000000000008152600401610e6b906132a8565b60405180910390fd5b600073ffffffffffffffffffffffffffffffffffffffff16600760009054906101000a900473ffffffffffffffffffffffffffffffffffffffff1673ffffffffffffffffffffffffffffffffffffffff167f8be0079c531659141344cd1fd0a4f28419497f9722a3daafe3b4186f6b6457e060405160405180910390a36000600760006101000a81548173ffffffffffffffffffffffffffffffffffffffff021916908373ffffffffffffffffffffffffffffffffffffffff160217905550565b60606000610f4283610d40565b90506000811415610fc557600067ffffffffffffffff811115610f8e577f4e487b7100000000000000000000000000000000000000000000000000000000600052604160045260246000fd5b604051908082528060200260200182016040528015610fbc5781602001602082028036833780820191505090505b50915050611107565b60008167ffffffffffffffff811115611007577f4e487b7100000000000000000000000000000000000000000000000000000000600052604160045260246000fd5b6040519080825280602002602001820160405280156110355781602001602082028036833780820191505090505b50905060006001600b546110499190613587565b9050600080600190505b8281116110fe578673ffffffffffffffffffffffffffffffffffffffff1661107a82610c86565b73ffffffffffffffffffffffffffffffffffffffff1614156110eb57808483815181106110d0577f4e487b7100000000000000000000000000000000000000000000000000000000600052603260045260246000fd5b60200260200101818152505081806110e7906136e6565b9250505b80806110f6906136e6565b915050611053565b83955050505050505b919050565b6000600760009054906101000a900473ffffffffffffffffffffffffffffffffffffffff16905090565b60606001805461114590613683565b80601f016020809104026020016040519081016040528092919081815260200182805461117190613683565b80156111be5780601f10611193576101008083540402835291602001916111be565b820191906000526020600020905b8154815290600101906020018083116111a157829003601f168201915b5050505050905090565b60095481565b6111d6611b4f565b73ffffffffffffffffffffffffffffffffffffffff168273ffffffffffffffffffffffffffffffffffffffff161415611244576040517f08c379a000000000000000000000000000000000000000000000000000000000815260040161123b90613148565b60405180910390fd5b8060056000611251611b4f565b73ffffffffffffffffffffffffffffffffffffffff1673ffffffffffffffffffffffffffffffffffffffff16815260200190815260200160002060008473ffffffffffffffffffffffffffffffffffffffff1673ffffffffffffffffffffffffffffffffffffffff16815260200190815260200160002060006101000a81548160ff0219169083151502179055508173ffffffffffffffffffffffffffffffffffffffff166112fe611b4f565b73ffffffffffffffffffffffffffffffffffffffff167f17307eab39ab6107e8899845ad3d59bd9653f200f220920489ca2b5937696c3183604051611343919061304b565b60405180910390a35050565b611357611b4f565b73ffffffffffffffffffffffffffffffffffffffff1661137561110c565b73ffffffffffffffffffffffffffffffffffffffff16146113cb576040517f08c379a00000000000000000000000000000000000000000000000000000000081526004016113c2906132a8565b60405180910390fd5b600a60009054906101000a900460ff1661141a576040517f08c379a000000000000000000000000000000000000000000000000000000000815260040161141190613368565b60405180910390fd5b6000600a60006101000a81548160ff021916908315150217905550565b611448611442611b4f565b83611c10565b611487576040517f08c379a000000000000000000000000000000000000000000000000000000000815260040161147e90613328565b60405180910390fd5b61149384848484611fdc565b50505050565b60606114a482611ae3565b6114e3576040517f08c379a00000000000000000000000000000000000000000000000000000000081526004016114da90613268565b60405180910390fd5b600060066000848152602001908152602001600020805461150390613683565b80601f016020809104026020016040519081016040528092919081815260200182805461152f90613683565b801561157c5780601f106115515761010080835404028352916020019161157c565b820191906000526020600020905b81548152906001019060200180831161155f57829003601f168201915b50505050509050600061158d612038565b90506000815114156115a35781925050506115e6565b6000825111156115d85780826040516020016115c0929190612f9e565b604051602081830303815290604052925050506115e6565b6115e184612058565b925050505b919050565b6000600b54905090565b600a60009054906101000a900460ff1681565b611610611b4f565b73ffffffffffffffffffffffffffffffffffffffff1661162e61110c565b73ffffffffffffffffffffffffffffffffffffffff1614611684576040517f08c379a000000000000000000000000000000000000000000000000000000000815260040161167b906132a8565b60405180910390fd5b600073ffffffffffffffffffffffffffffffffffffffff168173ffffffffffffffffffffffffffffffffffffffff16141580156116ed57503073ffffffffffffffffffffffffffffffffffffffff168173ffffffffffffffffffffffffffffffffffffffff1614155b6116f657600080fd5b8073ffffffffffffffffffffffffffffffffffffffff166108fc479081150290604051600060405180830381858888f1935050505015801561173c573d6000803e3d6000fd5b5050565b6000600560008473ffffffffffffffffffffffffffffffffffffffff1673ffffffffffffffffffffffffffffffffffffffff16815260200190815260200160002060008373ffffffffffffffffffffffffffffffffffffffff1673ffffffffffffffffffffffffffffffffffffffff16815260200190815260200160002060009054906101000a900460ff16905092915050565b6000600954905090565b6117e6611b4f565b73ffffffffffffffffffffffffffffffffffffffff1661180461110c565b73ffffffffffffffffffffffffffffffffffffffff161461185a576040517f08c379a0000000000000000000000000000000000000000000000000000000008152600401611851906132a8565b60405180910390fd5b600073ffffffffffffffffffffffffffffffffffffffff168173ffffffffffffffffffffffffffffffffffffffff1614156118ca576040517f08c379a00000000000000000000000000000000000000000000000000000000081526004016118c1906130c8565b60405180910390fd5b8073ffffffffffffffffffffffffffffffffffffffff16600760009054906101000a900473ffffffffffffffffffffffffffffffffffffffff1673ffffffffffffffffffffffffffffffffffffffff167f8be0079c531659141344cd1fd0a4f28419497f9722a3daafe3b4186f6b6457e060405160405180910390a380600760006101000a81548173ffffffffffffffffffffffffffffffffffffffff021916908373ffffffffffffffffffffffffffffffffffffffff16021790555050565b611992611b4f565b73ffffffffffffffffffffffffffffffffffffffff166119b061110c565b73ffffffffffffffffffffffffffffffffffffffff1614611a06576040517f08c379a00000000000000000000000000000000000000000000000000000000081526004016119fd906132a8565b60405180910390fd5b600a60009054906101000a900460ff1615611a56576040517f08c379a0000000000000000000000000000000000000000000000000000000008152600401611a4d90613348565b60405180910390fd5b6001600a60006101000a81548160ff021916908315150217905550565b60085481565b60007f01ffc9a7000000000000000000000000000000000000000000000000000000007bffffffffffffffffffffffffffffffffffffffffffffffffffffffff1916827bffffffffffffffffffffffffffffffffffffffffffffffffffffffff1916149050919050565b60008073ffffffffffffffffffffffffffffffffffffffff166002600084815260200190815260200160002060009054906101000a900473ffffffffffffffffffffffffffffffffffffffff1673ffffffffffffffffffffffffffffffffffffffff1614159050919050565b600033905090565b816004600083815260200190815260200160002060006101000a81548173ffffffffffffffffffffffffffffffffffffffff021916908373ffffffffffffffffffffffffffffffffffffffff160217905550808273ffffffffffffffffffffffffffffffffffffffff16611bca83610c86565b73ffffffffffffffffffffffffffffffffffffffff167f8c5be1e5ebec7d5bd14f71427d1e84f3dd0314c0f7b2291e5b200ac8c7c3b92560405160405180910390a45050565b6000611c1b82611ae3565b611c5a576040517f08c379a0000000000000000000000000000000000000000000000000000000008152600401611c5190613168565b60405180910390fd5b6000611c6583610c86565b90508073ffffffffffffffffffffffffffffffffffffffff168473ffffffffffffffffffffffffffffffffffffffff161480611cd457508373ffffffffffffffffffffffffffffffffffffffff16611cbc84610807565b73ffffffffffffffffffffffffffffffffffffffff16145b80611ce55750611ce48185611740565b5b91505092915050565b8273ffffffffffffffffffffffffffffffffffffffff16611d0e82610c86565b73ffffffffffffffffffffffffffffffffffffffff1614611d64576040517f08c379a0000000000000000000000000000000000000000000000000000000008152600401611d5b906132c8565b60405180910390fd5b600073ffffffffffffffffffffffffffffffffffffffff168273ffffffffffffffffffffffffffffffffffffffff161415611dd4576040517f08c379a0000000000000000000000000000000000000000000000000000000008152600401611dcb90613128565b60405180910390fd5b611ddf8383836120ff565b611dea600082611b57565b6001600360008573ffffffffffffffffffffffffffffffffffffffff1673ffffffffffffffffffffffffffffffffffffffff1681526020019081526020016000206000828254611e3a9190613587565b925050819055506001600360008473ffffffffffffffffffffffffffffffffffffffff1673ffffffffffffffffffffffffffffffffffffffff1681526020019081526020016000206000828254611e9191906134a6565b92505081905550816002600083815260200190815260200160002060006101000a81548173ffffffffffffffffffffffffffffffffffffffff021916908373ffffffffffffffffffffffffffffffffffffffff160217905550808273ffffffffffffffffffffffffffffffffffffffff168473ffffffffffffffffffffffffffffffffffffffff167fddf252ad1be2c89b69c2b068fc378daa952ba7f163c4a11628f55a4df523b3ef60405160405180910390a4505050565b611f64828260405180602001604052806000815250612104565b5050565b611f7182611ae3565b611fb0576040517f08c379a0000000000000000000000000000000000000000000000000000000008152600401611fa790613228565b60405180910390fd5b80600660008481526020019081526020016000209080519060200190611fd7929190612684565b505050565b611fe7848484611cee565b611ff38484848461215f565b612032576040517f08c379a0000000000000000000000000000000000000000000000000000000008152600401612029906130a8565b60405180910390fd5b50505050565b6060604051806060016040528060228152602001613e8d60229139905090565b606061206382611ae3565b6120a2576040517f08c379a0000000000000000000000000000000000000000000000000000000008152600401612099906132e8565b60405180910390fd5b60006120ac612038565b905060008151116120cc57604051806020016040528060008152506120f7565b806120d6846122f6565b6040516020016120e7929190612f9e565b6040516020818303038152906040525b915050919050565b505050565b61210e83836124a3565b61211b600084848461215f565b61215a576040517f08c379a0000000000000000000000000000000000000000000000000000000008152600401612151906130a8565b60405180910390fd5b505050565b60006121808473ffffffffffffffffffffffffffffffffffffffff16612671565b156122e9578373ffffffffffffffffffffffffffffffffffffffff1663150b7a026121a9611b4f565b8786866040518563ffffffff1660e01b81526004016121cb9493929190612fdd565b602060405180830381600087803b1580156121e557600080fd5b505af192505050801561221657506040513d601f19601f820116820180604052508101906122139190612a6e565b60015b612299573d8060008114612246576040519150601f19603f3d011682016040523d82523d6000602084013e61224b565b606091505b50600081511415612291576040517f08c379a0000000000000000000000000000000000000000000000000000000008152600401612288906130a8565b60405180910390fd5b805181602001fd5b63150b7a0260e01b7bffffffffffffffffffffffffffffffffffffffffffffffffffffffff1916817bffffffffffffffffffffffffffffffffffffffffffffffffffffffff1916149150506122ee565b600190505b949350505050565b6060600082141561233e576040518060400160405280600181526020017f3000000000000000000000000000000000000000000000000000000000000000815250905061249e565b600082905060005b60008214612370578080612359906136e6565b915050600a8261236991906134fc565b9150612346565b60008167ffffffffffffffff8111156123b2577f4e487b7100000000000000000000000000000000000000000000000000000000600052604160045260246000fd5b6040519080825280601f01601f1916602001820160405280156123e45781602001600182028036833780820191505090505b5090505b60008514612497576001826123fd9190613587565b9150600a8561240c919061372f565b603061241891906134a6565b60f81b818381518110612454577f4e487b7100000000000000000000000000000000000000000000000000000000600052603260045260246000fd5b60200101907effffffffffffffffffffffffffffffffffffffffffffffffffffffffffffff1916908160001a905350600a8561249091906134fc565b94506123e8565b8093505050505b919050565b600073ffffffffffffffffffffffffffffffffffffffff168273ffffffffffffffffffffffffffffffffffffffff161415612513576040517f08c379a000000000000000000000000000000000000000000000000000000000815260040161250a90613248565b60405180910390fd5b61251c81611ae3565b1561255c576040517f08c379a0000000000000000000000000000000000000000000000000000000008152600401612553906130e8565b60405180910390fd5b612568600083836120ff565b6001600360008473ffffffffffffffffffffffffffffffffffffffff1673ffffffffffffffffffffffffffffffffffffffff16815260200190815260200160002060008282546125b891906134a6565b92505081905550816002600083815260200190815260200160002060006101000a81548173ffffffffffffffffffffffffffffffffffffffff021916908373ffffffffffffffffffffffffffffffffffffffff160217905550808273ffffffffffffffffffffffffffffffffffffffff16600073ffffffffffffffffffffffffffffffffffffffff167fddf252ad1be2c89b69c2b068fc378daa952ba7f163c4a11628f55a4df523b3ef60405160405180910390a45050565b600080823b905060008111915050919050565b82805461269090613683565b90600052602060002090601f0160209004810192826126b257600085556126f9565b82601f106126cb57805160ff19168380011785556126f9565b828001600101855582156126f9579182015b828111156126f85782518255916020019190600101906126dd565b5b509050612706919061270a565b5090565b5b8082111561272357600081600090555060010161270b565b5090565b600061273a612735846133c8565b6133a3565b90508281526020810184848401111561275257600080fd5b61275d848285613641565b509392505050565b6000612778612773846133f9565b6133a3565b90508281526020810184848401111561279057600080fd5b61279b848285613641565b509392505050565b6000813590506127b281613e19565b92915050565b6000813590506127c781613e30565b92915050565b6000813590506127dc81613e47565b92915050565b6000813590506127f181613e5e565b92915050565b60008151905061280681613e5e565b92915050565b600082601f83011261281d57600080fd5b813561282d848260208601612727565b91505092915050565b600082601f83011261284757600080fd5b8135612857848260208601612765565b91505092915050565b60008135905061286f81613e75565b92915050565b60006020828403121561288757600080fd5b6000612895848285016127a3565b91505092915050565b6000602082840312156128b057600080fd5b60006128be848285016127b8565b91505092915050565b600080604083850312156128da57600080fd5b60006128e8858286016127a3565b92505060206128f9858286016127a3565b9150509250929050565b60008060006060848603121561291857600080fd5b6000612926868287016127a3565b9350506020612937868287016127a3565b925050604061294886828701612860565b9150509250925092565b6000806000806080858703121561296857600080fd5b6000612976878288016127a3565b9450506020612987878288016127a3565b935050604061299887828801612860565b925050606085013567ffffffffffffffff8111156129b557600080fd5b6129c18782880161280c565b91505092959194509250565b600080604083850312156129e057600080fd5b60006129ee858286016127a3565b92505060206129ff858286016127cd565b9150509250929050565b60008060408385031215612a1c57600080fd5b6000612a2a858286016127a3565b9250506020612a3b85828601612860565b9150509250929050565b600060208284031215612a5757600080fd5b6000612a65848285016127e2565b91505092915050565b600060208284031215612a8057600080fd5b6000612a8e848285016127f7565b91505092915050565b600060208284031215612aa957600080fd5b600082013567ffffffffffffffff811115612ac357600080fd5b612acf84828501612836565b91505092915050565b600060208284031215612aea57600080fd5b6000612af884828501612860565b91505092915050565b6000612b0d8383612f80565b60208301905092915050565b612b22816135bb565b82525050565b6000612b338261343a565b612b3d8185613468565b9350612b488361342a565b8060005b83811015612b79578151612b608882612b01565b9750612b6b8361345b565b925050600181019050612b4c565b5085935050505092915050565b612b8f816135df565b82525050565b6000612ba082613445565b612baa8185613479565b9350612bba818560208601613650565b612bc38161381c565b840191505092915050565b6000612bd982613450565b612be3818561348a565b9350612bf3818560208601613650565b612bfc8161381c565b840191505092915050565b6000612c1282613450565b612c1c818561349b565b9350612c2c818560208601613650565b80840191505092915050565b6000612c4560158361348a565b9150612c508261382d565b602082019050919050565b6000612c6860328361348a565b9150612c7382613856565b604082019050919050565b6000612c8b60268361348a565b9150612c96826138a5565b604082019050919050565b6000612cae601c8361348a565b9150612cb9826138f4565b602082019050919050565b6000612cd1600f8361348a565b9150612cdc8261391d565b602082019050919050565b6000612cf460248361348a565b9150612cff82613946565b604082019050919050565b6000612d1760198361348a565b9150612d2282613995565b602082019050919050565b6000612d3a602c8361348a565b9150612d45826139be565b604082019050919050565b6000612d5d60198361348a565b9150612d6882613a0d565b602082019050919050565b6000612d8060118361348a565b9150612d8b82613a36565b602082019050919050565b6000612da360388361348a565b9150612dae82613a5f565b604082019050919050565b6000612dc6602a8361348a565b9150612dd182613aae565b604082019050919050565b6000612de960298361348a565b9150612df482613afd565b604082019050919050565b6000612e0c602e8361348a565b9150612e1782613b4c565b604082019050919050565b6000612e2f60208361348a565b9150612e3a82613b9b565b602082019050919050565b6000612e5260318361348a565b9150612e5d82613bc4565b604082019050919050565b6000612e75602c8361348a565b9150612e8082613c13565b604082019050919050565b6000612e9860208361348a565b9150612ea382613c62565b602082019050919050565b6000612ebb60298361348a565b9150612ec682613c8b565b604082019050919050565b6000612ede602f8361348a565b9150612ee982613cda565b604082019050919050565b6000612f0160218361348a565b9150612f0c82613d29565b604082019050919050565b6000612f2460318361348a565b9150612f2f82613d78565b604082019050919050565b6000612f4760138361348a565b9150612f5282613dc7565b602082019050919050565b6000612f6a60158361348a565b9150612f7582613df0565b602082019050919050565b612f8981613637565b82525050565b612f9881613637565b82525050565b6000612faa8285612c07565b9150612fb68284612c07565b91508190509392505050565b6000602082019050612fd76000830184612b19565b92915050565b6000608082019050612ff26000830187612b19565b612fff6020830186612b19565b61300c6040830185612f8f565b818103606083015261301e8184612b95565b905095945050505050565b600060208201905081810360008301526130438184612b28565b905092915050565b60006020820190506130606000830184612b86565b92915050565b600060208201905081810360008301526130808184612bce565b905092915050565b600060208201905081810360008301526130a181612c38565b9050919050565b600060208201905081810360008301526130c181612c5b565b9050919050565b600060208201905081810360008301526130e181612c7e565b9050919050565b6000602082019050818103600083015261310181612ca1565b9050919050565b6000602082019050818103600083015261312181612cc4565b9050919050565b6000602082019050818103600083015261314181612ce7565b9050919050565b6000602082019050818103600083015261316181612d0a565b9050919050565b6000602082019050818103600083015261318181612d2d565b9050919050565b600060208201905081810360008301526131a181612d50565b9050919050565b600060208201905081810360008301526131c181612d73565b9050919050565b600060208201905081810360008301526131e181612d96565b9050919050565b6000602082019050818103600083015261320181612db9565b9050919050565b6000602082019050818103600083015261322181612ddc565b9050919050565b6000602082019050818103600083015261324181612dff565b9050919050565b6000602082019050818103600083015261326181612e22565b9050919050565b6000602082019050818103600083015261328181612e45565b9050919050565b600060208201905081810360008301526132a181612e68565b9050919050565b600060208201905081810360008301526132c181612e8b565b9050919050565b600060208201905081810360008301526132e181612eae565b9050919050565b6000602082019050818103600083015261330181612ed1565b9050919050565b6000602082019050818103600083015261332181612ef4565b9050919050565b6000602082019050818103600083015261334181612f17565b9050919050565b6000602082019050818103600083015261336181612f3a565b9050919050565b6000602082019050818103600083015261338181612f5d565b9050919050565b600060208201905061339d6000830184612f8f565b92915050565b60006133ad6133be565b90506133b982826136b5565b919050565b6000604051905090565b600067ffffffffffffffff8211156133e3576133e26137ed565b5b6133ec8261381c565b9050602081019050919050565b600067ffffffffffffffff821115613414576134136137ed565b5b61341d8261381c565b9050602081019050919050565b6000819050602082019050919050565b600081519050919050565b600081519050919050565b600081519050919050565b6000602082019050919050565b600082825260208201905092915050565b600082825260208201905092915050565b600082825260208201905092915050565b600081905092915050565b60006134b182613637565b91506134bc83613637565b9250827fffffffffffffffffffffffffffffffffffffffffffffffffffffffffffffffff038211156134f1576134f0613760565b5b828201905092915050565b600061350782613637565b915061351283613637565b9250826135225761352161378f565b5b828204905092915050565b600061353882613637565b915061354383613637565b9250817fffffffffffffffffffffffffffffffffffffffffffffffffffffffffffffffff048311821515161561357c5761357b613760565b5b828202905092915050565b600061359282613637565b915061359d83613637565b9250828210156135b0576135af613760565b5b828203905092915050565b60006135c682613617565b9050919050565b60006135d882613617565b9050919050565b60008115159050919050565b60007fffffffff0000000000000000000000000000000000000000000000000000000082169050919050565b600073ffffffffffffffffffffffffffffffffffffffff82169050919050565b6000819050919050565b82818337600083830152505050565b60005b8381101561366e578082015181840152602081019050613653565b8381111561367d576000848401525b50505050565b6000600282049050600182168061369b57607f821691505b602082108114156136af576136ae6137be565b5b50919050565b6136be8261381c565b810181811067ffffffffffffffff821117156136dd576136dc6137ed565b5b80604052505050565b60006136f182613637565b91507fffffffffffffffffffffffffffffffffffffffffffffffffffffffffffffffff82141561372457613723613760565b5b600182019050919050565b600061373a82613637565b915061374583613637565b9250826137555761375461378f565b5b828206905092915050565b7f4e487b7100000000000000000000000000000000000000000000000000000000600052601160045260246000fd5b7f4e487b7100000000000000000000000000000000000000000000000000000000600052601260045260246000fd5b7f4e487b7100000000000000000000000000000000000000000000000000000000600052602260045260246000fd5b7f4e487b7100000000000000000000000000000000000000000000000000000000600052604160045260246000fd5b6000601f19601f8301169050919050565b7f546f6b656e20616c7265616479206d696e7465642e0000000000000000000000600082015250565b7f4552433732313a207472616e7366657220746f206e6f6e20455243373231526560008201527f63656976657220696d706c656d656e7465720000000000000000000000000000602082015250565b7f4f776e61626c653a206e6577206f776e657220697320746865207a65726f206160008201527f6464726573730000000000000000000000000000000000000000000000000000602082015250565b7f4552433732313a20746f6b656e20616c7265616479206d696e74656400000000600082015250565b7f53616c652068617320656e6465642e0000000000000000000000000000000000600082015250565b7f4552433732313a207472616e7366657220746f20746865207a65726f2061646460008201527f7265737300000000000000000000000000000000000000000000000000000000602082015250565b7f4552433732313a20617070726f766520746f2063616c6c657200000000000000600082015250565b7f4552433732313a206f70657261746f7220717565727920666f72206e6f6e657860008201527f697374656e7420746f6b656e0000000000000000000000000000000000000000602082015250565b7f427579696e67204e465472656573206973206c6f636b65642e00000000000000600082015250565b7f4e6f7420656e6f7567682065746865722e000000000000000000000000000000600082015250565b7f4552433732313a20617070726f76652063616c6c6572206973206e6f74206f7760008201527f6e6572206e6f7220617070726f76656420666f7220616c6c0000000000000000602082015250565b7f4552433732313a2062616c616e636520717565727920666f7220746865207a6560008201527f726f206164647265737300000000000000000000000000000000000000000000602082015250565b7f4552433732313a206f776e657220717565727920666f72206e6f6e657869737460008201527f656e7420746f6b656e0000000000000000000000000000000000000000000000602082015250565b7f45524337323155524953746f726167653a2055524920736574206f66206e6f6e60008201527f6578697374656e7420746f6b656e000000000000000000000000000000000000602082015250565b7f4552433732313a206d696e7420746f20746865207a65726f2061646472657373600082015250565b7f45524337323155524953746f726167653a2055524920717565727920666f722060008201527f6e6f6e6578697374656e7420746f6b656e000000000000000000000000000000602082015250565b7f4552433732313a20617070726f76656420717565727920666f72206e6f6e657860008201527f697374656e7420746f6b656e0000000000000000000000000000000000000000602082015250565b7f4f776e61626c653a2063616c6c6572206973206e6f7420746865206f776e6572600082015250565b7f4552433732313a207472616e73666572206f6620746f6b656e2074686174206960008201527f73206e6f74206f776e0000000000000000000000000000000000000000000000602082015250565b7f4552433732314d657461646174613a2055524920717565727920666f72206e6f60008201527f6e6578697374656e7420746f6b656e0000000000000000000000000000000000602082015250565b7f4552433732313a20617070726f76616c20746f2063757272656e74206f776e6560008201527f7200000000000000000000000000000000000000000000000000000000000000602082015250565b7f4552433732313a207472616e736665722063616c6c6572206973206e6f74206f60008201527f776e6572206e6f7220617070726f766564000000000000000000000000000000602082015250565b7f436f6e7472616374206973206c6f636b65642e00000000000000000000000000600082015250565b7f436f6e747261637420697320756e6c6f636b65642e0000000000000000000000600082015250565b613e22816135bb565b8114613e2d57600080fd5b50565b613e39816135cd565b8114613e4457600080fd5b50565b613e50816135df565b8114613e5b57600080fd5b50565b613e67816135eb565b8114613e7257600080fd5b50565b613e7e81613637565b8114613e8957600080fd5b5056fe68747470733a2f2f676174657761792e70696e6174612e636c6f75642f697066732fa2646970667358221220e57f949a39127b8d87d869319a5e94dac8749885543d25de4c09f125712b2c5b64736f6c63430008030033",
  "immutableReferences": {},
  "source": "// SPDX-License-Identifier: MIT\r\n\r\npragma solidity ^0.8.0;\r\n\r\n/*\r\n * @dev Provides information about the current execution context, including the\r\n * sender of the transaction and its data. While these are generally available\r\n * via msg.sender and msg.data, they should not be accessed in such a direct\r\n * manner, since when dealing with meta-transactions the account sending and\r\n * paying for execution may not be the actual sender (as far as an application\r\n * is concerned).\r\n *\r\n * This contract is only required for intermediate, library-like contracts.\r\n */\r\nabstract contract Context {\r\n    function _msgSender() internal view virtual returns (address) {\r\n        return msg.sender;\r\n    }\r\n\r\n    function _msgData() internal view virtual returns (bytes calldata) {\r\n        this; // silence state mutability warning without generating bytecode - see https://github.com/ethereum/solidity/issues/2691\r\n        return msg.data;\r\n    }\r\n}\r\n\r\npragma solidity ^0.8.0;\r\n\r\n/**\r\n * @dev Collection of functions related to the address type\r\n */\r\nlibrary Address {\r\n    /**\r\n     * @dev Returns true if `account` is a contract.\r\n     *\r\n     * [IMPORTANT]\r\n     * ====\r\n     * It is unsafe to assume that an address for which this function returns\r\n     * false is an externally-owned account (EOA) and not a contract.\r\n     *\r\n     * Among others, `isContract` will return false for the following\r\n     * types of addresses:\r\n     *\r\n     *  - an externally-owned account\r\n     *  - a contract in construction\r\n     *  - an address where a contract will be created\r\n     *  - an address where a contract lived, but was destroyed\r\n     * ====\r\n     */\r\n    function isContract(address account) internal view returns (bool) {\r\n        // This method relies on extcodesize, which returns 0 for contracts in\r\n        // construction, since the code is only stored at the end of the\r\n        // constructor execution.\r\n\r\n        uint256 size;\r\n        // solhint-disable-next-line no-inline-assembly\r\n        assembly { size := extcodesize(account) }\r\n        return size > 0;\r\n    }\r\n\r\n    /**\r\n     * @dev Replacement for Solidity's `transfer`: sends `amount` wei to\r\n     * `recipient`, forwarding all available gas and reverting on errors.\r\n     *\r\n     * https://eips.ethereum.org/EIPS/eip-1884[EIP1884] increases the gas cost\r\n     * of certain opcodes, possibly making contracts go over the 2300 gas limit\r\n     * imposed by `transfer`, making them unable to receive funds via\r\n     * `transfer`. {sendValue} removes this limitation.\r\n     *\r\n     * https://diligence.consensys.net/posts/2019/09/stop-using-soliditys-transfer-now/[Learn more].\r\n     *\r\n     * IMPORTANT: because control is transferred to `recipient`, care must be\r\n     * taken to not create reentrancy vulnerabilities. Consider using\r\n     * {ReentrancyGuard} or the\r\n     * https://solidity.readthedocs.io/en/v0.5.11/security-considerations.html#use-the-checks-effects-interactions-pattern[checks-effects-interactions pattern].\r\n     */\r\n    function sendValue(address payable recipient, uint256 amount) internal {\r\n        require(address(this).balance >= amount, \"Address: insufficient balance\");\r\n\r\n        // solhint-disable-next-line avoid-low-level-calls, avoid-call-value\r\n        (bool success, ) = recipient.call{ value: amount }(\"\");\r\n        require(success, \"Address: unable to send value, recipient may have reverted\");\r\n    }\r\n\r\n    /**\r\n     * @dev Performs a Solidity function call using a low level `call`. A\r\n     * plain`call` is an unsafe replacement for a function call: use this\r\n     * function instead.\r\n     *\r\n     * If `target` reverts with a revert reason, it is bubbled up by this\r\n     * function (like regular Solidity function calls).\r\n     *\r\n     * Returns the raw returned data. To convert to the expected return value,\r\n     * use https://solidity.readthedocs.io/en/latest/units-and-global-variables.html?highlight=abi.decode#abi-encoding-and-decoding-functions[`abi.decode`].\r\n     *\r\n     * Requirements:\r\n     *\r\n     * - `target` must be a contract.\r\n     * - calling `target` with `data` must not revert.\r\n     *\r\n     * _Available since v3.1._\r\n     */\r\n    function functionCall(address target, bytes memory data) internal returns (bytes memory) {\r\n      return functionCall(target, data, \"Address: low-level call failed\");\r\n    }\r\n\r\n    /**\r\n     * @dev Same as {xref-Address-functionCall-address-bytes-}[`functionCall`], but with\r\n     * `errorMessage` as a fallback revert reason when `target` reverts.\r\n     *\r\n     * _Available since v3.1._\r\n     */\r\n    function functionCall(address target, bytes memory data, string memory errorMessage) internal returns (bytes memory) {\r\n        return functionCallWithValue(target, data, 0, errorMessage);\r\n    }\r\n\r\n    /**\r\n     * @dev Same as {xref-Address-functionCall-address-bytes-}[`functionCall`],\r\n     * but also transferring `value` wei to `target`.\r\n     *\r\n     * Requirements:\r\n     *\r\n     * - the calling contract must have an ETH balance of at least `value`.\r\n     * - the called Solidity function must be `payable`.\r\n     *\r\n     * _Available since v3.1._\r\n     */\r\n    function functionCallWithValue(address target, bytes memory data, uint256 value) internal returns (bytes memory) {\r\n        return functionCallWithValue(target, data, value, \"Address: low-level call with value failed\");\r\n    }\r\n\r\n    /**\r\n     * @dev Same as {xref-Address-functionCallWithValue-address-bytes-uint256-}[`functionCallWithValue`], but\r\n     * with `errorMessage` as a fallback revert reason when `target` reverts.\r\n     *\r\n     * _Available since v3.1._\r\n     */\r\n    function functionCallWithValue(address target, bytes memory data, uint256 value, string memory errorMessage) internal returns (bytes memory) {\r\n        require(address(this).balance >= value, \"Address: insufficient balance for call\");\r\n        require(isContract(target), \"Address: call to non-contract\");\r\n\r\n        // solhint-disable-next-line avoid-low-level-calls\r\n        (bool success, bytes memory returndata) = target.call{ value: value }(data);\r\n        return _verifyCallResult(success, returndata, errorMessage);\r\n    }\r\n\r\n    /**\r\n     * @dev Same as {xref-Address-functionCall-address-bytes-}[`functionCall`],\r\n     * but performing a static call.\r\n     *\r\n     * _Available since v3.3._\r\n     */\r\n    function functionStaticCall(address target, bytes memory data) internal view returns (bytes memory) {\r\n        return functionStaticCall(target, data, \"Address: low-level static call failed\");\r\n    }\r\n\r\n    /**\r\n     * @dev Same as {xref-Address-functionCall-address-bytes-string-}[`functionCall`],\r\n     * but performing a static call.\r\n     *\r\n     * _Available since v3.3._\r\n     */\r\n    function functionStaticCall(address target, bytes memory data, string memory errorMessage) internal view returns (bytes memory) {\r\n        require(isContract(target), \"Address: static call to non-contract\");\r\n\r\n        // solhint-disable-next-line avoid-low-level-calls\r\n        (bool success, bytes memory returndata) = target.staticcall(data);\r\n        return _verifyCallResult(success, returndata, errorMessage);\r\n    }\r\n\r\n    /**\r\n     * @dev Same as {xref-Address-functionCall-address-bytes-}[`functionCall`],\r\n     * but performing a delegate call.\r\n     *\r\n     * _Available since v3.4._\r\n     */\r\n    function functionDelegateCall(address target, bytes memory data) internal returns (bytes memory) {\r\n        return functionDelegateCall(target, data, \"Address: low-level delegate call failed\");\r\n    }\r\n\r\n    /**\r\n     * @dev Same as {xref-Address-functionCall-address-bytes-string-}[`functionCall`],\r\n     * but performing a delegate call.\r\n     *\r\n     * _Available since v3.4._\r\n     */\r\n    function functionDelegateCall(address target, bytes memory data, string memory errorMessage) internal returns (bytes memory) {\r\n        require(isContract(target), \"Address: delegate call to non-contract\");\r\n\r\n        // solhint-disable-next-line avoid-low-level-calls\r\n        (bool success, bytes memory returndata) = target.delegatecall(data);\r\n        return _verifyCallResult(success, returndata, errorMessage);\r\n    }\r\n\r\n    function _verifyCallResult(bool success, bytes memory returndata, string memory errorMessage) private pure returns(bytes memory) {\r\n        if (success) {\r\n            return returndata;\r\n        } else {\r\n            // Look for revert reason and bubble it up if present\r\n            if (returndata.length > 0) {\r\n                // The easiest way to bubble the revert reason is using memory via assembly\r\n\r\n                // solhint-disable-next-line no-inline-assembly\r\n                assembly {\r\n                    let returndata_size := mload(returndata)\r\n                    revert(add(32, returndata), returndata_size)\r\n                }\r\n            } else {\r\n                revert(errorMessage);\r\n            }\r\n        }\r\n    }\r\n}\r\n\r\npragma solidity ^0.8.0;\r\n\r\n/**\r\n * @dev String operations.\r\n */\r\nlibrary Strings {\r\n    bytes16 private constant alphabet = \"0123456789abcdef\";\r\n\r\n    /**\r\n     * @dev Converts a `uint256` to its ASCII `string` decimal representation.\r\n     */\r\n    function toString(uint256 value) internal pure returns (string memory) {\r\n        // Inspired by OraclizeAPI's implementation - MIT licence\r\n        // https://github.com/oraclize/ethereum-api/blob/b42146b063c7d6ee1358846c198246239e9360e8/oraclizeAPI_0.4.25.sol\r\n\r\n        if (value == 0) {\r\n            return \"0\";\r\n        }\r\n        uint256 temp = value;\r\n        uint256 digits;\r\n        while (temp != 0) {\r\n            digits++;\r\n            temp /= 10;\r\n        }\r\n        bytes memory buffer = new bytes(digits);\r\n        while (value != 0) {\r\n            digits -= 1;\r\n            buffer[digits] = bytes1(uint8(48 + uint256(value % 10)));\r\n            value /= 10;\r\n        }\r\n        return string(buffer);\r\n    }\r\n\r\n    /**\r\n     * @dev Converts a `uint256` to its ASCII `string` hexadecimal representation.\r\n     */\r\n    function toHexString(uint256 value) internal pure returns (string memory) {\r\n        if (value == 0) {\r\n            return \"0x00\";\r\n        }\r\n        uint256 temp = value;\r\n        uint256 length = 0;\r\n        while (temp != 0) {\r\n            length++;\r\n            temp >>= 8;\r\n        }\r\n        return toHexString(value, length);\r\n    }\r\n\r\n    /**\r\n     * @dev Converts a `uint256` to its ASCII `string` hexadecimal representation with fixed length.\r\n     */\r\n    function toHexString(uint256 value, uint256 length) internal pure returns (string memory) {\r\n        bytes memory buffer = new bytes(2 * length + 2);\r\n        buffer[0] = \"0\";\r\n        buffer[1] = \"x\";\r\n        for (uint256 i = 2 * length + 1; i > 1; --i) {\r\n            buffer[i] = alphabet[value & 0xf];\r\n            value >>= 4;\r\n        }\r\n        require(value == 0, \"Strings: hex length insufficient\");\r\n        return string(buffer);\r\n    }\r\n\r\n}\r\n\r\npragma solidity ^0.8.0;\r\n\r\n/**\r\n * @title ERC721 token receiver interface\r\n * @dev Interface for any contract that wants to support safeTransfers\r\n * from ERC721 asset contracts.\r\n */\r\ninterface IERC721Receiver {\r\n    /**\r\n     * @dev Whenever an {IERC721} `tokenId` token is transferred to this contract via {IERC721-safeTransferFrom}\r\n     * by `operator` from `from`, this function is called.\r\n     *\r\n     * It must return its Solidity selector to confirm the token transfer.\r\n     * If any other value is returned or the interface is not implemented by the recipient, the transfer will be reverted.\r\n     *\r\n     * The selector can be obtained in Solidity with `IERC721.onERC721Received.selector`.\r\n     */\r\n    function onERC721Received(address operator, address from, uint256 tokenId, bytes calldata data) external returns (bytes4);\r\n}\r\n\r\npragma solidity ^0.8.0;\r\n\r\n/**\r\n * @dev Interface of the ERC165 standard, as defined in the\r\n * https://eips.ethereum.org/EIPS/eip-165[EIP].\r\n *\r\n * Implementers can declare support of contract interfaces, which can then be\r\n * queried by others ({ERC165Checker}).\r\n *\r\n * For an implementation, see {ERC165}.\r\n */\r\ninterface IERC165 {\r\n    /**\r\n     * @dev Returns true if this contract implements the interface defined by\r\n     * `interfaceId`. See the corresponding\r\n     * https://eips.ethereum.org/EIPS/eip-165#how-interfaces-are-identified[EIP section]\r\n     * to learn more about how these ids are created.\r\n     *\r\n     * This function call must use less than 30 000 gas.\r\n     */\r\n    function supportsInterface(bytes4 interfaceId) external view returns (bool);\r\n}\r\n\r\npragma solidity ^0.8.0;\r\n\r\n/**\r\n * @dev Implementation of the {IERC165} interface.\r\n *\r\n * Contracts that want to implement ERC165 should inherit from this contract and override {supportsInterface} to check\r\n * for the additional interface id that will be supported. For example:\r\n *\r\n * ```solidity\r\n * function supportsInterface(bytes4 interfaceId) public view virtual override returns (bool) {\r\n *     return interfaceId == type(MyInterface).interfaceId || super.supportsInterface(interfaceId);\r\n * }\r\n * ```\r\n *\r\n * Alternatively, {ERC165Storage} provides an easier to use but more expensive implementation.\r\n */\r\nabstract contract ERC165 is IERC165 {\r\n    /**\r\n     * @dev See {IERC165-supportsInterface}.\r\n     */\r\n    function supportsInterface(bytes4 interfaceId) public view virtual override returns (bool) {\r\n        return interfaceId == type(IERC165).interfaceId;\r\n    }\r\n}\r\n\r\npragma solidity ^0.8.0;\r\n\r\n/**\r\n * @dev Required interface of an ERC721 compliant contract.\r\n */\r\ninterface IERC721 is IERC165 {\r\n    /**\r\n     * @dev Emitted when `tokenId` token is transferred from `from` to `to`.\r\n     */\r\n    event Transfer(address indexed from, address indexed to, uint256 indexed tokenId);\r\n\r\n    /**\r\n     * @dev Emitted when `owner` enables `approved` to manage the `tokenId` token.\r\n     */\r\n    event Approval(address indexed owner, address indexed approved, uint256 indexed tokenId);\r\n\r\n    /**\r\n     * @dev Emitted when `owner` enables or disables (`approved`) `operator` to manage all of its assets.\r\n     */\r\n    event ApprovalForAll(address indexed owner, address indexed operator, bool approved);\r\n\r\n    /**\r\n     * @dev Returns the number of tokens in ``owner``'s account.\r\n     */\r\n    function balanceOf(address owner) external view returns (uint256 balance);\r\n\r\n    /**\r\n     * @dev Returns the owner of the `tokenId` token.\r\n     *\r\n     * Requirements:\r\n     *\r\n     * - `tokenId` must exist.\r\n     */\r\n    function ownerOf(uint256 tokenId) external view returns (address owner);\r\n\r\n    /**\r\n     * @dev Safely transfers `tokenId` token from `from` to `to`, checking first that contract recipients\r\n     * are aware of the ERC721 protocol to prevent tokens from being forever locked.\r\n     *\r\n     * Requirements:\r\n     *\r\n     * - `from` cannot be the zero address.\r\n     * - `to` cannot be the zero address.\r\n     * - `tokenId` token must exist and be owned by `from`.\r\n     * - If the caller is not `from`, it must be have been allowed to move this token by either {approve} or {setApprovalForAll}.\r\n     * - If `to` refers to a smart contract, it must implement {IERC721Receiver-onERC721Received}, which is called upon a safe transfer.\r\n     *\r\n     * Emits a {Transfer} event.\r\n     */\r\n    function safeTransferFrom(address from, address to, uint256 tokenId) external;\r\n\r\n    /**\r\n     * @dev Transfers `tokenId` token from `from` to `to`.\r\n     *\r\n     * WARNING: Usage of this method is discouraged, use {safeTransferFrom} whenever possible.\r\n     *\r\n     * Requirements:\r\n     *\r\n     * - `from` cannot be the zero address.\r\n     * - `to` cannot be the zero address.\r\n     * - `tokenId` token must be owned by `from`.\r\n     * - If the caller is not `from`, it must be approved to move this token by either {approve} or {setApprovalForAll}.\r\n     *\r\n     * Emits a {Transfer} event.\r\n     */\r\n    function transferFrom(address from, address to, uint256 tokenId) external;\r\n\r\n    /**\r\n     * @dev Gives permission to `to` to transfer `tokenId` token to another account.\r\n     * The approval is cleared when the token is transferred.\r\n     *\r\n     * Only a single account can be approved at a time, so approving the zero address clears previous approvals.\r\n     *\r\n     * Requirements:\r\n     *\r\n     * - The caller must own the token or be an approved operator.\r\n     * - `tokenId` must exist.\r\n     *\r\n     * Emits an {Approval} event.\r\n     */\r\n    function approve(address to, uint256 tokenId) external;\r\n\r\n    /**\r\n     * @dev Returns the account approved for `tokenId` token.\r\n     *\r\n     * Requirements:\r\n     *\r\n     * - `tokenId` must exist.\r\n     */\r\n    function getApproved(uint256 tokenId) external view returns (address operator);\r\n\r\n    /**\r\n     * @dev Approve or remove `operator` as an operator for the caller.\r\n     * Operators can call {transferFrom} or {safeTransferFrom} for any token owned by the caller.\r\n     *\r\n     * Requirements:\r\n     *\r\n     * - The `operator` cannot be the caller.\r\n     *\r\n     * Emits an {ApprovalForAll} event.\r\n     */\r\n    function setApprovalForAll(address operator, bool _approved) external;\r\n\r\n    /**\r\n     * @dev Returns if the `operator` is allowed to manage all of the assets of `owner`.\r\n     *\r\n     * See {setApprovalForAll}\r\n     */\r\n    function isApprovedForAll(address owner, address operator) external view returns (bool);\r\n\r\n    /**\r\n      * @dev Safely transfers `tokenId` token from `from` to `to`.\r\n      *\r\n      * Requirements:\r\n      *\r\n      * - `from` cannot be the zero address.\r\n      * - `to` cannot be the zero address.\r\n      * - `tokenId` token must exist and be owned by `from`.\r\n      * - If the caller is not `from`, it must be approved to move this token by either {approve} or {setApprovalForAll}.\r\n      * - If `to` refers to a smart contract, it must implement {IERC721Receiver-onERC721Received}, which is called upon a safe transfer.\r\n      *\r\n      * Emits a {Transfer} event.\r\n      */\r\n    function safeTransferFrom(address from, address to, uint256 tokenId, bytes calldata data) external;\r\n}\r\n\r\npragma solidity ^0.8.0;\r\n\r\n/**\r\n * @title ERC-721 Non-Fungible Token Standard, optional metadata extension\r\n * @dev See https://eips.ethereum.org/EIPS/eip-721\r\n */\r\ninterface IERC721Metadata is IERC721 {\r\n\r\n    /**\r\n     * @dev Returns the token collection name.\r\n     */\r\n    function name() external view returns (string memory);\r\n\r\n    /**\r\n     * @dev Returns the token collection symbol.\r\n     */\r\n    function symbol() external view returns (string memory);\r\n\r\n    /**\r\n     * @dev Returns the Uniform Resource Identifier (URI) for `tokenId` token.\r\n     */\r\n    function tokenURI(uint256 tokenId) external view returns (string memory);\r\n}\r\n\r\n/**\r\n * @dev Implementation of https://eips.ethereum.org/EIPS/eip-721[ERC721] Non-Fungible Token Standard, including\r\n * the Metadata extension, but not including the Enumerable extension, which is available separately as\r\n * {ERC721Enumerable}.\r\n */\r\ncontract ERC721 is Context, ERC165, IERC721, IERC721Metadata {\r\n    using Address for address;\r\n    using Strings for uint256;\r\n\r\n    // Token name\r\n    string private _name;\r\n\r\n    // Token symbol\r\n    string private _symbol;\r\n\r\n    // Mapping from token ID to owner address\r\n    mapping (uint256 => address) private _owners;\r\n\r\n    // Mapping owner address to token count\r\n    mapping (address => uint256) private _balances;\r\n\r\n    // Mapping from token ID to approved address\r\n    mapping (uint256 => address) private _tokenApprovals;\r\n\r\n    // Mapping from owner to operator approvals\r\n    mapping (address => mapping (address => bool)) private _operatorApprovals;\r\n\r\n    /**\r\n     * @dev Initializes the contract by setting a `name` and a `symbol` to the token collection.\r\n     */\r\n    constructor (string memory name_, string memory symbol_) {\r\n        _name = name_;\r\n        _symbol = symbol_;\r\n    }\r\n\r\n    /**\r\n     * @dev See {IERC165-supportsInterface}.\r\n     */\r\n    function supportsInterface(bytes4 interfaceId) public view virtual override(ERC165, IERC165) returns (bool) {\r\n        return interfaceId == type(IERC721).interfaceId\r\n            || interfaceId == type(IERC721Metadata).interfaceId\r\n            || super.supportsInterface(interfaceId);\r\n    }\r\n\r\n    /**\r\n     * @dev See {IERC721-balanceOf}.\r\n     */\r\n    function balanceOf(address owner) public view virtual override returns (uint256) {\r\n        require(owner != address(0), \"ERC721: balance query for the zero address\");\r\n        return _balances[owner];\r\n    }\r\n\r\n    /**\r\n     * @dev See {IERC721-ownerOf}.\r\n     */\r\n    function ownerOf(uint256 tokenId) public view virtual override returns (address) {\r\n        address owner = _owners[tokenId];\r\n        require(owner != address(0), \"ERC721: owner query for nonexistent token\");\r\n        return owner;\r\n    }\r\n\r\n    /**\r\n     * @dev See {IERC721Metadata-name}.\r\n     */\r\n    function name() public view virtual override returns (string memory) {\r\n        return _name;\r\n    }\r\n\r\n    /**\r\n     * @dev See {IERC721Metadata-symbol}.\r\n     */\r\n    function symbol() public view virtual override returns (string memory) {\r\n        return _symbol;\r\n    }\r\n\r\n    /**\r\n     * @dev See {IERC721Metadata-tokenURI}.\r\n     */\r\n    function tokenURI(uint256 tokenId) public view virtual override returns (string memory) {\r\n        require(_exists(tokenId), \"ERC721Metadata: URI query for nonexistent token\");\r\n\r\n        string memory baseURI = _baseURI();\r\n        return bytes(baseURI).length > 0\r\n            ? string(abi.encodePacked(baseURI, tokenId.toString()))\r\n            : '';\r\n    }\r\n\r\n    /**\r\n     * @dev Base URI for computing {tokenURI}. Empty by default, can be overriden\r\n     * in child contracts.\r\n     */\r\n    function _baseURI() internal view virtual returns (string memory) {\r\n        return \"https://gateway.pinata.cloud/ipfs/\";\r\n    }\r\n\r\n    /**\r\n     * @dev See {IERC721-approve}.\r\n     */\r\n    function approve(address to, uint256 tokenId) public virtual override {\r\n        address owner = ERC721.ownerOf(tokenId);\r\n        require(to != owner, \"ERC721: approval to current owner\");\r\n\r\n        require(_msgSender() == owner || ERC721.isApprovedForAll(owner, _msgSender()),\r\n            \"ERC721: approve caller is not owner nor approved for all\"\r\n        );\r\n\r\n        _approve(to, tokenId);\r\n    }\r\n\r\n    /**\r\n     * @dev See {IERC721-getApproved}.\r\n     */\r\n    function getApproved(uint256 tokenId) public view virtual override returns (address) {\r\n        require(_exists(tokenId), \"ERC721: approved query for nonexistent token\");\r\n\r\n        return _tokenApprovals[tokenId];\r\n    }\r\n\r\n    /**\r\n     * @dev See {IERC721-setApprovalForAll}.\r\n     */\r\n    function setApprovalForAll(address operator, bool approved) public virtual override {\r\n        require(operator != _msgSender(), \"ERC721: approve to caller\");\r\n\r\n        _operatorApprovals[_msgSender()][operator] = approved;\r\n        emit ApprovalForAll(_msgSender(), operator, approved);\r\n    }\r\n\r\n    /**\r\n     * @dev See {IERC721-isApprovedForAll}.\r\n     */\r\n    function isApprovedForAll(address owner, address operator) public view virtual override returns (bool) {\r\n        return _operatorApprovals[owner][operator];\r\n    }\r\n\r\n    /**\r\n     * @dev See {IERC721-transferFrom}.\r\n     */\r\n    function transferFrom(address from, address to, uint256 tokenId) public virtual override {\r\n        //solhint-disable-next-line max-line-length\r\n        require(_isApprovedOrOwner(_msgSender(), tokenId), \"ERC721: transfer caller is not owner nor approved\");\r\n\r\n        _transfer(from, to, tokenId);\r\n    }\r\n\r\n    /**\r\n     * @dev See {IERC721-safeTransferFrom}.\r\n     */\r\n    function safeTransferFrom(address from, address to, uint256 tokenId) public virtual override {\r\n        safeTransferFrom(from, to, tokenId, \"\");\r\n    }\r\n\r\n    /**\r\n     * @dev See {IERC721-safeTransferFrom}.\r\n     */\r\n    function safeTransferFrom(address from, address to, uint256 tokenId, bytes memory _data) public virtual override {\r\n        require(_isApprovedOrOwner(_msgSender(), tokenId), \"ERC721: transfer caller is not owner nor approved\");\r\n        _safeTransfer(from, to, tokenId, _data);\r\n    }\r\n\r\n    /**\r\n     * @dev Safely transfers `tokenId` token from `from` to `to`, checking first that contract recipients\r\n     * are aware of the ERC721 protocol to prevent tokens from being forever locked.\r\n     *\r\n     * `_data` is additional data, it has no specified format and it is sent in call to `to`.\r\n     *\r\n     * This internal function is equivalent to {safeTransferFrom}, and can be used to e.g.\r\n     * implement alternative mechanisms to perform token transfer, such as signature-based.\r\n     *\r\n     * Requirements:\r\n     *\r\n     * - `from` cannot be the zero address.\r\n     * - `to` cannot be the zero address.\r\n     * - `tokenId` token must exist and be owned by `from`.\r\n     * - If `to` refers to a smart contract, it must implement {IERC721Receiver-onERC721Received}, which is called upon a safe transfer.\r\n     *\r\n     * Emits a {Transfer} event.\r\n     */\r\n    function _safeTransfer(address from, address to, uint256 tokenId, bytes memory _data) internal virtual {\r\n        _transfer(from, to, tokenId);\r\n        require(_checkOnERC721Received(from, to, tokenId, _data), \"ERC721: transfer to non ERC721Receiver implementer\");\r\n    }\r\n\r\n    /**\r\n     * @dev Returns whether `tokenId` exists.\r\n     *\r\n     * Tokens can be managed by their owner or approved accounts via {approve} or {setApprovalForAll}.\r\n     *\r\n     * Tokens start existing when they are minted (`_mint`),\r\n     * and stop existing when they are burned (`_burn`).\r\n     */\r\n    function _exists(uint256 tokenId) internal view virtual returns (bool) {\r\n        return _owners[tokenId] != address(0);\r\n    }\r\n\r\n    /**\r\n     * @dev Returns whether `spender` is allowed to manage `tokenId`.\r\n     *\r\n     * Requirements:\r\n     *\r\n     * - `tokenId` must exist.\r\n     */\r\n    function _isApprovedOrOwner(address spender, uint256 tokenId) internal view virtual returns (bool) {\r\n        require(_exists(tokenId), \"ERC721: operator query for nonexistent token\");\r\n        address owner = ERC721.ownerOf(tokenId);\r\n        return (spender == owner || getApproved(tokenId) == spender || ERC721.isApprovedForAll(owner, spender));\r\n    }\r\n\r\n    /**\r\n     * @dev Safely mints `tokenId` and transfers it to `to`.\r\n     *\r\n     * Requirements:\r\n     *\r\n     * - `tokenId` must not exist.\r\n     * - If `to` refers to a smart contract, it must implement {IERC721Receiver-onERC721Received}, which is called upon a safe transfer.\r\n     *\r\n     * Emits a {Transfer} event.\r\n     */\r\n    function _safeMint(address to, uint256 tokenId) internal virtual {\r\n        _safeMint(to, tokenId, \"\");\r\n    }\r\n\r\n    /**\r\n     * @dev Same as {xref-ERC721-_safeMint-address-uint256-}[`_safeMint`], with an additional `data` parameter which is\r\n     * forwarded in {IERC721Receiver-onERC721Received} to contract recipients.\r\n     */\r\n    function _safeMint(address to, uint256 tokenId, bytes memory _data) internal virtual {\r\n        _mint(to, tokenId);\r\n        require(_checkOnERC721Received(address(0), to, tokenId, _data), \"ERC721: transfer to non ERC721Receiver implementer\");\r\n    }\r\n\r\n    /**\r\n     * @dev Mints `tokenId` and transfers it to `to`.\r\n     *\r\n     * WARNING: Usage of this method is discouraged, use {_safeMint} whenever possible\r\n     *\r\n     * Requirements:\r\n     *\r\n     * - `tokenId` must not exist.\r\n     * - `to` cannot be the zero address.\r\n     *\r\n     * Emits a {Transfer} event.\r\n     */\r\n    function _mint(address to, uint256 tokenId) internal virtual {\r\n        require(to != address(0), \"ERC721: mint to the zero address\");\r\n        require(!_exists(tokenId), \"ERC721: token already minted\");\r\n\r\n        _beforeTokenTransfer(address(0), to, tokenId);\r\n\r\n        _balances[to] += 1;\r\n        _owners[tokenId] = to;\r\n\r\n        emit Transfer(address(0), to, tokenId);\r\n    }\r\n\r\n    /**\r\n     * @dev Destroys `tokenId`.\r\n     * The approval is cleared when the token is burned.\r\n     *\r\n     * Requirements:\r\n     *\r\n     * - `tokenId` must exist.\r\n     *\r\n     * Emits a {Transfer} event.\r\n     */\r\n    function _burn(uint256 tokenId) internal virtual {\r\n        address owner = ERC721.ownerOf(tokenId);\r\n\r\n        _beforeTokenTransfer(owner, address(0), tokenId);\r\n\r\n        // Clear approvals\r\n        _approve(address(0), tokenId);\r\n\r\n        _balances[owner] -= 1;\r\n        delete _owners[tokenId];\r\n\r\n        emit Transfer(owner, address(0), tokenId);\r\n    }\r\n\r\n    /**\r\n     * @dev Transfers `tokenId` from `from` to `to`.\r\n     *  As opposed to {transferFrom}, this imposes no restrictions on msg.sender.\r\n     *\r\n     * Requirements:\r\n     *\r\n     * - `to` cannot be the zero address.\r\n     * - `tokenId` token must be owned by `from`.\r\n     *\r\n     * Emits a {Transfer} event.\r\n     */\r\n    function _transfer(address from, address to, uint256 tokenId) internal virtual {\r\n        require(ERC721.ownerOf(tokenId) == from, \"ERC721: transfer of token that is not own\");\r\n        require(to != address(0), \"ERC721: transfer to the zero address\");\r\n\r\n        _beforeTokenTransfer(from, to, tokenId);\r\n\r\n        // Clear approvals from the previous owner\r\n        _approve(address(0), tokenId);\r\n\r\n        _balances[from] -= 1;\r\n        _balances[to] += 1;\r\n        _owners[tokenId] = to;\r\n\r\n        emit Transfer(from, to, tokenId);\r\n    }\r\n\r\n    /**\r\n     * @dev Approve `to` to operate on `tokenId`\r\n     *\r\n     * Emits a {Approval} event.\r\n     */\r\n    function _approve(address to, uint256 tokenId) internal virtual {\r\n        _tokenApprovals[tokenId] = to;\r\n        emit Approval(ERC721.ownerOf(tokenId), to, tokenId);\r\n    }\r\n\r\n    /**\r\n     * @dev Internal function to invoke {IERC721Receiver-onERC721Received} on a target address.\r\n     * The call is not executed if the target address is not a contract.\r\n     *\r\n     * @param from address representing the previous owner of the given token ID\r\n     * @param to target address that will receive the tokens\r\n     * @param tokenId uint256 ID of the token to be transferred\r\n     * @param _data bytes optional data to send along with the call\r\n     * @return bool whether the call correctly returned the expected magic value\r\n     */\r\n    function _checkOnERC721Received(address from, address to, uint256 tokenId, bytes memory _data)\r\n        private returns (bool)\r\n    {\r\n        if (to.isContract()) {\r\n            try IERC721Receiver(to).onERC721Received(_msgSender(), from, tokenId, _data) returns (bytes4 retval) {\r\n                return retval == IERC721Receiver(to).onERC721Received.selector;\r\n            } catch (bytes memory reason) {\r\n                if (reason.length == 0) {\r\n                    revert(\"ERC721: transfer to non ERC721Receiver implementer\");\r\n                } else {\r\n                    // solhint-disable-next-line no-inline-assembly\r\n                    assembly {\r\n                        revert(add(32, reason), mload(reason))\r\n                    }\r\n                }\r\n            }\r\n        } else {\r\n            return true;\r\n        }\r\n    }\r\n\r\n    /**\r\n     * @dev Hook that is called before any token transfer. This includes minting\r\n     * and burning.\r\n     *\r\n     * Calling conditions:\r\n     *\r\n     * - When `from` and `to` are both non-zero, ``from``'s `tokenId` will be\r\n     * transferred to `to`.\r\n     * - When `from` is zero, `tokenId` will be minted for `to`.\r\n     * - When `to` is zero, ``from``'s `tokenId` will be burned.\r\n     * - `from` cannot be the zero address.\r\n     * - `to` cannot be the zero address.\r\n     *\r\n     * To learn more about hooks, head to xref:ROOT:extending-contracts.adoc#using-hooks[Using Hooks].\r\n     */\r\n    function _beforeTokenTransfer(address from, address to, uint256 tokenId) internal virtual { }\r\n}\r\n\r\npragma solidity ^0.8.0;\r\n\r\n/**\r\n * @dev ERC721 token with storage based token uri management.\r\n */\r\nabstract contract ERC721URIStorage is ERC721 {\r\n    using Strings for uint256;\r\n\r\n    // Optional mapping for token URIs\r\n    mapping (uint256 => string) private _tokenURIs;\r\n\r\n    /**\r\n     * @dev See {IERC721Metadata-tokenURI}.\r\n     */\r\n    function tokenURI(uint256 tokenId) public view virtual override returns (string memory) {\r\n        require(_exists(tokenId), \"ERC721URIStorage: URI query for nonexistent token\");\r\n\r\n        string memory _tokenURI = _tokenURIs[tokenId];\r\n        string memory base = _baseURI();\r\n\r\n        // If there is no base URI, return the token URI.\r\n        if (bytes(base).length == 0) {\r\n            return _tokenURI;\r\n        }\r\n        // If both are set, concatenate the baseURI and tokenURI (via abi.encodePacked).\r\n        if (bytes(_tokenURI).length > 0) {\r\n            return string(abi.encodePacked(base, _tokenURI));\r\n        }\r\n\r\n        return super.tokenURI(tokenId);\r\n    }\r\n\r\n    /**\r\n     * @dev Sets `_tokenURI` as the tokenURI of `tokenId`.\r\n     *\r\n     * Requirements:\r\n     *\r\n     * - `tokenId` must exist.\r\n     */\r\n    function _setTokenURI(uint256 tokenId, string memory _tokenURI) internal virtual {\r\n        require(_exists(tokenId), \"ERC721URIStorage: URI set of nonexistent token\");\r\n        _tokenURIs[tokenId] = _tokenURI;\r\n    }\r\n\r\n    /**\r\n     * @dev Destroys `tokenId`.\r\n     * The approval is cleared when the token is burned.\r\n     *\r\n     * Requirements:\r\n     *\r\n     * - `tokenId` must exist.\r\n     *\r\n     * Emits a {Transfer} event.\r\n     */\r\n    function _burn(uint256 tokenId) internal virtual override {\r\n        super._burn(tokenId);\r\n\r\n        if (bytes(_tokenURIs[tokenId]).length != 0) {\r\n            delete _tokenURIs[tokenId];\r\n        }\r\n    }\r\n}\r\n\r\npragma solidity ^0.8.0;\r\n\r\n/**\r\n * @dev Contract module which provides a basic access control mechanism, where\r\n * there is an account (an owner) that can be granted exclusive access to\r\n * specific functions.\r\n *\r\n * By default, the owner account will be the one that deploys the contract. This\r\n * can later be changed with {transferOwnership}.\r\n *\r\n * This module is used through inheritance. It will make available the modifier\r\n * `onlyOwner`, which can be applied to your functions to restrict their use to\r\n * the owner.\r\n */\r\nabstract contract Ownable is ERC721URIStorage {\r\n    address private _owner;\r\n\r\n    event OwnershipTransferred(address indexed previousOwner, address indexed newOwner);\r\n\r\n    /**\r\n     * @dev Initializes the contract setting the deployer as the initial owner.\r\n     */\r\n    constructor () {\r\n        address msgSender = _msgSender();\r\n        _owner = msgSender;\r\n        emit OwnershipTransferred(address(0), msgSender);\r\n    }\r\n\r\n    /**\r\n     * @dev Returns the address of the current owner.\r\n     */\r\n    function owner() public view virtual returns (address) {\r\n        return _owner;\r\n    }\r\n\r\n    /**\r\n     * @dev Throws if called by any account other than the owner.\r\n     */\r\n    modifier onlyOwner() {\r\n        require(owner() == _msgSender(), \"Ownable: caller is not the owner\");\r\n        _;\r\n    }\r\n\r\n    /**\r\n     * @dev Leaves the contract without owner. It will not be possible to call\r\n     * `onlyOwner` functions anymore. Can only be called by the current owner.\r\n     *\r\n     * NOTE: Renouncing ownership will leave the contract without an owner,\r\n     * thereby removing any functionality that is only available to the owner.\r\n     */\r\n    function renounceOwnership() public virtual onlyOwner {\r\n        emit OwnershipTransferred(_owner, address(0));\r\n        _owner = address(0);\r\n    }\r\n\r\n    /**\r\n     * @dev Transfers ownership of the contract to a new account (`newOwner`).\r\n     * Can only be called by the current owner.\r\n     */\r\n    function transferOwnership(address newOwner) public virtual onlyOwner {\r\n        require(newOwner != address(0), \"Ownable: new owner is the zero address\");\r\n        emit OwnershipTransferred(_owner, newOwner);\r\n        _owner = newOwner;\r\n    }\r\n}\r\n\r\npragma solidity ^0.8.0;\r\n/* Contract for NFtrees */\r\n\r\ncontract NFTree is Ownable{\r\n    uint256 public hardCap;\r\n    uint256 public currentPrice;\r\n    bool public locked;\r\n    uint256 tokenId;\r\n    \r\n    constructor() \r\n\r\n    ERC721('NFTree', 'TREE')\r\n    {\r\n        hardCap = 1000;\r\n        currentPrice = 1 * (10 ** 18); // 1 ether\r\n        locked = false;\r\n        tokenId = 1;\r\n    }\r\n\r\n    function buyNFTree(string memory tokenHash) public payable {\r\n        require(!locked, 'Buying NFTrees is locked.');\r\n        require(msg.sender != address(0) && msg.sender != address(this));\r\n        require(msg.value >= currentPrice, 'Not enough ether.');\r\n        require(!_exists(tokenId), 'Token already minted.');\r\n        require(tokenId <= hardCap, 'Sale has ended.');\r\n        _safeMint(msg.sender, tokenId);\r\n        _setTokenURI(tokenId, tokenHash); \r\n        tokenId = tokenId + 1; \r\n    }\r\n\r\n    function tokensOfOwner(address _owner) external view returns(uint256[] memory) {\r\n        uint256 tokenCount = balanceOf(_owner);\r\n\r\n        if (tokenCount == 0) {\r\n            // Return an empty array\r\n            return new uint256[](0);\r\n        } else {\r\n            uint256[] memory result = new uint256[](tokenCount);\r\n            uint256 totalNFTrees = tokenId - 1;\r\n            uint256 resultIndex = 0;\r\n\r\n            // We count on the fact that all cats have IDs starting at 1 and increasing\r\n            // sequentially up to the totalCat count.\r\n            uint256 NFTreeId;\r\n\r\n            for (NFTreeId = 1; NFTreeId <= totalNFTrees; NFTreeId++) {\r\n                if (ownerOf(NFTreeId) == _owner) {\r\n                    result[resultIndex] = NFTreeId;\r\n                    resultIndex++;\r\n                }\r\n            }\r\n\r\n            return result;\r\n        }\r\n    }\r\n\r\n    function sendTo(address payable _payee) public onlyOwner{\r\n        require(_payee != address(0) && _payee != address(this));\r\n        //require(_amount > 0 && _amount <= address(this).balance, 'Not enough ether in contract.');\r\n        _payee.transfer(address(this).balance);\r\n    }\r\n    \r\n    function getContractBalance() public view returns(uint256){\r\n        return(address(this).balance);\r\n    }\r\n\r\n    function setCurrentPrice(uint256 _currentPrice) public onlyOwner {\r\n        currentPrice = _currentPrice * (10 ** 18);\r\n    }\r\n    \r\n    function getCurrentPrice() public view returns(uint256){\r\n        return(currentPrice);\r\n    }\r\n\r\n    function getNextTokenId() public view returns(uint256){\r\n        return(tokenId);\r\n    }\r\n\r\n    function unlock() public onlyOwner {\r\n        require(locked, 'Contract is unlocked.');\r\n        locked = false;\r\n    }\r\n\r\n    function lock() public onlyOwner {\r\n        require(!locked, 'Contract is locked.');\r\n        locked = true;\r\n    }\r\n}\r\n\r\n\r\n",
  "sourcePath": "D:/Code/NFTrees/contracts/NFTree.sol",
  "compiler": {
    "name": "solc",
    "version": "0.8.3+commit.8d00100c.Emscripten.clang"
  },
  "schemaVersion": "3.4.1",
  "updatedAt": "2021-05-22T22:20:34.460Z",
  "devdoc": {
    "kind": "dev",
    "methods": {
      "approve(address,uint256)": {
        "details": "See {IERC721-approve}."
      },
      "balanceOf(address)": {
        "details": "See {IERC721-balanceOf}."
      },
      "getApproved(uint256)": {
        "details": "See {IERC721-getApproved}."
      },
      "isApprovedForAll(address,address)": {
        "details": "See {IERC721-isApprovedForAll}."
      },
      "name()": {
        "details": "See {IERC721Metadata-name}."
      },
      "owner()": {
        "details": "Returns the address of the current owner."
      },
      "ownerOf(uint256)": {
        "details": "See {IERC721-ownerOf}."
      },
      "renounceOwnership()": {
        "details": "Leaves the contract without owner. It will not be possible to call `onlyOwner` functions anymore. Can only be called by the current owner. NOTE: Renouncing ownership will leave the contract without an owner, thereby removing any functionality that is only available to the owner."
      },
      "safeTransferFrom(address,address,uint256)": {
        "details": "See {IERC721-safeTransferFrom}."
      },
      "safeTransferFrom(address,address,uint256,bytes)": {
        "details": "See {IERC721-safeTransferFrom}."
      },
      "setApprovalForAll(address,bool)": {
        "details": "See {IERC721-setApprovalForAll}."
      },
      "supportsInterface(bytes4)": {
        "details": "See {IERC165-supportsInterface}."
      },
      "symbol()": {
        "details": "See {IERC721Metadata-symbol}."
      },
      "tokenURI(uint256)": {
        "details": "See {IERC721Metadata-tokenURI}."
      },
      "transferFrom(address,address,uint256)": {
        "details": "See {IERC721-transferFrom}."
      },
      "transferOwnership(address)": {
        "details": "Transfers ownership of the contract to a new account (`newOwner`). Can only be called by the current owner."
      }
    },
    "version": 1
  },
  "userdoc": {
    "kind": "user",
    "methods": {},
    "version": 1
  }
}