{
  "contractName": "PullPaymentMock",
  "abi": [
    {
      "inputs": [],
      "stateMutability": "payable",
      "type": "constructor"
    },
    {
      "inputs": [
        {
          "internalType": "address",
          "name": "dest",
          "type": "address"
        }
      ],
      "name": "payments",
      "outputs": [
        {
          "internalType": "uint256",
          "name": "",
          "type": "uint256"
        }
      ],
      "stateMutability": "view",
      "type": "function"
    },
    {
      "inputs": [
        {
          "internalType": "address payable",
          "name": "payee",
          "type": "address"
        }
      ],
      "name": "withdrawPayments",
      "outputs": [],
      "stateMutability": "nonpayable",
      "type": "function"
    },
    {
      "inputs": [
        {
          "internalType": "address",
          "name": "dest",
          "type": "address"
        },
        {
          "internalType": "uint256",
          "name": "amount",
          "type": "uint256"
        }
      ],
      "name": "callTransfer",
      "outputs": [],
      "stateMutability": "nonpayable",
      "type": "function"
    }
  ],
  "bytecode": "0x60a060405260405161001090610068565b604051809103906000f08015801561002c573d6000803e3d6000fd5b5073ffffffffffffffffffffffffffffffffffffffff1660808173ffffffffffffffffffffffffffffffffffffffff1660601b81525050610075565b610d768061057e83390190565b60805160601c6104de6100a06000396000818160b00152818161014e01526101fe01526104de6000f3fe608060405234801561001057600080fd5b50600436106100415760003560e01c806331b3eb9414610046578063d444099114610062578063e2982c211461007e575b600080fd5b610060600480360381019061005b9190610309565b6100ae565b005b61007c60048036038101906100779190610332565b61013c565b005b610098600480360381019061009391906102e0565b61014a565b6040516100a591906103fa565b60405180910390f35b7f000000000000000000000000000000000000000000000000000000000000000073ffffffffffffffffffffffffffffffffffffffff166351cff8d9826040518263ffffffff1660e01b815260040161010791906103df565b600060405180830381600087803b15801561012157600080fd5b505af1158015610135573d6000803e3d6000fd5b5050505050565b61014682826101fc565b5050565b60007f000000000000000000000000000000000000000000000000000000000000000073ffffffffffffffffffffffffffffffffffffffff1663e3a9db1a836040518263ffffffff1660e01b81526004016101a591906103c4565b60206040518083038186803b1580156101bd57600080fd5b505afa1580156101d1573d6000803e3d6000fd5b505050506040513d601f19601f820116820180604052508101906101f5919061036e565b9050919050565b7f000000000000000000000000000000000000000000000000000000000000000073ffffffffffffffffffffffffffffffffffffffff1663f340fa0182846040518363ffffffff1660e01b815260040161025691906103c4565b6000604051808303818588803b15801561026f57600080fd5b505af1158015610283573d6000803e3d6000fd5b50505050505050565b60008135905061029b81610463565b92915050565b6000813590506102b08161047a565b92915050565b6000813590506102c581610491565b92915050565b6000815190506102da81610491565b92915050565b6000602082840312156102f257600080fd5b60006103008482850161028c565b91505092915050565b60006020828403121561031b57600080fd5b6000610329848285016102a1565b91505092915050565b6000806040838503121561034557600080fd5b60006103538582860161028c565b9250506020610364858286016102b6565b9150509250929050565b60006020828403121561038057600080fd5b600061038e848285016102cb565b91505092915050565b6103a081610427565b82525050565b6103af81610415565b82525050565b6103be81610459565b82525050565b60006020820190506103d960008301846103a6565b92915050565b60006020820190506103f46000830184610397565b92915050565b600060208201905061040f60008301846103b5565b92915050565b600061042082610439565b9050919050565b600061043282610439565b9050919050565b600073ffffffffffffffffffffffffffffffffffffffff82169050919050565b6000819050919050565b61046c81610415565b811461047757600080fd5b50565b61048381610427565b811461048e57600080fd5b50565b61049a81610459565b81146104a557600080fd5b5056fea26469706673582212207969c7d7d7e85882aa28c99a4db6bde0f9a5bba7126628983e9aba318a6f10b564736f6c63430008030033608060405234801561001057600080fd5b5060006100216100c460201b60201c565b9050806000806101000a81548173ffffffffffffffffffffffffffffffffffffffff021916908373ffffffffffffffffffffffffffffffffffffffff1602179055508073ffffffffffffffffffffffffffffffffffffffff16600073ffffffffffffffffffffffffffffffffffffffff167f8be0079c531659141344cd1fd0a4f28419497f9722a3daafe3b4186f6b6457e060405160405180910390a3506100cc565b600033905090565b610c9b806100db6000396000f3fe6080604052600436106100555760003560e01c806351cff8d91461005a578063715018a6146100835780638da5cb5b1461009a578063e3a9db1a146100c5578063f2fde38b14610102578063f340fa011461012b575b600080fd5b34801561006657600080fd5b50610081600480360381019061007c9190610894565b610147565b005b34801561008f57600080fd5b506100986102c7565b005b3480156100a657600080fd5b506100af610401565b6040516100bc919061099f565b60405180910390f35b3480156100d157600080fd5b506100ec60048036038101906100e7919061086b565b61042a565b6040516100f99190610a3a565b60405180910390f35b34801561010e57600080fd5b506101296004803603810190610124919061086b565b610473565b005b6101456004803603810190610140919061086b565b61061c565b005b61014f610745565b73ffffffffffffffffffffffffffffffffffffffff1661016d610401565b73ffffffffffffffffffffffffffffffffffffffff16146101c3576040517f08c379a00000000000000000000000000000000000000000000000000000000081526004016101ba90610a1a565b60405180910390fd5b6000600160008373ffffffffffffffffffffffffffffffffffffffff1673ffffffffffffffffffffffffffffffffffffffff1681526020019081526020016000205490506000600160008473ffffffffffffffffffffffffffffffffffffffff1673ffffffffffffffffffffffffffffffffffffffff16815260200190815260200160002081905550610275818373ffffffffffffffffffffffffffffffffffffffff1661074d90919063ffffffff16565b8173ffffffffffffffffffffffffffffffffffffffff167f7084f5476618d8e60b11ef0d7d3f06914655adb8793e28ff7f018d4c76d505d5826040516102bb9190610a3a565b60405180910390a25050565b6102cf610745565b73ffffffffffffffffffffffffffffffffffffffff166102ed610401565b73ffffffffffffffffffffffffffffffffffffffff1614610343576040517f08c379a000000000000000000000000000000000000000000000000000000000815260040161033a90610a1a565b60405180910390fd5b600073ffffffffffffffffffffffffffffffffffffffff1660008054906101000a900473ffffffffffffffffffffffffffffffffffffffff1673ffffffffffffffffffffffffffffffffffffffff167f8be0079c531659141344cd1fd0a4f28419497f9722a3daafe3b4186f6b6457e060405160405180910390a360008060006101000a81548173ffffffffffffffffffffffffffffffffffffffff021916908373ffffffffffffffffffffffffffffffffffffffff160217905550565b60008060009054906101000a900473ffffffffffffffffffffffffffffffffffffffff16905090565b6000600160008373ffffffffffffffffffffffffffffffffffffffff1673ffffffffffffffffffffffffffffffffffffffff168152602001908152602001600020549050919050565b61047b610745565b73ffffffffffffffffffffffffffffffffffffffff16610499610401565b73ffffffffffffffffffffffffffffffffffffffff16146104ef576040517f08c379a00000000000000000000000000000000000000000000000000000000081526004016104e690610a1a565b60405180910390fd5b600073ffffffffffffffffffffffffffffffffffffffff168173ffffffffffffffffffffffffffffffffffffffff16141561055f576040517f08c379a0000000000000000000000000000000000000000000000000000000008152600401610556906109ba565b60405180910390fd5b8073ffffffffffffffffffffffffffffffffffffffff1660008054906101000a900473ffffffffffffffffffffffffffffffffffffffff1673ffffffffffffffffffffffffffffffffffffffff167f8be0079c531659141344cd1fd0a4f28419497f9722a3daafe3b4186f6b6457e060405160405180910390a3806000806101000a81548173ffffffffffffffffffffffffffffffffffffffff021916908373ffffffffffffffffffffffffffffffffffffffff16021790555050565b610624610745565b73ffffffffffffffffffffffffffffffffffffffff16610642610401565b73ffffffffffffffffffffffffffffffffffffffff1614610698576040517f08c379a000000000000000000000000000000000000000000000000000000000815260040161068f90610a1a565b60405180910390fd5b600034905080600160008473ffffffffffffffffffffffffffffffffffffffff1673ffffffffffffffffffffffffffffffffffffffff16815260200190815260200160002060008282546106ec9190610a71565b925050819055508173ffffffffffffffffffffffffffffffffffffffff167f2da466a7b24304f47e87fa2e1e5a81b9831ce54fec19055ce277ca2f39ba42c4826040516107399190610a3a565b60405180910390a25050565b600033905090565b80471015610790576040517f08c379a0000000000000000000000000000000000000000000000000000000008152600401610787906109fa565b60405180910390fd5b60008273ffffffffffffffffffffffffffffffffffffffff16826040516107b69061098a565b60006040518083038185875af1925050503d80600081146107f3576040519150601f19603f3d011682016040523d82523d6000602084013e6107f8565b606091505b505090508061083c576040517f08c379a0000000000000000000000000000000000000000000000000000000008152600401610833906109da565b60405180910390fd5b505050565b60008135905061085081610c37565b92915050565b60008135905061086581610c4e565b92915050565b60006020828403121561087d57600080fd5b600061088b84828501610841565b91505092915050565b6000602082840312156108a657600080fd5b60006108b484828501610856565b91505092915050565b6108c681610ac7565b82525050565b60006108d9602683610a60565b91506108e482610b44565b604082019050919050565b60006108fc603a83610a60565b915061090782610b93565b604082019050919050565b600061091f601d83610a60565b915061092a82610be2565b602082019050919050565b6000610942602083610a60565b915061094d82610c0b565b602082019050919050565b6000610965600083610a55565b915061097082610c34565b600082019050919050565b61098481610b0b565b82525050565b600061099582610958565b9150819050919050565b60006020820190506109b460008301846108bd565b92915050565b600060208201905081810360008301526109d3816108cc565b9050919050565b600060208201905081810360008301526109f3816108ef565b9050919050565b60006020820190508181036000830152610a1381610912565b9050919050565b60006020820190508181036000830152610a3381610935565b9050919050565b6000602082019050610a4f600083018461097b565b92915050565b600081905092915050565b600082825260208201905092915050565b6000610a7c82610b0b565b9150610a8783610b0b565b9250827fffffffffffffffffffffffffffffffffffffffffffffffffffffffffffffffff03821115610abc57610abb610b15565b5b828201905092915050565b6000610ad282610aeb565b9050919050565b6000610ae482610aeb565b9050919050565b600073ffffffffffffffffffffffffffffffffffffffff82169050919050565b6000819050919050565b7f4e487b7100000000000000000000000000000000000000000000000000000000600052601160045260246000fd5b7f4f776e61626c653a206e6577206f776e657220697320746865207a65726f206160008201527f6464726573730000000000000000000000000000000000000000000000000000602082015250565b7f416464726573733a20756e61626c6520746f2073656e642076616c75652c207260008201527f6563697069656e74206d61792068617665207265766572746564000000000000602082015250565b7f416464726573733a20696e73756666696369656e742062616c616e6365000000600082015250565b7f4f776e61626c653a2063616c6c6572206973206e6f7420746865206f776e6572600082015250565b50565b610c4081610ac7565b8114610c4b57600080fd5b50565b610c5781610ad9565b8114610c6257600080fd5b5056fea2646970667358221220150f04dbb02a99a527b8631f792dc891312061260110db77de25bbd415d1523e64736f6c63430008030033",
  "immutableReferences": {
    "11062": [
      {
        "length": 32,
        "start": 176
      },
      {
        "length": 32,
        "start": 334
      },
      {
        "length": 32,
        "start": 510
      }
    ]
  },
  "source": "// SPDX-License-Identifier: MIT\r\n\r\npragma solidity ^0.8.0;\r\n\r\nimport \"../security/PullPayment.sol\";\r\n\r\n// mock class using PullPayment\r\ncontract PullPaymentMock is PullPayment {\r\n    constructor () payable { }\r\n\r\n    // test helper function to call asyncTransfer\r\n    function callTransfer(address dest, uint256 amount) public {\r\n        _asyncTransfer(dest, amount);\r\n    }\r\n}\r\n",
  "sourcePath": "D:/Code/NFTrees/contracts/OpenZepplin/mocks/PullPaymentMock.sol",
  "compiler": {
    "name": "solc",
    "version": "0.8.3+commit.8d00100c.Emscripten.clang"
  },
  "schemaVersion": "3.4.1",
  "updatedAt": "2021-05-22T22:20:35.444Z",
  "devdoc": {
    "kind": "dev",
    "methods": {
      "payments(address)": {
        "details": "Returns the payments owed to an address.",
        "params": {
          "dest": "The creditor's address."
        }
      },
      "withdrawPayments(address)": {
        "details": "Withdraw accumulated payments, forwarding all gas to the recipient. Note that _any_ account can call this function, not just the `payee`. This means that contracts unaware of the `PullPayment` protocol can still receive funds this way, by having a separate account call {withdrawPayments}. WARNING: Forwarding all gas opens the door to reentrancy vulnerabilities. Make sure you trust the recipient, or are either following the checks-effects-interactions pattern or using {ReentrancyGuard}.",
        "params": {
          "payee": "Whose payments will be withdrawn."
        }
      }
    },
    "version": 1
  },
  "userdoc": {
    "kind": "user",
    "methods": {},
    "version": 1
  }
}