{
  "contractName": "SignatureCheckerMock",
  "abi": [
    {
      "inputs": [
        {
          "internalType": "address",
          "name": "signer",
          "type": "address"
        },
        {
          "internalType": "bytes32",
          "name": "hash",
          "type": "bytes32"
        },
        {
          "internalType": "bytes",
          "name": "signature",
          "type": "bytes"
        }
      ],
      "name": "isValidSignatureNow",
      "outputs": [
        {
          "internalType": "bool",
          "name": "",
          "type": "bool"
        }
      ],
      "stateMutability": "view",
      "type": "function"
    }
  ],
  "bytecode": "0x608060405234801561001057600080fd5b50610a8c806100206000396000f3fe608060405234801561001057600080fd5b506004361061002b5760003560e01c80636ccea65214610030575b600080fd5b61004a600480360381019061004591906104d8565b610060565b604051610057919061065a565b60405180910390f35b600061008d83838673ffffffffffffffffffffffffffffffffffffffff166100969092919063ffffffff16565b90509392505050565b60006100a1846101c9565b15610187578373ffffffffffffffffffffffffffffffffffffffff16631626ba7e84846040518363ffffffff1660e01b81526004016100e1929190610675565b60206040518083038186803b1580156100f957600080fd5b505afa92505050801561012a57506040513d601f19601f82011682018060405250810190610127919061053f565b60015b61013757600090506101c2565b631626ba7e60e01b7bffffffffffffffffffffffffffffffffffffffffffffffffffffffff1916817bffffffffffffffffffffffffffffffffffffffffffffffffffffffff1916149150506101c2565b8373ffffffffffffffffffffffffffffffffffffffff166101a884846101dc565b73ffffffffffffffffffffffffffffffffffffffff161490505b9392505050565b600080823b905060008111915050919050565b600080600080604185511415610209576020850151925060408501519150606085015160001a905061028f565b604085511415610253576040850151602086015193507f7fffffffffffffffffffffffffffffffffffffffffffffffffffffffffffffff81169250601b8160ff1c0191505061028e565b6040517f08c379a00000000000000000000000000000000000000000000000000000000081526004016102859061070a565b60405180910390fd5b5b61029b868285856102a6565b935050505092915050565b60007f7fffffffffffffffffffffffffffffff5d576e7357a4501ddfe92f46681b20a08260001c111561030e576040517f08c379a00000000000000000000000000000000000000000000000000000000081526004016103059061072a565b60405180910390fd5b601b8460ff1614806103235750601c8460ff16145b610362576040517f08c379a00000000000000000000000000000000000000000000000000000000081526004016103599061074a565b60405180910390fd5b60006001868686866040516000815260200160405260405161038794939291906106a5565b6020604051602081039080840390855afa1580156103a9573d6000803e3d6000fd5b505050602060405103519050600073ffffffffffffffffffffffffffffffffffffffff168173ffffffffffffffffffffffffffffffffffffffff161415610425576040517f08c379a000000000000000000000000000000000000000000000000000000000815260040161041c906106ea565b60405180910390fd5b80915050949350505050565b600061044461043f8461078f565b61076a565b90508281526020810184848401111561045c57600080fd5b61046784828561086e565b509392505050565b60008135905061047e81610a11565b92915050565b60008135905061049381610a28565b92915050565b6000815190506104a881610a3f565b92915050565b600082601f8301126104bf57600080fd5b81356104cf848260208601610431565b91505092915050565b6000806000606084860312156104ed57600080fd5b60006104fb8682870161046f565b935050602061050c86828701610484565b925050604084013567ffffffffffffffff81111561052957600080fd5b610535868287016104ae565b9150509250925092565b60006020828403121561055157600080fd5b600061055f84828501610499565b91505092915050565b610571816107ff565b82525050565b6105808161080b565b82525050565b6000610591826107c0565b61059b81856107cb565b93506105ab81856020860161087d565b6105b481610910565b840191505092915050565b60006105cc6018836107dc565b91506105d782610921565b602082019050919050565b60006105ef601f836107dc565b91506105fa8261094a565b602082019050919050565b60006106126022836107dc565b915061061d82610973565b604082019050919050565b60006106356022836107dc565b9150610640826109c2565b604082019050919050565b61065481610861565b82525050565b600060208201905061066f6000830184610568565b92915050565b600060408201905061068a6000830185610577565b818103602083015261069c8184610586565b90509392505050565b60006080820190506106ba6000830187610577565b6106c7602083018661064b565b6106d46040830185610577565b6106e16060830184610577565b95945050505050565b60006020820190508181036000830152610703816105bf565b9050919050565b60006020820190508181036000830152610723816105e2565b9050919050565b6000602082019050818103600083015261074381610605565b9050919050565b6000602082019050818103600083015261076381610628565b9050919050565b6000610774610785565b905061078082826108b0565b919050565b6000604051905090565b600067ffffffffffffffff8211156107aa576107a96108e1565b5b6107b382610910565b9050602081019050919050565b600081519050919050565b600082825260208201905092915050565b600082825260208201905092915050565b60006107f882610841565b9050919050565b60008115159050919050565b6000819050919050565b60007fffffffff0000000000000000000000000000000000000000000000000000000082169050919050565b600073ffffffffffffffffffffffffffffffffffffffff82169050919050565b600060ff82169050919050565b82818337600083830152505050565b60005b8381101561089b578082015181840152602081019050610880565b838111156108aa576000848401525b50505050565b6108b982610910565b810181811067ffffffffffffffff821117156108d8576108d76108e1565b5b80604052505050565b7f4e487b7100000000000000000000000000000000000000000000000000000000600052604160045260246000fd5b6000601f19601f8301169050919050565b7f45434453413a20696e76616c6964207369676e61747572650000000000000000600082015250565b7f45434453413a20696e76616c6964207369676e6174757265206c656e67746800600082015250565b7f45434453413a20696e76616c6964207369676e6174757265202773272076616c60008201527f7565000000000000000000000000000000000000000000000000000000000000602082015250565b7f45434453413a20696e76616c6964207369676e6174757265202776272076616c60008201527f7565000000000000000000000000000000000000000000000000000000000000602082015250565b610a1a816107ed565b8114610a2557600080fd5b50565b610a318161080b565b8114610a3c57600080fd5b50565b610a4881610815565b8114610a5357600080fd5b5056fea2646970667358221220fd89e875f8ab6eb7b9023299def3fd7c5874dc9cc4f7e53fc8fbcc1e3363e38564736f6c63430008030033",
  "immutableReferences": {},
  "source": "// SPDX-License-Identifier: MIT\r\n\r\npragma solidity ^0.8.0;\r\n\r\nimport \"../utils/cryptography/SignatureChecker.sol\";\r\n\r\ncontract SignatureCheckerMock {\r\n    using SignatureChecker for address;\r\n\r\n    function isValidSignatureNow(address signer, bytes32 hash, bytes memory signature) public view returns (bool) {\r\n        return signer.isValidSignatureNow(hash, signature);\r\n    }\r\n}\r\n",
  "sourcePath": "D:/Code/NFTrees/contracts/OpenZepplin/mocks/SignatureCheckerMock.sol",
  "compiler": {
    "name": "solc",
    "version": "0.8.3+commit.8d00100c.Emscripten.clang"
  },
  "schemaVersion": "3.4.1",
  "updatedAt": "2021-05-22T22:20:35.599Z",
  "devdoc": {
    "kind": "dev",
    "methods": {},
    "version": 1
  },
  "userdoc": {
    "kind": "user",
    "methods": {},
    "version": 1
  }
}